:020000040800F2
:1000000000100020F9530008495400084954000822
:1000100000000000000000000000000000000000E0
:10002000000000000000000000000000495400082B
:1000300000000000000000004954000817430008B9
:10004000495400084954000849540008495400081C
:1000500049540008AD430008BD430008CD430008E3
:100060000000000049540008495400080000000046
:1000700049540008054100081D4100080000000027
:100080002541000849540008000000003D410008D7
:1000900000000000554100086D4100084954000867
:1000A0000000000049540008495400088D4C000825
:1000B000A54C0008000000004954000800000000A2
:1000C00005B508461A460ABDC20D4002400A012481
:1000D000E4052043FF2AD2B200D94042013AFE2A69
:1000E00001D27E3A70470028204600D540427E3A31
:1000F000920080327047C40FE40704D5002D00D071
:100100000130404203D4013A001812D0FBD58132AD
:1001100001D1803005D2803003D2002D0FD04000B5
:10012000013AFE2A06DA013207DD400AD205104301
:1001300020437047FF20C005FAE7002070470506FE
:10014000EDD1400A8002EBE783B20C146343041440
:100150008DB26C431B1984B26C432504240C1B190B
:10016000001409144843C002D9060D435911401820
:1001700070474200120E01D0FF2A01D1C00DC00508
:100180004A00120E01D0FF2A01D1C90DC905012272
:10019000414009D4414000D55242884202DC00DB94
:1001A00000225242101E704701434918F8D000281F
:1001B000F8DAF6E7002110B5FFF786FF1300823367
:1001C00010D40A44173A07DB072A19DDC117C943BF
:1001D0000120C007484010BD5242202A00DB2022E7
:1001E000104110BD002010BD002110B5FFF76CFFBD
:1001F0000A440100EED4173AEEDBC143082AE9DCD9
:10020000904010BD002230B5002906D5CD0705432A
:100210004808013A10E0002230B505000D4315D022
:10022000CD170C16AC4205D1C901440E2143C001C3
:100230000732F6E70500080052423D3204E0002193
:1002400030B51D22521A0025FFF755FF30BD0021A1
:1002500030B50028F5DA1E22521AC5074008F3E728
:100260000025A4460DE0002902DC05E0002A03DA9F
:10027000891B7F42121901E08919121B64466743EA
:10028000C01B10CB640800D2013506462E410F4634
:100290002F4164087047C0B5FFF7E2FFFFF7E6FFA4
:1002A000FCD386138F13D2105643574364466743DB
:1002B00036133F13C01B8919C0BDC0B5FFF7D0FF6F
:1002C000FFF7D1FFFCD3002902DC8919121B01E0E2
:1002D000891B121976106410F5D1EDE7114A5140CF
:1002E00070B5C4174200120E55D0FF2A56D0CD1754
:1002F0004B001B0E55D0FF2B56D00B4E30403140DB
:1003000001363043314360406940001B491B9D1A50
:10031000D41A11D41E2C0CDA203513000A00AA407E
:1003200021410FE000000080FFFF7F000022080055
:100330000AE01300002207E01E2DF7DA2034020045
:10034000A2402841401819D0C10F03D0C0435242E7
:1003500000D10130B619B04204D292184041013B9D
:10036000B042FAD3400802D30130002A09D0FE2B54
:100370000AD2C9070844DB05184470BD002AFCD026
:10038000E2E740084000F2E701DAC80770BD080262
:10039000FF30C00570BD203A1219A8E712022244AE
:1003A000A5E7203B5B19A8E71B022B44A5E7C04645
:1003B00080B502464A40D20FD20796464000490017
:1003C000020E3DD0FF2A3CD00B0E3CD0FF2B3BD081
:1003D000D718803F00020902400A490A4218944691
:1003E000C209CB095A434843920C02D3002800D4D7
:1003F00001324302C00D520280186044C10D0ED17B
:10040000FE2F2BD25B0001D305D001300137FF0551
:100410003844704480BD013040084000F6E70137A1
:10042000FE2F13D2400802D30130002B05D0FF1954
:100430000137BF053844704480BD40084000F6E7EE
:10044000103A1202C0E7103B1B02C1E712DA013773
:100450000ED10230C00D03280AD105E00ADA0137B7
:1004600006D10130C00D03D00120C005704480BD0D
:10047000704680BDFF20C005704480BD70B501246A
:10048000E4054A02520A2243930C25A5EB5C550170
:100490005D43AD13EE127643AD1B5D431E026D133B
:1004A00001356D10751BC60DF3B24002400A2043A2
:1004B000C90D4E40360AF607C9B2002930D0FF29CF
:1004C0002CD0002B39D0FF2B2AD05B1A7D33010AA8
:1004D0006943090CC00314004C43041BA4126C4371
:1004E0002414490309190C0F08D105310C090FD345
:1004F000C90880025143401A0AD408E00133093187
:100500004C0905D3090940025143401A00D4013473
:10051000FE2B09D2D9056018801970BDFF2B0CD1B4
:10052000FF20C005304370BDFADA591C05D1610EB9
:1005300003D30120C005304370BD300070BDC046FC
:10054000FCF5EDE7E0DAD5CFCAC5C1BCB8B4B0ACB4
:10055000A9A5A29F9C999694918E8C8A8785838168
:1005600010B441003AD20902490A0122D205891881
:10057000C20D3AD0FF2A36D07D32521000D3490046
:100580001AA44B0DE45CC809604360430013604348
:1005900040132402241AAA3420004043C00B0B0A43
:1005A0005843001360434015241A6343DB0B1800C3
:1005B00040434902081A40114443DB01E013103064
:1005C0008011034406D31C46644164430904091B9B
:1005D00000D40133D205D01810BC7047090E04D0E6
:1005E000C017C005F8E7C00DFBE7C00FC007F3E771
:1005F000F1DAC9BBB0A69E97918B8682F0B5012433
:10060000E407634001E0C046F0B50C0DCF0F661E55
:100610003605891B640503D3C943404200D3013129
:10062000640D03D0661CF60A07D0E41B00207F008F
:10063000791C89078912803C24031D0DDF0F6E1E73
:1006400036059B1B6D0503D3DB43524200D30133B8
:100650006D0D03D06E1CF60A07D0ED1B00227F0043
:100660007B1C9B079B12803D2D032F1B661B58D4C0
:10067000A446202E46DA20371400BC401D00BD40A1
:10068000F24033412A4380185941CB0F05D0C9436A
:10069000C043002264425041514162464D0D28D171
:1006A0000D0D07D100281FD0241940414941013ABE
:1006B0000D0DF9D0640006D3013000D30131002CB8
:1006C00001D140084000013A0BD4941CE40A04D143
:1006D00012051144DB071944F0BDD907204B19431B
:1006E00000E0D9070020F0BD0029DDD1002CDBD1CE
:1006F000F0BD0132C6074008CD0728434908002E47
:10070000E1D0D9E73C2E29DA203E40371400BC4026
:1007100000D00124F24014431A00BB401C43D317FD
:10072000ACE7AC46202F08DA20360400B4400D00B8
:10073000B540F84039412843A5E73C2F0CDA203F6B
:1007400040360400B44000D00124F84004430800BF
:10075000B1400C43C117EAE710001900002494E7E8
:100760000000F07FF0B50C0D661E3605891BE60A09
:100770006405640D02D0651CED0A04D0002001213F
:100780000905803C2403A4461C0D671E3F05DB1BA6
:10079000E70A6405640D02D0651CED0A04D000224E
:1007A00001231B05803C24037740644497B484B242
:1007B00096B27443070C7E43150C6F4380B26843B6
:1007C000361802D3012000043F183004350C0019FC
:1007D0007D41844688B29AB250430C0C62431F0C90
:1007E0007C438EB27E43921902D301263604A419AB
:1007F0001604170C3618674101BC81B29AB25143F6
:10080000040C62431B0C5C4380B25843121802D3A1
:100810000120000424181004130C401863412D1803
:100820005E410020474106BC88B293B258430C0C8D
:100830006343120C544389B251435B1802D3012124
:100840000904641819041A0C091862416D185641FC
:100850000020474118BCF902720D1143F0026A0DE5
:100860001043ED020A0D03D16D1940414941013B8E
:10087000124E9B1B7600B3420ED26D0007D301309F
:10088000002671416646354301D1400840001B05F2
:10089000C918E4072144F0BD0BDA013306D1013059
:1008A00004D101314F0D01D04908F2E7E1070020E2
:1008B000F0BD013631050020EBE70000FF0300002A
:1008C000F0B51C0D671E3F05DB1BE70A6405640DD0
:1008D00002D0661CF60A04D0002201231B05803CCE
:1008E0002403CE0FF619B44649004F0D02D07E1CEA
:1008F000F60A03D000200021403F3F033E1BB60014
:10090000B444013F7F05C91B4908DC0BA94D2C5D90
:100910001D026543AD13EE127643AD1B6543E60140
:10092000AD1301356D10761B9C02950D2543754363
:10093000ED137543AD1301356D10F603761B0CB442
:10094000CC02450D2C43A2B2B3B25A43270C7B43D1
:10095000350C6F43A4B26C431B1902D30124240449
:100960003F191C041D0CA4187D4124196D41009AE7
:1009700091B2ACB26143170C7C432B0C5F4392B233
:100980005A43A41802D301221204BF182204230CD4
:1009900052187B41019C6C431B19520ED9010A432A
:1009A0004401A01A81B2B2B2514303145A43360C27
:1009B000734387B27743D617D21900277E41360496
:1009C0009B191704160C7F185E417316ED18F3017E
:1009D000002680337541A90F06D16400690AE80535
:1009E0005B0A184309D22FE00422944480337541F6
:1009F000A90AA8059B0A184326D34041494124046B
:100A0000009A019B0D005543641B4343E41A95B2C1
:100A100086B27543170C7E43030C5F4392B25A4370
:100A2000B61802D301221204BF183204330C521933
:100A30007B4152429C41002C02D4002201305141A2
:100A40004008CA071043490802B06246D70792100F
:100A5000594BD218594B9A4203D212058918C91919
:100A6000F0BD0020002A01DC3900F0BD013319057A
:100A7000F5E707DA002107E0C90FC907520D03D0D7
:100A8000C91201E04E490905002070474A00F3D21F
:100A9000520D013A494B9A42EBD2F0B51405091BAD
:100AA000520801D3001849419B08D21812059446F8
:100AB00042A44A0CA25C0B09534353431B135343F8
:100AC0005B131202D21A13005B435B0B4C086343A7
:100AD000DB135343DB1501335B10D21A130CD21A0C
:100AE00013005B438902840D21438DB29EB275438E
:100AF0000F0C7E431B0C5F438CB25C43361902D350
:100B0000012424043F193404330C64197B419D01F2
:100B1000A40E2C432034A5B25543241454432D0C69
:100B20006419A411D203121B95B28EB27543170C2F
:100B30007E430C0C674393B26343F61802D3012340
:100B40001B04FF183304340C5B197C41DB1864412F
:100B5000DB18002363419EB276439DB21F0C7D4398
:100B60007F436C04ED0BA4197D4106028F08361BF0
:100B7000AF417D07F6086E41B4B295B26C433714AD
:100B80007D43120C5743B6B25643EA17AD190026FF
:100B900072411204BF182E042A0C36197A41083209
:100BA00052111BD29D0A9C05D1171019694161444D
:100BB000F0BD000020050008FD030000FE07000056
:100BC000FF070000F8EBDFD6CDC5BEB8B2ADA8A4D4
:100BD000A09C9995928F8D8A8885838152415D0A68
:100BE000DC05D11714194D412B006343A6B276439F
:100BF000A2B2270C7A437F435104D20B89197A4160
:100C0000D218D21880054942904102D40023013401
:100C10005D4160086908ED0728436144F0BDD0B527
:100C2000B34F4C00640D01D0BC4202D10020090D2D
:100C300009055C00640D01D0BC4202D100221B0DED
:100C40001B0501264B400CD44B4000D576429942FF
:100C500003D1904203D801D3002600DC7642301E37
:100C6000D0BD0B43DB1803431343F5D00029F6DA5C
:100C7000F4E744464D4656465F46F0B47047F0BC34
:100C8000A046A946B246BB467047624618CA94467B
:100C90005A46002A20DB04E0624618CA944600291E
:100CA0001ADAC01861415B463B415C46B44052468B
:100CB000FA40224344464D4662416B419046994674
:100CC0002B46B3403D41FC401C4352465B46A2418B
:100CD000AB4192469B467047C01AA1414B463B41EF
:100CE0004C46B4404246FA40224354465D46624177
:100CF0006B4192469B462B46B3403D41FC401C4312
:100D000042464B46A241AB4190469946704700206F
:100D100000217047002200B5203200F02AF80800B8
:100D200000BD002200B5203200F030F8080000BD00
:100D3000002100B500F004F81EE00021C315E6D440
:100D400010B58C46C3174000020E0AD0FF2A0CD003
:100D5000511E7F3A0906401A5840C01A0111000777
:100D60001FE000200100030010BDD843D94310BD8F
:100D7000002200B500F00CF8CA179A4200D100BD5D
:100D8000D8430121C907414000BD00220B15BED444
:100D900010B5944600F0B8F81414013400DA0021BC
:100DA000CB176244343A0CD40C2A07DA0400914081
:100DB000904052422032D440214310BDD843D94301
:100DC00010BD203207D40C469440524220321141CB
:100DD000D040204310BD0800C917203203D452422E
:100DE0002032104110BD1800190010BDC30FDB07E1
:100DF00041000A0E07D0FF2A08D009093D4A891888
:100E00001943400770471900002070473A49C91834
:100E1000FAE74A00520D394BD21A13DDFF2A1EDAC7
:100E2000D205CB0FDB071A43C300400F0903490A61
:100E3000084310435B0001D301D0013070474308E1
:100E4000FBD2704702D0C80FC00770470A031213C5
:100E50000132F8D1420F072AF5D1012200E0FF222A
:100E6000C80F00028018C005704700210A00002149
:100E700004E000210A00C11703E00022002305E07E
:100E80000022CB1758405940C01A994130B51C4C2C
:100E9000A21A002903D1010010D00020203A4C15DD
:100EA00012D104D2013A001849414C0DFAD3154C25
:100EB000A24204D212058918DB07C91830BDD243FB
:100EC000520D00200021F5E703D4013A00184941F2
:100ED000FBD50B324405C00A4D052843C90A6400FE
:100EE00003D0002460416141E1E7E0D34408F8E722
:100EF000FF070000000000380000F07F80030000C2
:100F000032040000FE0700000A0DCC0F531E1B0523
:100F1000C91A520503D3C943404200D30131520DCF
:100F200003D0531CDB0A07D0121B00206400611C95
:100F300089078912803A1203014BD21A70470000C8
:100F4000FF03000002B4714649084900095C4900EA
:100F50008E4402BC7047C046002243088B4274D3C3
:100F600003098B425FD3030A8B4244D3030B8B42AA
:100F700028D3030C8B420DD3FF22090212BA030CB3
:100F80008B4202D31212090265D0030B8B4219D394
:100F900000E0090AC30B8B4201D3CB03C01A5241B4
:100FA000830B8B4201D38B03C01A5241430B8B42FC
:100FB00001D34B03C01A5241030B8B4201D30B03E5
:100FC000C01A5241C30A8B4201D3CB02C01A52410C
:100FD000830A8B4201D38B02C01A5241430A8B42CF
:100FE00001D34B02C01A5241030A8B4201D30B02B8
:100FF000C01A5241CDD2C3098B4201D3CB01C01AD2
:10100000524183098B4201D38B01C01A52414309DB
:101010008B4201D34B01C01A524103098B4201D3C9
:101020000B01C01A5241C3088B4201D3CB00C01A36
:10103000524183088B4201D38B00C01A52414308AE
:101040008B4201D34B00C01A5241411A00D20146D3
:10105000524110467047FFE701B5002000F0F0F85C
:1010600002BDC0460029F7D076E7704703460B4320
:101070007FD4002243088B4274D303098B425FD391
:10108000030A8B4244D3030B8B4228D3030C8B42BD
:101090000DD3FF22090212BA030C8B4202D31212A3
:1010A000090265D0030B8B4219D300E0090AC30B78
:1010B0008B4201D3CB03C01A5241830B8B4201D325
:1010C0008B03C01A5241430B8B4201D34B03C01A0E
:1010D0005241030B8B4201D30B03C01A5241C30A86
:1010E0008B4201D3CB02C01A5241830A8B4201D3F7
:1010F0008B02C01A5241430A8B4201D34B02C01AE1
:101100005241030A8B4201D30B02C01A5241CDD285
:10111000C3098B4201D3CB01C01A524183098B42D0
:1011200001D38B01C01A524143098B4201D34B01B9
:10113000C01A524103098B4201D30B01C01A52411C
:10114000C3088B4201D3CB00C01A524183088B42A3
:1011500001D38B00C01A524143088B4201D34B008C
:10116000C01A5241411A00D20146524110467047FE
:101170005DE0CA0F00D04942031000D34042534003
:1011800000229C4603098B422DD3030A8B4212D3C3
:10119000FC22890112BA030A8B420CD389019211F5
:1011A0008B4208D3890192118B4204D389013AD032
:1011B000921100E08909C3098B4201D3CB01C01A07
:1011C000524183098B4201D38B01C01A524143091A
:1011D0008B4201D34B01C01A524103098B4201D308
:1011E0000B01C01A5241C3088B4201D3CB00C01A75
:1011F000524183088B4201D38B00C01A5241D9D28D
:1012000043088B4201D34B00C01A5241411A00D20D
:101210000146634652415B10104601D34042002B09
:1012200000D54942704763465B1000D3404201B588
:10123000002000F005F802BD0029F8D016E770473D
:101240007047C046844608006146FFE71FB503F0BB
:10125000A1FD002801D40021C8421FBD10B503F034
:1012600091FD4042013010BD10B503F093FD002800
:1012700001DB002010BD012010BDC04610B503F0F9
:1012800089FD002801DD002010BD012010BDC046F1
:1012900010B503F07BFD002801DC002010BD01200B
:1012A00010BDC04610B503F071FD002801DA002022
:1012B00010BD012010BDC0461C2101231B04984213
:1012C00001D3000C10391B0A984201D3000A0839D7
:1012D0001B09984201D30009043902A2105C40188E
:1012E0007047C04604030202010101010000000032
:1012F0000000000010B5064C2378002B07D1054BE9
:10130000002B02D0044800E000BF0123237010BD71
:101310007000002000000000505A0008044B10B577
:10132000002B03D00349044800E000BF10BDC046B5
:101330000000000074000020505A000810B5154C41
:10134000237883420BD91B1A0020092B06DD637812
:10135000994208D200205B1A092B0ADC10BD834297
:10136000F5D2C31AF0E7994203D90020C91A092916
:10137000F4DDA3789A4205D201209B1A092B07DCE1
:10138000002005E001209A42E8D9D21A092AF7DDA7
:10139000C0B2E3E75403002010B5002001F04EFC7A
:1013A000154C2070012001F049FC6070022001F012
:1013B00045FCA0700A2811D00421002001F068FC2F
:1013C000042380210120237001F062FC80230A2184
:1013D0000220637001F05CFC0A23A370172001F067
:1013E0002DFC064B042801D8187010BD00211720D1
:1013F000197001F04DFCF8E7840100208C000020FA
:1014000001235B4210B50360030000216C3341608F
:1014100064221970083004F03DFA10BD0368020020
:10142000002B04D141680120062903D17047002018
:10143000591CFBD050680733C01A43425841C0B210
:10144000F4E700000222054B10B51A7004F0A4F86E
:101450000022034B1860034B1A7010BD9800002047
:10146000900000208E0000200322054B10B51A705A
:1014700004F092F80022034B1860034B1A7010BD61
:1014800098000020900000208E0000200A22094BC6
:1014900010B51A70084BF5321A70084B5A32FF32E9
:1014A0001A6004F079F80022054B1860054B1A7099
:1014B00010BDC046980000208F000020940000203E
:1014C000900000208E0000200022024B1A70024B78
:1014D0001A707047980000208E0000200822094BE7
:1014E00010B51A70084BF7321A70084B5A32FF3297
:1014F0001A6004F051F80022054B1860054B1A7071
:1015000010BDC046980000208F00002094000020ED
:10151000900000208E0000200122094B10B51A70A7
:10152000084BFE321A70084B5A32FF321A6004F030
:1015300033F80022054B1860054B1A7010BDC046E9
:10154000980000208F0000209400002090000020D0
:101550008E0000200722094B10B51A70084BF83294
:101560001A70084B5A32FF321A6004F015F8002244
:10157000054B1860054B1A7010BDC046980000203E
:101580008F00002094000020900000208E0000209A
:10159000272337B50E4D009321222800202103F088
:1015A0003BFD0C4C2900200001F01EFA21000A48E6
:1015B00001F033FB01210022084B494219605A60B7
:1015C0006C331A70064B19605A606C331A7037BD51
:1015D000380200202C020020880100201401002085
:1015E000A400002037B5144C2000FFF717FF002897
:1015F00003D12000FFF704FF37BD23006C331B78B5
:10160000002B0DD0062268460C4904F0CDF90025C8
:101610006B460B48595D013503F0E2FB062DF7D10F
:1016200000256368AB42E4DD064B0548595D03F0D5
:10163000D7FB0135F5E7C046A4000020A45A0008F6
:10164000F0050020AC00002070B5802618250402AB
:10165000144309040C43360401230A4834420BD0D6
:10166000F822272100F031FEC046C046013DEDB210
:101670006400002DF0D170BDC022272100F025FEAE
:10168000F4E7C04658030020F0B589B001900291FC
:101690000392FFF753FE00283ED0224E33785B07BB
:1016A0003AD50B24FF277578039839006843FFF774
:1016B000DDFCC3B20298390068430493FFF7D6FCFF
:1016C000C3B20198390068430593FFF7CFFC013C92
:1016D000049A0599C0B2E4B2FFF7B6FF002CE2D13C
:1016E0003B20FA21104E8900B368069375680135D6
:1016F0006843FFF731FC069B0793B3680693079A8C
:10170000069B9A420AD2079A069BEB1A9B18E4188A
:10171000069B0793A042F0D809B0F0BD079B069A3C
:101720009B1AF4E78401002010E000E0F7B5BA4C02
:101730002378002B0AD1B94D287800284DD102001A
:101740000100FFF7A1FF01232B70F7BD0B2B0AD17E
:10175000B24D2878002840D1B14B01005A78FFF7EC
:1017600093FF01232B702378082B18D103F014FF6B
:10177000AC4EAA4D3368C01A952806D92B785A4228
:1017800053412B7003F008FF3060A54B287859783F
:10179000021E02D00A0000210800FFF775FF23781F
:1017A0000A2B1AD103F0F8FE9E4E9C4D3368C01AE6
:1017B000FA235B00984206D32B785A4253412B7090
:1017C00003F0EAFE3060964B2A7858780100002A30
:1017D00001D000221100FFF757FF2378042B1ED100
:1017E000914E3578002D06D12A0029002800FFF7F8
:1017F0004BFF2570A9E703F0CFFE8A4D2B68C01A76
:101800008A4B1B6898420AD3002230781100FFF7F8
:101810003BFF3378053B337003F0BEFE286026782B
:10182000012E36D1804B01931B78002B00D18CE721
:101830007A4D2878002805D1794B02005978FFF7B6
:1018400023FF2E7003F0A8FE764E784F3368C01A3F
:101850003B6898421AD302232B7001333B6003F09C
:101860009BFE3368C01A3B68984212D3019B00204C
:101870001978CA43D2B2FFF707FF019B019A1B7880
:10188000193B137003F088FE306002E02B78022BC6
:10189000E5D02378072B37D1634B01931B78002BBE
:1018A00000D152E75D4D2978002906D15C4B0A0032
:1018B0005878FFF7E9FE01232B7003F06DFE594EB7
:1018C0005A4F3368C01A3B6898421AD302232B70D0
:1018D00001333B6003F060FE3368C01A3B689842F6
:1018E00012D3019B00211878C243D2B2FFF7CCFE7D
:1018F000019B019A1B78193B137003F04DFE306079
:1019000002E02B78022BE5D02378032B41D1434D05
:101910002E78002E13D103F03FFE424F3B68C01AD1
:10192000FA239B00984205D301232B7003F034FE69
:1019300038600AE732003100FF20FFF7A5FE2B7860
:10194000012B13D103F028FE364E3368C01AFA2358
:101950009B00984205D302232B7003F01DFE3060DC
:10196000F3E60022FF211000FFF78EFE2B78022BFA
:101970000FD103F011FE2B4E3368C01AFA239B00DF
:10198000984201D30023E7E70021FF220800FFF778
:101990007BFE2378022B00D0D7E603F0FDFD214C1F
:1019A0001E4D2368C01AFA235B00984206D303F049
:1019B000F3FD2B7820605A4253412B702D78002D77
:1019C00013D103F0E9FD2368C01A03F045FE18495E
:1019D000FEF754FD1749FEF7EBFC03F005FE290066
:1019E000C2B22800FFF750FEAFE603F0D5FD236832
:1019F000C01A03F031FE0E49FEF740FD0D49FEF717
:101A0000D7FC011C0B48FEF769FC03F0EDFD00213B
:101A1000C2B20800E6E7C046980000208E00002011
:101A200084010020900000208F00002094000020FE
:101A30000000FA4300007F43002110B5024B08006C
:101A40005A78FFF721FE10BD8401002010B511283F
:101A50000AD8FFF777FA170D0D0D0D1A0D0D200D91
:101A60000D1D140D0D0D0D0E162805D01B2815D0BB
:101A700010BDFFF751FDFBE7FFF76CFDF8E7FFF73F
:101A80002DFDF5E7FFF720FDF2E7FFF7DBFCEFE7C1
:101A9000FFF7EAFCECE7FFF7F9FCE9E7FFF7CCFF1B
:101AA000E6E70000F0B5A94C012523689FB0002BA4
:101AB00006D1A74B1D702000FFF7A2FC1FB0F0BDA0
:101AC000A37B0E2B1AD1E37B012B02D1207CFFF7E5
:101AD000BDFF01219F4AA04B117002221D001A6018
:101AE00009230EAE083230009C496B60083503F0C4
:101AF0005BFF06CE06C532882A800025A27B182A05
:101B000015D19449944B173A0A70E27301321D00C3
:101B10001A60092392496B600EAE08323000083516
:101B200003F042FF06CE06C532882A802EE0322A14
:101B30000ED1E37B812B75D10121864A864B117032
:101B400002221D001A60092386496B600EAEE4E78D
:101B5000062A2ED12268122A1AD101207D497E4BF5
:101B600008700A211D00196011230EAE30007E4955
:101B70006B6003F019FF3A2304AA9B1800221A8015
:101B80002B00083326CE26C306CE06C3002549E027
:101B9000182A47D101216F4A6F4B11700D220EAEEA
:101BA0001A603000073271491D005A6003F0FCFED4
:101BB000E6E70C2A1CD101206649674B0870052115
:101BC0000EAE19605A606A49121830001D0003F009
:101BD000EBFE02220021352004ABC018083503F0CB
:101BE00059FE07CE07C532882A80B278AA70CDE7A1
:101BF000122A12D10121574A574B117002221D009F
:101C00001A6009230EAE5B49083230006B6003F0A6
:101C1000CBFE052200213220DEE7082A08D000266C
:101C2000522A33D0A37B442B00D0C0E0002567E0CC
:101C3000E37BFF2B18D0632BF4D10121464B454A9F
:101C40001F00117003220EAE1A60300007324A499D
:101C500008375A6003F0A8FE06CE06C73288474B05
:101C60003A800F221A60DDE701213A4A3A4B11709F
:101C700003221A6007321D003F495A600EAE4DE73D
:101C80003F4B3800995D03F0ABF8013663683D4F78
:101C9000B342F5DC002510231E00380003F07EF867
:101CA0003300013E0028F7D0380003F047FB0EA9AF
:101CB00048550135002EF0D10122264B264E1A70D0
:101CC00004230A32336072604B7B002B05D0272B34
:101CD00000D05BE72C4907AD01E02C4907AD280097
:101CE000083603F061FE06CD06C62A883280AA783F
:101CF000B2704BE7224B3000595D03F071F80135AB
:101D00006368204EAB42F5DC002510231F00300035
:101D100003F044F83B00013F0028F7D0300003F007
:101D20000DFB0EA948550135002FF0D10122094BBA
:101D3000094E1A7004230A32336072604B7B002B09
:101D400028D0272B32D1124907AD25E014010020FD
:101D50009A00002010010020A4000020AA5A0008C8
:101D6000B45A0008BE5A0008C85A0008DC5A0008D5
:101D7000F05A0008FF5A00080E5B00089C00002083
:101D80001C01002038020020235B0008185B0008BB
:101D9000395B0008484907AD2800083603F004FE07
:101DA00006CD06C62A883280AA78B2700025A37BA9
:101DB000A02B71D1414B07AE1C2241493000039347
:101DC00003F0F2FD12223F4909A803F0EDFD0022C5
:101DD0001300B15C01325B18DBB21A2AF9D1DB4384
:101DE0000025B376384B715D18000135019302F080
:101DF000F7FF1C2DF6D1002503F0CEFB2F003D266A
:101E00000290FFF793FC03F0C7FB029BC01AF9286E
:101E100016D8019802F0C2FF0028F2D0019803F012
:101E20008DFA0EA9485501350A2D04D14B7A032BA2
:101E300001D101272D3E013E002EEAD1002F17D0FF
:101E40000121224A224B117003221E001A600A232C
:101E5000039904AD0832280073603C31083603F062
:101E6000A3FD06CD06C62A883280AA78B27022E683
:101E700063220B7B164860330B7304ABD2181378C4
:101E8000603B1370114B3D221F703623426003608C
:101E9000083003F089FD0EE6002D00D10BE6002589
:101EA00005E00C4B0848595D02F09AFF0135636864
:101EB000AB42F6DCFFE5C0462E5B0008245B000861
:101EC000445B00082501002038020020100100209A
:101ED000A40000201C01002010B5224C200002F0BC
:101EE0005DFF214B002838D00A2220001A7003F031
:101EF00025FAC1B2020000231C48AF2902D10378A1
:101F00000133DBB203701A484368002B04D1002967
:101F100004D0FFF775FA10BD022B04DC5A1CC3185D
:101F200042601972F7E7032B0CD1D2B20260FF2294
:101F30000133C1724360836812041B021B0A93427F
:101F4000E9D0E6E75A1CC31842601972FFF766FA37
:101F50000028E0D0FFF7A6FDDDE71A78013A1A70F5
:101F6000D9E7C046F005002099000020A00000201D
:101F70001401002070B5FFF7AFFF214B1B781E2B1B
:101F800009D1002101221F4B172019701E4B1A7016
:101F900000F07EFE70BDFFF725FB1C4D1C4C2B682E
:101FA000002B26D0200002F0F9FE002810D1194B9A
:101FB0001B78002BEED1184802F0F0FE0028E9D182
:101FC000200002F0EBFE0028E4D1FFF7AFFBE1E7D1
:101FD0002B68002BEBD0200003F0B0F92B68013BFD
:101FE0002B60DFE7200003F0A9F9C1B20A4802F034
:101FF000F7FE200002F0D2FE0028F3D1D7E7C0465A
:10200000A00000208C0000208D0000209C000020FB
:102010003802002099000020F005002010B50E4C79
:102020002721200000F0EEF820000122272100F0F7
:10203000D3FA20000122272100F0E3FA022227210F
:10204000200000F009FB0A2003F0AAFA0022110088
:102050001000FFF719FB10BD580300200022962145
:10206000F0B5394B8DB01A7038480632090203F0CA
:1020700023F9E121364D06222800490203F01CF91C
:10208000FFF7CCFF2422334903A803F08DFC28007E
:1020900002F084FE041E1FD103AB195D2800013439
:1020A00002F09EFE182CF7D103F076FAFA270F26DD
:1020B0000190FF00002E13D003F06EFA019BC01AAE
:1020C000B8420DD8280002F069FE0028F4D028009C
:1020D00003F034F9013EEDE7280003F02FF9D6E7CD
:1020E00003AB195D2800013402F07AFE242CF7D1ED
:1020F00003F052FA0700153C002C12D003F04CFA02
:10210000C01B32280DD8280002F048FE0028F5D068
:10211000280003F013F9013CEEE7282003F040FA11
:10212000FBE7002EF9D1FA2003F03AFA3C22FF2017
:102130001100FFF7A9FAAF20800003F031FA06483A
:10214000FFF75EF90DB0F0BDA0000020F005002003
:10215000380200206B5B0008A400002010B5FFF7D8
:102160001BF9FFF77BFF10BD10B5074C074B22781A
:102170001B78002A05D0022B03D1FFF76FFF002345
:102180002370FFF7F7FE10BD8D0000208C000020AB
:10219000F0B50400272911D93F230D0004209D43E9
:1021A000C02D26D1C92924D8144D0B409B005B5962
:1021B00013489B001B58042001331AD025006835B2
:1021C0002B0000200027DE5FB14212D00130C0B2E8
:1021D0000C330428F6D1012A0BD10C2300229C4693
:1021E00063465343EE5E013604D1E3186833D0B240
:1021F0001980F0BD0132042AF2D1FAE754630008D5
:102200007C63000870B5012204000D00FFF7C0FFD9
:10221000060003281FD8272D0AD0636E013307D18B
:102220000121280003F020F90121280003F078F9AA
:102230000C212300002271434D3361181A700B00EA
:102240000A0070337132201D1B781278C96E9834E1
:1022500000F04EFA258070BD82B070B50492012264
:1022600004000D000593FFF793FF0600032828D80C
:102270000C2343430598E31804AA917AD866180002
:1022800012897030723302801970272D0AD0636E64
:10229000013307D10121280003F0E6F801212800CD
:1022A00003F03EF90C21714361180B000A007033F2
:1022B0007132201D1B781278C96E983400F018FA1C
:1022C000258070BC08BC02B01847F0B587B00293F7
:1022D0006B460026DA73172332006B4404000D00AE
:1022E0001E70FFF755FF07003000032F3BD8260074
:1022F00098360022B35E9D420DD00C2179436118BF
:102300000B000A00703371321B781278C96E201DE1
:1023100000F0EEF93580272D06D0636E013303D12E
:102320000021280003F0FCF80C237B43E3187233F0
:102330001B7817260193FA230F219B006E4400930C
:1023400032000123201D694400F0D6FA272D09D060
:10235000029B012B06D1636E013303D12800029941
:1023600003F0DEF8307807B0F0BDF0B587B0029327
:102370006B460027DA8116233A006B4404000D00F7
:102380001F80FFF705FF06003800032E51D82700F5
:1023900098370022BB5E9D420DD00C21714361181D
:1023A0000B000A00703371321B781278C96E201D41
:1023B00000F09EF93D800C237343E31870331B78C3
:1023C000002B04D00E226A4413885BBA1380272D99
:1023D00006D0636E013303D10021280003F0A0F87A
:1023E0000C237343E31872331B7816270193FA23E7
:1023F0000E219B006F4400933A000223201D694484
:1024000000F07AFA272D09D0029B012B06D1636ECA
:10241000013303D12800029903F082F80C2373439F
:10242000E41870342378002B02D03B885BBA3B80E1
:10243000388807B0F0BDF0B587B003930CAB1B78BC
:1024400004000493039B0D001600002B42D0002AC9
:1024500040D00022FFF79CFE070003283AD8230053
:102460009833059300229B5E9D420ED00C21414380
:1024700061180B000A00703371321B781278C96E34
:10248000201D00F035F9059B1D80272D06D0636EB9
:10249000013303D10021280003F042F80C226B46DF
:1024A0007A43A218723212789B890192FA22920022
:1024B000009231003200201D00F01EFA272D09D0B5
:1024C000049B012B06D1636E013303D128000499CC
:1024D00003F026F807B0F0BDF0B587B003930CAB5E
:1024E00080CB04001B780D0002920493002F44D08F
:1024F000002A42D0039B002B3FD00022FFF748FE6A
:102500000600032839D823009833059300229B5EE8
:102510009D420ED00C21414361180B000A0070331C
:1025200071321B781278C96E201D00F0E1F8059B0E
:102530001D80272D06D0636E013303D100212800B2
:1025400002F0EEFF0C227243A21872321278029946
:102550000192FA2292000092BBB2039A201D00F071
:10256000CBF9272D09D0049B012B06D1636E0133D3
:1025700003D12800049902F0D3FF07B0F0BD00009A
:10258000020030B5104B68320360104B32CB32C2C0
:1025900032CB32C232CB32C232CB32C20300012440
:1025A0000B4A6442916998331C800A4B8900C958D0
:1025B0008165D16952698900C9589200C165D358B3
:1025C0004466036630BDC046E45B0008905B0008CB
:1025D000546300087C63000870B5150000220400F5
:1025E000FFF7D6FD03280BD80C21414361180B00DF
:1025F00070335A781D70C96E2B00201D00F078F8DA
:1026000070BD70B5150000220400FFF7C1FD010088
:10261000032819D8032D0AD80C2328004B43E318AC
:102620007133FEF78FFC0212141600221A700C236D
:10263000594361180B000A00703371321B7812780D
:10264000C96E201D00F054F870BD0122EEE7022291
:10265000ECE70322EAE70000F8B5170000220400C7
:10266000FFF796FD0600032815D8251D002F13D06F
:10267000280000F029F83900FEF76EFC01000C2359
:102680007343E4182300E1667033713428001B782B
:10269000227800F02DF8F8BD0049F0E700093D0070
:1026A00010B50248FFF76CFF10BDC046580300206C
:1026B000044A030010B51068002B01D001F0C0F8E7
:1026C00010BDC04614000020074B10B51C68002840
:1026D00008D00649C06D01F0C3FF002802D0FFF703
:1026E000E7FF0400200010BD14000020545D000826
:1026F000F0B589B004000D0016000593002800D144
:10270000C7E0714B806D1900039301F0A9FF6F4979
:102710000190606D01F0A4FF6D490700E06D01F0CC
:102720009FFF6C490290206E01F09AFF019B04907C
:10273000002B00D1ADE0002F00D1AAE0029B002BBE
:1027400000D1A6E03900019801F0B8FF0499070014
:10275000029801F0B3FF01000190380001F0AEFFD4
:102760002065002F00D194E0019B002B00D190E068
:10277000002800D18DE0236E206001335A4253417E
:10278000554A5B4213408022D2029B18A3618223E8
:102790005B006360FFF78CFF00234208AA4218D950
:1027A00082080833AA4214D9C2080833AA4210D9B1
:1027B00002090833AA420CD942090833AA4208D9AF
:1027C00082090833AA4204D9C0090833A84200D9B3
:1027D0000833E3613200331E07D00023022E04D0F9
:1027E000731E5A1E93415A0001236361E023DB00EC
:1027F000E360059B22615A4253410025DB012362BD
:102800000399A06DA56001F0FFFE3049606D01F0F5
:10281000FBFE2F49E06D01F0F7FE21694B42594163
:10282000E36D01311A06120F022A02D82B489200DA
:1028300015580F202A4A03409B009B5803225B43F4
:102840005A43D243022926D0E9680A401343EB6079
:102850002049206E01F0D8FE2368224A93421ED1FF
:102860008022214B5201196C11431964196C1140DB
:1028700006910699196B0A431A631A6B1B490A40A1
:102880001A63200000F0F1FF4023226811680B4317
:10289000136009B0F0BDE9685B000A40D6E7144A4E
:1028A0009342EED18022104BD201D96B1143D963F0
:1028B000D96B114007910799D96A0A43DA62DA6A3B
:1028C0000C490A40DA62DCE75C5E0008CC5D000877
:1028D000545D0008F45C00080002FCFF08000020C2
:1028E000345C00080030014000100240FFEFFFFFA1
:1028F00000380040FFBFFFFFF0B585B01C000AABF9
:10290000019204CB0F001B7800920393002C25D07A
:102910000125002A26D0066800F004FA029002225F
:10292000B3681342FBD03B783373039B002B08D171
:10293000B3682B42FCD0019A337B13701300013330
:102940000193009B013310D1013C0137002CE6D1EB
:1029500025008023B2681A42FCD103E0009D6B1E63
:102960009D410135280005B0F0BD00F0DBF9029B68
:10297000C01A009B9842E7D30125EAE7E12110B590
:1029800006224068490202F097FC10BD10B50368AA
:10299000C9B21B68984710BD10B5040055214068A6
:1029A000FFF7F4FF55216068FFF7F0FF6068002132
:1029B00003681B6898476068002103681B68984794
:1029C0006068002103681B689847606803681B699A
:1029D0009847606803681B699847002800D110BDBC
:1029E000606803685B69F3E7024B416003600023A2
:1029F00003727047045C0008F7B506001D00002450
:102A000000910192019B9C4211DA02F0C5FD070082
:102A1000706803685B69984700280ADA002DF7D0D0
:102A200002F0BAFDC01BA842F2D3002C05D060B260
:102A3000FEBD009B18550134E4E702204042F7E751
:102A4000F0B587B005AE17000291032231000500F2
:102A50000193FFF7D1FF002802DC022040424EE044
:102A600033787278134302D1B378FF2B01D003205F
:102A7000F4E702222800019B04A9FFF7BDFF00280C
:102A8000EBDD04AB1C785B78E318DBB2002BEED1F6
:102A9000023CE4B204AB1C70BC4238D82F7A02224C
:102AA0007B1CDBB2039331002800019BFFF7A4FFDE
:102AB0000028D2DD3378D52BD9D17378039A93428D
:102AC000D5D122002800019B0299FFF795FF84428F
:102AD000C3D100232A3FFFB2DAB2944211D80222B6
:102AE0002800019B05A9FFF787FF0028B5DD04AB8F
:102AF00018795B7938181843C0B20028B7D107B0ED
:102B0000F0BD029AD25C0133BF18FFB2E4E70420A3
:102B1000A4E700001FB5040006220C49684602F035
:102B200043FF0A230622200002A9FFF765FF0028C1
:102B300009DD0622694602A802F09EFE431E984166
:102B4000404204B010BD0220FAE7C046C05B000856
:102B5000F7B50D001700019308AB1B78040040681F
:102B6000009303681B699847606803681B6998476E
:102B7000061E606844D12B783100237203681B68FD
:102B800098476068310003681B6898476068FF21B8
:102B900003681B689847009B60685E1CBE19036849
:102BA000F6B21B683100984771426068FFF7EEFE8D
:102BB000D4216068FFF7EAFE60683A0003682900E4
:102BC0005B689847D426EF19BD421CD16068009A13
:102BD000036801995B689847019B009A9A18934291
:102BE00016D1606871420368C9B21B689847606873
:102BF000002103681B6898472000FFF78BFFFEBD8C
:102C000003685B69AFE72B780135F618F6B2DBE7AE
:102C1000197801337618F6B2E1E70300A0331960A2
:102C20007047000010B580220248034902F0BCFE44
:102C300010BDC046F8030020807F000810B50400D6
:102C4000FFF7F0FF014B185D10BDC046F8030020F0
:102C50007FB500230093023301930B4B02930123B2
:102C6000039300F019F9694601A800F04DF9002816
:102C700006D10120054A044900F026FA0028F8D1BF
:102C800000F01CF907B000BD807F0008F8030020A9
:102C900010B5024B1954FFF7DBFF10BDF8030020FD
:102CA00070470000104B70B519680500002901D16C
:102CB000012070BDFA208000FEF74EF90B4C010098
:102CC0002068FEF749F900F079F8041EF0D1032DD1
:102CD000EED8020001202900404200F029F8044B00
:102CE00020001D60E5E7C046000000201400002021
:102CF0000400002010B50020FFF7D4FF041E03D10C
:102D0000FFF7CEFF200010BD0124FBE7034A044972
:102D1000136809685B1813607047C0467804002088
:102D200000000020014B18687047C046780400205E
:102D300010B5FF2403220B0021000240D200914075
:102D40009B012340C943934000280ADBC0240B4A5F
:102D5000800880008018A40002590A4013430351E0
:102D600010BD0F2210400838054A800880008018E6
:102D7000C26911401943C161F2E7C04600E100E0B9
:102D800000ED00E0002805DB1F2318401E3B8340B8
:102D9000014A13607047C04600E100E0002809DBEB
:102DA0001F2318401E3B8340034AD367BFF34F8F56
:102DB000BFF36F8F7047C04604E100E08022431EDE
:102DC0005204012093420DD2C021074A07485360A4
:102DD000036A09061B021B0A0B4303620020072338
:102DE000906013607047C04610E000E000ED00E026
:102DF000002807DB1F23C02218401E3B83400249E6
:102E000052008B507047C04600E100E0704710B59B
:102E1000FFF7FCFF10BD000010B5841CE37F022B00
:102E200003D004238363012010BD0E2102681368C0
:102E30008B43136001231168994311600B498A4247
:102E400003D00B4B9A420DD110230A4A5360012341
:102E50000022E377C318DA77436B934200D0984798
:102E60000020E1E780235B00EFE7C0460800024056
:102E70001C000240000002400022054B5A60022361
:102E8000044A51690B435361FF2303607047C046F6
:102E90007C040020002002400020054B5A69824239
:102EA00005DA044A9A60044A9A605869C00F70476C
:102EB0000020024023016745AB89EFCD8022044BFF
:102EC000120659690A435A615869C043C00F7047D6
:102ED0000020024070B504008025FFF723FF6D023B
:102EE0000419074B1A69100028402A4205D0FFF741
:102EF00019FFA042F5D3032001E0024A1A6170BD18
:102F00000020024011800000F7B5684B04000193D7
:102F10001B780F000220012B66D00123019A64491F
:102F20001370644B5A68644B1204520F824052581B
:102F30005D681168FD300E000640B5422AD19D68DB
:102F4000AC46CD01ED0DAC4524D15D69090A0140C7
:102F50008D421FD15168DD68084085421AD1186939
:102F60004901490D884215D191689869C903C90B77
:102F700088420FD1D168D869C903C90B884209D1E9
:102F800011691D6A88B2854204D1586A8900890C8A
:102F900088421CD05E601168C901C90D99605178E2
:102FA00059615168C9B2D96051684901490D196127
:102FB0009168C903C90B9961D168C903C90BD9616B
:102FC000116989B2196212699200920C5A622668DC
:102FD000012E1DD1FA208000FFF77CFF002804D0CD
:102FE00001200023019A1370FEBD0425019B334C80
:102FF00058606369FA202B4363618023304A1B05C4
:103000001A608000FFF766FF6369AB436361E8E71E
:10301000022E21D1FA208000FFF75CFF0028DFD1CB
:1030200001235B423B6065680130A3686268DB0195
:103030009B18AB42D5D92800FFF71EFFFA2080006D
:10304000FFF748FF1D4A5369B3435361002801D07D
:103050003D60C6E78035E8E7032EC1D1FA20800045
:10306000FFF738FF0028BBD101235B423B60E568D6
:1030700001302369E2681B039B18AB42B1D980225F
:103080000E4E12017369FA2013437361FF2380000F
:103090002B60FFF71FFF73690A4A13407361002812
:1030A000D6D180235B01ED18E3E7C0467C04002005
:1030B000145C000800100240FC2002400020024086
:1030C00021433412FFF7FFFFF7B53E4D0C002B787C
:1030D00002200192012B64D001232B703A4B3B4913
:1030E0005A683B4B1204520F824052585E68116876
:1030F000FD300F000740BE422AD19E68B446CE0183
:10310000F60DB44524D15E69090A01408E421FD1F3
:103110005168DE68084086421AD118694901490D94
:10312000884215D191689869C903C90B88420FD1AB
:10313000D168D869C903C90B884209D111691E6ACF
:1031400088B2864204D1586A8900890C88421CD012
:103150005F601168C901C90D996051785961516862
:10316000C9B2D96051684901490D19619168C90313
:10317000C90B9961D168C903C90BD961116989B2B9
:10318000196212699200920C5A620120630608D1FA
:10319000FA208000FFF79EFE061E03D000233000B9
:1031A0002B70FEBD0199200002F05EFCFA20800029
:1031B000FFF790FE0121074A53698B4353610028B2
:1031C000ECD0EEE77C04002000100240145C000804
:1031D000FC20024000200240044B10B5DA68104287
:1031E00002D0D86001F0CCF810BDC04600180240F3
:1031F00030B587B001A90A00224B31CB31C211CBC7
:1032000011C2214B38229C682000104014420ED17C
:1032100007241A685B68D20A5B0B22402340042B08
:1032200000D8180080000858D04007B030BD98681A
:10323000104008281FD09868104010280FD1DC6873
:103240000F3822000240044217D15B681B045B0F59
:10325000042B00D81A00920088584000E5E79968CE
:10326000114020290BD09B6800201340182BDCD183
:10327000FA20C001D9E70548D7E70548D5E78020FF
:103280000002D2E7C85B00080010024000127A007A
:103290000024F400F0B5040085B0002802D101201C
:1032A00005B0F0BD01220368134210D123689B07CB
:1032B00065D423681B0700D5DAE023685B0700D5D7
:1032C0000BE1636A002B00D0A4E10020E8E738217D
:1032D000C44DAB680B40E968102B22D1114222D1BA
:1032E0006368002B33D0A1680029D8D00C202A694C
:1032F00082430A432A618022520293421AD12A68E9
:1033000013432B60FFF70EFD80270600BF022B68DA
:103310003B42CBD1FFF706FD801B6428F7D9032081
:10332000BEE7082BDCD12B689B03BFD56368002B5D
:10333000BCD1B4E7A021C9028B4208D180232968FF
:10334000DB020B432B602B681A432A60DAE72A68FA
:10335000A5490A402A602A68A4490A402A60002B2D
:10336000D0D1FFF7DFFC80270600BF022B683B426D
:103370009CD0FFF7D7FC801B6428F7D9CFE7382310
:10338000984DAE681E40EB68102E1ED1DB071ED58F
:103390006369002B59D02B68954A80271340A26996
:1033A000FF0013432B6080232A685B0013432B60CC
:1033B000FFF7B8FC06002B683B4240D06B68E2691F
:1033C0001B0C1B0413436B6073E7002EE0D12B68CA
:1033D0005B0503D56369002B00D160E76B68E26988
:1033E0001B0C1B0413436B60FFF79CFC070080223F
:1033F0002B68D20013421CD0002E12D12B687C4ABD
:103400001340A26913432B60FFF7F2FEAB687949C2
:103410001B051B0F9B005B581F210B40D840764AB1
:103420001060764B1868FFF73DFC002800D140E79C
:1034300035E7FFF777FCC01B0228D8D96FE7FFF705
:1034400071FC801B0228B6D969E72B686C4A80277B
:1034500013402B60FFF766FC0600FF002B683B4221
:1034600000D126E7FFF75EFC801B0228F6D956E75D
:1034700038225C4DAB681340182B08D12B6E9B078C
:1034800000D41AE7236A002B00D016E707E7226A68
:103490000123002A10D02A6E022713432B66FFF760
:1034A00041FC06002B6E3B4200D006E7FFF73AFCDA
:1034B000801B0228F6D932E72A6E02279A432A6631
:1034C000FFF730FC06002B6E3B4200D1F5E6FFF71C
:1034D00029FC801B0228F6D921E73822414DAB6830
:1034E0001340202B08D1EB6D9B0700D4E9E6E3687D
:1034F000002B00D0E5E6D2E680220021EB6B5205DE
:103500000091134208D1EB6B1343EB63EB6B134059
:103510000393039B0123009380273A4E7F00336877
:103520003B421AD0E368002B27D10121EA6D8A4380
:10353000EA65EA6D03318A43EA65002B2ED1FFF775
:10354000F1FB02270600EB6D3B422ED0FFF7EAFBB2
:103550002D4B801B9842F6D9E1E633683B4333603C
:10356000FFF7E0FB019033683B42DBD1FFF7DAFB6A
:10357000019BC01A0228F6D9D1E6C0222169920225
:10358000224811421AD180222969920201400A433D
:103590002A61012B15D1EA6D1343EB65FFF7C2FBDE
:1035A00002270600EB6D3B4214D0009B012B00D09C
:1035B00087E6EB6B164A1340EB6382E62A6902400A
:1035C000E5E7052BB1D1EA6D013B1343EB65EA6DED
:1035D0000123E1E7FFF7A6FB0B4B801B9842E1D9E3
:1035E0009DE6C04600100240FFFFFEFFFFFFFBFF0D
:1035F000FFC7FFFFB45C0008140000200400002097
:10360000FFFEFFFF0070004088130000FFFFFCFF7B
:10361000FFFFFFEF3821324DAA680A40102A52D02E
:10362000304A022B39D12B68802713402B60FFF7DB
:1036300079FB0600BF042B683B4228D1A26A012A0D
:1036400000D12CE6002A09D16B6827491B045B0FC7
:103650009B0026485B58834200D820E60121EB6896
:1036600080268B431343EB6080232A685B0413435B
:103670002B60FFF757FB0400B6042B68334200D0E1
:1036800023E6FFF74FFB001B0228F6D947E6FFF7BA
:1036900049FB801B0228CED941E62B6880261340C7
:1036A00001222B60EB68B6049343EB60FFF73AFB13
:1036B00004002B68334200D107E6FFF733FB001B01
:1036C0000228F6D92BE6012B00D1E8E50123E868B2
:1036D0001840A36AC01A431E9841C0B2E0E5C04634
:1036E00000100240FFFFFFFE745C0008FF23F4009F
:1036F000F7B504000E00002801D10120FEBD01270E
:10370000474D2B683B408B4228D32268930739D41E
:10371000D20746D401272B683B40B34208D92B6817
:10372000BB432B60FFF7FEFA06002B683B4269D1D2
:1037300023683C4D5B076CD4FFF75AFDAB683A49F0
:103740001B051B0F9B005B581F210B40D840374ABD
:10375000374B10601868FFF7A5FACFE72B68BB431B
:103760000B432B60FFF7DEFA01902B683B40B3421E
:10377000CBD0FFF7D7FA019BC01A2E4B9842F4D951
:103780000320BBE72749530704D5E0238868DB0102
:1037900003438B608B6828480340A06803438B6019
:1037A000B6E760681F4F04282AD8FDF7CBFB1D033E
:1037B000212925003B689B039FD50722BB689343C3
:1037C0000343BB60FFF7AEFA01903823BA681A4092
:1037D0006368DB009A429DD0FFF7A4FA019BC01AF0
:1037E000144B9842F1D9CBE73B685B05E5D484E7FD
:1037F0003B689B01E1D480E7FB6D9B07DDD47CE750
:103800003B6EFAE7FFF78EFA0A4B801B98428CD981
:10381000B6E7AB68094A1340E2681343AB608BE735
:103820000020024000100240B45C00081400002098
:103830000400002088130000FFF0FFFFFF8FFFFF50
:10384000064B07499B68074A5B045B0F9B005B586C
:103850001F2110680B40D8407047C046001002403E
:10386000945C0008140000207047F8B504000120A3
:10387000002C36D0250049352B78DAB2002B05D143
:103880002300483320001A70FFF7EEFF0223402286
:103890002B702168A0680B68E66893430B6063682F
:1038A000A26903432069034360690343E06903435A
:1038B000206A034380208000104003430B600423F0
:1038C0000020120C1A40636A070033431A43E023B6
:1038D000DB00B34247413B031A4301234A60E064E3
:1038E0002B70F8BD704770470222036810B5196944
:1038F000040011420ED0D96811420BD0053A1A616A
:10390000043202779B699B0700D179E000F09BFCB1
:1039100000232377042223681969114210D0D96843
:1039200011420DD0093A1A61073222779A69C023F1
:103930009B0020001A4269D000F085FC0023237709
:1039400008222368196911420ED0D96811420BD0A0
:10395000113A1A610D322277DB6920009B075BD098
:1039600000F071FC002323771022236819691142AB
:1039700010D0D96811420DD0213A1A61193222773C
:10398000DA69C0239B0020001A424BD000F05BFC98
:1039900000232377012223681969114207D0D968CF
:1039A000114204D0033A20001A6100F021FC802269
:1039B00023681969114208D0D968114205D0023A2A
:1039C000FF3A20001A6100F08DF84022236819693F
:1039D000114207D0D968114204D0813A20001A61FF
:1039E000FFF781FF202223681969114207D0D968A7
:1039F000114204D0413A20001A6100F072F810BD63
:103A000000F01DFC2000FFF76DFF81E700F017FCC0
:103A10002000FFF767FF91E700F011FC2000FFF79F
:103A200061FF9FE700F00BFC2000FFF75BFFAFE7B3
:103A300010B5184C0368A0420AD0174A904207D02C
:103A4000164A904209D1164A1A40CB6813430AE03D
:103A5000702293434A681343F5E7124A9042F2D02A
:103A6000114A9042EFD0802293434A691343036086
:103A70008B68C3620B688362A04205D0094B9842F1
:103A800002D0094B984201D10B69036301234361C2
:103A900010BDC046002C0140000400400020004042
:103AA000FFFCFFFF004401400048014070B50400E6
:103AB0000120002C14D025003D352B78DAB2002BE4
:103AC00005D123003C3320001A7000F0FFFE0223D2
:103AD0002B702068211DFFF7ABFF012300202B7006
:103AE00070BD70477047000003680649DA684630C9
:103AF0000A40DA605A692331FF318A435A61202330
:103B000003707047DFFEFFFF70B5040003682E49A5
:103B10001A6919250A40C1680A431A618268006956
:103B2000D968024360690243284801400A43DA60C9
:103B30005A692748E16902400A435A615A6925488F
:103B40000240A06902435A6180231B01994220D19F
:103B5000FFF776FE616868434900FDF7FDF96421CF
:103B60000600FDF77FFAC80032306421FDF7F4F952
:103B7000642105003000FDF7EFF9072300012B4019
:103B8000C018F8236D005B0024681D404519A5602E
:103B900070BDFFF755FE616868438900FDF7DCF9E9
:103BA00064210500FDF75EFA080132306421FDF75B
:103BB000D3F92668642104002800FDF7CDF900013F
:103BC0002418B460E4E7C046FFDFFFFFF3E9FFFF1E
:103BD000FFF7FFFFFFFCFFFF7047000070B5040018
:103BE0000120002C3ED0250045352B78DAB2002B81
:103BF00005D12300443320001A70FFF7EDFF242382
:103C00002B7022681849D36820000B40D360FFF75F
:103C10007BFF226A2368002A11D052060FD55A6909
:103C20001248616A02400A435A618022520191425D
:103C300005D15A690E490A40A16A0A435A611A69B4
:103C40000C4900200A4008211A615A698A435A61C6
:103C50008022D96892010A43DA602023A0644634A6
:103C60002B70237070BDC046FFDFFFFFFFEFFFFF2B
:103C7000FF9FFFFFFFF7FFFF70B504000120002C3E
:103C800029D0250045352B78DAB2002B05D1230049
:103C9000443320001A70FFF79FFF24232B70226803
:103CA0000D49D36820000B40D360FFF72DFF236838
:103CB0000A491A6900200A401A61082259690A4310
:103CC0005A618022D96892010A43DA602023A064F5
:103CD00046342B70237070BDFFDFFFFFFFF7FFFF3F
:103CE00070B5050045352C7803000220202C17D133
:103CF0000138002914D0002A12D01C004434267840
:103D00000130012E0CD05A861A8600202122D96259
:103D100098642A7020701A688023D1680B43D3609E
:103D200070BDF0B50600463635780300ECB20220CF
:103D3000202D1ED1013800291BD0002A19D01D00CA
:103D400044352F780130012F13D05A871A8700206D
:103D5000222298645963327028701B68DE32D96859
:103D60000A43DA60012259690A435A61DA68144346
:103D7000DC60F0BD010070B546310B78222B26D1F6
:103D8000802485680268436B6401A54220D10469E0
:103D9000002C1DD15268D205D20D1A800233436324
:103DA000438F013B9BB24387002B10D12024036833
:103DB0000A4DDA68A243DA60DA682A40DA605A69A2
:103DC0000335FF35AA435A610C7000F015FF70BD32
:103DD00052685C1C44631A70E2E7C046FFFEFFFFB6
:103DE000F8B5036804001A68D9685869150708D13E
:103DF000202002425DD001425BD02000FFF7BAFFD5
:103E0000F8BD90260125760028400E40064350D08C
:103E10002A4204D0CB0502D5A36C1D43A5645307E9
:103E200005D5002803D00223A56C2B43A364930778
:103E300005D5002803D00423A56C2B43A3640823D5
:103E40001A4204D0002802D0A06C0343A364A36CE0
:103E5000002BD5D020231A4204D0194202D02000D2
:103E6000FFF788FF40270822266820007569A36CA9
:103E70003D4013401D4318D0FFF736FE73693B42A7
:103E80000FD07369206CBB437361002809D0284BA5
:103E90004363FEF7C1FF0028B2D0206C436B984704
:103EA000AEE7200000F0B2FEAAE700F0AFFEA56486
:103EB000A6E78020024229D0014227D022004532C5
:103EC0001278212A9CD18021A068E26A49018842A7
:103ED00018D12169002915D111880232C905C90DEF
:103EE0005960E262628E013A92B26286002A00D084
:103EF00086E78021DA688A43DA604022D9680A437B
:103F0000DA607DE7117801325960EAE74020024229
:103F100000D175E7014200D172E7DA688243DA60C6
:103F200023002022453320001A7000F06AFE67E764
:103F3000353F0008002310B5406A4387438600F0F0
:103F400065FE10BD010010B544310A78030002205F
:103F5000012A0ED018002422453002701C680C2360
:103F6000E2689A43043B1343E3602023037000207C
:103F7000087010BD010010B544310A78030002201A
:103F8000012A0ED018002422453002701C680C2330
:103F9000E2689A43083B1343E36020230370002048
:103FA000087010BD0300453346301B780078184375
:103FB0007047836810B50400002B05D00322010070
:103FC00098470023A360E36010BD836810B5040028
:103FD000002B02D0032201009847200010BD0000F2
:103FE0000D4A03000020934214D00C4A0130934242
:103FF00010D00B4A013093420CD00A4A0130934250
:1040000008D0094A9B185A4253415842074B18405E
:10401000074BC0187047C046002C01400004004008
:10402000002000400044014000B8FEBF0500FFFF33
:10403000FFFF000070B504000069FFF7D1FF050025
:104040002000103000F0B2FB0022084BAD00EA5017
:1040500026002500E260A8355836B54204D0103D50
:104060002800FFF7B2FFF8E7200070BD940400209D
:10407000F7B5040008000D00FFF7B2FF1F4FB8426C
:1040800000D1FEE72369002B00D0FEE721001C4A87
:1040900080000C31815022002C32256126001370E3
:1040A000203223636363A363E36323646364A364D1
:1040B000137053700322103663653000E46022658C
:1040C00000F020FB23002500A83358350193280079
:1040D000FFF76FFF019B10359D42F8D1002323604D
:1040E0006360A3606361A361236263628033300015
:1040F000E761A362FFF7DAFCF7BDC046FFFF0000EF
:1041000094040020044B10B51868002802D0043035
:10411000FFF7EAFB10BDC0469404002010B5FFF77E
:10412000F1FF10BD044B10B55868002802D00430D0
:10413000FFF7DAFB10BDC04694040020044B10B515
:104140009868002802D00430FFF7CEFB10BDC046AF
:1041500094040020044B10B5D868002802D0043025
:10416000FFF7C2FB10BDC04694040020044B10B5FD
:104170001869002802D00430FFF7B6FB10BDC04616
:104180009404002010B50C220021040001F082FBF1
:1041900000232000E36010BDF8B50500070004000F
:1041A0000E005835A83728001035FFF7EBFFBD4249
:1041B000F9D10023310020002361FFF759FF2000CF
:1041C000F8BD836810B5002B01D101F085FAC368F2
:1041D000984710BD10B5002800D1FEE700F090FA16
:1041E0000068036E002B02D05830FFF7EAFF10BDC5
:1041F00010B5FFF7EFFF10BD030010B5002800D188
:10420000FEE7007F0138072812D8FCF79BFE041652
:104210001112111111140124180000F071FA240177
:104220000068583400198368002B01D0FFF7C9FFDC
:1042300010BD0324F0E70424EEE70224ECE710B5F8
:10424000FFF7DAFF10BD10B5FFF7D6FF10BD000075
:10425000030084B0012811D002281AD00020834224
:104260000AD10121A020104BC0055A6B0A435A63A2
:104270005B6B0B400193019B04B0704702210A4B1A
:104280000A485A6B0A435A635B6B0B400293029BCA
:10429000F2E72021044B06485A6B0A435A635B6BD2
:1042A0000B400393039BE7E700100240000400501B
:1042B00000140050F7B5134B06001900019300F0ED
:1042C000CFF9FFF78DFE104F8400E359002B0DD17D
:1042D000A82000F0F5FC01990500300000F0C0F9BD
:1042E00001002800FFF758FFE3591D603B591C6887
:1042F000002C06D02000FFF79DFEA821200000F032
:10430000E3FCF7BD8C6100089404002010B5FEF7B3
:1043100009FD10BD704710B5FEF7F8FCFEF777FDFC
:10432000FFF7F8FF10BD704780210A4B4905DA6B93
:1043300082B00A43DA63DA6B0A4001210092009AE4
:104340001A6C0A431A641B6C0B400193019B02B068
:104350007047C0460010024010B5FFF7E5FFFEF7BA
:10436000C9FCFFF7E0FF00F0DDFC10BD10B50C222A
:104370000021040001F08EFA0023E36010BD00006C
:10438000002310B501280BD114225A43064B101DEF
:10439000C0188168002902D09B181B69984710BD7E
:1043A00001334008DBB2EDE7A804002010B501207E
:1043B000FEF712FF0220FEF70FFF10BD10B504201C
:1043C000FEF70AFF0820FEF707FF10BD70B50C24AA
:1043D0001025A8B2013CFEF7FFFE6D00002CF8D1BD
:1043E00070BD0000F8B505252E4F2F4C3800257004
:1043F000FFF7BCFF2D4E25753000FFF7B7FF2300F8
:10440000013528332A481D70FFF7B0FF23002948E3
:104410003C331D70FFF7AAFF2300013550332648B7
:104420001D706037FFF7A2FF24483D706036FFF72C
:104430009DFF23483570FFF799FF230021488C33F7
:104440001D70FFF793FF23001F48A0331D70FFF777
:104450008DFF23001D48B4331D70FFF787FF230035
:104460001B48C8331D70FFF781FF23001948DC3358
:104470001D70FFF77BFF23002600F03316481D70E8
:10448000FF36FFF773FF15487571FFF76FFF14488C
:104490007576FFF76BFF962312485B00E554FFF734
:1044A00065FFF8BDAC040020A8040020C004002073
:1044B000D4040020E8040020FC04002010050020A3
:1044C00024050020380500204C0500206005002050
:1044D00074050020880500209C050020B005002000
:1044E000C4050020D805002010B5044C143C201D44
:1044F000FFF76BFD024B9C42F8D110BDE805002090
:10450000A8040020431C04D100207047834204D03B
:104510000C310B685A1CF9D1F6E70120F5E70000D1
:10452000F7B506000C00431C00D1FEE7072502008A
:104530000D400F21334B0A40000992000840D75824
:104540000195FFF785FE8268030094463A00032038
:1045500065467A435043C143284398600198032835
:104560003FD8FCF7EFFC3F411A02032050431E687E
:10457000019D0E403043013D1860012D04D82007F5
:1045800034D5586838435860A406A40F012C30D0A5
:10459000022C33D0DA680A402EE06004400E8446D4
:1045A0007F2801D10220E1E736070DD50F26586A92
:1045B0000500380A404340434643B5432E00654654
:1045C000684306435E62EDE7186A0F260500100097
:1045D00050434643B5432E006546684306431E627A
:1045E000E0E7FEE70020C1E70120BFE75868B843D5
:1045F000C9E7D86801400A43DA60F7BDD8685200BD
:104600000140F8E7345C000810B5431C07D110BD29
:10461000834203D18968FFF783FFF8E70C310B6809
:104620005A1CF5D1FEE710B5431C0AD110BD8342D8
:1046300006D14B68934203D18968FFF771FFF5E714
:104640000C310B685C1CF2D1FEE70B685A1C01D1DF
:10465000002002E0834201D1486870470C31F4E742
:10466000002310B5421C02D0FFF7EFFF0300180033
:1046700010BD002330B50C68651C01D1002004E09A
:10468000844204D1934201DB486830BD01330C31D0
:10469000F1E74B68002B02D10120404202E0834247
:1046A00001D1086870470C31F3E710B5002802D03B
:1046B000FFF7EFFF10BD01204042FBE703000800B9
:1046C0008B4205D0002B03D042425041404218405B
:1046D000704700000749084A4B6812681B0C1B040E
:1046E000134380229201134380224B60034B120537
:1046F0009A60704700100240040FFF1F00ED00E0B9
:10470000043870470368234A86B093420BD1802156
:10471000214B09011A6C0A431A641B6C0B4001936C
:10472000019B06B070471D4A934209D102211A4BE2
:10473000DA6B0A43DA63DB6B0B400293029BF0E710
:10474000174A93420AD18021134B09021A6C0A437B
:104750001A641B6C0B400393039BE2E7114A9342DC
:104760000AD180210C4B89021A6C0A431A641B6C13
:104770000B400493049BD4E70B4A9342D1D1802190
:10478000054BC9021A6C0A431A641B6C0B40059353
:10479000059BC6E7002C01400010024000040040C9
:1047A0000020004000440140004801400368134AD3
:1047B000934205D1124A1349136C0B40136407E06E
:1047C000114A934205D102210D4AD36B8B43D36327
:1047D00070470E4A934203D1094A0D49136CECE726
:1047E0000C4A934203D1064A0B49136CE5E70B4A86
:1047F0009342EDD1024A0A49136CDEE7002C0140D6
:1048000000100240FFF7FFFF0004004000200040BE
:10481000FF7FFFFF00440140FFFFFDFF0048014014
:10482000FFFFFBFF0300421C13D00E4A904213D03F
:1048300007D80D4A904211D00C4A1320934207D05A
:10484000FEE70B4A90420BD00A4A16209342F7D15A
:1048500070470E204042FBE70D20F9E71020F7E7F4
:104860001520F5E7002C0140000400400020004026
:1048700000440140004801400300421C13D00E4A8E
:10488000904213D007D80D4A904211D00C4A132001
:10489000934207D0FEE70B4A90420BD00A4A1620FB
:1048A0009342F7D170470E204042FBE70E20F9E714
:1048B0001020F7E71520F5E7002C01400004004028
:1048C000002000400044014000480140F8B50400C9
:1048D000FFF718FF2068FFF7A5FF626C216CFEF759
:1048E00027FA2068FFF79EFFFEF74CFA276838008A
:1048F000FFF7C2FF05003800FFF794FF854209D09B
:104900002800626C216CFEF713FA2068FFF7B4FFF1
:10491000FEF738FAF8BD0000F0B587B00400019149
:10492000806D564902920393FFF79AFE544907009F
:10493000E06DFFF795FE53490500206EFFF790FEEE
:1049400051490090606EFFF78BFE0600002F79D072
:10495000E36D013301D0002D74D0236E013302D0FA
:10496000009B002B6ED0636E013301D0002E69D006
:104970002368002B0CD129003800FFF79FFE009917
:104980002060FFF79BFE31002060FFF797FE20605C
:104990002268002A56D03D4B9A4255D180213C4B8B
:1049A000C901186B3B4F08431863186B38401863F4
:1049B000186C084318641B6C0B401B210493049B68
:1049C0002300683319802D49A06DFFF72CFE002DC0
:1049D00004D02B492268E06DFFF725FE0027009BDD
:1049E000BB4205D02749206EFFF70EFE0137FF3787
:1049F000002E06D0802324499B00606E1F43FFF7E2
:104A000003FE220069321278234B261D9200D650F5
:104A1000236800226360019B6820A360029BE7611A
:104A2000E3600C9B22622361039B626263610C233F
:104A3000A36120560121FEF77BF93000002D1AD129
:104A4000FFF71AF907B0F0BD144B9A42BBD1802191
:104A50000F4B8902D86A124F0843D862D86A38408F
:104A6000D862D86B0843D863DB6B0B408E2105936B
:104A7000059B4900A4E7FFF7B1F8E3E79060000861
:104A8000945F0008405F0008EC5E000800380140B9
:104A900000100240FFBFFFFFE80500200044004077
:104AA000FFFFFDFF13B5002803D0049C0094FFF71F
:104AB00033FF13BD10B569300278064B9200D05811
:104AC000FFF770FA22231840223843425841C0B2FF
:104AD00010BDC046E805002010B569300278064BCD
:104AE0009200D058FFF75EFA212318402138434244
:104AF0005841C0B210BDC046E805002070B50400A2
:104B00000E00002802D10120404270BDFFF7D2FF05
:104B1000051EF8D121006A310B7869343370207892
:104B2000034B80000122C058FFF7FBF82800ECE798
:104B3000E805002070B504000D00002818D0FFF72C
:104B4000B9FF002814D125652500002068352856B6
:104B5000FEF724F9210069342078064B80000122F9
:104B6000C0586A31FFF7DDF800202856FEF70AF931
:104B700070BDC046E805002070B50400150000288F
:104B800017D006004165002068363056FEF706F95A
:104B900023007A331B88216F69342078C918054BAC
:104BA0008000C058AAB2FFF79BF800203056FEF7ED
:104BB000E9F870BDE805002010B5002809D0C36DE4
:104BC000013306D169300278024B9200D058FFF7CA
:104BD000B9F910BDE805002010B5002809D0C36D53
:104BE000013306D169300278024B9200D058FFF7AA
:104BF000C1F910BDE805002010B50438036D9847D1
:104C000010BD10B50438436D984710BD7FB50368DB
:104C10000122196804000D0004381540114211D01A
:104C2000002200921A6800925B680093009BFFF7D5
:104C300041FF002805D12100012220006631FFF745
:104C400070F87FBD196802220E001640114206D08E
:104C500001951A6801925B680193019BE7E7196867
:104C600004220D001540114206D002961A680292E5
:104C70005B680293029BDAE71A681207D7D503959F
:104C80001A6803925B680393039BD0E710B51B205F
:104C9000FEF7AEF8024B1868FFF7A2F810BDC04649
:104CA000E80500201C2010B5FEF7A2F8034B586859
:104CB000002801D0FFF794F810BDC046E805002099
:104CC00010B500F013FD10BD10B500F019FD10BDBA
:104CD00003000A4910B50868C318EFF3088293422D
:104CE00005D90C220120064B40421A6010BD054A2E
:104CF000054C121B9342F4D20B60F7E7180000201A
:104D00005C0800200010002000040000FEE7000006
:104D100016220120014B40421A6070475C080020B7
:104D20000120704700B591B02822002106A800F0AC
:104D3000B1FD0021102201A800F0ACFD0223802269
:104D40000593FE330A930E4BD2011B6805A8DB04C2
:104D5000DB0C13430C9301230E93FEF79BFA011E09
:104D600000D0FEE7072302900390049001A801936E
:104D7000FEF7BEFC002800D0FEE711B000BDC04623
:104D8000080FFF1F10B5FBF7F4F910BD10B5FBF7C6
:104D9000F0F910BD10B5FBF7ECF910BD0200FE32C2
:104DA000D38950894033181A3F23184070470300B5
:104DB000FE33DA895B899A4203D0FC304268D05CCA
:104DC000704701204042FBE7FE30037B008AC0B2FF
:104DD000834202D3C01A3F307047C01A0138FBE744
:104DE00013B56B460268D971073354681900012264
:104DF000A04716BD37B56B46DD1D29000400FFF73F
:104E00007DFE00280FD122003F2178321388013324
:104E10000B402100743109888B4204D01188E06E68
:104E20002D784554138037BD030010B57A331A88A6
:104E3000C16F52183F210A401A8002007632128850
:104E40001C880021A24217D01C88403219880B4BC5
:104E5000121B89B21A4004D54023013A5B421A431F
:104E6000013240235B1A9A4200D91A000449C267F2
:104E7000FFF782FE01214942080010BD3F0000807B
:104E8000294E0008F0B50400036885B09B680191C5
:104E90000392984723004025FE339B890700ED1AB3
:104EA000012323742300F0331B6801330AD123004C
:104EB000FF335A7D002A05D0002220005A75943015
:104EC000FFF77AFE236820009B6898470028F9D0F6
:104ED000039EB54229D3BE4227D823002700FE33C4
:104EE00002939B89FC37B8689A19C018402A34D8B5
:104EF0003200019900F058FD3500029B3F229B894A
:104F00009B1926001340029A943630009381FFF7D4
:104F1000E3FD002806D1FC342A0030001549656104
:104F2000FFF72AFE039805B0F0BDBD4200D93D0051
:104F300023682A005B68019920009847019B2000A4
:104F40005B1901932368761B9B6898472300FE3307
:104F50009D89402307005D1BBBE74025ED1A2A0011
:104F6000019900F021FD019BB868721B591900F0EE
:104F70001BFDC2E7294E0008037C002B04D0FE3045
:104F80008289038A9A42FCD170470000F7B50193E9
:104F90000223150004000E000022012700931B4984
:104FA0002800FFF766FB1A490B689C46194BC3188B
:104FB0005A1E93413A005B009A4013006246134226
:104FC0001ED11A43230094330A601860B54201D100
:104FD000012676422300F033019A1E605A60089A37
:104FE000043BDA6022001D60FC322100DB3B536091
:104FF0000023FE315134CB819460D3600B82F7BD26
:10500000009B3A00012BE1D00097C8E790600008B0
:105010000C07002000C8FEBFF7B50500002068603F
:10502000FA208000A8604448089C2860C8B226285E
:105030002AD8E027414E8000FF000F4081593943B4
:10504000D0B2262836D8E0273C4E8000FF0017401B
:1050500082593A43D8B2262842D8E027374E8000FA
:10506000FF001F4083593B43E0B226284ED8E0277B
:10507000324E8000FF00274084593C4328000094B2
:10508000FFF784FF2800FEBDC0260E40C02E0ED1C3
:10509000C9280CD83F202A4F08408000C059E0277B
:1050A000264E80008059FF0039400143C8E70121A6
:1050B0004942C5E7C0261640C02E0ED1C9280CD8DB
:1050C0003F201F4F10408000C059E0271B4E80003A
:1050D0008059FF003A400243BCE701225242B9E73F
:1050E000C0261E40C02E0ED1C9280CD83F20144F18
:1050F00018408000C059E027104E80008059FF0002
:105100003B400343B0E701235B42ADE7C0262640A6
:10511000C02E0ED1C9280CD83F20094F2040800056
:10512000C059E027054E80008059FF003C400443F1
:10513000A4E701246442A1E7246400087C6300081A
:1051400054630008CBB210B5262B09D8E0220F4CCF
:105150009B00D2000A4019591143F030016010BD84
:10516000C0220A40C02A0ED1C92B0CD83F23084CBC
:105170000B409B001B59E024044A9B009B58E40011
:1051800021401943E9E701214942E6E77C63000831
:1051900054630008CBB210B5262B09D8E0220F4C7F
:1051A0009B00D2000A4019591143EC30016010BD38
:1051B000C0220A40C02A0ED1C92B0CD83F23084C6C
:1051C0000B409B001B59E024044A9B009B58E400C1
:1051D00021401943E9E701214942E6E77C630008E1
:1051E000546300080023F0B54360FA239B008360FA
:1051F000204B060003600123F0365B4233601E4BF8
:1052000085B004000D00039298421AD1C3212000FA
:10521000FFF798FFC2212000FFF7BCFF0123039A8C
:105220005B42012A00D13360220000930123EC325B
:105230002000126831685B42FFF7A8FE200005B02D
:10524000F0BD0E4A0E4F92680E4B92003900D058B6
:10525000FFF706FA8542D9D00B492800FFF725FA57
:10526000390030602800FFF720FA2300EC33186083
:10527000D4E7C04624640008F00500205463000809
:10528000906000087C630008945F00080300F0331E
:105290001B6810B5040001330DD10368DB68984723
:1052A0002300FF335A7D002A05D1200001325A75B0
:1052B0009430FFF791FC10BD0300FC3373B55A76B0
:1052C000D96107231340023BDBB214000500002222
:1052D000042B01D8174AD25C30232340302B07D14E
:1052E000C0230132DB00082A0AD0092A1AD0FEE7BF
:1052F000202023000340044219D080230132F1E72B
:1053000000222E002407E40F94366403300000943A
:10531000FFF7C8FB2800FFF7B9FF30000649FFF789
:1053200009FC73BD80225201EBE71A00E9E7082A65
:10533000FBD0DCE714640008F54D000810B504004C
:10534000FFF7A4FF2200FE32D1895389994207D08A
:10535000FC346168C85C3F2101330B40538110BDB0
:1053600001204042FBE7000010B50022024803493B
:10537000FFF738FF10BDC046F0050020003801409F
:1053800010B5040000F008F9E060236820005B69B4
:105390009847002808DA00F0FFF8E368C01AA3680D
:1053A0009842F2D30120404210BDF8B506000F002C
:1053B00015000024AC4201D12000F8BD3000FFF7F9
:1053C000DFFF0028F8DB38550134F3E7F7B50F00AD
:1053D00016001D001C1E01900BD000240198FFF741
:1053E000CFFF002805DBB84203D030550134A54279
:1053F000F4D12000FEBD00000D4885460D480E4941
:105400000E4A002302E0D458C4500433C4188C421E
:10541000F9D30B4A0B4C002301E013600432A24283
:10542000FBD3FFF757F900F099FA00F012F8FEE706
:1054300000100020000000206C00002068640008BC
:105440007000002064080020FEE710B500F0C6F8E8
:1054500010BD10B500E000BFFCF780FEFCF784FE35
:1054600000F0ACF8FAE70000F7B5C3B20400019110
:10547000262B29D8E02226499B005C58D200024006
:105480001443631C37D00F2625093540214FAD004A
:10549000EB592640F340DB070DD520001E49FFF7EE
:1054A00031F8002802D02000FEF704FF0122B240AC
:1054B0007B5993437B51019B052B27D81800FBF7A1
:1054C00041FD16211B1D1F23C0220240C02A12D1FC
:1054D000C92B10D83F23114903409B005B58E021A2
:1054E0000B4A9B009B58C9000C401C43C9E7002194
:1054F0002000FFF715F8F7BD1021F9E72021F7E7A5
:105500000321F5E70121F3E70921F1E7FEE7C046B2
:105510007C630008100700208C61000854630008B9
:10552000C3B210B5262B17D8E022174C9B00D2002F
:10553000024018591043030600221B0F022B02D809
:10554000124A9B009A580F24114B20408000C358E8
:10555000002917D0936110BDC0220240C02A0ED18D
:10556000C92B0CD83F230B4C03409B001B59E02454
:10557000054A9B009B58E40020401843DBE70120CC
:105580004042D8E79362E6E77C6300080800002009
:10559000345C00085463000810B5FEF7B7FE10BD78
:1055A00070B5041E09D0FEF7B1FE050000F01AF830
:1055B000FEF7ACFE401BA042F8D370BD054B10B502
:1055C000002B06D00448FFF7E9FB002801D000E0DB
:1055D00000BF10BD00000000F005002010B5FEF770
:1055E000BBFE10BD704700009E2110B5C905041C0C
:1055F000FBF758FE002803D1201C00F00DF810BD69
:105600009E21201CC905FAF769FE00F005F88023E9
:105610001B069C466044F2E741024200C30F490A60
:105620000020120E7E2A03DD9D2A02DD094A981809
:105630007047802000040143952A07DC9620821AD7
:10564000D1404842002BF3D10800F1E7963A91404F
:10565000F7E7C046FFFFFF7F70B5041E0ED0FBF7D3
:105660002BFE03009E20C01A96280CDC082B2DD0A0
:10567000083B9C406402640AC0B201E000200024A0
:10568000C005204370BD992814DC5A1F94402200A5
:1056900010490A40650709D00F252C40042C05D07D
:1056A0000432540102D59F200A40C01A9201540AC4
:1056B000C0B2E5E71A0021001B3291400A00511EDA
:1056C0008A410521C91ACC401443E0E764029620C0
:1056D000640AD5E7FFFFFFFB10B500F000F80620D5
:1056E00010B500F009F90120FFF710FB10B5034BCE
:1056F0000100186800F030F810BDC0461C00002002
:1057000010B5034B0100186800F058F910BDC046F1
:105710001C00002070B50F4E0D00316804000029F8
:1057200002D100F009F930602900200000F004F9EE
:10573000431C03D101256D42280070BD0323C51C05
:105740009D43A842F8D0291A200000F0F5F8013056
:10575000F2D1EFE71C070020F7B50322CB1C9343DF
:10576000083305001F000C2B34D20C27B94233D864
:10577000280000F071F8374E33681C00002C2FD140
:1057800039002800FFF7C6FF0400431C5FD13468CE
:105790000094009B002B4AD1002C52D02368280093
:1057A000E3180099019300F0C7F8019B834248D1A8
:1057B00023682800FF1A3900FFF7ACFF013040D002
:1057C0002368DB19236033685A68002A33D1009BB1
:1057D000336019E0002BC9DA0C232B600020FEBDDA
:1057E0002168C91B20D40B290AD9E2192760A342DA
:1057F00004D1326063681160536005E05A60F9E7D4
:105800006268A3420ED13260280000F02DF820001B
:1058100007220B30231D9043C21A9842DFD01B1A77
:10582000A350DCE75A60EFE723006468A6E7009C1A
:1058300063680093ADE71A005B68A342FBD10023C5
:10584000DAE70C2328002B6000F00EF8C6E70760AB
:10585000DAE7C0462007002010B5024800F0A2F8A1
:1058600010BDC0466008002010B5024800F09BF84B
:1058700010BDC0466008002030B500240139A242A6
:1058800001D1002005E0035D01340D5DAB42F6D08F
:10589000581B30BD03008218934200D17047197025
:1058A0000133F9E770B504000D001F2904D9162350
:1058B00003600120404270BDC36B002B04D08A00FE
:1058C0009B181A68002A08D1200000F031F82A003D
:1058D0000100200000F01AF8EDE7012A09D0511C60
:1058E00003D1162303600120E5E700212800196099
:1058F00090470020DFE7000010B5034B0100186857
:10590000FFF7D0FF10BDC0461C000020002370B57B
:10591000064D0400080011002B60FFF7F9F9431C45
:1059200003D12B68002B00D0236070BD5C080020E1
:1059300010B5FFF7F5F910BD002370B5064D040052
:1059400008002B60FFF7C4F9431C03D12B68002B20
:1059500000D0236070BDC0465C08002070B50026F2
:105960000C4C0D4D641BA410A64209D1002600F07A
:105970006FF80A4C0A4D641BA410A64205D170BDF5
:10598000B300EB5898470136EEE7B300EB58984761
:105990000136F2E7486400084864000860640008C3
:1059A0004864000870477047002310B59A4200D140
:1059B00010BDCC5CC4540133F8E7000070B505009D
:1059C0000C1E10D0043C2368002B00DAE4182800D9
:1059D000FFF742FF1D4A1368002B05D16360146076
:1059E0002800FFF741FF70BDA34208D920682118A5
:1059F0008B42F3D119685B6809182160EEE71A0041
:105A00005B68002B01D0A342F9D911685018A0425D
:105A10000BD120680918501811608342E0D1186832
:105A20005B68411811605360DAE7A04202D90C2389
:105A30002B60D5E7206821188B4203D119685B6879
:105A40000918216063605460CAE7C046200700203F
:105A5000F8B5C046F8BC08BC9E467047F8B5C046CD
:085A6000F8BC08BC9E4670472B
:105A6800012370B50C4C626913436361EFF3108531
:105A780072B680260023091A36030A580133DBB2AE
:105A880004C01F2B03D1626932436261F5E7202B02
:0C5A9800F3D185F3108870BD002002409F
:105AA4000000FF00FF000000FF02FED50F1C0000F5
:105AB4000000FF02FED5191200000000FF02FED50F
:105AC40033F800000000FF0AF6D507FF3F0EF1FF90
