:020000040800F2
:1000000000400020E97F000839800008398000089E
:1000100000000000000000000000000000000000E0
:10002000000000000000000000000000398000080F
:10003000000000000000000039800008576B000835
:1000400039800008398000083980000839800008AC
:10005000398000080D6C00081D6C00082D6C00082C
:10006000398000083980000839800008398000088C
:1000700039800008615E0008795E0008815E000832
:10008000995E0008B15E0008C95E0008E15E0008E4
:10009000F95E0008115F0008295F00083980000838
:1000A000398000083980000839800008A1770008ED
:1000B000B9770008D577000839800008DD8F00087F
:1000C0000023C25C0133002AFBD1581E7047000098
:1000D00002B4714649084900095649008E4402BCE1
:1000E0007047C04602B4714649084900095C49009E
:1000F0008E4402BC7047C04603B4714649084000B4
:100100004900095E49008E4403BC704703B4714640
:10011000490840004900095A49008E4403BC704711
:10012000002243088B4274D303098B425FD3030A36
:100130008B4244D3030B8B4228D3030C8B420DD349
:10014000FF22090212BA030C8B4202D312120902D7
:1001500065D0030B8B4219D300E0090AC30B8B4215
:1001600001D3CB03C01A5241830B8B4201D38B03C3
:10017000C01A5241430B8B4201D34B03C01A524168
:10018000030B8B4201D30B03C01A5241C30A8B42AB
:1001900001D3CB02C01A5241830A8B4201D38B0296
:1001A000C01A5241430A8B4201D34B02C01A52413A
:1001B000030A8B4201D30B02C01A5241CDD2C309AC
:1001C0008B4201D3CB01C01A524183098B4201D328
:1001D0008B01C01A524143098B4201D34B01C01A13
:1001E000524103098B4201D30B01C01A5241C3088B
:1001F0008B4201D3CB00C01A524183088B4201D3FA
:100200008B00C01A524143088B4201D34B00C01AE5
:100210005241411A00D20146524110467047FFE751
:1002200001B5002000F0F0F802BDC0460029F7D06B
:1002300076E7704703460B437FD4002243088B4286
:1002400074D303098B425FD3030A8B4244D3030B5D
:100250008B4228D3030C8B420DD3FF22090212BA22
:10026000030C8B4202D31212090265D0030B8B429E
:1002700019D300E0090AC30B8B4201D3CB03C01A88
:100280005241830B8B4201D38B03C01A5241430B63
:100290008B4201D34B03C01A5241030B8B4201D353
:1002A0000B03C01A5241C30A8B4201D3CB02C01ABE
:1002B0005241830A8B4201D38B02C01A5241430A36
:1002C0008B4201D34B02C01A5241030A8B4201D325
:1002D0000B02C01A5241CDD2C3098B4201D3CB01CC
:1002E000C01A524183098B4201D38B01C01A52417B
:1002F00043098B4201D34B01C01A524103098B427F
:1003000001D30B01C01A5241C3088B4201D3CB0069
:10031000C01A524183088B4201D38B00C01A52414C
:1003200043088B4201D34B00C01A5241411A00D2FC
:1003300001465241104670475DE0CA0F00D0494265
:10034000031000D34042534000229C4603098B42D5
:100350002DD3030A8B4212D3FC22890112BA030A5D
:100360008B420CD3890192118B4208D389019211DF
:100370008B4204D389013AD0921100E08909C30964
:100380008B4201D3CB01C01A524183098B4201D366
:100390008B01C01A524143098B4201D34B01C01A51
:1003A000524103098B4201D30B01C01A5241C308C9
:1003B0008B4201D3CB00C01A524183088B4201D338
:1003C0008B00C01A5241D9D243088B4201D34B0053
:1003D000C01A5241411A00D20146634652415B1095
:1003E000104601D34042002B00D549427047634676
:1003F0005B1000D3404201B5002000F005F802BDBB
:100400000029F8D016E770477047C046D0400B006F
:10041000D1409C46203AD340184352426346934011
:1004200018437047844608006146FFE71FB50AF08D
:1004300091FC002801D40021C8421FBD10B50AF06C
:1004400011FC4042013010BD10B50AF083FC0028B9
:1004500001DB002010BD012010BDC04610B50AF020
:1004600079FC002801DD002010BD012010BDC04630
:1004700010B50AF01FFC002801DC002010BD01208F
:1004800010BDC04610B50AF015FC002801DA0020A6
:1004900010BD012010BDC0461C2101231B04984241
:1004A00001D3000C10391B0A984201D3000A083905
:1004B0001B09984201D30009043902A2105C4018BC
:1004C0007047C04604030202010101010000000060
:1004D0000000000010B5064C2378002B07D1054B17
:1004E000002B02D0044800E000BF0123237010BDA0
:1004F000F8020020000000005CB40008044B10B5B6
:10050000002B03D00349044800E000BF10BDC046E3
:1005100000000000FC0200205CB4000810B5154C7F
:10052000237883420BD91B1A0020092B06DD637840
:10053000994208D200205B1A092B0ADC10BD8342C5
:10054000F5D2C31AF0E7994203D90020C91A092944
:10055000F4DDA3789A4205D201209B1A092B07DC0F
:10056000002005E001209A42E8D9D21A092AF7DDD5
:10057000C0B2E3E78C080020F0B587B00400170094
:100580000291FFF7CBFF00282ED0184B1B785B079A
:100590002AD50026154B02985D78FF216843FFF7A6
:1005A00049FEC3B22800FF2160430493FFF742FED7
:1005B000C3B2280005930E4BFF2178430393FFF746
:1005C00039FEC0B20090B1B2049B059A039801367F
:1005D00002F0B7F90B2EDDD1039802F0A7F8054B16
:1005E000029A1C705A709F7007B0F0BD6006002020
:1005F0006C0800208C08002010B50A4802F044F86E
:10060000094C0322FF21200009F0A1FB0022110068
:100610001000FFF7B1FF03220021200009F097FB33
:1006200010BDC0466C0800208C08002010B50020CA
:1006300002F088FE154C2070012002F083FE6070ED
:10064000022002F07FFEA0700A2811D004210020B1
:1006500002F0B2FE042380210120237002F0ACFEE0
:1006600080230A210220637002F0A6FE0A23A370F1
:10067000172002F067FE064B042801D8187010BD41
:1006800000211720197002F097FEF8E7600600209D
:100690001403002070B5102604000D4D320029000F
:1006A000013009F0E4FB200032000021113009F094
:1006B0004EFB200032000021213009F048FB2000D1
:1006C000A9193200313009F0D2FB200070BDC046BC
:1006D00074B40008F0B51B4987B003000400421C45
:1006E000FA200391002180000090083303980191C3
:1006F00002F06EFB00280DD0237A072B0AD12600CA
:100700000936370005252900039805AA02F028FCC0
:10071000002802D1002007B0F0BD013538000422C6
:1007200005A9EDB209F0A3FB0437092DEBD119346B
:100730003378303B092BEDD80136B442F8D1012093
:10074000E9E7C04664060020064B821D1A70064A7F
:100750005178597091789970D2785871DA70002276
:100760001A7170476A040020EA040020002010B5C6
:10077000FFF7EAFF084802F08FFA084B011E03D08A
:1007800000221A719A7010BD06221A710200FF2011
:10079000FFF7F2FEF7E7C046640600206A04002077
:1007A00030B50D4B0D4C1B780D4D87B09B070CD50C
:1007B00094236A4601201380FFF7C6FF6946200094
:1007C0006A7909F054FB07B030BD18226846054924
:1007D00009F04DFB1720EFE76006002070040020B1
:1007E0006A0400204FB6000830B50E4B0E4C1B7843
:1007F0000E4D87B09B070ED50A2268460C4909F0BA
:1008000036FB0920FFF7A0FF694620006A7909F04E
:100810002EFB07B030BD18226846064909F027FBB9
:100820001720EFE760060020700400206A04002013
:1008300067B6000871B6000830B50E4B0E4C1B7839
:100840000E4D85B09B070ED50D2268460C4909F068
:100850000EFB0C20FFF778FF694620006A7909F04B
:1008600006FB05B030BD0A226846064909F0FFFACA
:100870000920EFE760060020700400206A040020D1
:1008800089B6000894B4000810B50020FFF75CFF9B
:1008900001220021014802F076FA10BD6406002012
:1008A00010B50020FFF750FF00220248110002F0AF
:1008B0006AFA10BD64060020F0B5624B8BB0059358
:1008C0000023059A604D1370604A28001370604A37
:1008D0002B7006921370FFF7FDFE041E11D0012647
:1008E000A9192E7004255B4C2A005B4809F0BFFA59
:1008F00007202572FFF728FF1023A671E3710BB0C4
:10090000F0BD564B544E0793FA23554D9B00010002
:100910000190009332002800079B02F059FA00284A
:1009200031D0504B4B4F31003A7A2800019300945C
:10093000012302F094FA002825D0210028004A4A19
:1009400002F0DCFA00281ED001212800474A02F0FC
:10095000D5FA002817D002212800454A02F0CEFA25
:10096000002810D003212800424A02F0C7FA0028CC
:1009700009D00124069B1C700720FFF7E5FE102319
:10098000BC71FB71BBE7FA230021354D9B0000933E
:1009900032002800079B019102F01AFA002816D1B4
:1009A000C82304AA0293B23B9B180193324B002246
:1009B000009328003300314902F004FB01281CD0C9
:1009C0000120FFF7C1FE0022224B9A7197E7012414
:1009D0002B4B204F31003A7A2800019300942300DA
:1009E00002F03DFA0028DBD002212800254A02F05F
:1009F00085FA0028D4D0154BBDE7234B1B781B0785
:100A000014D50023144A2149D45CC85C84420DD11A
:100A10000133082BF8D10124059B07201C70FFF738
:100A200093FE10220B4B9C71DA7168E71320FFF7DD
:100A30008BFE0122074B9A711F32DA71103A1A723B
:100A40005DE7C046950500207605002017060020CA
:100A5000D60500206A0400207304002072040020E0
:100A60006406002006000020D7050020E7050020CE
:100A7000F7050020070600207B040020FFFF000090
:100A80000C000020380600206006002058060020D8
:100A9000002010B5FFF758FE094B1B78002B0ED134
:100AA000084B1B78002B0AD1074B1B78002B06D173
:100AB000064B1B78002B02D10122054B1A7110BD89
:100AC0009505002017060020D60500207605002099
:100AD0006A040020102010B5FFF736FE4049414B54
:100AE0000A78587A002A1CD0032813D83E4BFFF707
:100AF000F9FA02080B0E981D0131102209F0B7F91E
:100B000010BD981D1131F8E7981D2131F5E7981DAA
:100B10003131F2E70020FFF717FE0122324B1A7144
:100B2000EEE7324B1A78002A13D00328F2D82E4A67
:100B3000FFF7D8FA0205090C2D48591CDDE7901D76
:100B400011331900D9E7901D2133FAE728483133D2
:100B5000F7E7284A1178002913D00328DAD8224B66
:100B6000FFF7C0FA0205090C981D511CC5E7981D36
:100B700011321100C1E7981D2132FAE7981D313278
:100B8000F7E71D4C2278002A1FD00328C2D8FFF7B0
:100B90009FFAD30208DD10220021154809F0D7F88A
:100BA000AEE700211022124809F0D1F800212300FD
:100BB000124C5A7A987A303A120130380243625411
:100BC000013102330829F4D19AE70D4B0100084A9C
:100BD000180002F093F9002800D091E79BE7C04687
:100BE00095050020EA0400206A0400201706002072
:100BF00070040020D605002076050020780400202F
:100C000064060020F0B5544A8BB00492C8220292C8
:100C1000524A07AF0092524B012252490498019761
:100C200002F0D0F9504C060001281DD13B884F4DF1
:100C30005BBA3B80AB7B5A1CE271082B66D009D8AB
:100C4000002B18D0062B29D00020FFF77DFD0323B1
:100C5000237117E00C2B18D0A42BF5D10B20FFF734
:100C600073FD002323740DE00020FFF76DFD0123C9
:100C700023710BB0F0BD1420FFF766FD3B8823768F
:100C80001B0A63766379A371F3E70D20FFF75CFD20
:100C90003B88267463741B0AA374F3E7162702AB20
:100CA000FF186B7E2A7E1B0213433B80AB7E08A994
:100CB00005932A0000238C460598D9B2023281425E
:100CC0001BD30A262A4AAB7E019208AA0092012170
:100CD0003A00049802F01DFA012803D0013EF6B252
:100CE000002EEFD1002323746374A87EA07400014A
:100CF0000D30C0B2FFF728FDC4E7507E917E0002A0
:100D0000014360465E0031520133D5E7162202AB43
:100D1000D2186B7E297E1B020B4313802B7FE87E4B
:100D20001B02034308A95BBA0B80124B009101938D
:100D300031003300049802F077FA05000C20FFF729
:100D400003FD002020746074012D9BD00200FF2160
:100D5000FFF712FC267195E7640600207A04002054
:100D600072040020FFFF00006A040020EA04002053
:100D70007D04002007050020F8B52D4E2D4F337857
:100D80009B0741D5E1214902380007F0E7F83378A5
:100D90001B0711D50024201D02F0D4FA264B18554C
:100DA0000134082CF7D10434200002F0CBFA234B95
:100DB00018550134162CF7D1FFF71EFC204D2800E2
:100DC00001F035FF280001F067FF041E1FD010213D
:100DD000280001F0B1FF280001F088FF80220021E7
:100DE000184808F0B4FF80220021174808F0AFFF30
:100DF00032780223100018401A4216D00021FF2238
:100E00000800FFF7B9FBF8BD96210902BCE7FA20FC
:100E1000400008F0C9FA38000C4906F03DFF2200F6
:100E20002100FF20FFF7A8FBCCE70200FF21E8E745
:100E3000600600202C12002058060020B00500207B
:100E400064060020EA0400206A04002096B6000828
:100E500003003730C0B2092B01D83033D8B2704705
:100E6000E121F8B5194E4902300007F077F8FFF795
:100E7000C3FB174D0427280001F0D9FE280001F01C
:100E80000BFF041E10D01021280001F055FF280090
:100E900001F02CFF40220021FF20FFF76DFBFA201C
:100EA000800008F081FAF8BDFA20400008F07CFAD2
:100EB0003000084906F0F0FE074B1A783A42DDD0C0
:100EC000220021005878FFF757FBD7E72C120020AB
:100ED0006406002096B600086006002001235B42ED
:100EE00010B50360030000216C3341606422197067
:100EF000083008F02CFF10BD03680200002B04D15D
:100F000041680120062903D170470020591CFBD0FD
:100F100050680733C01A43425841C0B2F4E700009A
:100F2000F7B5BA4C2378002B0AD1B94D28780028A0
:100F30004DD102000100FFF71FFB01232B70F7BD0D
:100F40000B2B0AD1B24D2878002840D1B14B0100BB
:100F50005A78FFF711FB01232B702378082B18D147
:100F600008F01AFAAC4EAA4D3368C01A952806D973
:100F70002B785A4253412B7008F00EFA3060A54B83
:100F800028785978021E02D00A0000210800FFF7D5
:100F9000F3FA23780A2B1AD108F0FEF99E4E9C4DE5
:100FA0003368C01AFA235B00984206D32B785A4262
:100FB00053412B7008F0F0F93060964B2A7858783E
:100FC0000100002A01D000221100FFF7D5FA237892
:100FD000042B1ED1914E3578002D06D12A00290010
:100FE0002800FFF7C9FA2570A9E708F0D5F98A4D5E
:100FF0002B68C01A8A4B1B6898420AD300223078AB
:101000001100FFF7B9FA3378053B337008F0C4F9E3
:1010100028602678012E36D1804B01931B78002B57
:1010200000D18CE77A4D2878002805D1794B020051
:101030005978FFF7A1FA2E7008F0AEF9764E784F86
:101040003368C01A3B6898421AD302232B700133CD
:101050003B6008F0A1F93368C01A3B68984212D38C
:10106000019B00201978CA43D2B2FFF785FA019B91
:10107000019A1B78193B137008F08EF9306002E07A
:101080002B78022BE5D02378072B37D1634B0193C4
:101090001B78002B00D152E75D4D2978002906D13D
:1010A0005C4B0A005878FFF767FA01232B7008F0B1
:1010B00073F9594E5A4F3368C01A3B6898421AD395
:1010C00002232B7001333B6008F066F93368C01AC5
:1010D0003B68984212D3019B00211878C243D2B2D8
:1010E000FFF74AFA019B019A1B78193B137008F02D
:1010F00053F9306002E02B78022BE5D02378032BE4
:1011000041D1434D2E78002E13D108F045F9424FBE
:101110003B68C01AFA239B00984205D301232B7029
:1011200008F03AF938600AE732003100FF20FFF793
:1011300023FA2B78012B13D108F02EF9364E3368A1
:10114000C01AFA239B00984205D302232B7008F0A3
:1011500023F93060F3E60022FF211000FFF70CFABC
:101160002B78022B0FD108F017F92B4E3368C01AD9
:10117000FA239B00984201D30023E7E70021FF22D6
:101180000800FFF7F9F92378022B00D0D7E608F022
:1011900003F9214C1E4D2368C01AFA235B009842C4
:1011A00006D308F0F9F82B7820605A4253412B708F
:1011B0002D78002D13D108F0EFF82368C01A0AF03B
:1011C00007F9184909F02EFC174909F011FE09F03A
:1011D00011FC2900C2B22800FFF7CEF9AFE608F0F3
:1011E000DBF82368C01A0AF0F3F80E4909F01AFC7C
:1011F0000D4909F0FDFD011C0B4809F037FF09F00E
:10120000F9FB0021C2B20800E6E7C0462003002037
:10121000160300206006002018030020170300209A
:101220001C0300200000FA4300007F430222054B0C
:1012300010B51A7008F0B0F80022034B1860034B89
:101240001A7010BD20030020180300201603002090
:101250000322054B10B51A7008F09EF80022034BCC
:101260001860034B1A7010BD2003002018030020E3
:10127000160300200A22094B10B51A70084BF532EC
:101280001A70084B5A32FF321A6008F085F80022B3
:10129000054B1860054B1A7010BDC0462003002096
:1012A000170300201C030020180300201603002051
:1012B0000022024B1A70024B1A7070472003002064
:1012C00016030020002110B5024B08005A78FFF7E2
:1012D00053F910BD600600200822094B10B51A70A2
:1012E000084BF7321A70084B5A32FF321A6008F076
:1012F00053F80022054B1860054B1A7010BDC0460C
:1013000020030020170300201C03002018030020E6
:10131000160300200122094B10B51A70084BFE324B
:101320001A70084B5A32FF321A6008F035F8002262
:10133000054B1860054B1A7010BDC04620030020F5
:10134000170300201C0300201803002016030020B0
:101350000722094B10B51A70084BF8321A70084B67
:101360005A32FF321A6008F017F80022054B186055
:10137000054B1A7010BDC046200300201703002043
:101380001C030020180300201603002010B51128AC
:101390000AD8FEF7A7FE170D0D0D0D1A0D0D200D25
:1013A0000D1D140D0D0D0D0E162805D01B2815D082
:1013B00010BDFFF7AFFFFBE7FFF7CAFFF8E7FFF746
:1013C0008BFFF5E7FFF774FFF2E7FFF72FFFEFE77B
:1013D000FFF73EFFECE7FFF74DFFE9E7FFF772FF8E
:1013E000E6E7000010B5024801F040F910BDC04624
:1013F0006C080020F8B50124FF251D4E300006F0D2
:1014000035FD002830D0300006F038FD194BC0B251
:10141000194A1870E02801D11570EEE71178FF29FC
:1014200006D110700022154B1A70154B1870E4E7A6
:101430001449D02801D10C70DFE70E78002E03D0BC
:1014400001301870002008700C491E780B780C4889
:101450000133DBB2D65417780B7001789F4204D168
:101460000520B14200D1D078F8BD89190170C4E7D8
:101470002C12002068040020EA04002069040020E7
:101480006704002066040020FF21F0B50022080058
:1014900093B0FFF771F80025B14C200006F0E6FC90
:1014A000002813D1AF48FFF715F9011E20D0AE492F
:1014B000200006F0F1FBAD49200006F0D1FB200032
:1014C000AB4906F0CDFBFA208000A0E0200006F03A
:1014D000D5FCC0B2AF28DED10135EDB21E2DDBD177
:1014E0000022A44B1A70A44B01321A7013B0F0BD45
:1014F000FA239B0000931723A04D04AA01909B1888
:1015000028000BAA01F064FC002829D004ABDA7D86
:101510009B4B2800019301230BA9009301F09FFC32
:1015200000281DD02000974906F0B6FB2000964900
:1015300006F096FB04ABD97D0BA801F085FB2000DB
:10154000924906F08DFB924C02212200280001F006
:10155000D5FC0028B7D01021200001F075FBB2E7C0
:101560001725FA27002604ABED18844BBF0005931E
:1015700031002B000598019600970BAA01F028FC7A
:10158000B04228D1FA2700267C4BBF0005933100DA
:101590002B000598019600970BAA01F019FCB042A8
:1015A00038D1FA260021B6002B000598019100964B
:1015B0000BAA01F00DFC071E44D07649200006F06E
:1015C0006BFB7149200006F04BFB29780BA801F05A
:1015D0003BFB30001BE0704B2A7805980193009686
:1015E00001230BA901F03BFC0028CBD06B49200064
:1015F00006F052FB6449200006F032FB29780BA864
:1016000001F022FB2000664906F02AFB380007F0B3
:10161000CBFE6BE7634B2A78059801930096012374
:101620000BA901F01CFC0028BBD020005E4906F08D
:1016300033FB2000544906F013FB29780BA801F076
:1016400003FBE3E7C8230293584B514D06930193E4
:10165000574B01220793009356492B00059801F040
:10166000B1FC012877D15449200006F015FB5349FD
:10167000200006F0F5FA2800082101F0E5FA5049AB
:10168000200006F0EDFA0821079801F0DDFA4D4937
:10169000200006F0E5FA2B8A02215BBA8026069824
:1016A0002B8201F0D1FA3D0076003100002006F0D7
:1016B00082FC282204AB9B1858550135102DF4D11B
:1016C0004149200006F0E8FA29000EA801F0BCFA12
:1016D00009230AAA138004A911335B183B490CADF6
:1016E0001980009301230EA901910598190001F0BA
:1016F0009BFD08222800364908F0B9FB354E04232B
:101700000121354A00950598019601F002FD334903
:101710000700200006F0C0FA0025314A6B00D15ABC
:1017200020001022012F0AD106F014FB28011021FD
:10173000301801F089FA0135042DEED1C3E606F028
:1017400009FB2000274906F08BFA102239002000FF
:1017500006F000FBEFE72000234906F09DFA38E78A
:101760002C120020760500209CB60008A9B60008BF
:101770007F050020140300201503002064060020CC
:101780000C000020B6B60008C1B60008CCB60008B0
:10179000540400200FB7000806000020DAB6000845
:1017A000EDB6000800000020FBB60008640400202D
:1017B0005C040020FFFF000023B7000830B70008DA
:1017C00035B700083AB7000846B700088080FFFF29
:1017D0009EB400081404002092B7000865B7000802
:1017E00094B7000873B700087AB7000810B5054C25
:1017F000200006F03BFB002800D110BD200006F0C1
:101800003DFBF4E72C12002070B5040008000D0029
:1018100005F0ABF8656020602000FFF7E7FF2000CF
:1018200070BD000073B50125522307220B21194812
:1018300001F070F8184E6D422B0016223000009512
:10184000172106F07FF9154C3100200001F0D2F885
:101850002100134801F0E7F91248FEF71BFF124878
:101860000024FEF717FF1148FEF714FF8021104BEC
:1018700089001C700F4B10481C70FFF7C5FF0F4B01
:101880001D605C606C331C700D4B1D605C606C33C4
:101890001C7073BD6C08002014070020080700208E
:1018A0006406002017060020D605002095050020BC
:1018B0008F050020760500200C0400209C030020EA
:1018C0002C030020F7B5164FFB78002B26D00026FE
:1018D0003500144BE0211800019306F090FA3B7894
:1018E0003400AB4202D07C5DA619F6B22300102270
:1018F00030339343DBB22100002B05D1D021019876
:10190000013C06F07CFAE1B2019806F078FA013564
:101910003B78EDB2AB42E3D20023FB70F7BDC0468B
:101920006A0400202C12002070B5FFF763FD04004C
:10193000622840D84F281FD8442806D82F282AD8F4
:10194000002847D0052800D17EE00020FEF7FCFEED
:101950000022784B1A713DE02000F0380928F4D8B5
:10196000FEF7CAFB6F00F3FFF3FFF3FFF3FF550031
:1019700078008A00D100DE0050381228E5D8FEF742
:10198000A7FB415356E44A53E4E4E4E4E4E4E4E42A
:10199000E4E4E432270030381428D6D8FEF798FB68
:1019A0001DD520D5D5D5D5D5D5D5D5D5D5D5D5D554
:1019B000292C2F373700F928C7D8EF28CCD8812811
:1019C00038D0822806D07128BFD1FFF71BF901E07B
:1019D000FEF7CCFEFFF776FF70BDFEF7E1FEF9E7FC
:1019E000FEF702FFF6E70020FEF7AEFE2022514B85
:1019F000B0E7FEF749FFEDE7FEF752FFEAE7FEF733
:101A00005BFFE7E706224C484C4908F030FA00201B
:101A1000FEF79AFEDEE70020FEF796FE0622474913
:101A2000474808F024FAD5E7FFF732F8D2E7FFF786
:101A300051F8CFE7434BDA7999795879FEF79CFD55
:101A4000C8E7FEF7F9FEC5E70020FEF77DFE394B3B
:101A50001C71BFE70020FEF777FE0422354B5A7158
:101A600006321A70384A117899715178D971927882
:101A70001A7207225A72ADE73249334C4D79082267
:101A800025708B7931480731637008F0F0F90A222C
:101A90002F49304808F0EBF92900002001F08CFCB8
:101AA0000120617801F088FC04252B4E2800715D2F
:101AB000013501F081FC0C2DF7D12800715D013555
:101AC00001F07AFC162DF8D12178143D29404B42C3
:101AD0005941224B49421940E1235B022048C91871
:101AE00006F03CFA2378180028402B4208D0002149
:101AF000FF220800FEF740FD012007F055FC86E7B5
:101B00000200FF21F6E70F4B5979164B1970032994
:101B100002D0172001F050FC0122134B1A7059E734
:101B20000020FEF711FE182001F00CFC014B98710B
:101B300050E7C0466A04002070050020EF04002032
:101B40006A050020EA0400206006002058060020F4
:101B5000F9040020BC050020ED04002000D4FEFFA5
:101B60002C12002014030020150300207FB5174C11
:101B70002000FFF7C1F9002803D12000FFF7AEF9DC
:101B80007FBD23006C331B78002B13D001AE0722DE
:101B90000F49300008F06BF90B2003220021684444
:101BA00008F0D5F80025715D0A48013506F027F9DF
:101BB000062DF8D100256368AB42DEDD064B0548F3
:101BC000595D06F01CF90135F5E7C0462C030020ED
:101BD000A6B400082C12002034030020F7B504003E
:101BE00008000F000192FEF76BFA184D461C3900F1
:101BF0003200280006F016F90700280006F0A4F9C4
:101C0000BE4213D807F0C8FB00260700280006F0E4
:101C1000AFF9002801D1206809E007F0BDFB019B66
:101C2000C01B984204D92000FFF7E0FD0848FEBD24
:101C3000280006F023F90028E8DB2268731C905581
:101C400062689A42EFD91E00E0E7C0462C120020DD
:101C5000AABC00080022F0B511001000ABB0FEF7DE
:101C60008BFC0025934E300006F000F9041E59D17C
:101C7000152609AF06229049380008F0F8F802ABA3
:101C8000F618FA238D4D9B00347021000093280034
:101C90003300019408AA089401F09AF8002856D05D
:101CA0000123327828000197009308A901F0D7F8A2
:101CB00000284CD0022128000FAA01F01FF90028AB
:101CC00045D02200FF212000FEF756FC4D227C4922
:101CD00013A808F0CCF8912002AB0D22C018210007
:101CE00008F035F8774B1E78202332001A401E4248
:101CF00000D0C1E08527140002ABFF18182202AB08
:101D00009B181B5D013418090593FFF7A1F80F23F9
:101D1000387005981840FFF79BF878700237042C4C
:101D2000ECD1BEE0300006F0A9F8C0B2AF2898D1DF
:101D30000135EDB21E2D95D100210122624B98385C
:101D40001970624B1A7001F037FB2BB0F0BDFA230B
:101D500000249B000093210033002800019408AA6E
:101D600001F036F8A0423CD0594B3278280001935C
:101D70000094012308A901F072F8002831D0220054
:101D8000FF212000FEF7F8FB4D224D4913A808F073
:101D90006EF89120852602ABC0180D22210007F0B5
:101DA000D6FF02ABF618182202AB9B181F5D013458
:101DB0003809FFF74DF830700F203840FFF748F82A
:101DC00070700236042CEED13E4B1B785B066AD451
:101DD000FA224048920013A9FFF700FF642007F0A1
:101DE000E3FA0024C8220C9402A90292B23A5218D3
:101DF0000BAE0DAB0192009301223300280036494F
:101E00000B940D940E9401F0DDF801289DD1FF2272
:101E100021002000FEF7B0FB4D22304913A808F046
:101E200026F891207D2502ABC0180D22210007F075
:101E30008EFF02ABED18375D01343809FFF708F863
:101E400028700F203840FFF703F868700235082C1F
:101E5000F1D11C4B1B785B0604D57A2302AA9B1890
:101E600031221A70FA2213A992001A48FFF7B6FE1F
:101E7000642007F099FA68E77D2702ABFF180FABE3
:101E80001B191B7A013418090593FEF7E1FF0F2394
:101E9000387005981840FEF7DBFF78700237082C81
:101EA000EDD1760694D57A2302AA9B1831221A70B6
:101EB0008EE7C0462C1200208BB700086406002075
:101EC000B0B40008600600201403002015030020B1
:101ED000060000200C040020FFFF00000AB50008E7
:101EE00096210022F0B5384B8DB0384809021A709F
:101EF00006F034F8E121364D06222800490205F0AB
:101F00004BFEFEF779FB2422324903A807F0AFFF0E
:101F1000280005F0E6FC041E1FD103AB195D280064
:101F2000013405F006FD182CF7D107F035FAFA2731
:101F30000F260190FF00002E13D007F02DFA019B11
:101F4000C01AB8420DD8280005F0CBFC0028F4D008
:101F5000280005F05FFE013EEDE7280005F05AFE7F
:101F6000D6E703AB195D2800013405F0E2FC242C10
:101F7000F7D107F011FA0700153C002C11D007F03B
:101F80000BFAC01B32280CD8280005F0AAFC002848
:101F9000F5D0280005F03EFE013CEEE7282007F0D2
:101FA00003FA002EFAD1FA2007F0FEF93C22FF20B6
:101FB0001100FEF7E1FAAF20800007F0F5F90648BE
:101FC000FEF78CFF0DB0F0BD280300202C1200207E
:101FD0001407002064B500082C030020002110B570
:101FE000094805F0BFFFFEF721FB084B1B78012BCA
:101FF00004D0022B05D0FEF7BFFE10BDFEF730FF68
:10200000FBE7FFF76DFFF8E72C1200201403002018
:10201000F0B57D4C012523689FB0002B06D17B4B8A
:102020001D702000FEF75AFF1FB0F0BDA37B0E2BE2
:102030001AD1E37B012B02D1207CFFF7A7F9012104
:10204000734A744B117002221D001A6009230EAEF0
:102050000832300070496B60083507F008FF06CE83
:1020600006C532882A800025A27B182A15D1684926
:10207000684B173A0A70E27301321D001A60092397
:1020800066496B600EAE08323000083507F0EFFE8F
:1020900006CE06C532882A80C3E7322A0ED1E37BFA
:1020A000812B12D101215A4A5A4B117002221D0074
:1020B0001A6009235A496B600EAEE4E7062A3AD14A
:1020C0002268122A0ED0182A26D00026B542A8D09F
:1020D0006368B342A5DD534B5348995D05F029FC75
:1020E0000136F5E701204A494A4B08700A211D00D4
:1020F000196011230EAE30004C496B6007F0B7FE3B
:102100003A2304AA9B1800221A802B00083326CEFB
:1021100026C306CE06C384E701213D4A3D4B11701C
:102120000D220EAE1A603000073241491D005A6080
:1021300007F09DFEE9E70C2A1CD101203449354BFC
:10214000087005210EAE19605A603A491218300025
:102150001D0007F08CFE02220021352004ABC018C0
:10216000083507F0F4FD07CE07C532882A80B2781B
:10217000AA7056E7122A12D10121254A254B117067
:1021800002221D001A6009230EAE2B4908323000CE
:102190006B6007F06CFE052200213220DEE7082A82
:1021A00009D00026522A53D0442A00D17FE0A02A29
:1021B00000D1ADE089E7E37BFF2B18D0632B84D1FE
:1021C0000121144B124A1F00117003220EAE1A6037
:1021D00030000732194908375A6007F048FE06CE2A
:1021E00006C73288164B3A800F221A606DE701212C
:1021F000074A084B117003221A6007321D000F496D
:102200005A600EAE40E7C0469C0300202203002027
:10221000980300202C03002088B5000892B5000820
:102220009CB50008A403002014070020A6B50008F0
:10223000BAB50008CEB50008DDB50008ECB5000859
:1022400024030020744B3800995D05F072FB0136C1
:102250006368724FB342F5DC00251026380005F0A4
:1022600040FB0028FAD0380005F0D4FC013E0EA94E
:1022700048550135002EF1D10122694B694E1A7083
:1022800004230A32336072604B7B002B00D09DE048
:10229000654907AD2800083607F0E9FD06CD06C6FA
:1022A0002A883280AA78B270A37B442B2DD10025D6
:1022B00063685A4FAB4200DD8EE0002510263800DF
:1022C00005F00FFB0028FAD0380005F0A3FC013E12
:1022D0000EA948550135002EF1D10122504B514D28
:1022E0001A7004230A322B606A604B7B002B7AD170
:1022F0004E4907AE3000083507F0B9FD06CE06C5D9
:1023000032882A80B278AA70A37BA02B00D088E6FE
:10231000474B07AE1C2247493000039307F0A7FD47
:102320001222454909A807F0A2FD00221300B15C62
:1023300001325B18DBB21A2AF9D1DB430025B376F0
:10234000364B715D18000135019305F0F2FA1C2D32
:10235000F6D1002507F020F82F003D260290FEF769
:10236000DFFD07F019F8029BC01AF92816D801986A
:1023700005F0B7FA0028F2D0019805F04BFC0EA941
:10238000485501350A2D04D14B7A032B01D1012781
:102390002D3E013E002EEAD1002F29D00121204AF6
:1023A000204B117003221E001A600A23039904AD0A
:1023B0000832280073604A31083607F058FD06CD10
:1023C00006C62A883280AA78B2702AE6272B00D067
:1023D0006AE71A4907AD5DE70F4B3800595D05F014
:1023E000A8FA013564E7272B8ED1154907AE81E79E
:1023F00063220B7B0B4860330B7304ABD21813784A
:10240000603B1370064B3D221F7036234260036011
:10241000083007F02CFD04E6A40300201407002078
:10242000980300202C030020F6B5000828B6000809
:10243000F4B500080CB60008AD03002001B6000892
:1024400033B6000810B5234C200005F00FFD224BD9
:1024500000283BD00A2220001A7005F00FFDC1B2FF
:1024600002001E4B1E48AF2908D11C7801341C7095
:102470004368002B0ED1FEF731FD10BD00241C7007
:102480004368A34206D1A142F5D15A1CC318426049
:102490001972F2E7022BF8DD032B0CD1D2B20260E5
:1024A000FF220133C1724360836812041B021B0ABE
:1024B0009342E2D0DFE75A1CC31842601972FEF75C
:1024C0001BFD0028D9D0FFF7A3FDD6E71A78013A03
:1024D0001A70D2E72C1200202103002028030020CC
:1024E0009C03002070B5FFF7ADFF214B1B781E2B1E
:1024F00009D1002101221F4B172019701E4B1A70A1
:1025000000F05AFF70BDFFF731FB1C4D1C4C2B68CF
:10251000002B26D0200005F0E4F9002810D1194B3B
:102520001B78002BEED1184805F0A0FC0028E9D15B
:10253000200005F0D6F90028E4D1FEF7F1FCE1E730
:102540002B68002BEBD0200005F064FB2B68013BCF
:102550002B60DFE7200005F05DFBC1B20A4805F003
:102560004EFC200005F0BDF90028F3D1D7E7C046A6
:10257000280300201403002015030020240300205A
:1025800014070020210300202C120020802270B5A7
:1025900011000020FDF7F0FF0024164D280005F083
:1025A00065FC002812D0280005F068FCC1B2AF29F4
:1025B0000DD10134E4B21E2C0AD1002101220E4BB0
:1025C000172019700D4B1A7000F0F6FE70BD002434
:1025D0000B4E300005F0ADF9300005F082F900280F
:1025E000DBD0300005F016FBC1B2280005F007FC77
:1025F000F2E7C0462C12002014030020150300202F
:102600001407002070B5174C174E2378002B09D003
:102610003578012D0ED0022D11D0002D02D1FEF7FC
:10262000ABFB25703078013803280BD8FDF75AFD35
:1026300010130D16FEF714FC00232370F2E7FFF7CA
:102640004FFCF9E7FFF770F970BDFEF71DFFFBE7E0
:10265000FFF700FBF8E7FFF745FFF5E7FFF796FF09
:10266000F2E7C046150300201403002010B5040053
:10267000C06807F047F90623E05E002802DB00216E
:1026800006F0E4FD200010BD10B504000623C05E76
:10269000002807DB012106F0D9FD00210623E05EBA
:1026A00006F03CFE0123637010BD70B50500C068E4
:1026B0000E0007F027F92B7CEC7CE41A631E9C418A
:1026C00003347443A4B22000AC8007F011F9E86031
:1026D000002805D02200002107F039FB6E8070BD74
:1026E0000600A880FAE70322F8B58B090D098F08C8
:1026F0001740134015400A4047748274FF27002298
:102700008F4252410270C268C47C067CC374057457
:10271000002A0AD0A21B5B1B51424A4159424B413D
:102720009A4202D04188FFF7C0FFF8BDF0B5C368F8
:10273000040089B0002B00D18EE096256D0006F0D4
:102740002FFE6369984201D26061F8E7C01AA8427F
:10275000F5D372B6A288E368404D9A1803925A1CCA
:102760001B78019202936B680593AB6806932378FC
:102770000493049A3A4B1F68002A32D03949380032
:10278000FDF7CEFC384906003800FDF7C9FC374993
:10279000331A38000493FDF7C3FC331A9C46002318
:1027A000013E6E60AB6080331E00A169E069029F4C
:1027B000624688613B4200D1049AAF689742FCD8D8
:1027C00088625B0809D1019B039FBB423CD21B7806
:1027D0000293019B013301933300AF689742FCD908
:1027E000E5E723493800FDF79BFC22490600380045
:1027F000FDF796FC2049331A38000793FDF790FC4B
:10280000331A9C46049B013E6E60AB6080231E0021
:10281000A169E069029F624688613B4200D1079A44
:10282000AF689742FCD888625B0809D1019B039F7F
:10283000BB4209D21B780293019B01330193330001
:10284000AF689742FCD9E5E7059B6B60069BAB60E0
:1028500062B606F0A5FD606109B0F0BD10E000E0D1
:102860005400002000350C00A0252600D0121300D3
:10287000801A060080841E0035B70C0070B54378BE
:1028800004000D00002B06D00623C05E002802DBEA
:10289000002106F0DBFC6378E580002B07D00121E6
:1028A000280006F0D3FC0021280006F037FDEBB22B
:1028B000144A242B0BDDC0222A40C02A1AD1C92B6E
:1028C00018DC3F2310492B409B000E4A5B58E02147
:1028D0009B009B58C900294019431B061B0F052B61
:1028E00004D90023A3610F23194006E0074A9B0087
:1028F0009B58F7E700230F21A361054B8900CB58B4
:10290000E36170BDD0BB0008A8BB00081800002020
:10291000D8B7000870B5040000200E00150019009B
:1029200060702072E06060612000FFF7DCFE310023
:102930002000FFF7BAFE29002000FFF79FFF2000CC
:1029400070BDF0B505AC257844888C4216D9047A60
:10295000002C05D0624363436543120A1B0A2D0A0B
:10296000C47C077CC668A74209D10324614371185F
:10297000047C0A55427C8B54837CCD54F0BD890085
:10298000711800260E55F3E7E12110B506224068C4
:10299000490205F001F910BD10B50368C9B21B6802
:1029A000984710BD10B5040055214068FFF7F4FFAB
:1029B00055216068FFF7F0FF6068002103681B681D
:1029C00098476068002103681B6898476068002189
:1029D00003681B689847606803681B6998476068CC
:1029E00003681B699847002800D110BD6068036820
:1029F0005B69F3E7024B4160036000230372704799
:102A0000A4B70008F7B506001D000024009101924C
:102A1000019B9C4211DA06F0BFFC07007068036856
:102A20005B69984700280ADA002DF7D006F0B4FC5D
:102A3000C01BA842F2D3002C05D060B2FEBD009BA3
:102A400018550134E4E702204042F7E7F0B587B0BB
:102A500005AE170002910322310005000193FFF734
:102A6000D1FF002802DC022040424EE03378727829
:102A7000134302D1B378FF2B01D00320F4E70222E5
:102A80002800019B04A9FFF7BDFF0028EBDD04AB84
:102A90001C785B78E318DBB2002BEED1023CE4B289
:102AA00004AB1C70BC4238D82F7A02227B1CDBB2EC
:102AB000039331002800019BFFF7A4FF0028D2DD1B
:102AC0003378D52BD9D17378039A9342D5D122008C
:102AD0002800019B0299FFF795FF8442C3D1002390
:102AE0002A3FFFB2DAB2944211D802222800019B99
:102AF00005A9FFF787FF0028B5DD04AB18795B79DE
:102B000038181843C0B20028B7D107B0F0BD029AF8
:102B1000D25C0133BF18FFB2E4E70420A4E7000051
:102B20001FB5040006220C49684607F0A0F90A23E5
:102B30000622200002A9FFF765FF002809DD062212
:102B4000694602A807F0E2F8431E9841404204B0EB
:102B500010BD0220FAE7C04649B60008F7B50D00DF
:102B60001700019308AB1B780400406800930368CA
:102B70001B699847606803681B699847061E606870
:102B800044D12B783100237203681B689847606832
:102B9000310003681B6898476068FF2103681B6861
:102BA0009847009B60685E1CBE190368F6B21B68FC
:102BB0003100984771426068FFF7EEFED4216068EB
:102BC000FFF7EAFE60683A00036829005B689847EF
:102BD000D426EF19AF421CD16068009A03680199AE
:102BE0005B689847019B009A9A18934216D16068D7
:102BF00071420368C9B21B68984760680021036886
:102C00001B6898472000FFF78BFFFEBD03685B69D8
:102C1000AFE72B780135F618F6B2DBE71978013308
:102C20007618F6B2E1E70300A03319607047A030D0
:102C300010B50400006803681B68984720680368A3
:102C40005B68984710BD0000F7B5060000240191AD
:102C5000019B0E4D9C4204D328000D4905F01CF841
:102C6000F7BD335D37190F2B0BD82800094904F045
:102C7000F7FF102228003978013405F081F8E4B21A
:102C8000E6E72021280004F0EFFFF2E72C120020F5
:102C9000AABC0008B4B70008F7B502230400060078
:102CA000C37725000023A03630681F3502680093E3
:102CB000976829000122B847002801D00020FEBDF6
:102CC0003068802203682900DE68FA239B00B04741
:102CD0000028F3DB6A78E37F12021A43AB78E878C6
:102CE0001B0413430006184300BAE8E71423F7B5A2
:102CF0000122050000240600C3770E4BA035038493
:102D0000C31CDA7728681F36036800949F68310077
:102D100023000332B847A0420AD128688022036802
:102D20003100DC68FA239B00A047C417241AE40F83
:102D30002000FEBD01140000F7B532220600C27764
:102D40002E3AFF3A0284C21C012035000024D077BD
:102D5000321DD177A03528681F36036800949F681C
:102D6000052223003100B847A0420AD128688022FA
:102D700003683100DC68FA239B00A047C417241ABB
:102D8000E40F2000FEBDF7B5060032200124350017
:102D9000F077701CC47700241143B21CD177A035A2
:102DA00028681F36036800949F68032223003100BF
:102DB000B847A0420AD12868802203683100DC6845
:102DC000FA239B00A047C417241AE40F2000FEBD7D
:102DD000F0B587B003930CAB1B88029204930DAB44
:102DE0001B78012205934A2304000600C377431C85
:102DF000DA77831CD97727000023A03630681F3785
:102E000002680093956839000322A847051E02D086
:102E1000002007B0F0BD3068802203683900DE680A
:102E2000049BB0470028F3DBE37F012BF0D1621D48
:102E3000D37F03990B70D37FAB4204D8059B002B43
:102E400009D10120E5E763190633DB7F02994B5571
:102E50000135EDB2EFE7631CDB7FA373F1E7F0B55B
:102E600007000400150085B01E000AAB1B78083768
:102E70000622380002910B99039306F0F8FF2A000E
:102E80000299200006F0F3FF40230122E377631C40
:102E9000E571DA77039B20005A1E9341A21C603330
:102EA000D377E31CDE7739000622233006F0DFFFFC
:102EB000200026002A002100293006F035FF0021DD
:102EC000A03630680A35036800919B681737EAB26C
:102ED0001D000B003900A8470025A8420BD130681F
:102EE000802203683900DD68FA239B00A847E57F4C
:102EF0006B425D41EDB2280005B0F0BD4023F0B556
:102F00000400C3770500154B85B00384C31CD97733
:102F10001D33260003930023A0352868029202681F
:102F20001F360093976831000422B847002802D06A
:102F3000002005B0F0BD2868802203683100DD68FC
:102F4000FA239B00A847E37F002BF1D110220399BD
:102F5000029806F08CFF0120EBE7C046013000002C
:102F60004023F0B50400C3770500154B85B00384FA
:102F7000C31CD9771D33260003930023A03528688E
:102F8000029202681F360093976831000422B84706
:102F9000002802D0002005B0F0BD28688022036818
:102FA0003100DD68FA239B00A847E37F002BF1D1B5
:102FB00004220399029806F05AFF0120EBE7C0466D
:102FC00001300000F0B585B002930CAB1B88040003
:102FD00003934A23C3770223FF330384002326008D
:102FE00027000330C3770D0A201DC577601DC17708
:102FF000A11DCA77E21DD377A03630681F3702685B
:103000000093956839000822A847051E37D130681B
:10301000162203683900DE68039BB047002831DBC5
:10302000E37F002B1FD0012B2ED1631CDB7FFD2201
:10303000A373A31CD97F0425080012380300134092
:1030400010421DD122000F32107D029DE8541070F5
:103050000A9D107F0132E8540133D071082BF3D15F
:10306000142903D00125280005B0F0BD333463785E
:1030700022781B0213430B9A5BBA1380F2E70125F7
:103080006D42F0E70225FBE70325F9E7F0B585B0CF
:1030900004000293FF2A33D0402326002700C37781
:1030A000431C0393837B0130C377501CA31CD87748
:1030B000A03630681F37036800929B6803221D000A
:1030C0000B003900A84700281DD130688022036812
:1030D0003900DE68FA239B00B047002815DBE37F48
:1030E0009B0614D12100631CDA7F0A9B013AD2B2FD
:1030F00002981A70213106F0BAFE012005B0F0BD29
:1031000001204042FAE70220FBE70320F9E7042010
:10311000F7E7F0B589B002AF0D0016001C0078602B
:10312000102974D8042B00D976E06A460533CB18F1
:103130005B000133DBB2BB600733DB08DB00D31A73
:103140009D4602ABFB6009200623FA68796813707C
:10315000684408220F3106F08AFEFB6800225D7287
:1031600012236D006B44AA423DD11300F9680B3362
:103170008A1894723A6B6600DBB29619B24239D162
:10318000240123006A460C333B600733DB08DB0075
:10319000D31A9D461723FE18009602AD2B00BA687D
:1031A000F9687868FFF772FF012837D133783A68F9
:1031B000934235D16B7A002B34D1AB7A002B31D1CD
:1031C0007B6B9C46A4440C24E41AE118C9B29C45CC
:1031D0001FD000228E18F6B2AE5D9E540132102A26
:1031E000F8D11033F1E7B15A02321970090A597057
:1031F0000233B8E7591CC9B28C461088F968050A31
:10320000CD5465460233DBB248550232B6E70120A1
:103210004042BD4607B0F0BD0220F9E70320F7E7C2
:103220000420F5E70520F3E7F0B58BB002AF0C0002
:103230001E00B8607A6010296CD80A2B00D96EE0A5
:103240000533CB18F2009B186A465B000133DBB2F2
:10325000FB600733DB08DB00D31A9D4608220920F8
:10326000B96802AD2A7068440F3106F000FE1223DF
:1032700000226C726B446400A2422BD11300B96B24
:10328000AA189672720094460A000B336244DBB2AD
:103290003A601A003868814224D16344DBB23201BB
:1032A0009A18F86BD2B29A4228D11323FC180094D2
:1032B00001332900FA68B868FB18FFF7E7FE012818
:1032C0002FD123780B2B2ED17B7FBA7F134323D0B2
:1032D000052020E07968895A02321970090A59706C
:1032E0000233C9E70888541CE4B27C60040AAC5479
:1032F0007C680232D2B228550231CBE70021465C0D
:103300005C18E4B201312E551029F8D11033DBB22C
:103310001030C8E701204042BD4609B0F0BD022090
:10332000F9E70320F7E70420F5E70000802210B555
:1033300002480349120106F09AFD10BD90080020D2
:1033400000F8010810B50400FFF7F0FF014B185D0D
:1033500010BDC04690080020002330B585B0009312
:103360000193124B02930123039300F0CDF900283F
:103370001AD114220E4B6946DA6001A800F076FAE1
:10338000041E0FD180252D010A4B0849E3180320A4
:103390001A685B68611800F0FFF9002802D1083450
:1033A000AC42F1D100F0C4F905B030BD00F801081D
:1033B000002002409008002010B5024B1954FFF77E
:1033C000CBFF10BD900800207047000070B50500CD
:1033D000FA200D4B80001978FCF7A2FE0B4C01007F
:1033E0002068FCF79DFE00F07DF804000120002C11
:1033F00009D1032D07D802382200290000F02CF84B
:103400002000034B1D6070BD1200002054000020FE
:10341000140000201023064A10B5116800200B4349
:103420001360FFF7D3FFFFF7CFFF002010BDC046AA
:1034300000200240034A044B11681B785B1813609C
:103440007047C0469010002012000020014B186801
:103450007047C0469010002010B5FF2403220B00D7
:1034600021000240D20091409B012340C943934078
:1034700000280ADBC0240B4A800880008018A400C2
:1034800002590A401343035110BD0F22104008385F
:10349000054A800880008018C26911401943C16143
:1034A000F2E7C04600E100E000ED00E0002805DBA7
:1034B0001F2318401E3B8340014A13607047C046DB
:1034C00000E100E0002809DB1F2318401E3B834079
:1034D000034AD367BFF34F8FBFF36F8F7047C04668
:1034E00004E100E08022431E5204012093420DD2E9
:1034F000C021074A07485360036A09061B021B0ADA
:103500000B43036200200723906013607047C0469E
:1035100010E000E000ED00E0002807DB1F23C022E0
:1035200018401E3B8340024952008B507047C046F2
:1035300000E100E0704710B5FFF7FCFF10BD7047D9
:1035400010B5041E01D1012010BD437FDAB2002B5B
:1035500002D10277FFF7F3FF022363772379002B71
:103560001CD118212368124A5A619A688A439A60CA
:1035700062792368002A19D1013A60211A619A6898
:1035800000208A4361690A4380219A609A688A43CD
:10359000A1690A439A6001236377D5E72000E268B6
:1035A000A16800F007F80028E2D0CCE72269E4E740
:1035B000B71DC10430B501250400280029420ED0F2
:1035C0001F23013B21D30800D8402842F9D0102AFC
:1035D00014D005D8002A08D00120082A12D030BD06
:1035E0000120182AFBD1062BF9D820684161182147
:1035F00083688B43134383600020F0E70120072B8F
:10360000F3D9ECE70F2BF0D9E9E70120102AE6D037
:10361000E5D8002AE3D1E8E710B504000120002C2A
:1036200008D002232000237103F00CFA002020614F
:103630006071207110BD012230B515008D40046805
:103640002368AB4323600271002030BD30B5841C79
:10365000E27F0300022A06D00422826301200022B6
:103660000133DA7730BD02680E20116881431160A2
:1036700001210D00106888431060186CDA6B8540DA
:1036800000205560E177EAE770B5841CE37F022BE8
:1036900003D004238363012070BD0E2103681A68E0
:1036A0008A431A6001221500196891431960016C60
:1036B000C36B8D405D60E27783180022DA77436B3D
:1036C000934200D098470020E6E700000C4A102102
:1036D000D06830B503000B40084205D002230948EA
:1036E000C4692343C3610B000420D168014205D0A3
:1036F0000121044C0343E5692943E161D36030BDF6
:103700000020024098100020064B00201A69120683
:1037100006D5054A5A60054A5A6018690006C00F66
:103720007047C0460020024023016745AB89EFCDBA
:103730008023034A002011690B4313617047C04680
:103740000020024070B50400FFF780FE012605004E
:10375000104BDA68324211D12022D968114200D0D0
:10376000DA60D968102208001040114202D1DB68EB
:103770005B0708D5FFF7AAFF012004E0621CE8D030
:10378000002C01D1032070BDFFF760FE401BA0425A
:10379000DED9F7E700200240F0B585B003931E4B59
:1037A000009102921A7E04000220012A31D00122E7
:1037B0001A481A76FFF7C6FF002827D12600012CE9
:1037C00003D00426022C00D126000024124B0193C2
:1037D000029803992201FCF719FE00220127019BA0
:1037E0000F4DDA612B69009A3B432B6163009B18F4
:1037F00080B218800948FFF7A5FF2B69BB432B61F6
:10380000002803D1E419E3B29E42E1D80022024B22
:103810001A7605B0F0BDC0469810002050C30000D5
:10382000002002400022064BDA61064B043219697F
:103830000A431A61402219690A431A617047C04657
:1038400098100020002002400022064BDA61064B4F
:10385000023219690A431A614022586119690A4300
:103860001A6170479810002000200240F8B5214FDF
:1038700004003B7E0E000220012B0CD001233B767E
:1038800023681D48012B12D1FFF75CFF002803D0ED
:10389000012000233B76F8BDFFF7C4FF1648FFF771
:1038A00051FF0421154A13698B431361F1E7FFF7B8
:1038B00049FF0028ECD101235B4233606568013089
:1038C000A3686268DB029B18AB42E2D92800FFF7CD
:1038D000BBFF0948FFF736FF0221084A13698B43F3
:1038E0001361002801D03560D3E780231B01ED1858
:1038F000E6E7C0469810002050C3000000200240B8
:10390000044B10B55A69104202D0586103F068F9AF
:1039100010BDC04600040140F0B5040087B001208E
:10392000002C30D0314D635DDAB2002B05D1AA23D3
:103930009B002000E25405F0C3FA0323635520687E
:1039400002F06EFB002301271900606883421CD33C
:1039500000222826110090422FD823006A461033F7
:1039600043CB43C203CB03C2A268E368616820680B
:1039700002F060FB0022631DDA7701236355E369DF
:10398000012B2ED0002007B0F0BD29262822B446F6
:103990005A43A2189444664637702826B446944485
:1039A000664633702B26B446944466460133317024
:1039B000DBB29163D1631164C8E733005343E3186A
:1039C0001F006A37FF373970013F3A70F970813351
:1039D0006C3FF967FF33803701323960D2B219602A
:1039E000B9E7200000F002FECCE7C046A9020000C3
:1039F00070B5AA25AD00435D04000220012B09D05B
:103A000001236355206802F001FB206802F00FFDDE
:103A10000020605570BD70B5AA25AD00435D04005F
:103A20000220012B08D001236355631DD97720683C
:103A300002F0F6FC0020605570BD0000F0B50400F7
:103A400085B0006802F002FD802305001B021D40C6
:103A5000184201D100F00EFC2068821DD38F1BB2EA
:103A6000002B01DB05B0F0BD0F21D38F1940009171
:103A70000F219AB20B4200D0C3E01023110019406D
:103A80001A422AD10388CF4A1340802212021343DC
:103A90000380030050331A88230028331B78DB008F
:103AA000C3189B18C84A20009B181B88E26B9B0513
:103AB0009B0D6364D318E36305F04CFA631DDA7F52
:103AC000002AC9D0206C22680028C5D18025D97F62
:103AD0004C3229431180D877BEE702888021160036
:103AE000090193B20E400A4222D0030050331A88D3
:103AF000B4235B00E35CAC21DB00C3189B18B34A22
:103B000089009B1822001B8869329B059B0DFF32A0
:103B1000D3616118D28802F009FF2168AC4B0A8892
:103B200020001A40802313430B8005F0FDF993E732
:103B30001BB2002B00DB8FE70288A54B25001A4043
:103B4000802313430380030050331A88B4235B009F
:103B5000E35C6935DB00C3189B189C4AFF359B1852
:103B60001B889B059B0DEB610DD0696900290AD06C
:103B7000EA8802F0DBFE6B69EA6931009B182000DD
:103B80006B6105F0DAF921680A8893B2120500D555
:103B900062E7C02292011340934200D15CE70B0020
:103BA00050331A88894BCB189B181A889205920DAE
:103BB0001A802A693E2A0CD91F2550092A405542ED
:103BC0006A41801A1A8880021043824A024392B2E4
:103BD00005E0002A0ED180201A88000202431A80D4
:103BE0000A887D4B1A40C0239B0153407B4A1343F4
:103BF0000B8031E7012550082A40801880021A887E
:103C0000E4E7009B9B00C218019313889FB21BB28C
:103C1000002B00DB8AE013886D490B4080210B43A9
:103C200013802823009A5343E3181A001D007532AD
:103C3000FF3212786935FF35002A15D10200503263
:103C400011882A78D2005218604912185218128826
:103C50009205950D002A47D01A006F327D33FF324E
:103C6000FF33190012883BE019006C31FF310978ED
:103C70002A78022900D0E5E08026F601B4463E40CD
:103C8000029606006546503636888133FF33196840
:103C900086192F4200D1A7E0D50076194A4D761932
:103CA0003588AD05AD0D8D4200D97DE0491B196009
:103CB00000D17BE07B0607D5920082181388484923
:103CC0000B4048490B431380002D0DD02823009A48
:103CD0005343E1180A007132FF327D311288FF31FF
:103CE0002B00096802F022FE28230099594362182C
:103CF00016008536FF363068083E4019B0603068DF
:103D00004019306010008130FF300068002804D076
:103D1000FC32D26F954200D3BEE0009A200053439C
:103D2000E3186933FF33197805F007F98023206819
:103D30001F4200D190E6019B2249C2181388009DC2
:103D40000B4024490B439BB2138028235D43651924
:103D50002B002B331978033B012900D0CBE0002244
:103D600029002A6434310978914200D1A7E040212A
:103D70003E0029350E400F4200D1A5E0297891423E
:103D800000D090E002001978503215880E4AC90020
:103D90008218521989180A880E489205920D0A80D5
:103DA0000A88024392B289E000211960910041180B
:103DB0000E88094B1E4080239B017340074E3343FE
:103DC0000B8077E70F8FFFFF02040000060400005E
:103DD0008F0F00000080FFFF8FBFFFFF808000007B
:103DE0008F8FFFFFC0800000D5007619BB4D76197C
:103DF0003588AD05AD0D8D4216D8491B196015D01B
:103E00007B0607D4920082181388B5490B40B54948
:103E10000B431380002D00D166E72823009A5343FB
:103E2000E1180A00733257E70299196091004118AE
:103E30000E88AD4B1E4080239B017340AB4E334335
:103E40000B80DDE7920082181688A5493140A54E07
:103E5000314311802A78910041180D8801005031BA
:103E60000988D200521812186D040AD5A0495218B8
:103E700012889205950D002A00D135E71A0071329B
:103E8000ECE69649521812889205950D002A00D149
:103E90002AE71A007332E1E66931FF3120686118C0
:103EA00002F0EEFA42E7012909D10100904E5031AB
:103EB0000D8819788019C900401909180A801978E5
:103EC000200005F047F8C7E52A78002A06D102004D
:103ED000197850321588C900804A59E7012AEED175
:103EE00002007E4D503211881A784019D2004018D5
:103EF00012181680E3E780263A0019787600CB0086
:103F000032409C4601922B6C37421ED1060050363F
:103F10003688774A86196644B6183688B605B60DCF
:103F20009E4202D3019B2B64CAE728229B1B2B6471
:103F3000EB6B9B19EB636B6C9B196B64009B013300
:103F40005A43A11802F09CFA86E540223E00164032
:103F50000396060050360196174200D1CEE0328813
:103F6000634E8619B21802966646925B80269205C9
:103F7000920DF6019A4216D300232A002B642932AF
:103F800012783E409A4251D0012A6BD1019A029F89
:103F90001288BA1862441380019A504F1288C019CF
:103FA000801860445DE09B1A2B6437426DD1282352
:103FB00000994B43E3181F004C373978012900D092
:103FC000D5E0D96B9E6C89180191D963596C891819
:103FD0005964996B8E4261D3761A9E642B00293303
:103FE0001A788BB2002A6ED1020050321288029EDB
:103FF000B21862441688B605B60D16803E2957D908
:104000001F274E0939404F427941761A1188B6026E
:104010003143384E314389B21180282200994A43F6
:10402000A218128E019902F015FAA0E0019B029AE3
:104030001B88304FD31863441A889205920D1A805A
:104040001A883A4392B21A80019B244A1B8880182E
:10405000C018604403889B059B0D038003883B4385
:104060009BB20380200004F075FF002E00D17EE09B
:104070002B0028331B7822689B00D218138818491C
:104080000B401D490B43138071E0890041180E88D5
:10409000134B3340184E33430B8088E7002E02D178
:1040A00011003E709AE7002231003A709A6495E759
:1040B000002901D11188ACE701274E083940761854
:1040C000B6021188A6E7012AA7D102005032128851
:1040D00002998A18624413809FE7C04606040000D4
:1040E0008F8FFFFFC08000008FBFFFFF8080000028
:1040F000020400000080FFFF80C00000019AA74E6C
:1041000012888619B21802966646925B802692053E
:10411000920DF6019A4234D9039B3E402B642B004A
:1041200029331B78002B00D075E0019B9C4A1B882B
:104130008018C018604403889A4F9B059B0D03802C
:104140000388029A3B439BB20380019B1B88D318D0
:1041500063441A889205920D1A801A883A4392B2E3
:104160001A80200004F0F6FE002E00D180E72835EA
:104170002B7821689B00C9180A888B4B1A40302382
:1041800033E59B1A2B643E40002BC8D0002E07D18C
:10419000890041180E88854B3340854E33430B8090
:1041A000282300994B43E3181F004C373978012925
:1041B000DDD1D96B9E6C89180191D963596C89182E
:1041C0005964996B8E4236D3761A9E642B0029333C
:1041D0001A788BB2002A43D1020050321288029E14
:1041E000B21862441688B605B60D16803E292CD941
:1041F0001F274E0939404F427941761A1188B6027D
:104200003143684E314389B21180282200994A43D4
:10421000A218528E06E7012BA3D10300604F503342
:104220001A88C01980180022604402801B880298F6
:10423000C318634494E7002E02D111003E70C5E715
:10424000002231009A643A70C0E7002901D1118838
:10425000D7E701274E0839407618B6021188D1E712
:10426000012AD2D102005032128802998A1862447F
:104270001380CAE743050ED523684E490633DA8F0B
:1042800020000A40DA8704F077FE29002000FFF7BB
:10429000C2FBFFF7E7FB430407D523684649063313
:1042A000DA8F0A40DA87FFF7DDFB802301009B01EC
:1042B0001940184204D0236840490633DA8FF0E7EA
:1042C000C3041AD5042023680233DA8F8243DA87C5
:1042D000DA8F00188243DA87B8239B00E25C012A58
:1042E00003D12000E15400F095F9200004F062FEB3
:1042F000236833490633DA8FD3E7030513D5082142
:1043000023689A1CD08F06330143D187D98F2D485B
:104310000140D9870423D18F0B43D387200004F0B9
:1043200037FEFFF79FFB8025284221D0B820236865
:104330008000991DCA8FAA43CA87225C002AEDD14A
:10434000991CCD8F04322A43CA870822CD8F54335B
:104350002A43CA8701213C2221541B8820009B0844
:104360001340B9229200A35000F054F9FFF77AFBF2
:1043700083050AD5236814490633DA8F20000A40E2
:10438000DA8704F0F2FDFFF76DFBC00501D4FFF7FB
:1043900069FB23680D490633DA8F82E706040000C3
:1043A000020400000080FFFFBF8FFFFF8F8FFFFF21
:1043B00080C00000FFFBFFFFFFBFFFFFFFDFFFFF2D
:1043C000FFEFFFFFFFF7FFFFFFFDFFFFFFFEFFFF18
:1043D00070B505000720084049B22824002919DAE1
:1043E000411C6143273C69184C7008700A61CB700E
:1043F000022B01D100230B71AA24A4002B5D022003
:10440000012B06D001232B55286801F027FE002040
:10441000285570BD4443210000262C1969316A34A7
:10442000FF31FF3469182670DFE707220A4049B2DE
:1044300070B528230400002913DA511C5943273B87
:1044400041184B70AA250A70AD00635D0220012B54
:1044500006D001236355206801F00EFF002060554F
:1044600070BD534319006931FF31C3184118002052
:104470006A33FF331870E5E770B507242140213413
:104480004C4305192E007D36FF3632602A008132FA
:10449000FF3213602B0000268533FF336935693402
:1044A0001E60FF351B3BFF341E7029700119006828
:1044B00001F0E6FF300070BD07230B40282159436F
:1044C00040188530FF300068704770B528260724F3
:1044D000214034004C4304192500E26301224C358D
:1044E00023642A70A36423000025293365641A70AD
:1044F0008B187343A4192170C118006801F0C0FF24
:10450000280070BD0722436870B50A4004000120EE
:104510009A4217D848B22823002814DA511C59436C
:10452000273B61184B700123AA258B700A70AD00E0
:10453000625D02209A4205D06355206801F016FFA3
:104540000020605570BD4B4319000020E31869310D
:104550006A33FF31FF3361181870E4E70F234268B4
:1045600070B50B4004000120934219D807220A407D
:1045700049B22823002914DA1118594361184870E8
:104580000025AA268D700A70B600A35D0220012BBB
:1045900006D00123A355206801F008FF2800A55587
:1045A00070BD534319000020E31869316A33FF31AD
:1045B000FF3361181870E3E710B50C0021060CD525
:1045C00007212140282401316143401899B2002A73
:1045D00008D10273C180002010BD282161436931D8
:1045E000FF31F2E7012283600273F4E703680200FF
:1045F000BA20012110B58000B82411500020A40079
:10460000105554331A8811430222198019880A431D
:104610001A8010BD70470000F0B5040085B0002876
:1046200002D1012005B0F0BD0368DB0733D4236855
:104630009B0700D587E023681B0700D5C8E02368E7
:104640005B0700D5EBE02368DB061AD5626904231B
:10465000B94D012A00D054E1696B02270B436B630B
:104660006B6B1A436A63FEF7F1FE06006B6B3B420D
:1046700000D13FE1F8216A6BA3698A43DB00134351
:104680006B6323689B0600D562E1636A002B00D050
:10469000A1E10020C6E70C22A74D6B681340042B54
:1046A0000BD06B681340082B0ED1C0226B685202EE
:1046B000134080225202934206D12B689B03B6D549
:1046C0006368002BB3D1ACE76368012B13D180235F
:1046D0002A685B0213432B60FEF7B8FE80270600B2
:1046E000BF022B683B42A2D1FEF7B0FE801B6428BC
:1046F000F7D9032096E7002B15D12B688F4A802726
:1047000013402B602B688E4ABF0213402B60FEF7CC
:104710009DFE06002B683B4289D0FEF797FE801B6A
:104720006428F7D9E5E7052B05D180232A68DB0249
:1047300013432B60CBE72B68804A13402B602B6818
:104740007F4A1340C7E70C227B4D6B6813420BD0A6
:104750006B681340082B16D1C0226B6852021340BD
:104760008022120293420ED12B689B0703D5E36887
:10477000012B00D055E7F8212A6823698A43DB0022
:1047800013432B6057E7E2680123002A0FD02A6801
:10479000022713432B60FEF759FE06002B683B42AD
:1047A000E9D1FEF753FE801B0228F7D9A1E72A685A
:1047B00002279A432A60FEF749FE06002B683B4217
:1047C00000D138E7FEF742FE801B0228F6D990E7B9
:1047D000E2690123584D002A10D06A6A0227134368
:1047E0006B62FEF733FE06006B6A3B4200D026E7A1
:1047F000FEF72CFE801B0228F6D97AE76A6A0227A8
:104800009A436A62FEF722FE06006B6A3B4200D1C1
:1048100015E7FEF71BFE801B0228F6D969E7802208
:104820000021454D5205EB690091134208D1EB6917
:104830001343EB61EB6913400393039B0123009344
:104840008027404E7F0033683B4215D0A368012B80
:1048500022D12A6A13432B62FEF7F8FD02270600D5
:104860002B6A3B423FD0009B012B00D0EBE6EB696B
:10487000354A1340EB61E6E633683B433360FEF7AD
:10488000E5FD019033683B42E0D1FEF7DFFD019B7F
:10489000C01A6428F6D92CE70122002B14D12B6A08
:1048A000022793432B622B6A033293432B62FEF75A
:1048B000CDFD06002B6A3B42D5D0FEF7C7FD234B4A
:1048C000801B9842F6D914E7052B05D1296A013BD4
:1048D0000B432B622B6ABDE72B6A934304222B62A6
:1048E0002B6A9343B7E7FEF7B1FD184B801B984244
:1048F000B6D9FEE6FEF7AAFD801B022800D8B5E671
:10490000F7E6053203D16A6B9A436A63B2E66A6BD3
:104910000227134301226B636B6B93436B63FEF7B8
:1049200095FD06006B6B3B4200D1AAE6FEF78EFDBB
:10493000801B0228F6D9DCE600100240FFFFFEFFD4
:10494000FFFFFBFF00700040FFFFFFEF8813000038
:104950000C22554D6B681340934209D06B6813408D
:10496000082B0ED1C0226B6852021340934208D12B
:104970006B6B9B0300D488E6236A012B00D050E6C2
:1049800083E6236A002B13D080236A6B5B021343F8
:104990006B63FEF75BFD80270600BF026B6B3B423B
:1049A00000D072E6FEF752FD801B0228F6D9A0E681
:1049B0006B6B3E4A802713406B63FEF747FD060092
:1049C000BF026B6B3B4200D15FE6FEF73FFD801BF1
:1049D0000228F6D98DE60C21334D6A680A40082A70
:1049E00047D0334A022B32D12B68802713402B60EB
:1049F000FEF72CFD0600BF042B683B4221D10F229D
:104A0000EB6A80269343226BB6041343EB62A16AE0
:104A1000E36A6A680B4327490A4013436B608023AB
:104A20002A685B0413432B60FEF710FD04002B681B
:104A3000334200D02DE6FEF709FD001B0228F6D90F
:104A400057E6FEF703FD801B0228D5D951E62B68F7
:104A5000802613402B60FEF7F9FC0400B6042B6897
:104A6000334200D115E6FEF7F1FC001B0228F6D90F
:104A70003FE6012B00D1D4E5C0226868A16A52024A
:104A8000EB6A02408A4200D0CBE50F221340226B32
:104A9000934200D0C5E5F0239B031840E36AC01A97
:104AA000431E9841C0B2BDE500100240FFFFFEFF6B
:104AB000FFFFFFFEFF7FC2FF0C2070B5134D6B6838
:104AC0001840082808D00C3843425841104B404247
:104AD0001840104BC01870BD0F200F499A0C0240AF
:104AE0008C5CEA6A0D490240895CC0228020520237
:104AF00013404002834201D1064802E09342FBD1B9
:104B00000748FBF70DFB6043E5E7C0460010024095
:104B1000005A620200127A00C7B70008B7B700084F
:104B2000006CDC02F7B504000F00002801D1012061
:104B3000FEBD01223A4D2B6813408B421CD32268E4
:104B4000930722D4D2072FD401232A681A40BA42ED
:104B500057D82368334D5B075AD4FFF7ADFF6B6816
:104B6000314A1B061B0FD35C3049D8400860002037
:104B7000FEF72CFC0020DBE72B6893430B432B60F4
:104B80002B6813408B42D2D1D9E72649530704D56D
:104B9000E0234868DB0003434B60F0204B6883430D
:104BA000A06803434B60CDE762681E4E012A03D123
:104BB00033689B0305D4BAE7022A1AD133689B01F4
:104BC000B5D5032173688B4313437360FEF73EFC36
:104BD00001900C2372681A4063689B009A42B3D01C
:104BE000FEF734FC019BC01A114B9842F1D9032007
:104BF0009EE7032A01D1736BDBE733689B07E0D4A0
:104C000095E72A689A432A602A681A42A1D08EE75B
:104C10006B68084A1340E26813436B609DE7C04627
:104C2000002002400010024020B80008540000207C
:104C300088130000FFF8FFFF044B054A5B68054935
:104C40005B055B0FCB5C1068D840704700100240DA
:104C50005400002018B80008F0B50368050085B0BE
:104C6000DB032BD580220021464C5205E3690091DD
:104C7000134208D1E3691343E361E36913400393EB
:104C8000039B0123009380273F4E7F0033683B4204
:104C90003DD0216AC022080092006B683B4E104054
:104CA000114246D1236A6A68334013432362009B52
:104CB000012B03D1E369364A1340E3612B68DA071D
:104CC00006D503202F490A6B8243A86802430A6372
:104CD0009A0706D52B492F480A6B0240E868024321
:104CE0000A639A0606D5102026490A6B8243286972
:104CF00002430A639A0306D5802022490A6B824345
:104D0000A86902430A635B0533D400200FE03368CF
:104D10003B433360FEF79AFB019033683B42B8D1C6
:104D2000FEF794FB019BC01A6428F6D9032005B056
:104D3000F0BD13408342B5D08022236A206A190057
:104D4000520202432262226A134831400240226228
:104D50002162DB07A6D5FEF779FB07000222236A52
:104D600013429FD1FEF772FB0C4BC01B9842F5D942
:104D7000DCE74021034A136B8B4369690B431363E0
:104D8000C3E7C0460010024000700040FFFCFFFF78
:104D9000FFFFFFEFFFFFFCFFFFFFFEFF8813000098
:104DA000704770470222036810B519690400114268
:104DB0000ED0D96811420BD0053A1A61043202773D
:104DC0009B699B0700D179E001F01BF90023237751
:104DD000042223681969114210D0D96811420DD0FC
:104DE000093A1A61073222779A69C0239B00200092
:104DF0001A4269D001F005F90023237708222368BD
:104E0000196911420ED0D96811420BD0113A1A61BA
:104E10000D322277DB6920009B075BD001F0F1F8AF
:104E200000232377102223681969114210D0D96812
:104E300011420DD0213A1A6119322277DA69C02362
:104E40009B0020001A424BD001F0DBF800232377AF
:104E5000012223681969114207D0D968114204D090
:104E6000033A20001A6101F0A1F880222368196931
:104E7000114208D0D968114205D0023AFF3A200009
:104E80001A6100F0A4F8402223681969114207D082
:104E9000D968114204D0813A20001A61FFF781FFDE
:104EA000202223681969114207D0D968114204D021
:104EB000413A20001A6100F089F810BD01F09DF818
:104EC0002000FFF76DFF81E701F097F82000FFF762
:104ED00067FF91E701F091F82000FFF761FF9FE77E
:104EE00001F08BF82000FFF75BFFAFE710B51C4C1B
:104EF0000368A04206D08022D205904202D0194A0F
:104F0000904208D1702293434A681343164A1A40CC
:104F1000CB6813430BE0154A9042F7D0144A9042F5
:104F2000F4D0144A9042F1D0134A9042EED080223D
:104F300093434A69134303608B68C3620B688362BF
:104F4000A04208D00A4B984205D00A4B984202D0A2
:104F5000094B984201D10B6903630123436110BDE2
:104F6000002C014000040040FFFCFFFF0020004037
:104F700000400140004401400048014070B5040079
:104F80000120002C21D025003D352B78DAB2002BF2
:104F900005D123003C3320001A7002F055F902239A
:104FA0002B702068211DFFF7A1FF220001230020A4
:104FB000463213704534083A137053709370D370AF
:104FC00013715371937123702B7070BD70477047CC
:104FD00030B5EFF31084012282F310880168124D7E
:104FE0000B682B400B6084F31088EFF3108482F37E
:104FF000108801688B6893438B6084F31088036E7C
:1050000093420AD1EFF3108183F3108810240268D1
:105010001368A343136081F310882022031DDA670D
:1050200000230366836630BDDFFEFFFF30B5EFF37C
:105030001084012282F31088802501680B68AB433D
:105040000B6084F31088EFF3108182F31088402303
:10505000026810680343136081F3108830BDC36F8A
:1050600010B5212B06D1020052321388002B02D139
:10507000FFF7DCFF10BDC36C01681C7801330C85A1
:10508000C3641388013B9BB21380F3E7C36F10B571
:10509000212B06D1010052310B88002B02D1FFF7E2
:1050A000C5FF10BDC26C046813880232DB05DB0D3E
:1050B0002385C2640B88013B9BB20B80F1E77047EC
:1050C00010B5C46F03000220202C37D1013800290D
:1050D00034D0002A32D080209C68400184420CD019
:1050E000D964190050310A804A801A000021083220
:1050F000D1672122DA67124A12E018690028EFD13D
:105100000C0001300440014218D1D964190050311B
:105110000A804A801A000832D4672122DA67094AD5
:10512000DA66EFF31081012282F310881A68802377
:1051300010680343136081F31088002010BDC0463F
:105140005F5000088D500008406A0023020010B52F
:105150005A321380083A138002F000FB10BD7047EA
:105160000168F8B5CB690400BB480A688E68034241
:105170000CD12020034200D1A7E0024200D1A4E0DC
:10518000A36E2000002B00D095E095E001203500B3
:105190000540064215D0022603422FD133423ED0AD
:1051A00002202700042608620837F86F3043F867AA
:1051B000334236D118073ED52020104028430DD168
:1051C00039E0A64F3A4200D17FE0022603420CD1DB
:1051D0005807EFD518072ED590062CD50820086261
:1051E0002518EE6F3043E86725E0D0050BD4334235
:1051F000EED15807DED5002D13D1EBE7D00502D450
:105200003342CDD1F5E70120260008620836F76F5A
:105210003843F0679807ECD5002DD9D0C0E7580780
:10522000C8D50420250008620835EE6F02383043E7
:10523000E8671807D2D48020250000010835034212
:1052400006D0560104D508622021E86F0143E967C2
:10525000E96F002930D020210B4206D00A4204D049
:10526000A36E002B01D0200098472268EB6F4027E7
:10527000966828223E40134020001E4321D0FFF7AD
:10528000A7FE23689B683B4217D0EFF310810123F0
:1052900083F3108822689368BB43936081F310887E
:1052A000606F002809D06E4B4363FEF7EDF90028CC
:1052B00002D0606F436B9847F8BD200002F04EFAB1
:1052C000FAE702F04BFAEE67F6E7206E012800D00D
:1052D00095E010252B4200D191E02A4200D18EE0CA
:1052E0000D628B6840211E000E400B424FD0626F52
:1052F00013685B689BB2002BDED0260058363788D7
:105300009F42D9D927005A373B809369202B32D04E
:10531000EFF3108780F310882268524D13682B40FA
:10532000136087F31088EFF3108780F310882268EA
:1053300093688343936087F31088EFF3108C80F3B6
:105340001088230080CBBA688A43BA608CF3108837
:105350002022DA6700232366EFF3108180F31088A0
:10536000226812351368FF35AB43136081F3108850
:10537000606FFEF76BF90223636623005A331B88C4
:105380003188C91A89B22000FFF7E9FE94E72300AB
:10539000220058335A321988138812889BB2002A87
:1053A00000D189E7C91A89B2002900D184E7EFF357
:1053B000108780F3108822682B4D13682B401360F0
:1053C00087F31088EFF3108C80F31088230080CBD4
:1053D000BA688243BA608CF310882022DA672666A6
:1053E000A666EFF3108680F31088102022681368F9
:1053F0008343136086F3108802236366C3E780202B
:105400004003034206D0760204D50862200002F071
:10541000F3F951E780210B4203D00A4201D0E36E39
:10542000AFE640210B4200D146E70A4200D143E7F4
:10543000EFF31080012383F31088226813688B43F5
:10544000136080F310882023E36700232000E366C5
:1054500002F07DF930E7C0460F080000200100048B
:1054600049510008FFFEFFFFDFFEFFFFF8B5030014
:10547000011DCC6F5C331A880368222C57D19B8C9A
:10548000446D134002002370436D5A32013343656B
:105490001388013B9BB2138013889CB2002B42D12E
:1054A000EFF31086013383F310880568224F2A68D2
:1054B0003A402A6086F31088EFF3108683F3108851
:1054C0000568AA689A43AA6086F310882022CA67F2
:1054D000026844665268846612020AD5EFF31081AE
:1054E00083F310880268154C13682340136081F31E
:1054F0001088036E012B17D100220266EFF310848F
:1055000083F3108801680F330A689A430A6084F3B2
:1055100010880268D169194200D013620300583321
:105520001988FFF71CFEF8BD02F00AF9FBE7082214
:1055300099690A439A61F6E7DFFEFFFFFFFFFFFB71
:10554000F8B50300021DD16F5C331C880368222963
:1055500056D1998C436D2140198001000233436577
:105560005A310B88013B9BB20B800B889CB2002BFD
:1055700042D1EFF31086013383F310880568234F7F
:1055800029683940296086F31088EFF3108683F389
:1055900010880568A9689943A96086F310882021BE
:1055A000D167026844665268846612020AD5EFF336
:1055B000108183F310880268154C13682340136030
:1055C00081F31088036E012B17D100220266EFF3DE
:1055D000108483F3108801680F330A689A430A60C5
:1055E00084F310880268D169194200D01362030065
:1055F00058331988FFF7B3FDF8BD02F0A1F8FBE7B7
:10560000082299690A439A61F6E7C046DFFEFFFF68
:10561000FFFFFFFB020070B5783211780300022013
:1056200001291DD0012122301170D867EFF31085B8
:1056300081F310880C261C682068B043206085F335
:105640001088EFF3108481F310881868073105681B
:105650002943016084F3108820210020D96710704D
:1056600070BD020070B57832117803000220012964
:105670001DD0012122301170D867EFF3108581F31E
:1056800010880C261C682068B043206085F31088C1
:10569000EFF3108481F310881868033105682943FB
:1056A000016084F3108820210020D967107070BD3C
:1056B000C36F0430C06F18437047000070B504001A
:1056C0002569A168026829436569C369294310688F
:1056D000434D194328400143116051684148256AF0
:1056E0000140E06801435160A169906829433E4D43
:1056F0002840014391603D498A4216D103213C4A2A
:10570000126B0A40022A40D08A4225D0012A55D085
:105710008022120293425AD1FFF78EFA031E38D12B
:1057200000200023A366E36670BD32498A4225D17A
:10573000C02180202E4A8902126B80020A408242D8
:1057400023D007D8002AE3D0802149028A4235D0ED
:105750000120E6E78A42FBD180221202934234D034
:10576000254861684B081818FAF7DAFC0200234B49
:10577000103A9A42ECD82368D860D1E720498A428F
:10578000C6D020498A42E3D1C2E78020000283428A
:10579000E7D161685B0048081818FAF7C1FC0200FD
:1057A000164B103A9A42D3D80F23020000079A43AF
:1057B00093B2400F22680343D360B1E78022120204
:1057C000934209D1FFF778F9A8E70B4BE1E7FFF720
:1057D00033FA0028A4D0C4E7FFF76EF9F9E7C04612
:1057E000F369FFEFFFCFFFFFFFF4FFFF0038014039
:1057F000001002400044004000127A00EFFF000059
:1058000000480040004C0040436A30B5DA0706D536
:105810000168284C4A682240846A22434A609A07F9
:1058200006D50168244C4A682240C46A22434A6073
:105830005A0706D50168214C4A682240046B22436E
:105840004A601A0706D501681D4C4A682240446B1D
:1058500022434A60DA0606D501681A4C8A6822405B
:10586000846B22438A609A0606D50168164C8A68C2
:105870002240C46B22438A605A0610D50168134D3A
:105880004A68046C2A4022434A60802252039442B0
:1058900005D14A680E4C2240446C22434A601B06E4
:1058A00006D502680B4953680B40816C0B4353606B
:1058B00030BDC046FFFFFDFFFFFFFEFFFFFFFBFF08
:1058C000FF7FFFFFFFEFFFFFFFDFFFFFFFFFEFFFA8
:1058D000FFFF9FFFFFFFF7FFF7B504000D00170064
:1058E00000932268D3692B405B1B59424B41BB425A
:1058F00001D0002020E0089B0133F3D0FDF7A6FD86
:10590000009BC01A089B984227D8002B25D02368FB
:105910001A685207E5D5DA6908261100314001916D
:1059200032420AD020001E62FFF752FBA319DE6745
:105930000023012078342370FEBD8022D969120132
:105940001142CED01A622000FFF742FB2300202232
:105950000833DA67019B783423700320ECE7F0B555
:1059600087B00593C36F04000D0017000220202BA1
:1059700038D10138002935D0002A33D08023A268DD
:105980005B019A4204D12369002B01D1014229D144
:10599000230000260833DE672123E367FDF756FD69
:1059A000230050331F80023303931F808023A2689B
:1059B00004905B019A4204D12369B34201D12E00C5
:1059C0001D00230052331B889AB2002B0CD1059B7B
:1059D000402100932000049BFFF77EFF2023E36714
:1059E00000280DD107B0F0BD059B00220093802157
:1059F0002000049BFFF770FF002803D02023E367FB
:105A00000320EFE72268002D0BD133880236DB0537
:105A1000DB0D1385039B039A1B88013B9BB213800C
:105A2000CFE72B7801351385F4E70000030073B549
:105A3000002504000833DD67FDF708FD2368060034
:105A40001B681B071DD58021264B2A000093890364
:105A500003002000FFF740FFA84212D0EFF31081AF
:105A6000012383F310888020226813688343136026
:105A700081F310882023E367032000237834237008
:105A800076BD250008CD1B685B0723D58021154B0B
:105A90000022009320003300C903FFF71DFF0028F8
:105AA00018D0EFF31080012282F3108821680E4E87
:105AB0000B6833400B6080F31088EFF3108082F3A3
:105AC000108821688B6893438B6080F310882023B3
:105AD000EB67D1E720230020E367EB672066606671
