:020000040800F2
:1000000000400020A5710008F5710008F571000896
:1000100000000000000000000000000000000000E0
:10002000000000000000000000000000F571000862
:100030000000000000000000F5710008135D0008DA
:10004000F5710008F5710008F5710008F5710008F8
:10005000F5710008C95D0008D95D0008E95D000878
:10006000F5710008F5710008F5710008F5710008D8
:10007000F57100080D4F0008254F00082D4F0008AE
:10008000454F00085D4F0008754F00088D4F000870
:10009000A54F0008BD4F0008D54F0008F5710008B6
:1000A000F5710008F5710008F57100089568000801
:1000B000AD680008C9680008F5710008998100085A
:1000C0000023C25C0133002AFBD1581E7047000098
:1000D00002B4714649084900095649008E4402BCE1
:1000E0007047C04602B4714649084900095C49009E
:1000F0008E4402BC7047C04603B4714649084000B4
:100100004900095E49008E4403BC704703B4714640
:10011000490840004900095A49008E4403BC704711
:10012000002243088B4274D303098B425FD3030A36
:100130008B4244D3030B8B4228D3030C8B420DD349
:10014000FF22090212BA030C8B4202D312120902D7
:1001500065D0030B8B4219D300E0090AC30B8B4215
:1001600001D3CB03C01A5241830B8B4201D38B03C3
:10017000C01A5241430B8B4201D34B03C01A524168
:10018000030B8B4201D30B03C01A5241C30A8B42AB
:1001900001D3CB02C01A5241830A8B4201D38B0296
:1001A000C01A5241430A8B4201D34B02C01A52413A
:1001B000030A8B4201D30B02C01A5241CDD2C309AC
:1001C0008B4201D3CB01C01A524183098B4201D328
:1001D0008B01C01A524143098B4201D34B01C01A13
:1001E000524103098B4201D30B01C01A5241C3088B
:1001F0008B4201D3CB00C01A524183088B4201D3FA
:100200008B00C01A524143088B4201D34B00C01AE5
:100210005241411A00D20146524110467047FFE751
:1002200001B5002000F006F802BDC0460029F7D055
:1002300076E770477047C046D0400B00D1409C46DF
:10024000203AD340184352426346934018437047C4
:1002500010B5064C2378002B07D1054B002B02D09C
:10026000044800E000BF0123237010BD48020020B5
:10027000000000008C8F0008044B10B5002B03D049
:100280000349044800E000BF10BDC0460000000064
:100290004C0200208C8F000870B50D001400010086
:1002A000C92008F0C5F829001B2008F0C1F821007A
:1002B0001A2008F0BDF870BD10B50121C92008F062
:1002C0003FF901211B2008F03BF901211A2008F019
:1002D00037F9002211001000FFF7DEFF10BD00000B
:1002E00070B5102604000D4D32002900013008F0D1
:1002F000A5FD200032000021113008F05EFD200035
:1003000032000021213008F058FD2000A9193200E8
:10031000313008F093FD200070BDC046A48F000866
:1003200010B5084B1A780423100018401A4204D163
:1003300002000100FFF7B0FF10BD034B9A78597817
:100340001878F7E7AE040020A3040020064B821DB6
:100350001A70064A5178597091789970D27858710C
:10036000DA7000221A7170478C0200200C03002002
:10037000002010B5FFF7EAFF084800F095FF084B92
:10038000002802D003221A7110BD06221A71054AF4
:10039000054B527858701A709870F5E7C004002029
:1003A0008C020020AE040020A304002030B50D4BC9
:1003B0000D4C1B780D4D87B09B070CD594236A46D6
:1003C00001201380FFF7C2FF694620006A7908F018
:1003D00035FD07B030BD18226846054908F02EFDEE
:1003E0001720EFE7AE040020920200208C020020CC
:1003F000D48F000830B50E4B0E4C1B780E4D87B0D5
:100400009B070ED50A2268460C4908F017FD092003
:10041000FFF79CFF694620006A7908F00FFD07B0DE
:1004200030BD18226846064908F008FD1720EFE79E
:10043000AE040020920200208C020020EC8F000805
:10044000F68F000830B50E4B0E4C1B780E4D85B064
:100450009B070ED50D2268460C4908F0EFFC0C20D6
:10046000FFF774FF694620006A7908F0E7FC05B0E1
:1004700030BD0A226846064908F0E0FC0920EFE793
:10048000AE040020920200208C0200200E90000892
:10049000C48F000810B50020FFF758FF012200218B
:1004A000014800F075FF10BDC004002010B5002009
:1004B000FFF74CFF00220248110000F069FF10BD59
:1004C000C0040020F0B58DB008AF062245493800C1
:1004D00008F0B4FCFA26062243490AA808F0AEFC4C
:1004E0000021424D424C434BB60001912A002000AE
:1004F0000096059300F070FF011E15D03E4E2900B6
:10050000327A0197012720003B00009700F0A9FFF5
:10051000002807D002212000384A00F0EFFF384BB6
:1005200000281FD10DB0F0BD019000962A002000D8
:10053000059B00F051FF061E1CD001272E4E0AAB72
:10054000327A2900019320003B00009700F089FFD8
:100550000028E7D0022120002A4A00F0CFFF00281F
:10056000E0D0294B1F700720FFF7F0FE1023B77172
:10057000F371D7E7C82302AA0293B23B9B180193F9
:10058000224B0200009320002B00214900F0E4FFE1
:10059000012821D11F4B1B781B0712D51E4BA95DCB
:1005A0009A5D91420DD10136082EF8D101241B4BE2
:1005B00007201C70FFF7CAFE10220F4B9C71DA71E6
:1005C000B0E71320FFF7C2FE01220B4B9A711F32D6
:1005D000DA71103A1A72A5E70120FFF7B7FE064B51
:1005E0009E719FE71B900008229000089502002052
:1005F000C0040020940200208C020020830400200C
:100600006204002042040020210400209D020020FA
:10061000FFFF0000AE040020A6040020E00300203D
:10062000002010B5FFF792FE074B1B78002B0AD174
:10063000064B1B78002B06D1054B1B78002B02D1F3
:100640000122044B1A7110BDE00300206204002057
:10065000210400208C020020102010B5FFF776FE48
:100660001D4C1E4B2278587A002A14D003280BD830
:100670001B4BFFF737FD2102242D2100981D11315E
:10068000102208F0DBFB10BD0020FFF75FFE012207
:10069000134B1A71F7E7134C2378002BE6D1124C59
:1006A0002378002BE2D1114B0100114A180000F011
:1006B00025FF0028E7D1E8E7981D611CE0E721004D
:1006C000981D1022213108F0B9FB00232370DAE7CE
:1006D0002100981D3131D3E7E00300200C030020F6
:1006E0008C0200206204002021040020C0040020AD
:1006F00092020020F0B5484A89B00592C82216251A
:10070000029202AAAD18454A454B00924549012282
:100710000598019500F020FF434C060001281ED1EA
:100720002B885BBA2B80414B9B7B5A1CE271082BB8
:1007300000D169E009D8002B18D0062B29D0002061
:10074000FFF704FE0323237117E00C2B18D0A42B12
:10075000F5D10B20FFF7FAFD002323740DE00020F4
:10076000FFF7F4FD0123237109B0F0BD1420FFF75A
:10077000EDFD2B8823761B0A63766379A371F3E77B
:100780000D20FFF7E3FD2B88267463741B0AA37406
:10079000F3E70B22002506AB1A80244A907EA8427C
:1007A00009D80023A07400010D30C0B22374637413
:1007B000FFF7CCFDE1E72B000A2708335B00D318D5
:1007C000D97A6B00D3181B7F09020B4307AA138049
:1007D0002B011333E3180493049B3100019307ABFF
:1007E00000930598330006AA00F05BFF012808D0AB
:1007F000013FFFB2002FEFD110223900049808F01A
:10080000DCFA0135EDB2C8E70C20FFF79FFD0023AD
:1008100023746374B1E7C046C00400209C0200202A
:1008200094020020FFFF00008C0200200C03002037
:10083000F0B5132589B002ABED18FA2300217C4EE8
:100840009B00009330002B00019107AA00F0C4FD2B
:10085000784C00280BD0784B2A780193012307A904
:100860003000009300F0FDFD744900283FD1FA23C9
:1008700000276F4E9B00009339002B00300001973A
:1008800007AA00F0A9FDB84225D1FA230026684F37
:100890009B00009331002B003800019607AA00F05E
:1008A0009BFD644CB04241D1FA2300219B00009390
:1008B00038002B00019107AA00F08EFD00285BD0C4
:1008C0005F49200006F0FAFA5E49200006F0DAFAE5
:1008D000297807A823E05C4B2A7830000193009721
:1008E000012307A900F0BDFD0028CED05749200004
:1008F00006F0E4FA5349200006F0C4FA297807A864
:1009000000F0AAFC5249200006F0BCFA0221300097
:10091000504A00F0F3FD002803D010214D4800F0AC
:100920009BFC642007F0B6FE09B0F0BD4A4B2A7864
:10093000380001930096012307A900F092FD0028DA
:10094000B2D04649200006F0B9FA424D02212A00F1
:10095000380000F0D3FD0028E3D04149200006F024
:1009600091FA0821280000F077FC3E49200006F0AB
:1009700089FA08213C48D2E7C823364D3B4E029302
:10098000394B01220593009338002B00384901961A
:1009900000F0E2FD274B0493002844D020003549A5
:1009A00006F08CFA2000344906F06CFA0821280081
:1009B00000F052FC2000314906F064FA0821059845
:1009C00000F04AFC20002E4906F05CFA30000126B7
:1009D0002B8A02215BBA2B8200F03EFC20002949C1
:1009E00006F06CFA284B294C0593294D3300310051
:1009F0003800284A0195009400F053FE01280DD1DB
:100A000021881022049806F0A3FA1021280000F093
:100A100023FC059B02349C42E7D182E71E490498DF
:100A200006F04CFAF5E71D49049806F047FA78E716
:100A3000C00400207C11002016000020299000082E
:100A40008890000834900008100000204D900008A5
:100A50003F900008760200200A0000206090000805
:100A6000749000087E9000087E020020860200201C
:100A7000FFFF00009C900008799000088390000818
:100A8000A9900008B59000080A000020020000208C
:100A90006502002000000020C3900008C9900008F3
:100AA000F8B5002000F094FE414C2070012000F0C9
:100AB0008FFE6070022000F08BFE3E4DA070AB7880
:100AC00083420DD123781B0717D43B4F00213800F8
:100AD00006F046FB23789B0722D49621090221E0E9
:100AE0002978002000F0AEFE6978012000F0AAFE0F
:100AF0000220A97800F0A6FEE4E70025281D00F0FA
:100B000067FE2E4B58550135082DF7D104352800C6
:100B100000F05EFE2A4B58550135162DF7D1D4E76B
:100B2000E1214902380006F017FBFFF7C5FB254E0F
:100B3000300000F086FB300000F0B6FB051E25D02B
:100B40001021300000F0FEFB300000F0D5FB8022C9
:100B500000211D4808F031F9802200211B4808F0CF
:100B60002CF9237804201A0000210240034207D008
:100B70001D00023862780540034201D111002A00AD
:100B80000020134B187059709A70F8BDFA2040007D
:100B900007F080FD38000F4906F090F90422237811
:100BA0001342C8D02A0029006078FFF775FBC2E71E
:100BB000AE0400201C0000207C110020A6040020B0
:100BC000FC030020C00400200C0300208C02002045
:100BD000A3040020DA900008012337B5164D5B42CC
:100BE000009316221721280006F018F8290008257E
:100BF000124C200000F008FA2100114800F01FFB01
:100C00001048FFF76DFB1048FFF76AFB0F48FFF72E
:100C100067FB0F4C2A0000210E4808F0CEF8200098
:100C20002A000021093008F0C8F8200040220021E5
:100C3000143008F0C2F837BD30050020240500202C
:100C4000C00400206204002021040020E0030020F2
:100C50008C0300208D030020F8B50124FF251D4ED4
:100C6000300006F001FA002830D0300006F004FA17
:100C7000194BC0B2194A1870E02801D11570EEE77F
:100C80001178FF2906D110700022154B1A70154BF0
:100C90001870E4E71449D02801D10C70DFE70E7812
:100CA000002E03D001301870002008700C491E7807
:100CB0000B780C480133DBB2D65417780B700178EF
:100CC0009F4204D10520B14200D1D078F8BD8919E6
:100CD0000170C4E77C1100208A0200200C03002070
:100CE0008B0200208902002088020020F7B5164FF1
:100CF000FB78002B26D000263500144BE02118008D
:100D0000019306F07AF93B783400AB4202D07C5D67
:100D1000A619F6B22300102230339343DBB2210030
:100D2000002B05D1D0210198013C06F066F9E1B213
:100D3000019806F062F901353B78EDB2AB42E3D29F
:100D40000023FB70F7BDC0468C0200207C11002000
:100D500070B5FFF7E5FA834D2E78002E02D0FFF72D
:100D600067FD70BDFFF778FF0400552838D84F287D
:100D70001ED8442806D82F2822D8002840D005287D
:100D800000D182E00020FFF7E1FA0322764B1A71CE
:100D900036E02000F0380828F4D8FFF7ADF97300EA
:100DA000F3FFF3FFF3FFF3FF48007C008E00DF004A
:100DB00050380528E6D8FFF78BF935474AE53E4716
:100DC00030381428DED8FFF783F91EDD21DDDDDDA4
:100DD000DDDDDDDDDDDDDDDDDDDD24272A32320098
:100DE000F828CFD8EF28D4D8712833D004D8622877
:100DF000C8D1FFF7BDFA03E081282ED08228C1D1E7
:100E0000FFF774FFADE7FFF7D1FAF9E7FFF7F2FA62
:100E1000F6E7FFF73FFBF3E7FFF748FBF0E7FFF7E5
:100E200051FBEDE706225148514908F007F8002030
:100E3000FFF78CFAE4E70020FFF788FA06224C4916
:100E40004C4807F0FBFFDBE7FFF7EAFBD8E7FFF7CB
:100E500003FCD5E7FFF74EFCD2E7474A517900295A
:100E600001D0464B5978464B19709179002901D031
:100E7000424949785970D279002A01D03F4A5278C4
:100E80009A70BDE7FFF7DEFABAE73000FFF75EFAC7
:100E9000354B1C71B4E70020FFF758FA0422324B9F
:100EA0005A7106321A70354A117899715178D97190
:100EB00092781A7207225A72A2E72F492F4C4D7965
:100EC000082225708B792F480731637007F0B6FF31
:100ED0000A222D492D4807F0B1FF2900002000F01B
:100EE000B1FC0120617800F0ADFC0425284E2800FB
:100EF000715D013500F0A6FC0C2DF7D12800715D65
:100F0000013500F09FFC162DF8D12178143D2940C1
:100F10004B4259411F4B49421940E1235B02C9181A
:100F20001D4806F019F92278154B11006078294008
:100F30002A4210D0002119705970010004209970C4
:100F400011000140024202D11970597099700120BC
:100F500007F0A0FB6BE719705870EFE701232B70C7
:100F60004EE7C046640200208C020020B704002037
:100F700011030020B10400200C030020AE04002067
:100F8000A3040020A60400201B0300200704002067
:100F90000F03002000D4FEFF7C110020E12110B5DA
:100FA00006224068490205F0FDFE10BD10B5036839
:100FB000C9B21B68984710BD10B5040055214068A0
:100FC000FFF7F4FF55216068FFF7F0FF606800212C
:100FD00003681B6898476068002103681B6898478E
:100FE0006068002103681B689847606803681B6994
:100FF0009847606803681B699847002800D110BDB6
:10100000606803685B69F3E7024B4160036000239B
:1010100003727047FC900008F7B506001D0000241D
:1010200000910192019B9C4211DA07F02FFB07000F
:10103000706803685B69984700280ADA002DF7D0CA
:1010400007F024FBC01BA842F2D3002C05D060B2ED
:10105000FEBD009B18550134E4E702204042F7E74B
:10106000F0B587B005AE17000291032231000500EC
:101070000193FFF7D1FF002802DC0220404250E03C
:1010800033787278134301D00320F7E7B378FF2B4E
:10109000FAD102222800019B04A9FFF7BDFF002816
:1010A000EBDD04AB1C785B78E318DBB2002BEBD1F3
:1010B000023CE4B204AB1C70BC423AD82F7A022244
:1010C0007B1CDBB2039331002800019BFFF7A4FFD8
:1010D0000028D2DD3378D52BD6D17378039A93428A
:1010E000D2D122002800019B0299FFF795FF84428C
:1010F000C3D100232A3FFFB2DAB2944213D80222AE
:101100002800019B05A9FFF787FF0028B5DD04AB88
:101110001B79FF1804AB5B791F43FFB2002FB3D1DB
:1011200020B207B0F0BD029AD25C0133BF18FFB203
:10113000E2E70420A2E700001FB5040006220C49E4
:10114000684607F07BFE0A230622200002A9FFF76B
:1011500063FF002809DD0622694602A807F00CFE9D
:10116000431E9841404204B010BD0220FAE7C04639
:10117000CE8F0008F7B50D001700019308AB1B7860
:1011800004004068009303681B699847606803681F
:101190001B699847061E606844D12B783100237282
:1011A00003681B6898476068310003681B689847AC
:1011B0006068FF2103681B689847009B60685E1C9D
:1011C000BE190368F6B21B68310098477142606827
:1011D000FFF7ECFED4216068FFF7E8FE60683A0094
:1011E000036829005B689847D426EF19AF421CD1E9
:1011F0006068009A036801995B689847019B009AB0
:101200009A18934216D1606871420368C9B21B688C
:1012100098476068002103681B6898472000FFF723
:101220008BFFFEBD03685B69AFE72B780135F618CD
:10123000F6B2DBE7197801337618F6B2E1E701661A
:10124000704710B50400006E03681B689847206E55
:1012500003685B68984710BDF7B50600002401914C
:10126000019B0E4D9C4204D328000D4905F026FE3B
:10127000F7BD335D37190F2B0BD82800094905F04E
:1012800001FE102228003978013405F077FEE4B21F
:10129000E6E72021280005F0F9FDF2E77C110020A7
:1012A0001A9600080C91000873B502230400C37756
:1012B00025000023006E1F35026800939668290000
:1012C0000122B047002801D0002076BD206E4022C8
:1012D00003682900DE68FA239B00B0470028F3DB8F
:1012E0006A78E37F12021A43AB78E8781B04134351
:1012F0000006184300BAE8E7F7B5050014230122F9
:1013000000242E00C3770E4B1F360384C31CDA77EC
:10131000006E3100036800949F6803322300B847D1
:10132000A0420AD1286E402203683100DC68FA230B
:101330009B00A047C417241AE40F2000FEBDC0463E
:1013400001140000F7B505003223012200242E000D
:10135000C3772E3BFF3B0384C31CDA77031DD97789
:10136000006E1F36036800949F683100230004322A
:10137000B847A0420AD1286E402203683100DC68D9
:10138000FA239B00A047C417241AE40F2000FEBDD7
:101390003223F7B50500C377431C012000242E003B
:1013A000D8771143AB1CD977286E1F360368009499
:1013B0009F68032223003100B847A0420AD1286E5B
:1013C000402203683100DC68FA239B00A047C41761
:1013D000241AE40F2000FEBDF0B587B004930CABD7
:1013E0001B88039205930DAB1F784A23012204004A
:1013F000C377431CDA77831CD97726000023006E5D
:101400001F3602680093956831000322A847051E25
:1014100002D0002007B0F0BD206E310003684022EA
:10142000DB689C46059B6646B0470028F1DBE37FFE
:10143000012BEED1621DD37F04990B70D37FAB4299
:1014400003D8002F09D10120E4E763190633DB7FBD
:1014500003994B550135EDB2F0E7631CDB7FA373B5
:10146000F1E7F0B50700040015000E0085B0029307
:101470000AAB1B780837062238000B99039307F054
:10148000DDFC2A003100200007F0D8FC40230122B7
:10149000E377631CE571DA77039B20005A1E9341C2
:1014A000A21C6033D377029AE31CDA773900062254
:1014B000233007F0C3FC20002A0021000A35293020
:1014C00007F068FCEAB20025206E17370368009524
:1014D0009B6839001E002B00B047A8420BD1206E3C
:1014E000402203683900DD68FA239B00A847E57FA6
:1014F0006B425D41EDB2280005B0F0BDF0B50400CF
:101500004026144BC6770384C31CD97725000023DB
:10151000006E85B0039202681F350093976829001A
:101520000422B847002802D0002005B0F0BD206E8C
:10153000320003682900DF68FA239B00B847E37F85
:10154000002BF1D1210010220398203107F076FC06
:101550000120EAE701300000F0B585B01F000CABB8
:101560001B88040003934A23C3770223FF330384B9
:10157000002326000330C3770D0A201DC577601DA8
:10158000C177A11DCA77E21DD377206E1F3602688E
:101590000093956831000822A847051E38D1206EB7
:1015A000310003681622DB689C46039B6646B04701
:1015B000002830DBE37F002B1ED0012B2DD1631CD4
:1015C000DB7FFD22A373A31CD97F042508001238FA
:1015D0000300134010421CD122000F32107D0A9DDF
:1015E000F8541070107F0132E8540133D071082B89
:1015F000F4D1142903D00125280005B0F0BD3334FF
:10160000637822781B0213430B9A5BBA1380F2E7CC
:1016100001256D42F0E70225FBE70325F9E7F0B568
:1016200085B004000393FF2A30D04026837B451CFD
:10163000C677EB77501CA31CD877206E1D3302931E
:10164000036800929F6803220B000299B8470028A4
:101650001FD1206E320003680299DF68C823B847A3
:10166000002818DBE37F9B0617D1EB7F0A9A013B2A
:10167000DBB20238137002B29A4210D121000398F3
:10168000213107F0DBFB012005B0F0BD0120404215
:10169000FAE70220FBE70320F9E70420F7E705203B
:1016A000F5E7F0B589B002AF0D0016001C007860B8
:1016B000102974D80C2B00D976E06A460533CB1874
:1016C0005B000133DBB2BB600733DB08DB00D31AFE
:1016D0009D4602ABFB6009200623FA687968137007
:1016E000684408220F3107F0A9FBFB6800225D72F5
:1016F00012236D006B44AA423DD11300F9680B33ED
:101700008A1894723A6B6600DBB29619B24239D1EC
:10171000240123006A460C333B600733DB08DB00FF
:10172000D31A9D461723FE18009602AD2B00BA6807
:10173000F9687868FFF773FF012837D133783A6882
:10174000934235D16B7A002B34D1AB7A002B31D157
:101750007B6B9C46A4440C24E41AE118C9B29C4556
:101760001FD000228E18F6B2AE5D9E540132102AB0
:10177000F8D11033F1E7B15A02321970090A5970E1
:101780000233B8E7591CC9B28C461088F968050ABB
:10179000CD5465460233DBB248550232B6E701202C
:1017A0004042BD4607B0F0BD0220F9E70320F7E74D
:1017B0000420F5E70520F3E7802210B5024803492D
:1017C000120107F03BFB10BD8806002000F801085D
:1017D00010B50400FFF7F0FF014B185D10BDC046C7
:1017E00088060020002330B585B000930193124B8A
:1017F00002930123039300F035FA00281AD1142232
:101800000E4B6946DA6001A800F0DEFA041E0FD123
:1018100080252D010A4B0849E31803201A685B68EC
:10182000611800F067FA002802D10834AC42F1D107
:1018300000F02CFA05B030BD00F80108002002408D
:101840008806002010B5024B1954FFF7CBFF10BDDE
:10185000880600207047000070B50500FA200D4B87
:1018600080001978FEF75CFC0B4C01002068FEF745
:1018700057FC00F07DF804000120002C09D1032D55
:1018800007D802382200290000F02CF82000034B72
:101890001D6070BD1F00002064000020200000209B
:1018A0001023064A10B5116800200B431360FFF7A0
:1018B000D3FFFFF7CFFF002010BDC046002002403D
:1018C000034A044B11681B785B1813607047C046CD
:1018D000880E00201F000020014B18687047C0468A
:1018E000880E002010B5FF2403220B0021000240C7
:1018F000D20091409B012340C943934000280ADB5A
:10190000C0240B4A800880008018A40002590A40B5
:101910001343035110BD0F2210400838054A8008B8
:1019200080008018C26911401943C161F2E7C046C6
:1019300000E100E000ED00E0002805DB1F23184077
:101940001E3B8340014A13607047C04600E100E03F
:10195000002809DB1F2318401E3B8340034AD3673E
:10196000BFF34F8FBFF36F8F7047C04604E100E0B5
:101970008022431E5204012093420DD2C021074A07
:1019800007485360036A09061B021B0A0B430362E4
:1019900000200723906013607047C04610E000E00D
:1019A00000ED00E0002807DB1F23C02218401E3B8B
:1019B0008340024952008B507047C04600E100E06E
:1019C000704710B5FFF7FCFF10BD704710B5041E3F
:1019D00001D1012010BD437FDAB2002B02D1027782
:1019E000FFF7F3FF022363772379002B1CD1182123
:1019F0002368124A5A619A688A439A606279236816
:101A0000002A19D1013A60211A619A6800208A439C
:101A100061690A4380219A609A688A43A1690A43EE
:101A20009A6001236377D5E72000E268A16800F09F
:101A300007F80028E2D0CCE72269E4E7B71DC1042B
:101A400030B501250400280029420ED01F23013B98
:101A500021D30800D8402842F9D0102A14D005D844
:101A6000002A08D00120082A12D030BD0120182AEF
:101A7000FBD1062BF9D820684161182183688B437C
:101A8000134383600020F0E70120072BF3D9ECE734
:101A90000F2BF0D9E9E70120102AE6D0E5D8002A7B
:101AA000E3D1E8E710B504000120002C0DD0237924
:101AB000DAB2002B03D12000627104F015F8022382
:101AC00000202371013B2061237110BD10B504007B
:101AD0000120002C08D002232000237104F066F8B6
:101AE000002020616071207110BD012230B5150009
:101AF0008D4004682368AB4323600271002030BD31
:101B000013B514000022019202680192019A002983
:101B100006D1083211190191019A0020136016BDF7
:101B20001432F7E730B514000222457903001000A3
:101B3000012D0ED01A71074A1D68A24028689043F3
:101B400006C90A43A24002432A60002001225871BC
:101B50001A7130BDFE0F000070B5022443790200F7
:101B60002000012B15D0013805008D401368147139
:101B70001E6835431D6000290CD119683A34214094
:101B8000A14202D159680843586001230020137113
:101B9000507170BDF0201968800301408142F4D17A
:101BA00059680C435C60F0E730B5841CE27F0300A9
:101BB000022A06D004228263012000220133DA7750
:101BC00030BD02680E2011688143116001210D00B3
:101BD000106888431060186CDA6B854000205560EF
:101BE000E177EAE770B5841CE37F022B03D004237E
:101BF0008363012070BD0E2103681A688A431A604E
:101C000001221500196891431960016CC36B8D4066
:101C10005D60E27783180022DA77436B934200D04D
:101C200098470020E6E700000C4A1021D06830B544
:101C300003000B40084205D002230948C46923432E
:101C4000C3610B000420D168014205D00121044C7E
:101C50000343E5692943E161D36030BD00200240C0
:101C6000900E0020064B00201A69120606D5054A80
:101C70005A60054A5A6018690006C00F7047C0468E
:101C80000020024023016745AB89EFCD8023034A42
:101C9000002011690B4313617047C04600200240C9
:101CA00070B50400FFF718FE01260500104BDA6836
:101CB000324211D12022D968114200D0DA60D968AD
:101CC000102208001040114202D1DB685B0708D5E2
:101CD000FFF7AAFF012004E0621CE8D0002C01D12C
:101CE000032070BDFFF7F8FD401BA042DED9F7E7E7
:101CF00000200240F0B585B003931E4B0091029284
:101D00001A7E04000220012A31D001221A481A76D4
:101D1000FFF7C6FF002827D12600012C03D0042698
:101D2000022C00D126000024124B01930298039943
:101D30002201FEF781FA00220127019B0F4DDA6193
:101D40002B69009A3B432B6163009B1880B218807B
:101D50000948FFF7A5FF2B69BB432B61002803D17E
:101D6000E419E3B29E42E1D80022024B1A7605B094
:101D7000F0BDC046900E002050C30000002002407D
:101D80000022064BDA61064B043219690A431A61D4
:101D9000402219690A431A617047C046900E00201C
:101DA000002002400022064BDA61064B023219691C
:101DB0000A431A614022586119690A431A6170473F
:101DC000900E002000200240F8B5214F04003B7E19
:101DD0000E000220012B0CD001233B7623681D4806
:101DE000012B12D1FFF75CFF002803D00120002354
:101DF0003B76F8BDFFF7C4FF1648FFF751FF0421FB
:101E0000154A13698B431361F1E7FFF749FF002877
:101E1000ECD101235B42336065680130A3686268DE
:101E2000DB029B18AB42E2D92800FFF7BBFF094851
:101E3000FFF736FF0221084A13698B43136100281C
:101E400001D03560D3E780231B01ED18E6E7C046DB
:101E5000900E002050C3000000200240044B10B53B
:101E60005A69104202D0586103F098FF10BDC04675
:101E700000040140F0B5040087B00120002C30D0F0
:101E8000314D635DDAB2002B05D1AA239B002000FF
:101E9000E25406F0F3F803236355206803F016F9C3
:101EA000002301271900606883421CD300222826E2
:101EB000110090422FD823006A46103343CB43C20F
:101EC00003CB03C2A268E3686168206803F008F9E5
:101ED0000022631DDA7701236355E369012B2ED0BD
:101EE000002007B0F0BD29262822B4465A43A21884
:101EF0009444664637702826B44694446646337048
:101F00002B26B4469444664601333170DBB29163AC
:101F1000D1631164C8E733005343E3181F006A37E5
:101F2000FF373970013F3A70F97081336C3FF967C0
:101F3000FF33803701323960D2B21960B9E720002F
:101F400000F002FECCE7C046A902000070B5AA2549
:101F5000AD00435D04000220012B09D0012363552D
:101F6000206803F0A9F8206803F0B7FA0020605554
:101F700070BD70B5AA25AD00435D04000220012BA1
:101F800008D001236355631DD977206803F09EFABA
:101F90000020605570BD0000F0B5040085B00068F9
:101FA00003F0AAFA802305001B021D40184201D14C
:101FB00000F00EFC2068821DD38F1BB2002B01DBCA
:101FC00005B0F0BD0F21D38F194000910F219AB2B7
:101FD0000B4200D0C3E01023110019401A422AD14D
:101FE0000388CF4A13408022120213430380030068
:101FF00050331A88230028331B78DB00C3189B1842
:10200000C84A20009B181B88E26B9B059B0D6364EC
:10201000D318E36306F07CF8631DDA7F002AC9D089
:10202000206C22680028C5D18025D97F4C322943F5
:102030001180D877BEE7028880211600090193B28B
:102040000E400A4222D0030050331A88B4235B00AA
:10205000E35CAC21DB00C3189B18B34A89009B18D2
:1020600022001B8869329B059B0DFF32D3616118EA
:10207000D28803F0B1FC2168AC4B0A8820001A40DA
:10208000802313430B8006F02DF893E71BB2002B3F
:1020900000DB8FE70288A54B25001A4080231343FD
:1020A0000380030050331A88B4235B00E35C693576
:1020B000DB00C3189B189C4AFF359B181B889B05A7
:1020C0009B0DEB610DD0696900290AD0EA8803F005
:1020D00083FC6B69EA6931009B1820006B6106F094
:1020E0000AF821680A8893B2120500D562E7C02277
:1020F00092011340934200D15CE70B0050331A88E1
:10210000894BCB189B181A889205920D1A802A6960
:102110003E2A0CD91F2550092A4055426A41801A8F
:102120001A8880021043824A024392B205E0002AD4
:102130000ED180201A88000202431A800A887D4B43
:102140001A40C0239B0153407B4A13430B8031E765
:10215000012550082A40801880021A88E4E7009B75
:102160009B00C218019313889FB21BB2002B00DBA7
:102170008AE013886D490B4080210B43138028238C
:10218000009A5343E3181A001D007532FF3212788B
:102190006935FF35002A15D10200503211882A789E
:1021A000D200521860491218521812889205950DE3
:1021B000002A47D01A006F327D33FF32FF331900F7
:1021C00012883BE019006C31FF3109782A78022926
:1021D00000D0E5E08026F601B4463E4002960600B7
:1021E0006546503636888133FF33196886192F4289
:1021F00000D1A7E0D50076194A4D76193588AD058E
:10220000AD0D8D4200D97DE0491B196000D17BE006
:102210007B0607D592008218138848490B4048492D
:102220000B431380002D0DD02823009A5343E1184F
:102230000A007132FF327D311288FF312B000968AC
:1022400003F0CAFB2823009959436218160085360B
:10225000FF363068083E4019B06030684019306081
:1022600010008130FF300068002804D0FC32D26FAB
:10227000954200D3BEE0009A20005343E31869332F
:10228000FF33197805F037FF802320681F4200D103
:1022900090E6019B2249C2181388009D0B402449F7
:1022A0000B439BB2138028235D4365192B002B330E
:1022B0001978033B012900D0CBE0002229002A64D1
:1022C00034310978914200D1A7E040213E00293500
:1022D0000E400F4200D1A5E02978914200D090E055
:1022E00002001978503215880E4AC9008218521916
:1022F00089180A880E489205920D0A800A880243BE
:1023000092B289E000211960910041180E88094BB2
:102310001E4080239B017340074E33430B8077E7B9
:102320000F8FFFFF02040000060400008F0F000063
:102330000080FFFF8FBFFFFF808000008F8FFFFFB7
:10234000C0800000D5007619BB4D76193588AD05E3
:10235000AD0D8D4216D8491B196015D07B0607D4E8
:10236000920082181388B5490B40B5490B4313807E
:10237000002D00D166E72823009A5343E1180A0094
:10238000733257E702991960910041180E88AD4BDE
:102390001E4080239B017340AB4E33430B80DDE72F
:1023A000920082181688A5493140A54E314311800C
:1023B0002A78910041180D88010050310988D20017
:1023C000521812186D040AD5A049521812889205A5
:1023D000950D002A00D135E71A007132ECE69649D6
:1023E000521812889205950D002A00D12AE71A008A
:1023F0007332E1E66931FF312068611803F096F825
:1024000042E7012909D10100904E50310D88197819
:102410008019C900401909180A801978200005F0B0
:1024200077FEC7E52A78002A06D1020019785032D3
:102430001588C900804A59E7012AEED102007E4D75
:10244000503211881A784019D2004018121816809C
:10245000E3E780263A0019787600CB0032409C46AC
:1024600001922B6C37421ED1060050363688774ACF
:1024700086196644B6183688B605B60D9E4202D354
:10248000019B2B64CAE728229B1B2B64EB6B9B19D7
:10249000EB636B6C9B196B64009B01335A43A1186F
:1024A00003F044F886E540223E00164003960600FD
:1024B00050360196174200D1CEE03288634E86191D
:1024C000B21802966646925B80269205920DF6013E
:1024D0009A4216D300232A002B64293212783E40F8
:1024E0009A4251D0012A6BD1019A029F1288BA18E0
:1024F00062441380019A504F1288C01980186044BA
:102500005DE09B1A2B6437426DD1282300994B4321
:10251000E3181F004C373978012900D0D5E0D96B7A
:102520009E6C89180191D963596C89185964996B0B
:102530008E4261D3761A9E642B0029331A788BB2AF
:10254000002A6ED1020050321288029EB2186244F4
:102550001688B605B60D16803E2957D91F274E0995
:1025600039404F427941761A1188B6023143384ECC
:10257000314389B21180282200994A43A218128E51
:10258000019902F0BDFFA0E0019B029A1B88304F29
:10259000D31863441A889205920D1A801A883A4318
:1025A00092B21A80019B244A1B888018C01860448C
:1025B00003889B059B0D038003883B439BB20380EC
:1025C000200005F0A5FD002E00D17EE02B00283371
:1025D0001B7822689B00D218138818490B401D49AC
:1025E0000B43138071E0890041180E88134B334070
:1025F000184E33430B8088E7002E02D111003E7045
:102600009AE7002231003A709A6495E7002901D1D7
:102610001188ACE701274E0839407618B6021188B8
:10262000A6E7012AA7D102005032128802998A181F
:10263000624413809FE7C046060400008F8FFFFFAF
:10264000C08000008FBFFFFF8080000002040000F8
:102650000080FFFF80C00000019AA74E12888619F3
:10266000B21802966646925B80269205920DF6019C
:102670009A4234D9039B3E402B642B0029331B78AC
:10268000002B00D075E0019B9C4A1B888018C01865
:10269000604403889A4F9B059B0D03800388029A30
:1026A0003B439BB20380019B1B88D31863441A8869
:1026B0009205920D1A801A883A4392B21A8020002D
:1026C00005F026FD002E00D180E728352B78216803
:1026D0009B00C9180A888B4B1A40302333E59B1A9C
:1026E0002B643E40002BC8D0002E07D18900411832
:1026F0000E88854B3340854E33430B802823009949
:102700004B43E3181F004C3739780129DDD1D96BD1
:102710009E6C89180191D963596C89185964996B19
:102720008E4236D3761A9E642B0029331A788BB2E8
:10273000002A43D1020050321288029EB21862442D
:102740001688B605B60D16803E292CD91F274E09CE
:1027500039404F427941761A1188B6023143684EAA
:10276000314389B21180282200994A43A218528E1F
:1027700006E7012BA3D10300604F50331A88C0191C
:1027800080180022604402801B880298C3186344AA
:1027900094E7002E02D111003E70C5E700223100FF
:1027A0009A643A70C0E7002901D11188D7E7012760
:1027B0004E0839407618B6021188D1E7012AD2D1E5
:1027C00002005032128802998A1862441380CAE7C4
:1027D00043050ED523684E490633DA8F20000A40A0
:1027E000DA8705F0A7FC29002000FFF7C2FBFFF7FE
:1027F000E7FB430407D5236846490633DA8F0A40CE
:10280000DA87FFF7DDFB802301009B0119401842A6
:1028100004D0236840490633DA8FF0E7C3041AD5A1
:10282000042023680233DA8F8243DA87DA8F0018B4
:102830008243DA87B8239B00E25C012A03D120009F
:10284000E15400F095F9200005F092FC236833492B
:102850000633DA8FD3E7030513D5082123689A1CC2
:10286000D08F06330143D187D98F2D480140D987B6
:102870000423D18F0B43D387200005F067FCFFF7BB
:102880009FFB8025284221D0B82023688000991D15
:10289000CA8FAA43CA87225C002AEDD1991CCD8F2A
:1028A00004322A43CA870822CD8F54332A43CA8769
:1028B00001213C2221541B8820009B081340B9228F
:1028C0009200A35000F054F9FFF77AFB83050AD574
:1028D000236814490633DA8F20000A40DA8705F0AE
:1028E00022FCFFF76DFBC00501D4FFF769FB2368ED
:1028F0000D490633DA8F82E7060400000204000067
:102900000080FFFFBF8FFFFF8F8FFFFF80C00000A1
:10291000FFFBFFFFFFBFFFFFFFDFFFFFFFEFFFFF3B
:10292000FFF7FFFFFFFDFFFFFFFEFFFF70B5050094
:102930000720084049B22824002919DA411C6143C4
:10294000273C69184C7008700A61CB70022B01D1CA
:1029500000230B71AA24A4002B5D0220012B06D0BA
:1029600001232B55286802F0CFFB0020285570BDAD
:102970004443210000262C1969316A34FF31FF34A9
:1029800069182670DFE707220A4049B270B528238C
:102990000400002913DA511C5943273B41184B709E
:1029A000AA250A70AD00635D0220012B06D0012329
:1029B0006355206802F0B6FC0020605570BD53439B
:1029C00019006931FF31C318411800206A33FF3301
:1029D0001870E5E770B50724214021344C430519F0
:1029E0002E007D36FF3632602A008132FF321360BE
:1029F0002B0000268533FF33693569341E60FF35AF
:102A00001B3BFF341E7029700119006802F08EFD17
:102A1000300070BD07230B402821594340188530F2
:102A2000FF300068704770B5282607242140340025
:102A30004C4304192500E26301224C3523642A70BB
:102A4000A36423000025293365641A708B1873432F
:102A5000A4192170C118006802F068FD280070BD3B
:102A60000722436870B50A40040001209A4217D833
:102A700048B22823002814DA511C5943273B611817
:102A80004B700123AA258B700A70AD00625D022095
:102A90009A4205D06355206802F0BEFC00206055C4
:102AA00070BD4B4319000020E31869316A33FF31D0
:102AB000FF3361181870E4E70F23426870B50B40CC
:102AC00004000120934219D807220A4049B2282362
:102AD000002914DA11185943611848700025AA26F4
:102AE0008D700A70B600A35D0220012B06D0012371
:102AF000A355206802F0B0FC2800A55570BD5343D3
:102B000019000020E31869316A33FF31FF3361187F
:102B10001870E3E710B50C0021060CD50721214001
:102B2000282401316143401899B2002A08D1027368
:102B3000C180002010BD282161436931FF31F2E7D7
:102B4000012283600273F4E703680200BA200121C6
:102B500010B58000B82411500020A4001055543343
:102B60001A8811430222198019880A431A8010BD5D
:102B700070470000F0B5040085B0002802D10120A4
:102B800005B0F0BD0368DB0733D423689B0700D58D
:102B900087E023681B0700D5C8E023685B0700D5E2
:102BA000EBE02368DB061AD562690423B94D012ADC
:102BB00000D054E1696B02270B436B636B6B1A43C4
:102BC0006A63FEF789FE06006B6B3B4200D13FE172
:102BD000F8216A6BA3698A43DB0013436B632368A4
:102BE0009B0600D562E1636A002B00D0A1E10020C2
:102BF000C6E70C22A74D6B681340042B0BD06B6803
:102C00001340082B0ED1C0226B6852021340802261
:102C10005202934206D12B689B03B6D56368002B02
:102C2000B3D1ACE76368012B13D180232A685B0220
:102C300013432B60FEF750FE80270600BF022B686F
:102C40003B42A2D1FEF748FE801B6428F7D903203F
:102C500096E7002B15D12B688F4A802713402B60F5
:102C60002B688E4ABF0213402B60FEF735FE06002C
:102C70002B683B4289D0FEF72FFE801B6428F7D9D2
:102C8000E5E7052B05D180232A68DB0213432B607F
:102C9000CBE72B68804A13402B602B687F4A134098
:102CA000C7E70C227B4D6B6813420BD06B68134057
:102CB000082B16D1C0226B685202134080221202E8
:102CC00093420ED12B689B0703D5E368012B00D0FC
:102CD00055E7F8212A6823698A43DB0013432B60F8
:102CE00057E7E2680123002A0FD02A68022713431E
:102CF0002B60FEF7F1FD06002B683B42E9D1FEF7A1
:102D0000EBFD801B0228F7D9A1E72A6802279A4326
:102D10002A60FEF7E1FD06002B683B4200D138E750
:102D2000FEF7DAFD801B0228F6D990E7E26901235D
:102D3000584D002A10D06A6A022713436B62FEF7CF
:102D4000CBFD06006B6A3B4200D026E7FEF7C4FDD0
:102D5000801B0228F6D97AE76A6A02279A436A62D8
:102D6000FEF7BAFD06006B6A3B4200D115E7FEF79D
:102D7000B3FD801B0228F6D969E780220021454D6A
:102D80005205EB690091134208D1EB691343EB61E3
:102D9000EB6913400393039B012300938027404E6C
:102DA0007F0033683B4215D0A368012B22D12A6AE9
:102DB00013432B62FEF790FD022706002B6A3B426D
:102DC0003FD0009B012B00D0EBE6EB69354A134066
:102DD000EB61E6E633683B433360FEF77DFD01902F
:102DE00033683B42E0D1FEF777FD019BC01A6428AF
:102DF000F6D92CE70122002B14D12B6A022793432A
:102E00002B622B6A033293432B62FEF765FD0600AB
:102E10002B6A3B42D5D0FEF75FFD234B801B9842C7
:102E2000F6D914E7052B05D1296A013B0B432B6228
:102E30002B6ABDE72B6A934304222B622B6A9343D0
:102E4000B7E7FEF749FD184B801B9842B6D9FEE65E
:102E5000FEF742FD801B022800D8B5E6F7E60532F2
:102E600003D16A6B9A436A63B2E66A6B0227134323
:102E700001226B636B6B93436B63FEF72DFD0600C2
:102E80006B6B3B4200D1AAE6FEF726FD801B0228B1
:102E9000F6D9DCE600100240FFFFFEFFFFFFFBFF5C
:102EA00000700040FFFFFFEF881300000C22554D1B
:102EB0006B681340934209D06B681340082B0ED106
:102EC000C0226B6852021340934208D16B6B9B0384
:102ED00000D488E6236A012B00D050E683E6236AFB
:102EE000002B13D080236A6B5B0213436B63FEF7E6
:102EF000F3FC80270600BF026B6B3B4200D072E6FA
:102F0000FEF7EAFC801B0228F6D9A0E66B6B3E4A6E
:102F1000802713406B63FEF7DFFC0600BF026B6B7C
:102F20003B4200D15FE6FEF7D7FC801B0228F6D9B2
:102F30008DE60C21334D6A680A40082A47D0334A8F
:102F4000022B32D12B68802713402B60FEF7C4FC84
:102F50000600BF042B683B4221D10F22EB6A80267A
:102F60009343226BB6041343EB62A16AE36A6A6877
:102F70000B4327490A4013436B6080232A685B0494
:102F800013432B60FEF7A8FC04002B68334200D0EB
:102F90002DE6FEF7A1FC001B0228F6D957E6FEF746
:102FA0009BFC801B0228D5D951E62B688026134054
:102FB0002B60FEF791FC0400B6042B68334200D16D
:102FC00015E6FEF789FC001B0228F6D93FE6012B27
:102FD00000D1D4E5C0226868A16A5202EB6A0240BF
:102FE0008A4200D0CBE50F221340226B934200D0DF
:102FF000C5E5F0239B031840E36AC01A431E9841BD
:10300000C0B2BDE500100240FFFFFEFFFFFFFFFE64
:10301000FF7FC2FF0C2070B5134D6B681840082865
:1030200008D00C3843425841104B40421840104BD6
:10303000C01870BD0F200F499A0C02408C5CEA6AE0
:103040000D490240895CC022802052021340400298
:10305000834201D1064802E09342FBD10748FDF7C5
:103060005FF86043E5E7C04600100240005A620284
:1030700000127A001F9100080F910008006CDC021A
:10308000F7B504000F00002801D10120FEBD012288
:103090003A4D2B6813408B421CD32268930722D4ED
:1030A000D2072FD401232A681A40BA4257D823687E
:1030B000334D5B075AD4FFF7ADFF6B68314A1B06EF
:1030C0001B0FD35C3049D84008600020FEF7C4FBDA
:1030D0000020DBE72B6893430B432B602B681340E6
:1030E0008B42D2D1D9E72649530704D5E02348685B
:1030F000DB0003434B60F0204B688343A06803432D
:103100004B60CDE762681E4E012A03D133689B03F2
:1031100005D4BAE7022A1AD133689B01B5D5032139
:1031200073688B4313437360FEF7D6FB01900C2347
:1031300072681A4063689B009A42B3D0FEF7CCFBDA
:10314000019BC01A114B9842F1D903209EE7032A34
:1031500001D1736BDBE733689B07E0D495E72A68FE
:103160009A432A602A681A42A1D08EE76B68084AFF
:103170001340E26813436B609DE7C04600200240A5
:1031800000100240909100086400002088130000A5
:10319000FFF8FFFF044B054A5B6805495B055B0FC1
:1031A000CB5C1068D84070470010024064000020DB
:1031B00088910008072310B503240360094B5A685F
:1031C000224042605A68ED3422408260E0225B680F
:1031D000D20013400122C360034B1B6813400B60F5
:1031E00010BDC0460010024000200240F0B5036848
:1031F000050085B0DB032BD580220021464C52050B
:10320000E3690091134208D1E3691343E361E36981
:1032100013400393039B0123009380273F4E7F00BD
:1032200033683B423DD0216AC022080092006B689F
:103230003B4E1040114246D1236A6A683340134323
:103240002362009B012B03D1E369364A1340E361FB
:103250002B68DA0706D503202F490A6B8243A8683A
:1032600002430A639A0706D52B492F480A6B02408E
:10327000E86802430A639A0606D5102026490A6BBD
:103280008243286902430A639A0306D580202249B3
:103290000A6B8243A86902430A635B0533D40020AA
:1032A0000FE033683B433360FEF716FB0190336851
:1032B0003B42B8D1FEF710FB019BC01A6428F6D937
:1032C000032005B0F0BD13408342B5D08022236AAD
:1032D000206A1900520202432262226A13483140D6
:1032E000024022622162DB07A6D5FEF7F5FA07004D
:1032F0000222236A13429FD1FEF7EEFA0C4BC01B49
:103300009842F5D9DCE74021034A136B8B43696986
:103310000B431363C3E7C046001002400070004037
:10332000FFFCFFFFFFFFFFEFFFFFFCFFFFFFFEFFC4
:10333000881300000122036A70B593430362036A95
:1033400044688569723295430A68154302229343A3
:103350008A6813430E4A904208D00E4A904205D024
:103360000D4A904202D00D4A90420BD1082293435D
:10337000CA688E69134304229343094A22404C6968
:10338000344314434A68446085614263036270BDFC
:10339000002C014000400140004401400048014031
:1033A000FFFCFFFF036A184A70B5134003627323E2
:1033B000056A4268C4699C430B681C43134B1D405B
:1033C0008B681B022B43124DA8420ED1114D1D409C
:1033D000CB681B022B43104D2B40104D4E691540FE
:1033E0008A69324312012A4308E00D4DA842F4D005
:1033F0000C4DA842F1D00C4DA842EED042604A6874
:10340000C461C263036270BDFFFEFFFFFFFDFFFFEB
:10341000002C0140FFF7FFFFFFFBFFFFFFCFFFFF87
:10342000004001400044014000480140036A144A42
:1034300030B513400362046A124D4368C2692A40E2
:103440000D682D021543104A14408A681203224366
:103450000E4CA04208D00E4CA04205D00D4CA0420C
:1034600002D00D4CA04204D10C4C1C404B699B0176
:10347000234343604B68C5610364026230BDC046AC
:10348000FFEFFFFFFF8CFFFFFFDFFFFF002C01407E
:10349000004001400044014000480140FFBFFFFFE1
:1034A00001000300012010B53D310C78E2B28442E6
:1034B00019D1001808701B680C498B4209D0802173
:1034C000C9058B4205D00A498B4202D009498B427B
:1034D0000AD107219A680A40062A03D001221968F6
:1034E0000A431A60002010BD1968F9E7002C01405A
:1034F0000004004000400140020030B502243C328C
:10350000157803002000012D08D018003D3004700C
:103510001B685961012303700020107030BD704793
:1035200070470222036810B51969040011420ED0D9
:10353000D96811420BD0053A1A61043202779B69AF
:103540009B0700D179E001F0B2FD0023237704222C
:1035500023681969114210D0D96811420DD0093A77
:103560001A61073222779A69C0239B0020001A4211
:1035700069D001F09CFD0023237708222368196994
:1035800011420ED0D96811420BD0113A1A610D3296
:103590002277DB6920009B075BD001F088FD0023C8
:1035A0002377102223681969114210D0D96811427B
:1035B0000DD0213A1A6119322277DA69C0239B00B3
:1035C00020001A424BD001F072FD00232377012224
:1035D00023681969114207D0D968114204D0033A0F
:1035E00020001A6101F038FD802223681969114218
:1035F00008D0D968114205D0023AFF3A20001A617A
:1036000000F043FB402223681969114207D0D968B2
:10361000114204D0813A20001A61FFF781FF202275
:1036200023681969114207D0D968114204D0413A80
:1036300020001A6100F028FB10BD01F034FD2000CD
:10364000FFF76DFF81E701F02EFD2000FFF767FF18
:1036500091E701F028FD2000FFF761FF9FE701F0EF
:1036600022FD2000FFF75BFFAFE7000010B51C4C08
:103670000368A04206D08022D205904202D0194AA7
:10368000904208D1702293434A681343164A1A4065
:10369000CB6813430BE0154A9042F7D0144A90428E
:1036A000F4D0144A9042F1D0134A9042EED08022D6
:1036B00093434A69134303608B68C3620B68836258
:1036C000A04208D00A4B984205D00A4B984202D03B
:1036D000094B984201D10B6903630123436110BD7B
:1036E000002C014000040040FFFCFFFF00200040D0
:1036F00000400140004401400048014070B5040012
:103700000120002C21D025003D352B78DAB2002B8A
:1037100005D123003C3320001A7002F089FE0223F9
:103720002B702068211DFFF7A1FF2200012300203C
:10373000463213704534083A137053709370D37047
:1037400013715371937123702B7070BD1022036A33
:1037500070B593430362056A164C4268836923403F
:103760000C6824021C4320239D438B681B012B43C0
:10377000114DA8420FD18025AB431E00CB68403DC0
:103780001B013343AB430D4D4E6915408A693243EB
:1037900092002A4308E00A4DA842F4D0094DA842FD
:1037A000F1D0094DA842EED042604A68846182633C
:1037B000036270BDFF8CFFFF002C0140FFF3FFFF91
:1037C00000400140004401400048014070B5040041
:1037D0003C34257803000220012D09D0082A17D097
:1037E00007D8002A0BD0042A0ED001200023237012
:1037F00070BD0C2AF9D11868FFF718FE02E01868AE
:10380000FFF798FD0020F1E71868FFF79FFFF9E741
:103810001868FFF7C7FDF5E7F8B506003C36150058
:10382000327803000C000220012A0AD001383070DF
:10383000082D3FD006D8002D19D0042D29D0002303
:103840003370F8BD0C2DFAD11D682800FFF7EEFD8E
:103850008023EA691B011343EB61EB691D4A1340A6
:10386000EB612369EA691B021343EB610FE01D68FA
:103870002800FFF75FFD0823AA6913430422AB6108
:10388000AB699343AB61AB6922691343AB61002021
:10389000D5E71D682800FFF759FF8023AA691B019F
:1038A0001343AB61AB690B4A1340AB612369AA694F
:1038B0001B02EAE71F683800FFF774FD0422FB696A
:1038C0001D43FD61FB699343FB61FB69226913435F
:1038D000FB61DCE7FFFBFFFFF0B501261500026A84
:1038E000114FB24302628269046AB84217D080273E
:1038F000FF05B84213D00D4FB84210D00C4FB8425C
:103900000DD03243F025AA431B010F352B40134342
:103910000A2294431140214383610162F0BD0326D2
:10392000B2432A43EEE7C046002C014000040040A9
:10393000004001400300F7B53C3301900C001978BA
:103940000220012918D001381870002A15D1019BD6
:1039500062681E682168E3683000FFF7BDFF0C2233
:10396000B3699343B361B369A2681343B3610020A1
:103970000023019D3C352B70FEBD042A24D1102765
:10398000019B22681B6860681E6AE168BE431E6274
:103990009F69354D00022F403843344F09073840A6
:1039A000090C0143A0201E6A1201864302403243E3
:1039B00099611A629A692E490A409A61A2689969C6
:1039C00012020A439A61D2E7082A25D10325019BF6
:1039D000284F1B6822681E6A60683E40E1681E62CC
:1039E000DF690901AF433843F027B8430F37394047
:1039F0001E6A01432048D9613040A0260C211202E2
:103A00003601324002431A62DA698A43DA61DA69BE
:103A1000A1680A43DA61AAE70C2AA9D1019B174FD2
:103A20001B6822681E6A60683E40E1681E62DF69AA
:103A30000D4D00022F4038430C4F09073840090C48
:103A40001E6A01430E4812030640A02000020240F5
:103A50003243D9611A62DA6905490A40DA61A2681B
:103A6000D9691202D5E7C046FFFCFFFFFF0FFFFF39
:103A7000FFF3FFFFFFFEFFFFFFF5FFFFFFEFFFFF7D
:103A8000FF5FFFFF1F2310B5012419408C408A40BF
:103A9000036AA3430362036A1A43026210BD000073
:103AA0000300020010B5002905D13E320120147830
:103AB00084420AD010BD042901D13F32F6E708291B
:103AC00001D04132F2E74032F0E7022010701C686A
:103AD00001222000FFF7D6FF144B9C4220D0144B4C
:103AE0009C421DD0134B9C4210D0134B9C420DD0D6
:103AF0008023DB059C4202D0104B9C420BD1072255
:103B0000A3681340062B06D10020D3E78023626C04
:103B10001B02134363640123226813432360F3E70A
:103B20008023626C1B0213436364E8E7002C0140AE
:103B300000400140004401400048014000040040B2
:103B400010B5FFF7ADFF10BD70B5030005000029EB
:103B50002AD11C003E352E784234F0B22278D2B2FF
:103B6000012E37D1012A1ED102222A7022701C6830
:103B700001222000FFF786FF174B9C4209D08023CB
:103B8000DB059C4205D0154B9C4202D0144B9C4255
:103B900004D10722A3681340062B03D00123226817
:103BA00013432360002070BD042905D11C003F355C
:103BB0002E784334F0B2D1E7082905D01C004135F6
:103BC0002E784534F0B2C9E71C0040352E784434D5
:103BD000F0B2C3E70120E6E7002C014000040040FA
:103BE000004001401F2310B5042419408C408A4036
:103BF000036AA3430362036A1A43026210BD000012
:103C00000300020010B5002905D1423201201478CA
:103C100084420AD010BD042901D14332F6E70829B5
:103C200001D04532F2E74432F0E7022010701C6800
:103C300004222000FFF7D6FF8023626C1B0213438F
:103C400063640C4B9C4209D08023DB059C4205D069
:103C5000094B9C4202D0094B9C4204D10722A36825
:103C60001340062B03D00123226813432360002056
:103C7000D0E7C046002C0140000400400040014055
:103C800010B5FFF7BDFF10BD7047704730B5EFF3BB
:103C90001084012282F310880168124D0B682B40BA
:103CA0000B6084F31088EFF3108482F310880168AE
:103CB0008B6893438B6084F31088036E93420AD120
:103CC000EFF3108183F31088102402681368A34374
:103CD000136081F310882022031DDA670023036636
:103CE000836630BDDFFEFFFF30B5EFF310840122A5
:103CF00082F31088802501680B68AB430B6084F366
:103D00001088EFF3108182F3108840230268106856
:103D10000343136081F3108830BDC36F10B5212BAE
:103D200006D1020052321388002B02D1FFF7DCFFCC
:103D300010BDC36C01681C7801330C85C364138803
:103D4000013B9BB21380F3E7C36F10B5212B06D163
:103D5000010052310B88002B02D1FFF7C5FF10BDC7
:103D6000C26C046813880232DB05DB0D2385C26454
:103D70000B88013B9BB20B80F1E7704710B5C46F15
:103D800003000220202C37D10138002934D0002A2A
:103D900032D080209C68400184420CD0D964190044
:103DA00050310A804A801A0000210832D16721224E
:103DB000DA67124A12E018690028EFD10C000130CE
:103DC0000440014218D1D964190050310A804A8058
:103DD0001A000832D4672122DA67094ADA66EFF35B
:103DE0001081012282F310881A688023106803432F
:103DF000136081F31088002010BDC0461B3D0008F1
:103E0000493D0008406A0023020010B55A32138071
:103E1000083A138002F01CFD10BD70470168F8B528
:103E2000CB690400BB480A688E6803420CD120208D
:103E3000034200D1A7E0024200D1A4E0A36E20001B
:103E4000002B00D095E095E00120350005400642AA
:103E500015D0022603422FD133423ED00220270044
:103E6000042608620837F86F3043F867334236D1CA
:103E700018073ED52020104028430DD139E0A64F29
:103E80003A4200D17FE0022603420CD15807EFD519
:103E900018072ED590062CD5082008622518EE6F3D
:103EA0003043E86725E0D0050BD43342EED1580704
:103EB000DED5002D13D1EBE7D00502D43342CDD1AE
:103EC000F5E70120260008620836F76F3843F067EF
:103ED0009807ECD5002DD9D0C0E75807C8D50420E5
:103EE000250008620835EE6F02383043E86718078E
:103EF000D2D48020250000010835034206D05601A7
:103F000004D508622021E86F0143E967E96F0029C1
:103F100030D020210B4206D00A4204D0A36E002BE1
:103F200001D0200098472268EB6F4027966828222E
:103F30003E40134020001E4321D0FFF7A7FE236818
:103F40009B683B4217D0EFF31081012383F3108865
:103F500022689368BB43936081F31088606F0028E8
:103F600009D06E4B4363FDF73DFE002802D0606F21
:103F7000436B9847F8BD200002F06AFCFAE702F0B4
:103F800067FCEE67F6E7206E012800D095E010256B
:103F90002B4200D191E02A4200D18EE00D628B6865
:103FA00040211E000E400B424FD0626F13685B68C9
:103FB0009BB2002BDED02600583637889F42D9D9D5
:103FC00027005A373B809369202B32D0EFF31087BC
:103FD00080F310882268524D13682B40136087F3DA
:103FE0001088EFF3108780F310882268936883436A
:103FF000936087F31088EFF3108C80F31088230010
:1040000080CBBA688A43BA608CF310882022DA67C2
:1040100000232366EFF3108180F3108822681235A5
:104020001368FF35AB43136081F31088606FFDF7B1
:10403000BBFD0223636623005A331B883188C91AEB
:1040400089B22000FFF7E9FE94E7230022005833ED
:104050005A321988138812889BB2002A00D189E746
:10406000C91A89B2002900D184E7EFF3108780F3E1
:10407000108822682B4D13682B40136087F310883B
:10408000EFF3108C80F31088230080CBBA68824352
:10409000BA608CF310882022DA672666A666EFF3F2
:1040A000108680F310881020226813688343136001
:1040B00086F3108802236366C3E78020400303422F
:1040C00006D0760204D50862200002F00FFC51E70A
:1040D00080210B4203D00A4201D0E36EAFE64021BB
:1040E0000B4200D146E70A4200D143E7EFF31080CC
:1040F000012383F31088226813688B43136080F3D5
:1041000010882023E36700232000E36602F099FB78
:1041100030E7C0460F08000020010004053E0008FB
:10412000FFFEFFFFDFFEFFFFF8B50300011DCC6FB0
:104130005C331A880368222C57D19B8C446D134042
:1041400002002370436D5A32013343651388013BEB
:104150009BB2138013889CB2002B42D1EFF31086E0
:10416000013383F310880568224F2A683A402A6099
:1041700086F31088EFF3108683F310880568AA6829
:104180009A43AA6086F310882022CA6702684466B0
:104190005268846612020AD5EFF3108183F3108807
:1041A0000268154C13682340136081F31088036E76
:1041B000012B17D100220266EFF3108483F31088DD
:1041C00001680F330A689A430A6084F31088026812
:1041D000D169194200D01362030058331988FFF7E0
:1041E0001CFEF8BD02F026FBFBE7082299690A4392
:1041F0009A61F6E7DFFEFFFFFFFFFFFBF8B5030064
:10420000021DD16F5C331C880368222956D1998C1A
:10421000436D214019800100023343655A310B88F8
:10422000013B9BB20B800B889CB2002B42D1EFF379
:104230001086013383F310880568234F29683940BD
:10424000296086F31088EFF3108683F310880568E1
:10425000A9689943A96086F310882021D167026874
:1042600044665268846612020AD5EFF3108183F324
:1042700010880268154C13682340136081F310887E
:10428000036E012B17D100220266EFF3108483F333
:10429000108801680F330A689A430A6084F3108813
:1042A0000268D169194200D013620300583319889B
:1042B000FFF7B3FDF8BD02F0BDFAFBE708229969EC
:1042C0000A439A61F6E7C046DFFEFFFFFFFFFFFBF0
:1042D000020070B5783211780300022001291DD048
:1042E000012122301170D867EFF3108581F3108817
:1042F0000C261C682068B043206085F31088EFF31B
:10430000108481F31088186807310568294301601B
:1043100084F3108820210020D967107070BD02003E
:1043200070B5783211780300022001291DD00121D7
:1043300022301170D867EFF3108581F310880C26B6
:104340001C682068B043206085F31088EFF3108468
:1043500081F310881868033105682943016084F3EC
:10436000108820210020D967107070BDC36F043001
:10437000C06F18437047000070B504002569A1683C
:10438000026829436569C36929431068434D19438D
:1043900028400143116051684148256A0140E068A6
:1043A00001435160A169906829433E4D2840014373
:1043B00091603D498A4216D103213C4A126B0A4062
:1043C000022A40D08A4225D0012A55D080221202EA
:1043D00093425AD1FEF7DEFE031E38D1002000239F
:1043E000A366E36670BD32498A4225D1C021802090
:1043F0002E4A8902126B80020A40824223D007D8DB
:10440000002AE3D0802149028A4235D00120E6E724
:104410008A42FBD180221202934234D0254861683F
:104420004B081818FBF77CFE0200234B103A9A4207
:10443000ECD82368D860D1E720498A42C6D0204909
:104440008A42E3D1C2E7802000028342E7D161685B
:104450005B0048081818FBF763FE0200164B103A81
:104460009A42D3D80F23020000079A4393B2400F19
:1044700022680343D360B1E780221202934209D13C
:10448000FEF7C8FDA8E70B4BE1E7FEF783FE002827
:10449000A4D0C4E7FEF7BEFDF9E7C046F369FFEF1D
:1044A000FFCFFFFFFFF4FFFF003801400010024084
:1044B0000044004000127A00EFFF00000048004076
:1044C000004C0040436A30B5DA0706D50168284C35
:1044D0004A682240846A22434A609A0706D50168E6
:1044E000244C4A682240C46A22434A605A0706D5CF
:1044F0000168214C4A682240046B22434A601A0733
:1045000006D501681D4C4A682240446B22434A602C
:10451000DA0606D501681A4C8A682240846B224369
:104520008A609A0606D50168164C8A682240C46BD8
:1045300022438A605A0610D50168134D4A68046CFC
:104540002A4022434A6080225203944205D14A689D
:104550000E4C2240446C22434A601B0606D502687A
:104560000B4953680B40816C0B43536030BDC04610
:10457000FFFFFDFFFFFFFEFFFFFFFBFFFF7FFFFFD2
:10458000FFEFFFFFFFDFFFFFFFFFEFFFFFFF9FFFDB
:10459000FFFFF7FFF7B504000D0017000093226836
:1045A000D3692B405B1B59424B41BB4201D00020D9
:1045B00020E0089B0133F3D0FDF78EF9009BC01A71
:1045C000089B984227D8002B25D023681A685207E9
:1045D000E5D5DA69082611003140019132420AD04E
:1045E00020001E62FFF752FBA319DE6700230120A3
:1045F00078342370FEBD8022D96912011142CED0D9
:104600001A622000FFF742FB230020220833DA67FA
:10461000019B783423700320ECE70000030073B59E
:10462000002504000833DD67FDF756F9236806000E
:104630001B681B071DD58021264B2A000093890388
:1046400003002000FFF7A6FFA84212D0EFF310816D
:10465000012383F31088802022681368834313604A
:1046600081F310882023E36703200023783423702C
:1046700076BD250008CD1B685B0723D58021154B2F
:104680000022009320003300C903FFF783FF0028B6
:1046900018D0EFF31080012282F3108821680E4EAB
:1046A0000B6833400B6080F31088EFF3108082F3C7
:1046B000108821688B6893438B6080F310882023D7
:1046C000EB67D1E720230020E367EB672066606695
:1046D000CBE7C046FFFFFF01DFFEFFFF10B5041E62
:1046E00001D1012010BDC36F002B04D1020078322C
:1046F0001370FFF742FB242301212268E36713684C
:1047000020008B431360FFF737FE0128E9D0636A6E
:10471000002B02D02000FFF7D5FE236807495A6816
:1047200020000A402A215A609A688A439A6001222E
:1047300019680A431A60FFF771FFD3E7FFB7FFFF5D
:1047400010B5041E01D1012010BDC36F002B04D190
:10475000020078321370FFF710FB24230121226836
:10476000E367136820008B431360FFF705FE012801
:10477000E9D0636A002B02D02000FFF7A3FE236874
:1047800009495A6820000A4022215A609A688A43DF
:104790009A60082299680A439A60012219680A43BC
:1047A0001A60FFF73BFFCFE7FFB7FFFF0300583367
:1047B00010B541651A805A80802100238268836683
:1047C00049018A4238D103695A1E9341FF225B4254
:1047D0009343264A9B1802005C3213800300002298
:1047E0000833DA67031D2232DA67EFF31081012301
:1047F00083F31088026894682343936081F31088E0
:104800008021846802691A4B49018C4202D1002A36
:1048100000D1184B83660123002A1FD0EFF31081CB
:1048200083F31088026820331068FF33034313605A
:1048300081F31088002010BD002A05D102697F2372
:10484000002AC8D18033C6E7802149058A42C2D1F7
:1048500002693F23002ABED14033BCE7EFF3108149
:1048600083F31088026820231068DFE7FF0100004F
:1048700029410008FD4100080300043070B5C46FF1
:104880000220202C25D10138002922D0002A20D056
:1048900080209C684001844205D11869002802D11B
:1048A0000130014215D100201866186840680002E6
:1048B0000CD5EFF31085012080F3108880201C6850
:1048C000C00426683043206085F310881800FFF785
:1048D0006DFF70BD836810B50400002B05D0032266
:1048E000010098470023A360E36010BD836810B502
:1048F0000400002B02D0032201009847200010BDC5
:104900004B1E032B02D88800043870470120404218
:10491000FBE700000139435C002B05D0054B022961
:1049200005D90120404204E00329FAD8024B49008E
:10493000C85A70474091000838910008013903298E
:1049400002D8034B585C704701204042FBE7C04649
:10495000339100080139032902D8034B5856704798
:1049600001204042FBE7C0462F910008F7B5040044
:104970000E00FFF7C5FF0500431C00D1FEE7310024
:104980002000FFF7DBFF03000190013300D1FEE7B9
:1049900031002000FFF7BEFF013000D1FEE7B71D58
:1049A0003F01E719BB68002B07D0019B2269DB435D
:1049B0001361D36801990B43D360731E5A00A21888
:1049C00090880C2810D8FBF78DFB44441313130771
:1049D0000713133E3E3E1F002000E35C2900103009
:1049E000002B02D0FFF74CF9F7BDFFF7A9F8FBE762
:1049F0002000E35C29001030002B02D0FFF700F903
:104A0000F2E7FFF74DF8EFE7200029001030FFF73D
:104A10009BF831002000FFF79DFF010006002000F9
:104A2000FFF778FF25692B6A1843BB682862002BC3
:104A3000DAD031002000FFF781FFC3432B61EB6820
:104A40001843E860D0E7200029001030FFF77CF819
:104A5000CAE723691B68DB07C6D420001030FEF7C5
:104A60001FFDC1E7836E10B50400002B0AD002229F
:104A7000036952421A61D96803320A43DA6010307E
:104A8000FEF70EFD20000121FFF770FF200002213C
:104A9000FFF76CFF20000321FFF768FF04212000CF
:104AA000FFF764FF10BD0000F0B591B01F0016AB1A
:104AB0001B7804000E0001920293FFF721FF05000E
:104AC000431C00D1FEE74E4B0993236900281CD1FB
:104AD0005B6B01220A9300230692029A0B930892C1
:104AE000721E0392019A0D930E930C930F930593EC
:104AF00007930C2A2AD81000FBF7F4FA431121423D
:104B0000494B5456585C5A636500042801D19B6B8D
:104B1000DFE7082801D1DB6BDBE71B6CD9E7760008
:104B2000A6197388002B08D0002320002A00738068
:104B3000103009A90993FEF749FE11B0F0BD10230A
:104B40002A00099309A9E018FEF740FE039B019A89
:104B50005B00E3189A807B1CEFD0380001F092FCD8
:104B6000A8424CD1274D3800290001F059FA2900FC
:104B7000380001F097FA039BC002C00FE054DCE755
:104B8000202320002A00099309A91030DCE73023F4
:104B9000F7E7602320002A0009A910300993FEF7E7
:104BA0003BFED3E77023F5E75023EAE74023E8E72D
:104BB0000223059320002A0005A91030FEF7BAFE53
:104BC000C4E70A23F5E7230010332A00180005A9DB
:104BD0000293FEF7AFFE31002000FFF7BBFE0C2270
:104BE000431E5B00E3189A80022301002000059316
:104BF0000693FFF785FE05A902000298DEE7FEE7AF
:104C0000FFFF00000893000801390300002003297A
:104C100002D849005B189888704710B50121103000
:104C2000FEF76AFC10BD036918680123184070473D
:104C300070B505000C00FFF7F6FF00280FD1012624
:104C4000E36833420CD0E3682800B343E360FFF726
:104C5000E4FF02235B422361E3681E43E66070BD0C
:104C60002800FFF7DAFFFAE7154A03000020934215
:104C700025D080220130D205934220D0114A013044
:104C800093421CD0104A0130934218D00F4A013091
:104C9000934214D00E4A0130934210D00D4A013095
:104CA00093420CD00C4A0130934208D00B4A0C4876
:104CB0009B185A4253415B4218400A4BC018704738
:104CC000002C01400004004000100040001400408F
:104CD00000200040004001400044014000B8FEBFF9
:104CE0000900FFFFFFFF000070B504000069FFF737
:104CF000BBFF05002000103001F0A8FA0022084B8D
:104D0000AD00EA5026002500E260B0356036B542BD
:104D100004D0103D2800FFF7E9FDF8E7200070BD42
:104D2000B00E0020F7B5040008000D00FFF79CFF4F
:104D30001F4FB84200D1FEE72369002B00D0FEE7E9
:104D400021001C4A80000C31815022002C32256148
:104D500026001370203223636363A363E363236439
:104D60006364A3641370537003221036E36530004C
:104D7000E460A26501F0DAF923002500B033603564
:104D800001932800FFF7A6FD019B10359D42F8D145
:104D9000002323606360A3606361A3612362636295
:104DA00080333000E761A362FEF7A8FCF7BDC04680
:104DB000FFFF0000B00E002010B586B004001022E6
:104DC000002102A803F0F9FF002302A801A9019322
:104DD000FEF7F0F9206901F050FB012815D1059C80
:104DE000FEF7D8F9C023DB009C4206D007D880220A
:104DF000064BD2002340934205D1400003E0E0235C
:104E0000DB009C42F9D006B010BDFEE7FFFEFFFFBD
:104E100070B505000C00012A0CD0022A18D023001E
:104E20005A1E93412969E41A2800CC62EC61FFF70D
:104E3000FFFE70BDFFF7C0FF0849FBF771F9604343
:104E40002B69010C99620131FBF76AF90400E6E76E
:104E5000FFF7B2FF2100FBF763F9F1E740420F00D3
:104E6000F7B5060014001D00FFF74AFD336907007F
:104E70009A6A411C00D1FEE701320192822D30D0A6
:104E80001CD8102D08D8002D08D00121A940D86ABF
:104E900001390130604320E0812D16D03169194A73
:104EA000CB6A934203D10132944200D11C00002FFF
:104EB0001DD14C633000FFF7BBFEF7BD832DEDD154
:104EC000D86A64210130604307E03000FFF774FFC7
:104ED0000D49FBF725F960430199FBF721F904001F
:104EE000DCE73000FFF768FF01996143F5E7042F25
:104EF00001D18C63DEE7082F01D1CC63DAE70C64C3
:104F0000D8E7C046FFFF000040420F00044B10B539
:104F10001868002802D00430FEF703FB10BDC0461D
:104F2000B00E002010B5FFF7F1FF10BD044B10B517
:104F30005868002802D00430FEF7F3FA10BDC046CE
:104F4000B00E0020044B10B59868002802D0043041
:104F5000FEF7E7FA10BDC046B00E0020044B10B5B6
:104F6000D868002802D00430FEF7DBFA10BDC04636
:104F7000B00E0020044B10B51869002802D0043090
:104F8000FEF7CFFA10BDC046B00E0020044B10B59E
:104F90005869002802D00430FEF7C3FA10BDC0469D
:104FA000B00E0020044B10B59869002802D00430E0
:104FB000FEF7B7FA10BDC046B00E0020044B10B586
:104FC000D869002802D00430FEF7ABFA10BDC04605
:104FD000B00E0020044B10B5186A002802D004302F
:104FE000FEF79FFA10BDC046B00E002010B50C228F
:104FF0000021040003F0E1FE00232000E36010BD67
:10500000F8B50500070004000E006035B037280031
:105010001035FFF7EBFFBD42F9D10023310020002E
:105020002361FFF77FFE2000F8BD836810B5002BD9
:1050300001D103F0A7FFC368984710BD10B5002841
:1050400000D1FEE701F070F80068836E002B02D0FB
:105050006030FFF7EAFF10BD10B5FFF7EFFF10BD9E
:10506000030010B5002800D1FEE7007F01380728B3
:1050700012D8FBF737F8041611121111111401247C
:10508000180001F051F80634006824010019836803
:10509000002B01D0FFF7C9FF10BD0324F0E7042463
:1050A000EEE70224ECE710B5FFF7DAFF10BD10B50C
:1050B000FFF7D6FF10BD0000821D03000020D0873F
:1050C000014A0233DA87704780BFFFFF0230C38F87
:1050D000024A1340C38700207047C0467F4000004B
:1050E00084B010B50400049205930122831C0020B3
:1050F000DA87D887A31D5034D8870391208010BC4D
:1051000008BC04B018470000F7B50E78794AB30020
:10511000C3181C88CF781440012205000092032F89
:1051200008D83800FAF7DEFF02423F3C80229200A6
:1051300014430097704A1443A4B21C8018886F4C23
:1051400020403043104380B21880F0008446087B32
:10515000AC4450350195002800D068E0CD884878EF
:105160006D086D00002823D080200199C0000988B7
:10517000614409180D801988490604D51988214011
:105180005F4C214319805F4D012F00D1ABE02021FE
:105190001C882C4061400A4392B200981A80FEBDE0
:1051A000C022D200144300220092C3E78022F8E715
:1051B000019809690788544867443F1801983D8061
:1051C0000588524865442D182F88BF05BF0D2F80D4
:1051D0003E290DD91F204F0901400800414241419D
:1051E0007F1A2988BF020F434949394389B205E034
:1051F000002915D1802729883F0239432980198841
:10520000490404D519882140424C21431980424960
:105210001C880C40C021002E00D080218901B9E7F4
:1052200001204F0801407F18BF022988DDE71D8853
:10523000022F3AD1394E2540354301981D8005880B
:1052400080200E896544C00076082D1876000198EC
:105250002E8005884E892C48654476082D187600E6
:105260002E804978274E8C46802160462A4DC90100
:1052700000281FD11F880F4204D01988254F2140D4
:10528000394319801988490604D5198821401C4CD6
:1052900021431980C0211C8889012C4061401143A1
:1052A00089B219801988314075E71D4E3540154384
:1052B000ADB2C2E71888084204D0198815482140C9
:1052C000014319801988490604D5198821400C4CDE
:1052D00021431980012F09D020211C8834406140CE
:1052E000114389B219801988294054E7198831403F
:1052F000F6E7C0468F89FFFF8080FFFF8F8FFFFF9B
:10530000C0800000BF8FFFFF0404000006040000FF
:105310000080FFFF80C000008FBFFFFF8081000082
:105320008F8EFFFFF0B50B784A78097B9B00C01881
:10533000314B00291AD1002A0CD00288520605D51B
:1053400002882E490A402E490A43028002882D49CC
:105350000A402FE00288520405D5028827490A40F6
:1053600029490A43028002882849F1E78027234E11
:10537000244D2649FF01002A21D102883A4204D057
:105380000288214C3240224302800288204C52067F
:1053900004D502883240224392B202800288324011
:1053A0001443A4B2048002880A401A4392B20280D5
:1053B00002882A4013439BB203800020F0BD02887C
:1053C000144C3A4204D002883240224392B2028006
:1053D0000288520604D50288094F32403A430280BF
:1053E000028832401443A4B2048002882A401A433F
:1053F00092B202800288ABE78080FFFF8F8FFFFFB1
:10540000C0800000BF8FFFFF80C000008FBFFFFF84
:10541000C080FFFF80C0FFFF0B780C4A9B00C018C4
:105420004B780188002B08D0094B194010234B40C2
:1054300013439BB2038000207047064B1940802322
:105440005B014B401A4392B20280F4E78080FFFF79
:10545000BF8FFFFF8FBFFFFF0B7B002B19D10B7896
:105460009B00C0184B78002B15D003885B0605D530
:105470000388104A1340104A13430380CB78012B52
:1054800007D00E4B02881A40202353400C4A134386
:1054900003800020704703885B0405D50388054A14
:1054A0001340084A13430380074B02881A40C02365
:1054B0009B01EAE78F8FFFFFC0800000BF8FFFFFD7
:1054C0008080000080C000008FBFFFFF002902D154
:1054D00080234C300380002070478022583003889E
:1054E00012021343038000207047583003885B0486
:1054F0005B0C0380002070470630C08F80B270477D
:1055000030B580240133E40012195B0880185B0079
:10551000CB18401A0C188B4200D130BD4A780D7858
:1055200012022A4322800231F4E70000F0B54A78E3
:1055300007000C000B7B87B0012A00D01BE10A6931
:105540008E690292964200D916003A005032616983
:105550000192002B1DD1B6B23300E2883800FFF76C
:10556000CFFF019BA34A19882378BA18DB00521891
:105570009B181E802378A04A9B00FB1819881140B5
:1055800030224A409D490A4392B200201A8007B057
:10559000F0BD2278256A9300D2000392E078FB18D0
:1055A000022800D0D1E0029AAA4200D3BBE01A88B8
:1055B0009348AD1B1040934A104318801B8840202D
:1055C0009C4662460240059262468B19049325620E
:1055D000B3B2024255D0019A128894468A4AB8184A
:1055E000039A60448218138062893800FFF788FFAD
:1055F000049B029A63610023AA4201D2AB1B3500CF
:1056000062782362ABB2002A2ED1019A79491088C0
:10561000227879180918D200521811888905890D45
:1056200011803E2D0CD91F20284069094542684150
:10563000091A1088890208437449014389B205E0B8
:10564000002D0AD180201188000201431180228997
:1056500004993800FFF754FF8CE7012168082940BE
:10566000401880021188E8E7012AF0D13A00614928
:105670005032108822787918D200091852181380F5
:10568000E5E7019A128894465A4AB818039A60448A
:105690008218138022893800FFF732FF049B029A98
:1056A0006361059BAA4201D2AB1B3500627823627D
:1056B000ABB2002A2AD1019A53491088227879186E
:1056C0000918D200521811888905890D11803E2DC4
:1056D0000CD91F202840690945426841091A1088E1
:1056E000890208434949014389B205E0002D06D1EA
:1056F000802011880002014311806289A8E70121FE
:1057000068080D40401911888002ECE7012AF4D1A5
:105710003A003D495032108822787918D200091891
:1057200052181380E9E71888394E344A3040104344
:1057300080B21880019B039A18882E4BFB181B1807
:105740009A18ABB21380228983E71888AD1B019A9F
:1057500025621588B3B2400607D52B4AB818039ABC
:10576000401982181380628973E7224AB818039A95
:1057700040198218E6E7002B50D18A6909698A42EC
:1057800001D9531A0A00A3613B001F4950331888FE
:10579000237879180918DB005B1819888905890DA9
:1057A00019803E2A18D91F20510902405042424117
:1057B000891A1A8889021143144A0A4392B21A803C
:1057C0002378144A9B00FB1819881140C0229201CB
:1057D0004A4011490A43D8E6002A04D180211A8898
:1057E00009020A43EBE701205108024089188902A7
:1057F0001A88E2E702040000BF8FFFFF8080FFFFEE
:105800008F8FFFFF80810000060400000080FFFFF3
:105810008F8EFFFF8FBFFFFF80800000CB78022BB1
:1058200067D1002A2DD14E339C4684446346644A96
:105830001B880878B918C918C00009180B88226994
:105840009B059B0D0B805F4BFB183E2A2BD91F2617
:1058500055093240564272410E88AD1AAD025A4A7D
:105860002E431643B6B20E80614609885B181B189A
:1058700019888905890D1980198829430A4392B22C
:105880001A80E369002B9BD0237850499B00FB18BA
:105890001A880A408A4201D0002A91D14C491A88BC
:1058A0000A404C499DE7002A0ED10D88464A15430F
:1058B000ADB20D80614609885B181B1819888905EF
:1058C000890D19801988D9E70125560815400195D9
:1058D00076190D88B6023543ADB20D806146098850
:1058E00032005B181B1819888905890D19801988E1
:1058F000C4E70120834200D049E68B690969002092
:105900008B4201D9581A0B00A061002A00D057E73A
:1059100050329446BC44624629491288207879184E
:105920008918C00009180A889205920D0A80254A34
:10593000BA183E2B1AD91F255E092B405D426B41D8
:10594000F61A0B88204DB60233432B439BB20B80D3
:1059500063461B88D3181B181A889205920D1A806B
:105960001A8832431543ADB21D8029E7002B11D1AF
:105970000D88154B1D43ADB20D8061460988521844
:10598000121811888905890D118011880B439BB26B
:10599000138015E701255E081D40019576190D88D5
:1059A000B6023543ADB20D80614609883300521806
:1059B000121811888905890D11801188E6E7C04603
:1059C00002040000060400000080FFFF40400000C9
:1059D0008F8FFFFFC0800000F0B580255C08ED00D0
:1059E000521926000D008018471AEA19002E06D118
:1059F000DB0703D56400001903880B55F0BD12883E
:105A0000013E92B22A70120A6A700235EDE710B5B3
:105A100003F0F2F810BD10B503F0F8F810BD000067
:105A20007FB50023052810D8204B80215A69FAF74A
:105A300059FB030F18212A3389020A435A615B6913
:105A40000B400093009B9023DB05180007B000BDBE
:105A5000C9020A435A615B690B400193019B144BD5
:105A6000F3E709030A435A615B690B400293029B07
:105A7000104BEAE749030A435A615B690B40039301
:105A8000039B0D4BE1E789030A435A615B690B40B5
:105A90000493049B094BD8E7C9030A435A615B6925
:105AA0000B400593059B064BCFE7C0460010024014
:105AB0000004004800080048000C0048001000489E
:105AC0000014004810B5074900F0ECFA0003C00EBE
:105AD000012802D0022802D0FEE7002010BD1020CD
