:020000040800F2
:10000000004000204183000891830008918300088C
:1000100000000000000000000000000000000000E0
:1000200000000000000000000000000091830008B4
:10003000000000000000000091830008AF6E00087F
:100040009183000891830008918300089183000840
:1000500091830008656F0008756F0008856F0008C0
:100060009183000891830008918300089183000820
:1000700091830008A9600008C1600008C9600008F9
:10008000E1600008F96000081161000829610008BA
:1000900041610008596100087161000891830008FE
:1000A000918300089183000891830008317A000849
:1000B000497A0008657A00089183000835930008A2
:1000C0000023C25C0133002AFBD1581E7047000098
:1000D00002B4714649084900095649008E4402BCE1
:1000E0007047C04602B4714649084900095C49009E
:1000F0008E4402BC7047C04603B4714649084000B4
:100100004900095E49008E4403BC704703B4714640
:10011000490840004900095A49008E4403BC704711
:10012000002243088B4274D303098B425FD3030A36
:100130008B4244D3030B8B4228D3030C8B420DD349
:10014000FF22090212BA030C8B4202D312120902D7
:1001500065D0030B8B4219D300E0090AC30B8B4215
:1001600001D3CB03C01A5241830B8B4201D38B03C3
:10017000C01A5241430B8B4201D34B03C01A524168
:10018000030B8B4201D30B03C01A5241C30A8B42AB
:1001900001D3CB02C01A5241830A8B4201D38B0296
:1001A000C01A5241430A8B4201D34B02C01A52413A
:1001B000030A8B4201D30B02C01A5241CDD2C309AC
:1001C0008B4201D3CB01C01A524183098B4201D328
:1001D0008B01C01A524143098B4201D34B01C01A13
:1001E000524103098B4201D30B01C01A5241C3088B
:1001F0008B4201D3CB00C01A524183088B4201D3FA
:100200008B00C01A524143088B4201D34B00C01AE5
:100210005241411A00D20146524110467047FFE751
:1002200001B5002000F006F802BDC0460029F7D055
:1002300076E770477047C046D0400B00D1409C46DF
:10024000203AD340184352426346934018437047C4
:100250008446100062468C461900634600E0C046A2
:100260001FB50BF0FFF9002801D40021C8421FBDC3
:1002700010B50BF03FF94042013010BD10B50BF046
:10028000F1F9002801DB002010BD012010BDC0469F
:1002900010B50BF0E7F9002801DD002010BD0120AA
:1002A00010BDC04610B50BF069F9002801DC002034
:1002B00010BD012010BDC04610B50BF05FF900283D
:1002C00001DA002010BD012010BDC0461C21012311
:1002D0001B04984201D3000C10391B0A984201D329
:1002E000000A08391B09984201D30009043902A207
:1002F000105C40187047C04604030202010101016E
:10030000000000000000000010B5064C2378002B10
:1003100007D1054B002B02D0044800E000BF0123A9
:10032000237010BD400200200000000000C500083E
:10033000044B10B5002B03D00349044800E000BF74
:1003400010BDC046000000004402002000C50008A7
:1003500070B50D00140001001B2009F03DF92900C3
:100360001A2009F039F92100112009F035F970BD82
:1003700010B5642009F02AF901211B2009F0B4F915
:1003800001211A2009F0B0F90121112009F0ACF97E
:10039000002211001000FFF7DBFF10BD10B5002098
:1003A00002F0E4FA114C2070012002F0DFFA6070D4
:1003B000022002F0DBFAA070082811D006210020EC
:1003C00002F00EFB062380210120237002F008FBBF
:1003D000802308210220637002F002FB0823A3702F
:1003E0002278034B52091A7010BDC046B405002094
:1003F0005C02002070B5102604000D4D320029006B
:10040000013009F03FFE200032000021113009F0D8
:10041000F8FD200032000021213009F0F2FD20001B
:10042000A9193200313009F02DFE200070BDC04600
:1004300018C50008F8B5334C334F23789B0738D5DF
:10044000E1214902380007F055FF23781B0733D418
:10045000FFF78EFF2D4E300001F0C1FF300001F09C
:10046000F1FF051E3BD01021300002F039F83000BA
:1004700002F010F880220021254809F0C2FD8022F8
:100480000021244809F0BDFD237804201A00002132
:100490000240034207D01D00023862780540034243
:1004A00001D111002A0000201B4B187059709A705E
:1004B000F8BD96210902C5E70025281D02F056FA6D
:1004C000164B58550135082DF7D10435280002F098
:1004D0004DFA134B58550135162DF7D1B8E7FA20D0
:1004E000400009F0ABF938000E4907F0B5FD0422D1
:1004F00023781342B2D02A0029006078FFF728FF42
:10050000ACE7C046B405002074120020B8050020F6
:100510000604002086030020A9050020AC05002069
:10052000F604002037C6000810B5084B1A780423DB
:10053000100018401A4204D102000100FFF708FF22
:1005400010BD034B9A7859781878F7E7B405002066
:10055000A9050020064B821D1A70064A5178597071
:1005600091789970D2785871DA7000221A717047B8
:100570008603002006040020002010B5FFF7EAFFE4
:10058000084801F05FFF084B002802D003221A71CF
:1005900010BD06221A71054A054B527858701A7020
:1005A0009870F5E7B805002086030020B405002008
:1005B000A905002030B50D4B0D4C1B780D4D87B0B3
:1005C0009B070CD594236A4601201380FFF7C2FFD6
:1005D000694620006A7909F055FD07B030BD182240
:1005E0006846054909F04EFD1720EFE7B4050020E5
:1005F0008C030020860300204FC6000830B50E4B48
:100600000E4C1B780E4D87B09B070ED50A2268460C
:100610000C4909F037FD0920FFF79CFF69462000CF
:100620006A7909F02FFD07B030BD182268460649E7
:1006300009F028FD1720EFE7B40500208C03002007
:100640008603002067C6000871C6000830B50E4B4F
:100650000E4C1B780E4D85B09B070ED50D226846BB
:100660000C4909F00FFD0C20FFF774FF69462000CC
:100670006A7909F007FD05B030BD0A2268460649CF
:1006800009F000FD0920EFE7B40500208C030020ED
:100690008603002089C6000838C5000810B5002070
:1006A000FFF758FF01220021014801F03FFF10BD74
:1006B000B805002010B50020FFF74CFF00220248CB
:1006C000110001F033FF10BDB8050020F0B5002780
:1006D000FA268DB0574B0622574908A805931F707C
:1006E00009F0D0FC062255490AA809F0CBFC544D6C
:1006F000544C554BB60039002A0020000197009653
:10070000049301F037FF0100B8421ED001264F4B81
:1007100029001A7A0AAB019320003300009601F0F9
:100720006EFFB84236D031002000494A01F0B4FFD4
:10073000B8422FD00124474B1C700720FFF70AFF57
:100740001022424B9C71DA7124E001902A002000B3
:10075000049B009601F00EFF011E1DD001273B4EA9
:1007600008AB327A2900019320003B00009701F08A
:1007700046FF00280ED002212000374A01F08CFFEE
:10078000002807D0354B07201F70FFF7E3FE10232A
:10079000B771F3710DB0F0BD019000962A002000F2
:1007A000049B01F0E7FE061E13D0284B29001A7A9D
:1007B0000AAB019301232000009301F020FF0028E1
:1007C000E8D002212000264A01F066FF0028E1D08F
:1007D000B0E7C82302AA0293B23B9B180193214BB6
:1007E0000200009320002B001F4901F083FF012825
:1007F00019D11E4B1B781B070AD51D4BA95D9A5DAD
:10080000914205D10136082EF8D10124059B93E7CA
:100810001320FFF79FFE01220C4B9A711F32DA71F1
:10082000103A1A72B6E70120FFF794FE074B9E714B
:10083000B0E7C046DA04002096C600089DC600084E
:100840008F030020B80500208E03002086030020BF
:100850002C0500201B0500207D0500205C050020E4
:100860003C05002097030020FFFF0000B405002096
:10087000AC050020002010B5FFF76CFE074B1B787D
:10088000002B0AD1064B1B78002B06D1054B1B7899
:10089000002B02D10122044B1A7110BDDA04002092
:1008A0005C0500201B05002086030020102010B5E9
:1008B000FFF750FE2D492E4B0A78587A002A1CD09B
:1008C000032813D82B4BFFF70DFC02080B0E981DC5
:1008D0000131102209F0D6FB10BD981D1131F8E747
:1008E000981D2131F5E7981D3131F2E70020FFF71F
:1008F00031FE01221F4B1A71EEE71F4C2378002BAB
:1009000012D00328F2D81B4BFFF7ECFB190205238A
:100910002100981DE2E72100981D2131102209F0E5
:10092000B1FB00232370D7E7144C2378002B13D09E
:100930000328DBD80F4BFFF7D5FB0205090C981DE8
:10094000611CC6E72100981D1131E7E72100981DC1
:10095000C7E72100981DC7E7094B0100094A1800A5
:1009600001F09AFE0028B7D1C1E7C046DA040020A2
:1009700006040020860300205C0500201B050020E3
:10098000B80500208C030020F0B5484A89B00592D4
:10099000C8221625029202AAAD18454A454B00927C
:1009A000454901220598019501F0A4FE434C06003B
:1009B00001281ED12B885BBA2B80414B9B7B5A1C94
:1009C000E271082B00D169E009D8002B18D0062B62
:1009D00029D00020FFF7BEFD0323237117E00C2B65
:1009E00018D0A42BF5D10B20FFF7B4FD00232374FE
:1009F0000DE00020FFF7AEFD0123237109B0F0BD2B
:100A00001420FFF7A7FD2B8823761B0A63766379F2
:100A1000A371F3E70D20FFF79DFD2B882674637407
:100A20001B0AA374F3E70B22002506AB1A80244AA5
:100A3000907EA84209D80023A07400010D30C0B2F6
:100A400023746374FFF786FDE1E72B000A27083360
:100A50005B00D318D97A6B00D3181B7F09020B43B4
:100A600007AA13802B011333E3180493049B31006E
:100A7000019307AB00930598330006AA01F0DFFE4F
:100A8000012808D0013FFFB2002FEFD1102239001A
:100A9000049809F0B6FA0135EDB2C8E70C20FFF76B
:100AA00059FD002323746374B1E7C046B8050020E4
:100AB000960300208E030020FFFF00008603002025
:100AC00006040020E121F8B51D4F4902380007F067
:100AD00011FCFFF74DFC1B4D280001F080FC2800A5
:100AE00001F0B0FC184E041E17D01021280001F0B0
:100AF000F7FC280001F0CEFC80220021134809F009
:100B000080FA80220021124809F07BFA0022114B62
:100B10001A705A7072789A70F8BDFA20400008F086
:100B20008DFE38000C4907F097FA042233781342FF
:100B3000D5D0220021007078FFF70AFCCFE7C0462D
:100B400074120020B8050020B4050020060400201F
:100B500086030020A905002037C6000801235B4258
:100B600010B50360030000216C33416064221970EA
:100B7000083009F046FA10BD03680200002B04D1CA
:100B800041680120062903D170470020591CFBD081
:100B900050680733C01A43425841C0B2F4E700001E
:100BA00010B50248FFF7DAFF10BDC046F002002082
:100BB000F7B5C24C2368002B0AD1C14D2868002824
:100BC0004DD102000100FFF7C3FB01232B60F7BDED
:100BD0000B2B0AD1BA4D2868002840D1B94B01002F
:100BE0005A78FFF7B5FB01232B602368082B18D137
:100BF00008F020FEB44EB24D3368C01A952806D9CD
:100C00002B685A4253412B6008F014FE3060AD4B04
:100C100028685978021E02D00A0000210800FFF758
:100C200097FB23680A2B1AD108F004FEA64EA44DA8
:100C30003368C01AFA235B00984206D32B685A42E5
:100C400053412B6008F0F6FD30609E4B2A685878BF
:100C50000100002A01D000221100FFF779FB236870
:100C6000042B20D1994D2B68002B07DC00221100AA
:100C70001000FFF76DFB00232360A8E708F0DAFD02
:100C8000914E3368C01A924B1B6898420BD30022D6
:100C900028681100C0B2FFF75BFB2B68053B2B6097
:100CA00008F0C8FD30602768012F36D1874D2B68CA
:100CB000002B00DC8BE7824E3068002805D1814B89
:100CC00002005978FFF744FB376008F0B3FD7E4B14
:100CD0007F4F00931B68C01A3B6898421AD30223C7
:100CE000336001333B6008F0A5FD009B1B68C01A10
:100CF0003B68984211D329680020C9B2CA43D2B2D6
:100D0000FFF726FB2B68193B2B6008F093FD009B37
:100D1000186002E03368022BE5D02368072B37D137
:100D20006A4D2B68002B00DC51E7654E31680029C5
:100D300006D1644B0A005878FFF70AFB01233360A1
:100D400008F078FD604B624F00931B68C01A3B6847
:100D500098421AD30223336001333B6008F06AFDE6
:100D6000009B1B68C01A3B68984211D32868002179
:100D7000C0B2C243D2B2FFF7EBFA2B68193B2B602B
:100D800008F058FD009B186002E03368022BE5D0A4
:100D90002368032B00D0D0E0494D2E68002E3FD1B0
:100DA00008F048FD484F3B68C01AFA239B00984260
:100DB00005D301232B6008F03DFD386007E708F0FC
:100DC00039FD0BF073FB0090019138680BF03EFB8E
:100DD00002000B00009801990AF07AFF00223D4BB7
:100DE0000AF06CF802000B0009F00AFD00223A4BF1
:100DF0000AF06EFF009001910199009849000200ED
:100E00004B08002034490AF063FF0022334B0AF0FC
:100E10009BFC0BF0DFFA32003100C0B2FFF798FA0A
:100E20002B68012B3BD108F005FD274E3368C01A13
:100E3000FA239B00984205D302232B6008F0FAFCAA
:100E40003060C4E608F0F6FC0BF030FB0090019136
:100E500030680BF0FBFA02000B00009801990AF0D1
:100E600037FF00221B4B0AF029F802000B0009F0A3
:100E7000C7FC0022184B0AF02BFF490002004B0868
:100E8000002015490AF024FF0022144B0AF05CFCF4
:100E90000BF0A0FA0022C1B21000FFF759FA2B683C
:100EA000022B4AD108F0C6FC074E3368C01AFA2359
:100EB0009B00984214D30023BFE7C0467002002075
:100EC00060020020B40500206802002064020020B7
:100ED0006C02002000408F400000F03F00E06F40B7
:100EE00008F0A8FC0BF0E2FA0090019130680BF0DA
:100EF000ADFA02000B00009801990AF0E9FE002209
:100F0000324B09F0DBFF02000B0009F079FC0022F4
:100F10002F4B0AF0DDFE490002004B0800202C494F
:100F20000AF0D6FE00222B4B0AF00EFC0BF052FA10
:100F30000021C2B20800FFF70BFA2368022B00D091
:100F400045E608F077FC244C244D2368C01AFA23A8
:100F50005B00984206D308F06DFC2B6820605A4273
:100F600053412B602D68002D15D108F063FC2368D8
:100F7000C01A0BF09BFA0022194B09F09FFF0022C8
:100F8000144B0AF0E1FB09F01DFC2900C2B2280055
:100F9000FFF7DEF91BE608F04DFC2368C01A0BF0E2
:100FA00085FA00220E4B09F089FF0022094B0AF056
:100FB000CBFB02000B00002006490AF089FE09F075
:100FC00001FC0021C2B20800E2E7C04600408F40A9
:100FD0000000F03F00E06F40680200206002002047
:100FE00000407F400222054B10B51A6008F022FC39
:100FF0000022034B1860034B1A6010BD70020020E2
:1010000068020020600200200322054B10B51A6020
:1010100008F010FC0022034B1860034B1A6010BD4F
:101020007002002068020020600200200A22094BA2
:1010300010B51A60084BF5321A60084B5A32FF326D
:101040001A6008F0F7FB0022054B1860054B1A6088
:1010500010BDC04670020020640200206C02002017
:1010600068020020600200200022024B1A60024B3E
:101070001A6070477002002060020020002110B545
:10108000024B08005A78FFF763F910BDB405002041
:101090000822094B10B51A60084BF7321A60084B4A
:1010A0005A32FF321A6008F0C5FB0022054B186067
:1010B000054B1A6010BDC04670020020640200207B
:1010C0006C02002068020020600200200122094B0F
:1010D00010B51A60084BFE321A60084B5A32FF32C4
:1010E0001A6008F0A7FB0022054B1860054B1A6038
:1010F00010BDC04670020020640200206C02002077
:1011000068020020600200200722094B10B51A6017
:10111000084BF8321A60084B5A32FF321A6008F056
:1011200089FB0022054B1860054B1A6010BDC046B4
:1011300070020020640200206C020020680200207F
:101140006002002010B511280AD8FEF7CBFF170D5A
:101150000D0D0D1A0D0D200D0D1D140D0D0D0D0E87
:10116000162805D01B2815D010BDFFF7AFFFFBE7F1
:10117000FFF7CAFFF8E7FFF78BFFF5E7FFF774FF0C
:10118000F2E7FFF72FFFEFE7FFF73EFFECE7FFF790
:101190004DFFE9E7FFF772FFE6E7000073B50125B1
:1011A0001C4E6D422B00162200951721300006F0D0
:1011B00003FE31000826184C200000F0F3FF210048
:1011C000164801F00AF91648FFF714F91548FFF719
:1011D00011F91548FFF70EF9144C3200002114489C
:1011E00008F00FFF200032000021093008F009FF4D
:1011F000200040220021143008F003FF00220D4B94
:101200001D605A606C331A700B4B1D605A606C3352
:101210001A7073BD280600201C060020B8050020A7
:101220005C0500201B050020DA0400208604002055
:1012300087040020F002002080020020F8B501247D
:10124000FF251D4E300006F0DDFF002830D03000B5
:1012500006F0E0FF194BC0B2194A1870E02801D11E
:101260001570EEE71178FF2906D110700022154B9A
:101270001A70154B1870E4E71449D02801D10C708E
:10128000DFE70E78002E03D00130187000200870C0
:101290000C491E780B780C480133DBB2D654177812
:1012A0000B7001789F4204D10520B14200D1D07863
:1012B000F8BD89190170C4E774120020840300206E
:1012C0000604002085030020830300208203002001
:1012D000FF21F0B50022080089B0FFF739F800259A
:1012E000934C200006F08EFF011E3AD1FA239B009A
:1012F000009313238F4D02AA01909B18280007AA80
:1013000001F038F900283DD002ABDA7C8A4B280086
:101310000193012307A9009301F071F9002831D04E
:101320008649200006F098FE8549200006F078FEE8
:1013300002ABD97C07A801F05DF88249200006F0D5
:101340006FFE02212800804A01F0A6F9002803D090
:1013500010217D4801F04EF8642008F06FFA09B0C2
:10136000F0BD200006F056FFC0B2AF28B7D101355E
:10137000EDB21E2DB4D10022744B1A70744B0132A1
:101380001A70ADE7132502ABED18FA230027694E5A
:101390009B00009339002B003000019707AA01F051
:1013A000E9F8B84224D1FA230026624F9B0000934B
:1013B00031002B003800019607AA01F0DBF8B0429B
:1013C00035D1FA2300219B00009338002B000191B6
:1013D00007AA01F0CFF8002850D05E49200006F09F
:1013E0003BFE5749200006F01BFE297807A8B1E70D
:1013F000594B2A78300001930097012307A901F087
:10140000FEF80028CFD05549200006F025FE4C49B3
:10141000200006F005FE297807A800F0EBFF4949F7
:10142000200006F0FDFD02213000474A8CE74C4BBE
:101430002A78380001930096012307A901F0DFF80C
:101440000028BED04749200006F006FE3E4D02218E
:101450002A00380001F020F9002800D17CE7424939
:10146000200006F0DDFD0821280000F0C3FF3F4901
:10147000200006F0D5FD08213D486BE7C823324D1A
:101480003C4E02933A4B01220593009338002B0007
:101490003949019601F02EF9002843D03749200040
:1014A00006F0DAFD3649200006F0BAFD28000821D2
:1014B00000F0A0FF3349200006F0B2FD0821059896
:1014C00000F098FF3049200006F0AAFD2B8A022187
:1014D0005BBA30002B8200F08DFF20002B4906F014
:1014E000BBFD2B4B2B4D059301232B4E19003800D0
:1014F0002A4A0196009501F0A2F901280DD1298808
:101500001022200006F0F2FD1021300000F072FFE2
:10151000059B02359D42E7D11EE72000204906F0D9
:101520009BFDF5E720001F4906F096FD14E7C04635
:1015300074120020B80500200C000020A4C600088A
:10154000AFC60008BAC60008700300205C02002085
:101550005D02002003C7000806000020C8C600087E
:1015600000000020DBC60008EFC60008F9C600082E
:101570007803002080030020FFFF000017C7000849
:10158000F4C60008FEC6000824C7000830C70008DB
:10159000C2C70008BAC7000860030020B8C7000827
:1015A0003EC7000844C70008F0B540220021FF20D4
:1015B000A1B0FEF7CDFE00263E4D280006F022FE2B
:1015C000041E63D106223C4907A808F05BFDFA22FD
:1015D0003A4E3B4F92000092210032003800394BC6
:1015E000019400F0C7FF002828D0374C07AB227ABF
:1015F0000193012331003800009301F000F8002826
:101600001CD002213800314A01F046F8002815D0DC
:10161000607DE37BA27B0590207D2D490490E07CDA
:101620000390A07C0290607C0190207C009009A82F
:1016300008F0A6FC280009A906F0F2FCC8230293D2
:10164000AE3B6B440193234B012200931C483300B3
:10165000214901F04FF8002816D01B481C49047C92
:10166000837A427A0594C47B0494847B0394447BFC
:101670000294047B0194C07A009009A808F080FCD1
:10168000280009A906F0CCFC21B0F0BD280006F026
:10169000C1FDC0B2AF2800D08DE70136F6B21E2ED4
:1016A00000D089E700220D4B1A700D4B01321A70E1
:1016B00082E7C0467412002096C600088F030020FF
:1016C000B80500208E030020860300208C03002034
:1016D00055C7000897030020FFFF00005C020020B0
:1016E0005D020020F7B5164FFB78002B26D00026B0
:1016F0003500144BE0211800019306F04CFD3B78B7
:101700003400AB4202D07C5DA619F6B22300102251
:1017100030339343DBB22100002B05D1D021019857
:10172000013C06F038FDE1B2019806F034FD0135C8
:101730003B78EDB2AB42E3D20023FB70F7BDC0466D
:101740008603002074120020F8B5FEF7EDFEFFF7C7
:1017500075FD0400552838D84F281ED8442806D8CF
:101760002F2822D8002840D0052800D182E0002070
:10177000FEF7F0FE03227A4B1A7136E02000F038B3
:101780000828F4D8FEF7B8FC7300F3FFF3FFF3FF6B
:10179000F3FF48007C008E00E40050380528E6D8AE
:1017A000FEF796FC35474AE53E4730381428DED828
:1017B000FEF78EFC1EDD21DDDDDDDDDDDDDDDDDDC9
:1017C000DDDDDDDD24272A323200F828CFD8EF28EE
:1017D000D4D8712833D004D86228C8D1FEF7CCFE03
:1017E00003E081282ED08228C1D1FFF77BFFF8BD0E
:1017F000FEF7E0FEF9E7FEF701FFF6E7FEF74EFF22
:10180000F3E7FEF757FFF0E7FEF760FFEDE706228C
:101810005448554908F036FC0020FEF79BFEE4E7EB
:101820000020FEF797FE06224F49504808F02AFC98
:10183000DBE7FFF71FF8D8E7FFF738F8D5E7FFF742
:10184000A3F8D2E74A4A5179002901D0494B597887
:10185000494B19709179002901D04649497859704E
:10186000D279002A01D0434A52789A70BDE7FEF738
:10187000EDFEBAE70020FEF76DFE394B1C71B4E7B0
:101880000020FEF767FE0422354B5A7106321A70AB
:10189000384A117899715178D97192781A72072261
:1018A0005A72A2E7324D334C6E7908222670AB791A
:1018B000E91D3248637008F0E5FB0A2230493148DF
:1018C00008F0E0FB3100002001F08AF80120617887
:1018D00001F086F804262C4F3000B95D013601F086
:1018E0007FF80C2EF7D13000B95D013601F078F8A1
:1018F000162EF8D12178143E31404B425941234BEA
:1019000049421940E1235B02C918214806F0F2FC64
:101910002278194B110060783140324215D00021F5
:1019200019705970010004209970110001400242A1
:1019300002D119705970997001206A79154B1A708B
:10194000154B187007F07AFF66E719705870EAE7D0
:10195000074A104B52791A7001220F4B1A7044E754
:1019600086030020A30500200B0400209D05002015
:1019700006040020B4050020A9050020AC050020C5
:1019800015040020010500200904002000D4FEFFFA
:10199000741200205C0200205D0200207FB5174C0D
:1019A0002000FFF7E9F8002803D12000FFF7D6F860
:1019B0007FBD23006C331B78002B13D001AE0722B0
:1019C0000F49300008F05EFB0B2003220021684421
:1019D00008F017FB0025715D0A48013506F0DBFBB6
:1019E000062DF8D100256368AB42DEDD064B0548C5
:1019F000595D06F0D0FB0135F5E7C04680020020B6
:101A000042C500087412002088020020962100229E
:101A1000F0B5384B8DB0384809021A7006F06AFCF0
:101A2000E121364D06222800490206F089FAFEF728
:101A30009FFC2422324903A808F024FB280006F06A
:101A40008AF8041E1FD103AB195D2800013406F08B
:101A5000AAF8182CF7D107F0EDFEFA270F2601900F
:101A6000FF00002E13D007F0E5FE019BC01AB8421C
:101A70000DD8280006F06FF80028F4D0280006F0F2
:101A80009DFA013EEDE7280006F098FAD6E703AB91
:101A9000195D2800013406F086F8242CF7D107F0F0
:101AA000C9FE0700153C002C11D007F0C3FEC01B77
:101AB00032280CD8280006F04EF80028F5D028006F
:101AC00006F07CFA013CEEE7282007F0B7FE002E76
:101AD000FAD1FA2007F0B2FE32003100FF20FEF703
:101AE00037FCAF20800007F0A9FE0648FFF736F864
:101AF0000DB0F0BD7C0200207412002028060020EA
:101B00004CC5000880020020002110B50A4806F0EC
:101B1000F5FBFEF743FC094B1B78012B06D0022B8B
:101B200007D0002B01D1FEF785FC10BDFEF7CAFFE0
:101B3000FBE7FFF76BFFF8E7741200205C02002060
:101B4000F0B57D4C012523689DB0002B06D17B4B61
:101B50001D702000FFF702F81DB0F0BDA37B0E2B17
:101B60001AD1E37B012B02D1207CFFF7EBFA012194
:101B7000734A744B117002221D001A6009230CAEC7
:101B80000832300070496B60083508F07BFA06CEE9
:101B900006C532882A800025A27B182A15D16849FB
:101BA000684B173A0A70E27301321D001A6009236C
:101BB00066496B600CAE08323000083508F062FAF6
:101BC00006CE06C532882A80C3E7322A0ED1E37BCF
:101BD000812B12D101215A4A5A4B117002221D0049
:101BE0001A6009235A496B600CAEE4E7062A3AD121
:101BF0002268122A0ED0182A26D00026B542A8D074
:101C00006368B342A5DD534B5348995D05F0CBFFA4
:101C10000136F5E701204A494A4B08700A211D00A8
:101C2000196011230CAE30004C496B6008F02AFAA1
:101C30003A2302AA9B1800221A802B00083326CED2
:101C400026C306CE06C384E701213D4A3D4B1170F1
:101C50000D220CAE1A603000073241491D005A6057
:101C600008F010FAE9E70C2A1CD101203449354B61
:101C7000087005210CAE19605A603A4912183000FC
:101C80001D0008F0FFF902220021352002ABC01828
:101C9000083508F0B6F907CE07C532882A80B27831
:101CA000AA7056E7122A12D10121254A254B11703C
:101CB00002221D001A6009230CAE2B4908323000A5
:101CC0006B6008F0DFF9052200213220DEE7082AE8
:101CD00009D00026522A53D0442A00D17FE0A02AFE
:101CE00000D1ADE089E7E37BFF2B18D0632B84D1D3
:101CF0000121144B124A1F00117003220CAE1A600E
:101D000030000732194908375A6008F0BBF906CE8F
:101D100006C73288164B3A800F221A606DE7012100
:101D2000074A084B117003221A6007321D000F4941
:101D30005A600CAE40E7C046F0020020740200205A
:101D4000EC0200208002002070C500087AC500085F
:101D500084C50008F8020020280600208EC500086F
:101D6000A2C50008B6C50008C5C50008D4C500084E
:101D700078020020714B3800995D05F014FF0136A0
:101D800063686F4FB342F5DC00251026380005F07C
:101D9000E2FE0028FAD0380006F010F9013E0CA946
:101DA00048550135002EF1D10122664B664E1A705E
:101DB00004230A32336072604B7B002B00D096E024
:101DC000624905AD2800083608F05CF906CD06C664
:101DD0002A883280AA78B270A37B442B2DD10025AB
:101DE0006368574FAB4200DD87E0002510263800BE
:101DF00005F0B1FE0028FAD0380006F0DFF8013E09
:101E00000CA948550135002EF1D101224D4B4E4D04
:101E10001A7004230A322B606A604B7B002B73D14B
:101E20004B4905AE3000083508F02CF906CE06C542
:101E300032882A80B278AA70A37BA02B00D088E6D3
:101E400005AD1C224349280008F01CF91222424922
:101E500007A808F017F900221300A95C01325B18EB
:101E6000DBB21A2AF9D1DB430026AB76344BA95DED
:101E700018000136009305F096FE1C2EF6D10025C1
:101E800007F0D8FC2F0001902136FEF791FE07F0F5
:101E9000D1FC019BC01AF92816D8009805F05BFE0A
:101EA0000028F2D0009806F089F80CA948550135B1
:101EB0000A2D04D14B7A032B01D101272D3E013E7F
:101EC000002EEAD1002F24D001211E4A1E4B117092
:101ED00003221D001A600A2302AE30001F496B6006
:101EE0000832083508F0CEF806CE06C5D5E6272B11
:101EF00000D071E71A4905AD64E7104B3800595D11
:101F000005F051FE01356BE7272B95D1154905AE3C
:101F100088E763220B7B0C4860330B7302ABD2184B
:101F20001378603B1370074B3D221F7036234260CD
:101F30000360083008F0A6F80BE6C046F80200205F
:101F400028060020EC02002080020020DEC50008E8
:101F500010C60008F4C500080103002026C60008CA
:101F6000E9C500081BC6000810B5214C200006F08A
:101F700049F9002810D0200006F04CF9C1B2020047
:101F80001C4B1D48AF2908D11C7801341C704368D4
:101F9000002B0ED1FEF7E2FD10BD00241C7043683B
:101FA000A34206D1A142F5D15A1CC318426019724E
:101FB000F2E7022BF8DD032B0ED1D2B20260FF2232
:101FC0000133C1724360836812041B021B0A9342EF
:101FD000E2D0FEF7E5FDDFE75A1CC3184260197234
:101FE000FEF7CAFD0028D7D0FFF7AAFDD4E7C04608
:101FF000741200207C020020F002002070B5FEF771
:10200000D7FDFFF7B1FFFFF7C9FC154B1B781E2B5F
:1020100005D10022134B1A70134B01321A70134D65
:10202000134C2B68002B15D0200005F094FD0028E0
:1020300015D02B68002B12D0200005F0BFFF2B68B5
:10204000013B2B60F0E7200005F0B8FFC1B2094862
:1020500006F0A1F8200005F07EFD0028F3D170BD48
:102060007C0200205C0200205D020020780200203B
:102070002806002074120020802270B51100002074
:10208000FEF766F900240E4D280006F0BBF8002884
:1020900000D170BD280006F0BDF8C1B2AF290DD146
:1020A0000134E4B21E2C05D10022064B1A70064BF7
:1020B00001321A70054805F076FDE4E70024F9E7DF
:1020C000741200205C0200205D020020280600201F
:1020D00070B5174C174E2378002B09D03578012D99
:1020E0000ED0022D11D0002D02D1FEF7A3F92570DC
:1020F000307804280ED8FDF7F5FF0B11140E1700E9
:10210000FEF7E0FC00232370F2E7FFF77FFCF9E71E
:10211000FFF71AFB70BDFFF7DBF8FBE7FFF744FAA8
:10212000F8E7FFF76BFFF5E7FFF7A6FFF2E7C0461A
:102130005D0200205C020020E12110B5062240680B
:10214000490205F0FDFE10BD10B50368C9B21B6859
:10215000984710BD10B5040055214068FFF7F4FF03
:1021600055216068FFF7F0FF6068002103681B6875
:1021700098476068002103681B68984760680021E1
:1021800003681B689847606803681B699847606824
:1021900003681B699847002800D110BD6068036878
:1021A0005B69F3E7024B41600360002303727047F1
:1021B000CCC70008F7B506001D000024009101926D
:1021C000019B9C4211DA07F035FB07007068036839
:1021D0005B69984700280ADA002DF7D007F02AFB40
:1021E000C01BA842F2D3002C05D060B2FEBD009BFC
:1021F00018550134E4E702204042F7E7F0B587B014
:1022000005AE170002910322310005000193FFF78C
:10221000D1FF002802DC0220404250E0337872787F
:10222000134301D00320F7E7B378FF2BFAD1022242
:102230002800019B04A9FFF7BDFF0028EBDD04ABDC
:102240001C785B78E318DBB2002BEBD1023CE4B2E4
:1022500004AB1C70BC423AD82F7A02227B1CDBB242
:10226000039331002800019BFFF7A4FF0028D2DD73
:102270003378D52BD6D17378039A9342D2D12200EA
:102280002800019B0299FFF795FF8442C3D10023E8
:102290002A3FFFB2DAB2944213D802222800019BEF
:1022A00005A9FFF787FF0028B5DD04AB1B79FF18F0
:1022B00004AB5B791F43FFB2002FB3D120B207B04C
:1022C000F0BD029AD25C0133BF18FFB2E2E70420EE
:1022D000A2E700001FB5040006220C49684607F07B
:1022E000D1FE0A230622200002A9FFF763FF00287F
:1022F00009DD0622694602A807F062FE431E9841E6
:10230000404204B010BD0220FAE7C04631C60008C2
:10231000F7B50D001700019308AB1B780400406867
:10232000009303681B699847606803681B699847B6
:10233000061E606844D12B783100237203681B6845
:1023400098476068310003681B6898476068FF2100
:1023500003681B689847009B60685E1CBE19036891
:10236000F6B21B683100984771426068FFF7ECFED7
:10237000D4216068FFF7E8FE60683A00036829002E
:102380005B689847D426EF19AF421CD16068009A69
:10239000036801995B689847019B009A9A189342D9
:1023A00016D1606871420368C9B21B6898476068BB
:1023B000002103681B6898472000FFF78BFFFEBDD4
:1023C00003685B69AFE72B780135F618F6B2DBE7F7
:1023D000197801337618F6B2E1E70166704710B557
:1023E0000400006E03681B689847206E03685B68F2
:1023F000984710BDF7B5060000240191019B0E4DD2
:102400009C4204D328000D4905F026FEF7BD335D3C
:1024100037190F2B0BD82800094905F001FE1022AF
:1024200028003978013405F077FEE4B2E6E7202190
:10243000280005F0F9FDF2E774120020EACC00084C
:10244000DCC7000873B502230400C377250000230E
:10245000006E1F3502680093966829000122B0477C
:10246000002801D0002076BD206E4022036829009C
:10247000DE68FA239B00B0470028F3DB6A78E37F2D
:1024800012021A43AB78E8781B0413430006184382
:1024900000BAE8E7F7B505001423012200242E0056
:1024A000C3770E4B1F360384C31CDA77006E3100EE
:1024B000036800949F6803322300B847A0420AD102
:1024C000286E402203683100DC68FA239B00A04795
:1024D000C417241AE40F2000FEBDC04601140000FA
:1024E000F7B505003223012200242E00C3772E3BCE
:1024F000FF3B0384C31CDA77031DD977006E1F36B8
:10250000036800949F68310023000432B847A0425A
:102510000AD1286E402203683100DC68FA239B0050
:10252000A047C417241AE40F2000FEBD3223F7B5DC
:102530000500C377431C012000242E00D8771143E7
:10254000AB1CD977286E1F36036800949F6803225E
:1025500023003100B847A0420AD1286E4022036808
:102560003100DC68FA239B00A047C417241AE40F4B
:102570002000FEBDF0B587B004930CAB1B8803921E
:1025800005930DAB1F784A2301220400C377431C37
:10259000DA77831CD97726000023006E1F36026885
:1025A0000093956831000322A847051E02D0002041
:1025B00007B0F0BD206E310003684022DB689C4606
:1025C000059B6646B0470028F1DBE37F012BEED187
:1025D000621DD37F04990B70D37FAB4203D8002FC9
:1025E00009D10120E4E763190633DB7F03994B55DA
:1025F0000135EDB2F0E7631CDB7FA373F1E7F0B5C3
:102600000700040015000E0085B002930AAB1B788A
:102610000837062238000B99039307F033FD2A0090
:102620003100200007F02EFD40230122E377631CD8
:10263000E571DA77039B20005A1E9341A21C603398
:10264000D377029AE31CDA7739000622233007F0A9
:1026500019FD20002A0021000A35293007F0BEFCB0
:10266000EAB20025206E1737036800959B68390091
:102670001E002B00B047A8420BD1206E40220368F9
:102680003900DD68FA239B00A847E57F6B425D4176
:10269000EDB2280005B0F0BDF0B504004026144BA3
:1026A000C6770384C31CD97725000023006E85B04C
:1026B000039202681F350093976829000422B847E7
:1026C000002802D0002005B0F0BD206E3200036863
:1026D0002900DF68FA239B00B847E37F002BF1D184
:1026E000210010220398203107F0CCFC0120EAE7FA
:1026F00001300000F0B585B01F000CAB1B88040052
:1027000003934A23C3770223FF3303840023260065
:102710000330C3770D0A201DC577601DC177A11D49
:10272000CA77E21DD377206E1F3602680093956842
:1027300031000822A847051E38D1206E31000368F9
:102740001622DB689C46039B6646B047002830DBB8
:10275000E37F002B1ED0012B2DD1631CDB7FFD22DC
:10276000A373A31CD97F042508001238030013406B
:1027700010421CD122000F32107D0A9DF8541070B7
:10278000107F0132E8540133D071082BF4D11429A1
:1027900003D00125280005B0F0BD333463782278DA
:1027A0001B0213430B9A5BBA1380F2E701256D42BB
:1027B000F0E70225FBE70325F9E7F0B585B0040053
:1027C0000393FF2A30D04026837B451CC677EB77E6
:1027D000501CA31CD877206E1D330293036800920F
:1027E0009F6803220B000299B84700281FD1206E72
:1027F000320003680299DF68C823B847002818DB55
:10280000E37F9B0617D1EB7F0A9A013BDBB20238CC
:10281000137002B29A4210D121000398213107F0BF
:1028200031FC012005B0F0BD01204042FAE7022052
:10283000FBE70320F9E70420F7E70520F5E7F0B50B
:1028400089B002AF0D0016001C007860102974D802
:102850000C2B00D976E06A460533CB185B000133B8
:10286000DBB2BB600733DB08DB00D31A9D4602AB4B
:10287000FB6009200623FA6879681370684408220F
:102880000F3107F0FFFBFB6800225D7212236D0021
:102890006B44AA423DD11300F9680B338A18947235
:1028A0003A6B6600DBB29619B24239D1240123009B
:1028B0006A460C333B600733DB08DB00D31A9D46C6
:1028C0001723FE18009602AD2B00BA68F9687868E5
:1028D000FFF773FF012837D133783A68934235D137
:1028E0006B7A002B34D1AB7A002B31D17B6B9C46B9
:1028F000A4440C24E41AE118C9B29C451FD000225C
:102900008E18F6B2AE5D9E540132102AF8D1103303
:10291000F1E7B15A02321970090A59700233B8E767
:10292000591CC9B28C461088F968050ACD54654611
:102930000233DBB248550232B6E701204042BD46C1
:1029400007B0F0BD0220F9E70320F7E70420F5E720
:102950000520F3E7802210B502480349120107F071
:1029600091FB10BD8007002000F8010810B504009D
:10297000FFF7F0FF014B185D10BDC0468007002037
:10298000002330B585B000930193124B02930123CD
:10299000039300F035FA00281AD114220E4B694631
:1029A000DA6001A800F0DEFA041E0FD180252D01A7
:1029B0000A4B0849E31803201A685B68611800F0A5
:1029C00067FA002802D10834AC42F1D100F02CFAA9
:1029D00005B030BD00F8010800200240800700204B
:1029E00010B5024B1954FFF7CBFF10BD8007002034
:1029F0007047000070B50500FA200D4B8000197873
:102A0000FDF78EFB0B4C01002068FDF789FB00F001
:102A10007DF804000120002C09D1032D07D80238CD
:102A20002200290000F02CF82000034B1D6070BD2F
:102A30001200002058000020140000201023064A35
:102A400010B5116800200B431360FFF7D3FFFFF7A9
:102A5000CFFF002010BDC04600200240034A044BB7
:102A600011681B785B1813607047C046800F002008
:102A700012000020014B18687047C046800F0020EC
:102A800010B5FF2403220B0021000240D200914028
:102A90009B012340C943934000280ADBC0240B4A12
:102AA000800880008018A40002590A401343035193
:102AB00010BD0F2210400838054A80088000801899
:102AC000C26911401943C161F2E7C04600E100E06C
:102AD00000ED00E0002805DB1F2318401E3B83406B
:102AE000014A13607047C04600E100E0002809DB9E
:102AF0001F2318401E3B8340034AD367BFF34F8F09
:102B0000BFF36F8F7047C04604E100E08022431E90
:102B10005204012093420DD2C021074A0748536056
:102B2000036A09061B021B0A0B43036200200723EA
:102B3000906013607047C04610E000E000ED00E0D8
:102B4000002807DB1F23C02218401E3B8340024998
:102B500052008B507047C04600E100E0704710B54E
:102B6000FFF7FCFF10BD704710B5041E01D1012016
:102B700010BD437FDAB2002B02D10277FFF7F3FFDB
:102B8000022363772379002B1CD118212368124A72
:102B90005A619A688A439A6062792368002A19D137
:102BA000013A60211A619A6800208A4361690A43E8
:102BB00080219A609A688A43A1690A439A60012336
:102BC0006377D5E72000E268A16800F007F80028E5
:102BD000E2D0CCE72269E4E7B71DC10430B5012596
:102BE0000400280029420ED01F23013B21D30800F6
:102BF000D8402842F9D0102A14D005D8002A08D08D
:102C00000120082A12D030BD0120182AFBD1062B42
:102C1000F9D820684161182183688B43134383608E
:102C20000020F0E70120072BF3D9ECE70F2BF0D9B8
:102C3000E9E70120102AE6D0E5D8002AE3D1E8E749
:102C400010B504000120002C0DD02379DAB2002B3E
:102C500003D12000627104F015F8022300202371D3
:102C6000013B2061237110BD10B504000120002C30
:102C700008D002232000237104F066F800202061B0
:102C80006071207110BD012230B515008D400468BF
:102C90002368AB4323600271002030BD13B51400DC
:102CA0000022019202680192019A002906D108329D
:102CB00011190191019A0020136016BD1432F7E733
:102CC00030B514000222457903001000012D0ED00A
:102CD0001A71074A1D68A2402868904306C90A4332
:102CE000A24002432A600020012258711A7130BDAF
:102CF000FE0F000070B50224437902002000012B72
:102D000015D0013805008D40136814711E683543D5
:102D10001D6000290CD119683A342140A14202D12A
:102D2000596808435860012300201371507170BD29
:102D3000F0201968800301408142F4D159680C43A6
:102D40005C60F0E730B5841CE27F0300022A06D005
:102D500004228263012000220133DA7730BD026849
:102D60000E2011688143116001210D001068884315
:102D70001060186CDA6B854000205560E177EAE757
:102D800070B5841CE37F022B03D0042383630120EE
:102D900070BD0E2103681A688A431A60012215006B
:102DA000196891431960016CC36B8D405D60E277D7
:102DB00083180022DA77436B934200D098470020B3
:102DC000E6E700000C4A1021D06830B503000B4044
:102DD000084205D002230948C4692343C3610B009C
:102DE0000420D168014205D00121044C0343E56968
:102DF0002943E161D36030BD00200240880F0020EC
:102E0000064B00201A69120606D5054A5A60054A83
:102E10005A6018690006C00F7047C0460020024083
:102E200023016745AB89EFCD8023034A0020116958
:102E30000B4313617047C0460020024070B5040088
:102E4000FFF718FE01260500104BDA68324211D157
:102E50002022D968114200D0DA60D9681022080017
:102E60001040114202D1DB685B0708D5FFF7AAFFCB
:102E7000012004E0621CE8D0002C01D1032070BDC9
:102E8000FFF7F8FD401BA042DED9F7E70020024023
:102E9000F0B585B003931E4B009102921A7E040098
:102EA0000220012A31D001221A481A76FFF7C6FF04
:102EB000002827D12600012C03D00426022C00D1A3
:102EC00026000024124B0193029803992201FDF77A
:102ED000B3F900220127019B0F4DDA612B69009A9B
:102EE0003B432B6163009B1880B218800948FFF7B1
:102EF000A5FF2B69BB432B61002803D1E419E3B282
:102F00009E42E1D80022024B1A7605B0F0BDC046C1
:102F1000880F002050C30000002002400022064B12
:102F2000DA61064B043219690A431A6140221969B1
:102F30000A431A617047C046880F002000200240F3
:102F40000022064BDA61064B023219690A431A6104
:102F50004022586119690A431A617047880F00209E
:102F600000200240F8B5214F04003B7E0E000220F5
:102F7000012B0CD001233B7623681D48012B12D175
:102F8000FFF75CFF002803D0012000233B76F8BD4B
:102F9000FFF7C4FF1648FFF751FF0421154A1369D4
:102FA0008B431361F1E7FFF749FF0028ECD10123C0
:102FB0005B42336065680130A3686268DB029B187E
:102FC000AB42E2D92800FFF7BBFF0948FFF736FF05
:102FD0000221084A13698B431361002801D0356030
:102FE000D3E780231B01ED18E6E7C046880F0020D9
:102FF00050C3000000200240044B10B55A69104233
:1030000002D0586103F098FF10BDC0460004014093
:10301000F0B5040087B00120002C30D0314D635D45
:10302000DAB2002B05D1AA239B002000E25406F05F
:10303000F3F803236355206803F016F900230127F2
:103040001900606883421CD3002228261100904298
:103050002FD823006A46103343CB43C203CB03C2AD
:10306000A268E3686168206803F008F90022631D24
:10307000DA7701236355E369012B2ED0002007B0D6
:10308000F0BD29262822B4465A43A2189444664625
:1030900037702826B4469444664633702B26B446CF
:1030A0009444664601333170DBB29163D16311649D
:1030B000C8E733005343E3181F006A37FF373970FE
:1030C000013F3A70F97081336C3FF967FF33803705
:1030D00001323960D2B21960B9E7200000F002FE77
:1030E000CCE7C046A902000070B5AA25AD00435D3B
:1030F00004000220012B09D001236355206803F04E
:10310000A9F8206803F0B7FA0020605570BD70B5CB
:10311000AA25AD00435D04000220012B08D0012345
:103120006355631DD977206803F09EFA002060552F
:1031300070BD0000F0B5040085B0006803F0AAFA85
:10314000802305001B021D40184201D100F00EFC37
:103150002068821DD38F1BB2002B01DB05B0F0BDB0
:103160000F21D38F194000910F219AB20B4200D04A
:10317000C3E01023110019401A422AD10388CF4A14
:1031800013408022120213430380030050331A8835
:10319000230028331B78DB00C3189B18C84A200083
:1031A0009B181B88E26B9B059B0D6364D318E3633C
:1031B00006F07CF8631DDA7F002AC9D0206C2268F3
:1031C0000028C5D18025D97F4C3229431180D8777A
:1031D000BEE7028880211600090193B20E400A4220
:1031E00022D0030050331A88B4235B00E35CAC2187
:1031F000DB00C3189B18B34A89009B1822001B8868
:1032000069329B059B0DFF32D3616118D28803F0B0
:10321000B1FC2168AC4B0A8820001A40802313437C
:103220000B8006F02DF893E71BB2002B00DB8FE735
:103230000288A54B25001A40802313430380030016
:1032400050331A88B4235B00E35C6935DB00C31894
:103250009B189C4AFF359B181B889B059B0DEB61B7
:103260000DD0696900290AD0EA8803F083FC6B69F4
:10327000EA6931009B1820006B6106F00AF82168AA
:103280000A8893B2120500D562E7C022920113406A
:10329000934200D15CE70B0050331A88894BCB185E
:1032A0009B181A889205920D1A802A693E2A0CD919
:1032B0001F2550092A4055426A41801A1A88800207
:1032C0001043824A024392B205E0002A0ED18020C8
:1032D0001A88000202431A800A887D4B1A40C023D4
:1032E0009B0153407B4A13430B8031E70125500873
:1032F0002A40801880021A88E4E7009B9B00C218CD
:10330000019313889FB21BB2002B00DB8AE0138865
:103310006D490B4080210B4313802823009A5343AF
:10332000E3181A001D007532FF3212786935FF3537
:10333000002A15D10200503211882A78D200521882
:1033400060491218521812889205950D002A47D02C
:103350001A006F327D33FF32FF33190012883BE0D1
:1033600019006C31FF3109782A78022900D0E5E094
:103370008026F601B4463E40029606006546503669
:1033800036888133FF33196886192F4200D1A7E0B0
:10339000D50076194A4D76193588AD05AD0D8D42AB
:1033A00000D97DE0491B196000D17BE07B0607D581
:1033B00092008218138848490B4048490B431380F8
:1033C000002D0DD02823009A5343E1180A007132D2
:1033D000FF327D311288FF312B00096803F0CAFBF0
:1033E000282300995943621816008536FF36306845
:1033F000083E4019B06030684019306010008130DC
:10340000FF300068002804D0FC32D26F954200D310
:10341000BEE0009A20005343E3186933FF33197864
:1034200005F037FF802320681F4200D190E6019B02
:103430002249C2181388009D0B4024490B439BB2BC
:10344000138028235D4365192B002B331978033B28
:10345000012900D0CBE0002229002A643431097808
:10346000914200D1A7E040213E0029350E400F4295
:1034700000D1A5E02978914200D090E002001978AF
:10348000503215880E4AC9008218521989180A88C4
:103490000E489205920D0A800A88024392B289E092
:1034A00000211960910041180E88094B1E408023AD
:1034B0009B017340074E33430B8077E70F8FFFFF6D
:1034C00002040000060400008F0F00000080FFFFD0
:1034D0008FBFFFFF808000008F8FFFFFC080000044
:1034E000D5007619BB4D76193588AD05AD0D8D42E9
:1034F00016D8491B196015D07B0607D49200821894
:103500001388B5490B40B5490B431380002D00D1FA
:1035100066E72823009A5343E1180A00733257E7FD
:1035200002991960910041180E88AD4B1E4080230E
:103530009B017340AB4E33430B80DDE79200821852
:103540001688A5493140A54E314311802A78910053
:1035500041180D88010050310988D2005218121804
:103560006D040AD5A049521812889205950D002ABB
:1035700000D135E71A007132ECE6964952181288EC
:103580009205950D002A00D12AE71A007332E1E670
:103590006931FF312068611803F096F842E701298C
:1035A00009D10100904E50310D8819788019C90059
:1035B000401909180A801978200005F077FEC7E540
:1035C0002A78002A06D10200197850321588C900DD
:1035D000804A59E7012AEED102007E4D503211880F
:1035E0001A784019D200401812181680E3E7802696
:1035F0003A0019787600CB0032409C4601922B6C41
:1036000037421ED1060050363688774A86196644FE
:10361000B6183688B605B60D9E4202D3019B2B64C0
:10362000CAE728229B1B2B64EB6B9B19EB636B6C2B
:103630009B196B64009B01335A43A11803F044F8B3
:1036400086E540223E00164003960600503601965D
:10365000174200D1CEE03288634E8619B218029626
:103660006646925B80269205920DF6019A4216D329
:1036700000232A002B64293212783E409A4251D00E
:10368000012A6BD1019A029F1288BA1862441380F2
:10369000019A504F1288C019801860445DE09B1A4F
:1036A0002B6437426DD1282300994B43E3181F0048
:1036B0004C373978012900D0D5E0D96B9E6C891838
:1036C0000191D963596C89185964996B8E4261D301
:1036D000761A9E642B0029331A788BB2002A6ED199
:1036E000020050321288029EB21862441688B60553
:1036F000B60D16803E2957D91F274E0939404F4233
:103700007941761A1188B6023143384E314389B275
:103710001180282200994A43A218128E019902F0C2
:10372000BDFFA0E0019B029A1B88304FD318634471
:103730001A889205920D1A801A883A4392B21A801A
:10374000019B244A1B888018C018604403889B058D
:103750009B0D038003883B439BB20380200005F050
:10376000A5FD002E00D17EE02B0028331B782268B7
:103770009B00D218138818490B401D490B43138036
:1037800071E0890041180E88134B3340184E3343C3
:103790000B8088E7002E02D111003E709AE70022CC
:1037A00031003A709A6495E7002901D11188ACE79D
:1037B00001274E0839407618B6021188A6E7012A7B
:1037C000A7D102005032128802998A1862441380ED
:1037D0009FE7C046060400008F8FFFFFC0800000F7
:1037E0008FBFFFFF80800000020400000080FFFF09
:1037F00080C00000019AA74E12888619B21802965E
:103800006646925B80269205920DF6019A4234D963
:10381000039B3E402B642B0029331B78002B00D0E8
:1038200075E0019B9C4A1B888018C018604403887F
:103830009A4F9B059B0D03800388029A3B439BB2E2
:103840000380019B1B88D31863441A889205920D4C
:103850001A801A883A4392B21A80200005F026FD99
:10386000002E00D180E728352B7821689B00C918ED
:103870000A888B4B1A40302333E59B1A2B643E4059
:10388000002BC8D0002E07D1890041180E88854B27
:103890003340854E33430B80282300994B43E31874
:1038A0001F004C3739780129DDD1D96B9E6C8918FE
:1038B0000191D963596C89185964996B8E4236D33A
:1038C000761A9E642B0029331A788BB2002A43D1D2
:1038D000020050321288029EB21862441688B60561
:1038E000B60D16803E292CD91F274E0939404F426C
:1038F0007941761A1188B6023143684E314389B254
:103900001180282200994A43A218528E06E7012B03
:10391000A3D10300604F50331A88C01980180022C9
:10392000604402801B880298C318634494E7002E09
:1039300002D111003E70C5E7002231009A643A704E
:10394000C0E7002901D11188D7E701274E08394087
:103950007618B6021188D1E7012AD2D1020050327E
:10396000128802998A1862441380CAE743050ED56B
:1039700023684E490633DA8F20000A40DA8705F0C3
:10398000A7FC29002000FFF7C2FBFFF7E7FB430479
:1039900007D5236846490633DA8F0A40DA87FFF7EE
:1039A000DDFB802301009B011940184204D02368ED
:1039B00040490633DA8FF0E7C3041AD504202368A0
:1039C0000233DA8F8243DA87DA8F00188243DA878C
:1039D000B8239B00E25C012A03D12000E15400F0EF
:1039E00095F9200005F092FC236833490633DA8FFD
:1039F000D3E7030513D5082123689A1CD08F06331B
:103A00000143D187D98F2D480140D9870423D18F15
:103A10000B43D387200005F067FCFFF79FFB802551
:103A2000284221D0B82023688000991DCA8FAA435C
:103A3000CA87225C002AEDD1991CCD8F04322A431B
:103A4000CA870822CD8F54332A43CA8701213C22DA
:103A500021541B8820009B081340B9229200A350D8
:103A600000F054F9FFF77AFB83050AD5236814495F
:103A70000633DA8F20000A40DA8705F022FCFFF7D0
:103A80006DFBC00501D4FFF769FB23680D490633C0
:103A9000DA8F82E706040000020400000080FFFFC6
:103AA000BF8FFFFF8F8FFFFF80C00000FFFBFFFF76
:103AB000FFBFFFFFFFDFFFFFFFEFFFFFFFF7FFFF8E
:103AC000FFFDFFFFFFFEFFFF70B505000720084068
:103AD00049B22824002919DA411C6143273C69189E
:103AE0004C7008700A61CB70022B01D100230B715E
:103AF000AA24A4002B5D0220012B06D001232B5504
:103B0000286802F0CFFB0020285570BD44432100F7
:103B100000262C1969316A34FF31FF346918267088
:103B2000DFE707220A4049B270B5282304000029C4
:103B300013DA511C5943273B41184B70AA250A70D0
:103B4000AD00635D0220012B06D001236355206880
:103B500002F0B6FC0020605570BD53431900693176
:103B6000FF31C318411800206A33FF331870E5E7AE
:103B700070B50724214021344C4305192E007D36B1
:103B8000FF3632602A008132FF3213602B0000269C
:103B90008533FF33693569341E60FF351B3BFF34C5
:103BA0001E7029700119006802F08EFD300070BD92
:103BB00007230B402821594340188530FF30006807
:103BC000704770B528260724214034004C4304195F
:103BD0002500E26301224C3523642A70A36423008C
:103BE0000025293365641A708B187343A41921705A
:103BF000C118006802F068FD280070BD0722436804
:103C000070B50A40040001209A4217D848B2282310
:103C1000002814DA511C5943273B61184B700123CB
:103C2000AA258B700A70AD00625D02209A4205D011
:103C30006355206802F0BEFC0020605570BD4B4308
:103C400019000020E31869316A33FF31FF3361182E
:103C50001870E4E70F23426870B50B4004000120A0
:103C6000934219D807220A4049B22823002914DABE
:103C700011185943611848700025AA268D700A70E2
:103C8000B600A35D0220012B06D00123A3552068B6
:103C900002F0B0FC2800A55570BD53431900002068
:103CA000E31869316A33FF31FF3361181870E3E7B5
:103CB00010B50C0021060CD5072121402824013124
:103CC0006143401899B2002A08D10273C1800020D4
:103CD00010BD282161436931FF31F2E70122836081
:103CE0000273F4E703680200BA20012110B58000D6
:103CF000B82411500020A400105554331A881143E1
:103D00000222198019880A431A8010BD70470000EA
:103D1000F0B5040085B0002802D1012005B0F0BD47
:103D20000368DB0733D423689B0700D587E023684B
:103D30001B0700D5C8E023685B0700D5EBE02368CC
:103D4000DB061AD562690423B94D012A00D054E17B
:103D5000696B02270B436B636B6B1A436A63FEF755
:103D600089FE06006B6B3B4200D13FE1F8216A6B94
:103D7000A3698A43DB0013436B6323689B0600D56A
:103D800062E1636A002B00D0A1E10020C6E70C22AB
:103D9000A74D6B681340042B0BD06B681340082BA6
:103DA0000ED1C0226B68520213408022520293420D
:103DB00006D12B689B03B6D56368002BB3D1ACE763
:103DC0006368012B13D180232A685B0213432B60A5
:103DD000FEF750FE80270600BF022B683B42A2D1AF
:103DE000FEF748FE801B6428F7D9032096E7002BD6
:103DF00015D12B688F4A802713402B602B688E4A81
:103E0000BF0213402B60FEF735FE06002B683B42D5
:103E100089D0FEF72FFE801B6428F7D9E5E7052B34
:103E200005D180232A68DB0213432B60CBE72B6884
:103E3000804A13402B602B687F4A1340C7E70C224F
:103E40007B4D6B6813420BD06B681340082B16D167
:103E5000C0226B68520213408022120293420ED19C
:103E60002B689B0703D5E368012B00D055E7F821A9
:103E70002A6823698A43DB0013432B6057E7E26813
:103E80000123002A0FD02A68022713432B60FEF774
:103E9000F1FD06002B683B42E9D1FEF7EBFD801BEC
:103EA0000228F7D9A1E72A6802279A432A60FEF779
:103EB000E1FD06002B683B4200D138E7FEF7DAFD52
:103EC000801B0228F6D990E7E2690123584D002AA9
:103ED00010D06A6A022713436B62FEF7CBFD06001F
:103EE0006B6A3B4200D026E7FEF7C4FD801B022828
:103EF000F6D97AE76A6A02279A436A62FEF7BAFD40
:103F000006006B6A3B4200D115E7FEF7B3FD801B4C
:103F10000228F6D969E780220021454D5205EB6958
:103F20000091134208D1EB691343EB61EB69134035
:103F30000393039B012300938027404E7F00336847
:103F40003B4215D0A368012B22D12A6A13432B626E
:103F5000FEF790FD022706002B6A3B423FD0009BF4
:103F6000012B00D0EBE6EB69354A1340EB61E6E646
:103F700033683B433360FEF77DFD019033683B427D
:103F8000E0D1FEF777FD019BC01A6428F6D92CE733
:103F90000122002B14D12B6A022793432B622B6A38
:103FA000033293432B62FEF765FD06002B6A3B420A
:103FB000D5D0FEF75FFD234B801B9842F6D914E75E
:103FC000052B05D1296A013B0B432B622B6ABDE708
:103FD0002B6A934304222B622B6A9343B7E7FEF7C5
:103FE00049FD184B801B9842B6D9FEE6FEF742FD0C
:103FF000801B022800D8B5E6F7E6053203D16A6BCC
:104000009A436A63B2E66A6B0227134301226B6329
:104010006B6B93436B63FEF72DFD06006B6B3B42AE
:1040200000D1AAE6FEF726FD801B0228F6D9DCE6C1
:1040300000100240FFFFFEFFFFFFFBFF007000408B
:10404000FFFFFFEF881300000C22554D6B681340F3
:10405000934209D06B681340082B0ED1C0226B68C5
:1040600052021340934208D16B6B9B0300D488E645
:10407000236A012B00D050E683E6236A002B13D07D
:1040800080236A6B5B0213436B63FEF7F3FC8027AC
:104090000600BF026B6B3B4200D072E6FEF7EAFC03
:1040A000801B0228F6D9A0E66B6B3E4A802713409E
:1040B0006B63FEF7DFFC0600BF026B6B3B4200D177
:1040C0005FE6FEF7D7FC801B0228F6D98DE60C21AF
:1040D000334D6A680A40082A47D0334A022B32D14E
:1040E0002B68802713402B60FEF7C4FC0600BF043A
:1040F0002B683B4221D10F22EB6A80269343226B2F
:10410000B6041343EB62A16AE36A6A680B4327496A
:104110000A4013436B6080232A685B0413432B60BF
:10412000FEF7A8FC04002B68334200D02DE6FEF712
:10413000A1FC001B0228F6D957E6FEF79BFC801B6A
:104140000228D5D951E62B68802613402B60FEF754
:1041500091FC0400B6042B68334200D115E6FEF74B
:1041600089FC001B0228F6D93FE6012B00D1D4E5DB
:10417000C0226868A16A5202EB6A02408A4200D0FB
:10418000CBE50F221340226B934200D0C5E5F0230C
:104190009B031840E36AC01A431E9841C0B2BDE5B4
:1041A00000100240FFFFFEFFFFFFFFFEFF7FC2FF88
:1041B0000C2070B5134D6B681840082808D00C38D7
:1041C00043425841104B40421840104BC01870BD3C
:1041D0000F200F499A0C02408C5CEA6A0D4902409C
:1041E000895CC0228020520213404002834201D1E8
:1041F000064802E09342FBD10748FBF791FF60437A
:10420000E5E7C04600100240005A620200127A0040
:10421000EFC70008DFC70008006CDC02F7B5040038
:104220000F00002801D10120FEBD01223A4D2B686C
:1042300013408B421CD32268930722D4D2072FD479
:1042400001232A681A40BA4257D82368334D5B07C6
:104250005AD4FFF7ADFF6B68314A1B061B0FD35CC6
:104260003049D84008600020FEF7C4FB0020DBE79F
:104270002B6893430B432B602B6813408B42D2D1A6
:10428000D9E72649530704D5E0234868DB000343F8
:104290004B60F0204B688343A06803434B60CDE73D
:1042A00062681E4E012A03D133689B0305D4BAE726
:1042B000022A1AD133689B01B5D5032173688B4359
:1042C00013437360FEF7D6FB01900C2372681A400B
:1042D00063689B009A42B3D0FEF7CCFB019BC01AE7
:1042E000114B9842F1D903209EE7032A01D1736B49
:1042F000DBE733689B07E0D495E72A689A432A6096
:104300002A681A42A1D08EE76B68084A1340E26817
:1043100013436B609DE7C04600200240001002403E
:1043200060C800085800002088130000FFF8FFFF55
:10433000044B054A5B6805495B055B0FCB5C106865
:10434000D8407047001002405800002058C80008AC
:10435000072310B503240360094B5A6822404260CA
:104360005A68ED3422408260E0225B68D20013403C
:104370000122C360034B1B6813400B6010BDC04695
:104380000010024000200240F0B50368050085B02F
:10439000DB032BD580220021464C5205E3690091B6
:1043A000134208D1E3691343E361E36913400393C4
:1043B000039B0123009380273F4E7F0033683B42DD
:1043C0003DD0216AC022080092006B683B4E10402D
:1043D000114246D1236A6A68334013432362009B2B
:1043E000012B03D1E369364A1340E3612B68DA07F6
:1043F00006D503202F490A6B8243A86802430A634B
:104400009A0706D52B492F480A6B0240E8680243F9
:104410000A639A0606D5102026490A6B824328694A
:1044200002430A639A0306D5802022490A6B82431D
:10443000A86902430A635B0533D400200FE03368A8
:104440003B433360FEF716FB019033683B42B8D123
:10445000FEF710FB019BC01A6428F6D9032005B0B3
:10446000F0BD13408342B5D08022236A206A190030
:10447000520202432262226A134831400240226201
:104480002162DB07A6D5FEF7F5FA07000222236AB0
:1044900013429FD1FEF7EEFA0C4BC01B9842F5D9A0
:1044A000DCE74021034A136B8B4369690B431363B9
:1044B000C3E7C0460010024000700040FFFCFFFF51
:1044C000FFFFFFEFFFFFFCFFFFFFFEFF8813000071
:1044D0000122036A70B593430362036A44688569E5
:1044E000723295430A681543022293438A68134344
:1044F0000E4A904208D00E4A904205D00D4A904292
:1045000002D00D4A90420BD108229343CA688E69AB
:10451000134304229343094A22404C693443144311
:104520004A68446085614263036270BD002C0140AB
:10453000004001400044014000480140FFFCFFFFF3
:10454000036A184A70B5134003627323056A426810
:10455000C4699C430B681C43134B1D408B681B02B2
:104560002B43124DA8420ED1114D1D40CB681B02AA
:104570002B43104D2B40104D4E6915408A69324334
:1045800012012A4308E00D4DA842F4D00C4DA84278
:10459000F1D00C4DA842EED042604A68C461C263BB
:1045A000036270BDFFFEFFFFFFFDFFFF002C014017
:1045B000FFF7FFFFFFFBFFFFFFCFFFFF00400140C2
:1045C0000044014000480140036A144A30B51340DA
:1045D0000362046A124D4368C2692A400D682D02C5
:1045E0001543104A14408A68120322430E4CA0421D
:1045F00008D00E4CA04205D00D4CA04202D00D4C6C
:10460000A04204D10C4C1C404B699B0123434360E6
:104610004B68C5610364026230BDC046FFEFFFFF17
:10462000FF8CFFFFFFDFFFFF002C01400040014037
:104630000044014000480140FFBFFFFF01000300AC
:10464000012010B53D310C78E2B2844219D1001836
:1046500008701B680C498B4209D08021C9058B4228
:1046600005D00A498B4202D009498B420AD1072161
:104670009A680A40062A03D0012219680A431A6080
:10468000002010BD1968F9E7002C0140000400402B
:1046900000400140020030B502243C32157803008E
:1046A0002000012D08D018003D3004701B685961AE
:1046B000012303700020107030BD70477047022244
:1046C000036810B51969040011420ED0D96811426F
:1046D0000BD0053A1A61043202779B699B0700D11F
:1046E00079E001F0B2FD00232377042223681969E1
:1046F000114210D0D96811420DD0093A1A6107321F
:1047000022779A69C0239B0020001A4269D001F0E9
:104710009CFD0023237708222368196911420ED0DB
:10472000D96811420BD0113A1A610D322277DB6938
:1047300020009B075BD001F088FD00232377102227
:1047400023681969114210D0D96811420DD0213A5D
:104750001A6119322277DA69C0239B0020001A42BD
:104760004BD001F072FD00232377012223681969E1
:10477000114207D0D968114204D0033A20001A61CF
:1047800001F038FD802223681969114208D0D968E8
:10479000114205D0023AFF3A20001A6100F043FBB3
:1047A000402223681969114207D0D968114204D008
:1047B000813A20001A61FFF781FF202223681969DE
:1047C000114207D0D968114204D0413A20001A6141
:1047D00000F028FB10BD01F034FD2000FFF76DFF55
:1047E00081E701F02EFD2000FFF767FF91E701F060
:1047F00028FD2000FFF761FF9FE701F022FD200068
:10480000FFF75BFFAFE7000010B51C4C0368A04248
:1048100006D08022D205904202D0194A904208D197
:10482000702293434A681343164A1A40CB681343D5
:104830000BE0154A9042F7D0144A9042F4D0144A43
:104840009042F1D0134A9042EED0802293434A69BD
:10485000134303608B68C3620B688362A04208D075
:104860000A4B984205D00A4B984202D0094B984215
:1048700001D10B6903630123436110BD002C01408A
:1048800000040040FFFCFFFF00200040004001400A
:10489000004401400048014070B504000120002C94
:1048A00021D025003D352B78DAB2002B05D123002D
:1048B0003C3320001A7002F089FE02232B7020681E
:1048C000211DFFF7A1FF22000123002046321370B3
:1048D0004534083A137053709370D3701371537149
:1048E000937123702B7070BD1022036A70B59343CF
:1048F0000362056A164C4268836923400C682402EF
:104900001C4320239D438B681B012B43114DA84260
:104910000FD18025AB431E00CB68403D1B013343C4
:10492000AB430D4D4E6915408A69324392002A43CC
:1049300008E00A4DA842F4D0094DA842F1D0094D33
:10494000A842EED042604A6884618263036270BD0F
:10495000FF8CFFFF002C0140FFF3FFFF00400140F0
:10496000004401400048014070B504003C34257803
:1049700003000220012D09D0082A17D007D8002AE9
:104980000BD0042A0ED001200023237070BD0C2A06
:10499000F9D11868FFF718FE02E01868FFF798FDD4
:1049A0000020F1E71868FFF79FFFF9E71868FFF7A5
:1049B000C7FDF5E7F8B506003C3615003278030070
:1049C0000C000220012A0AD001383070082D3FD097
:1049D00006D8002D19D0042D29D000233370F8BD3E
:1049E0000C2DFAD11D682800FFF7EEFD8023EA693F
:1049F0001B011343EB61EB691D4A1340EB61236913
:104A0000EA691B021343EB610FE01D682800FFF702
:104A10005FFD0823AA6913430422AB61AB6993438A
:104A2000AB61AB6922691343AB610020D5E71D6818
:104A30002800FFF759FF8023AA691B011343AB61CC
:104A4000AB690B4A1340AB612369AA691B02EAE711
:104A50001F683800FFF774FD0422FB691D43FD61E8
:104A6000FB699343FB61FB6922691343FB61DCE74C
:104A7000FFFBFFFFF0B501261500026A114FB2439C
:104A800002628269046AB84217D08027FF05B842E3
:104A900013D00D4FB84210D00C4FB8420DD0324356
:104AA000F025AA431B010F352B4013430A229443E0
:104AB0001140214383610162F0BD0326B2432A43C2
:104AC000EEE7C046002C01400004004000400140D9
:104AD0000300F7B53C3301900C001978022001293E
:104AE00018D001381870002A15D1019B62681E6821
:104AF0002168E3683000FFF7BDFF0C22B3699343E0
:104B0000B361B369A2681343B36100200023019D20
:104B10003C352B70FEBD042A24D11027019B22684E
:104B20001B6860681E6AE168BE431E629F69354D5E
:104B300000022F403843344F09073840090C014325
:104B4000A0201E6A120186430240324399611A6214
:104B50009A692E490A409A61A268996912020A4329
:104B60009A61D2E7082A25D10325019B284F1B68AB
:104B700022681E6A60683E40E1681E62DF690901C2
:104B8000AF433843F027B8430F3739401E6A01431B
:104B90002048D9613040A0260C2112023601324053
:104BA00002431A62DA698A43DA61DA69A1680A4360
:104BB000DA61AAE70C2AA9D1019B174F1B6822686A
:104BC0001E6A60683E40E1681E62DF690D4D0002AA
:104BD0002F4038430C4F09073840090C1E6A014327
:104BE0000E4812030640A020000202403243D96161
:104BF0001A62DA6905490A40DA61A268D9691202C3
:104C0000D5E7C046FFFCFFFFFF0FFFFFFFF3FFFFED
:104C1000FFFEFFFFFFF5FFFFFFEFFFFFFF5FFFFF5F
:104C20001F2310B5012419408C408A40036AA34316
:104C30000362036A1A43026210BD0000030002000F
:104C400010B5002905D13E320120147884420AD0E3
:104C500010BD042901D13F32F6E7082901D04132C5
:104C6000F2E74032F0E7022010701C6801222000B9
:104C7000FFF7D6FF144B9C4220D0144B9C421DD012
:104C8000134B9C4210D0134B9C420DD08023DB056C
:104C90009C4202D0104B9C420BD10722A3681340C8
:104CA000062B06D10020D3E78023626C1B0213433E
:104CB00063640123226813432360F3E78023626C5B
:104CC0001B0213436364E8E7002C014000400140ED
:104CD00000440140004801400004004010B5FFF7C7
:104CE000ADFF10BD70B50300050000292AD11C00DE
:104CF0003E352E784234F0B22278D2B2012E37D12E
:104D0000012A1ED102222A7022701C680122200072
:104D1000FFF786FF174B9C4209D08023DB059C429E
:104D200005D0154B9C4202D0144B9C4204D1072263
:104D3000A3681340062B03D001232268134323608A
:104D4000002070BD042905D11C003F352E78433466
:104D5000F0B2D1E7082905D01C0041352E78453442
:104D6000F0B2C9E71C0040352E784434F0B2C3E7F6
:104D70000120E6E7002C0140000400400040014013
:104D80001F2310B5042419408C408A40036AA343B2
:104D90000362036A1A43026210BD000003000200AE
:104DA00010B5002905D142320120147884420AD07E
:104DB00010BD042901D14332F6E7082901D045325C
:104DC000F2E74432F0E7022010701C680422200051
:104DD000FFF7D6FF8023626C1B02134363640C4B06
:104DE0009C4209D08023DB059C4205D0094B9C42A4
:104DF00002D0094B9C4204D10722A3681340062B22
:104E000003D001232268134323600020D0E7C0466B
:104E1000002C0140000400400040014010B5FFF7A5
:104E2000BDFF10BD7047704730B5EFF3108401220D
:104E300082F310880168124D0B682B400B6084F3DD
:104E40001088EFF3108482F3108801688B68934315
:104E50008B6084F31088036E93420AD1EFF31081C4
:104E600083F31088102402681368A343136081F34E
:104E700010882022031DDA6700230366836630BD95
:104E8000DFFEFFFF30B5EFF31084012282F31088BC
:104E9000802501680B68AB430B6084F31088EFF347
:104EA000108182F310884023026810680343136066
:104EB00081F3108830BDC36F10B5212B06D10200DD
:104EC00052321388002B02D1FFF7DCFF10BDC36CF8
:104ED00001681C7801330C85C3641388013B9BB2C5
:104EE0001380F3E7C36F10B5212B06D101005231B7
:104EF0000B88002B02D1FFF7C5FF10BDC26C046800
:104F000013880232DB05DB0D2385C2640B88013B6D
:104F10009BB20B80F1E7704710B5C46F030002200D
:104F2000202C37D10138002934D0002A32D08020FB
:104F30009C68400184420CD0D964190050310A8029
:104F40004A801A0000210832D1672122DA67124A0A
:104F500012E018690028EFD10C0001300440014232
:104F600018D1D964190050310A804A801A000832D9
:104F7000D4672122DA67094ADA66EFF31081012249
:104F800082F310881A68802310680343136081F34A
:104F90001088002010BDC046B74E0008E54E00083E
:104FA000406A0023020010B55A321380083A138079
:104FB00002F01CFD10BD70470168F8B5CB69040014
:104FC000BB480A688E6803420CD12020034200D1FE
:104FD000A7E0024200D1A4E0A36E2000002B00D085
:104FE00095E095E0012035000540064215D00226E7
:104FF00003422FD133423ED002202700042608620C
:105000000837F86F3043F867334236D118073ED57A
:105010002020104028430DD139E0A64F3A4200D15C
:105020007FE0022603420CD15807EFD518072ED592
:1050300090062CD5082008622518EE6F3043E867EB
:1050400025E0D0050BD43342EED15807DED5002D34
:1050500013D1EBE7D00502D43342CDD1F5E70120DF
:10506000260008620836F76F3843F0679807ECD5DA
:10507000002DD9D0C0E75807C8D504202500086204
:105080000835EE6F02383043E8671807D2D4802025
:10509000250000010835034206D0560104D50862F8
:1050A0002021E86F0143E967E96F002930D0202112
:1050B0000B4206D00A4204D0A36E002B01D0200080
:1050C00098472268EB6F4027966828223E4013409D
:1050D00020001E4321D0FFF7A7FE23689B683B42B8
:1050E00017D0EFF31081012383F3108822689368AF
:1050F000BB43936081F31088606F002809D06E4B2A
:105100004363FDF73DFE002802D0606F436B984774
:10511000F8BD200002F06AFCFAE702F067FCEE67D7
:10512000F6E7206E012800D095E010252B4200D133
:1051300091E02A4200D18EE00D628B6840211E0072
:105140000E400B424FD0626F13685B689BB2002B1E
:10515000DED02600583637889F42D9D927005A37E3
:105160003B809369202B32D0EFF3108780F31088B7
:105170002268524D13682B40136087F31088EFF3B9
:10518000108780F31088226893688343936087F3C5
:105190001088EFF3108C80F31088230080CBBA685E
:1051A0008A43BA608CF310882022DA6700232366D2
:1051B000EFF3108180F31088226812351368FF35F1
:1051C000AB43136081F31088606FFDF7BBFD0223D2
:1051D000636623005A331B883188C91A89B22000BC
:1051E000FFF7E9FE94E72300220058335A3219886A
:1051F000138812889BB2002A00D189E7C91A89B2A4
:10520000002900D184E7EFF3108780F3108822682B
:105210002B4D13682B40136087F31088EFF3108C2D
:1052200080F31088230080CBBA688243BA608CF385
:1052300010882022DA672666A666EFF3108680F3D0
:1052400010881020226813688343136086F3108847
:1052500002236366C3E780204003034206D0760240
:1052600004D50862200002F00FFC51E780210B42B8
:1052700003D00A4201D0E36EAFE640210B4200D1D9
:1052800046E70A4200D143E7EFF31080012383F39E
:105290001088226813688B43136080F310882023E2
:1052A000E36700232000E36602F099FB30E7C04685
:1052B0000F08000020010004A14F0008FFFEFFFFBF
:1052C000DFFEFFFFF8B50300011DCC6F5C331A88C9
:1052D0000368222C57D19B8C446D1340020023702D
:1052E000436D5A32013343651388013B9BB21380EF
:1052F00013889CB2002B42D1EFF31086013383F365
:1053000010880568224F2A683A402A6086F3108880
:10531000EFF3108683F310880568AA689A43AA60A1
:1053200086F310882022CA67026844665268846641
:1053300012020AD5EFF3108183F310880268154C2E
:1053400013682340136081F31088036E012B17D17B
:1053500000220266EFF3108483F3108801680F3394
:105360000A689A430A6084F310880268D169194276
:1053700000D01362030058331988FFF71CFEF8BDF4
:1053800002F026FBFBE7082299690A439A61F6E7D7
:10539000DFFEFFFFFFFFFFFBF8B50300021DD16F2B
:1053A0005C331C880368222956D1998C436D2140B7
:1053B00019800100023343655A310B88013B9BB2CF
:1053C0000B800B889CB2002B42D1EFF31086013387
:1053D00083F310880568234F29683940296086F3D4
:1053E0001088EFF3108683F310880568A968994345
:1053F000A96086F310882021D1670268446652684C
:10540000846612020AD5EFF3108183F310880268D4
:10541000154C13682340136081F31088036E012B31
:1054200017D100220266EFF3108483F3108801681D
:105430000F330A689A430A6084F310880268D169BE
:10544000194200D01362030058331988FFF7B3FDE7
:10545000F8BD02F0BDFAFBE7082299690A439A6198
:10546000F6E7C046DFFEFFFFFFFFFFFB020070B55F
:10547000783211780300022001291DD00121223049
:105480001170D867EFF3108581F310880C261C6823
:105490002068B043206085F31088EFF3108481F317
:1054A00010881868073105682943016084F3108863
:1054B00020210020D967107070BD020070B57832CD
:1054C00011780300022001291DD001212230117022
:1054D000D867EFF3108581F310880C261C682068CC
:1054E000B043206085F31088EFF3108481F31088B7
:1054F0001868033105682943016084F3108820216E
:105500000020D967107070BDC36F0430C06F18439E
:105510007047000070B504002569A168026829433E
:105520006569C36929431068434D19432840014305
:10553000116051684148256A0140E06801435160AB
:10554000A169906829433E4D2840014391603D493F
:105550008A4216D103213C4A126B0A40022A40D0EB
:105560008A4225D0012A55D08022120293425AD174
:10557000FEF7DEFE031E38D100200023A366E3669B
:1055800070BD32498A4225D1C02180202E4A89022D
:10559000126B80020A40824223D007D8002AE3D04F
:1055A000802149028A4235D00120E6E78A42FBD1B8
:1055B00080221202934234D0254861684B081818A3
:1055C000FAF7AEFD0200234B103A9A42ECD823685A
:1055D000D860D1E720498A42C6D020498A42E3D127
:1055E000C2E7802000028342E7D161685B0048087F
:1055F0001818FAF795FD0200164B103A9A42D3D8C4
:105600000F23020000079A4393B2400F226803431E
:10561000D360B1E780221202934209D1FEF7C8FDA0
:10562000A8E70B4BE1E7FEF783FE0028A4D0C4E710
:10563000FEF7BEFDF9E7C046F369FFEFFFCFFFFFBE
:10564000FFF4FFFF0038014000100240004400401A
:1056500000127A00EFFF000000480040004C0040BC
:10566000436A30B5DA0706D50168284C4A682240FB
:10567000846A22434A609A0706D50168244C4A6826
:105680002240C46A22434A605A0706D50168214C69
:105690004A682240046B22434A601A0706D5016813
:1056A0001D4C4A682240446B22434A60DA0606D504
:1056B00001681A4C8A682240846B22438A609A06E9
:1056C00006D50168164C8A682240C46B22438A6062
:1056D0005A0610D50168134D4A68046C2A402243CB
:1056E0004A6080225203944205D14A680E4C2240FF
:1056F000446C22434A601B0606D502680B49536876
:105700000B40816C0B43536030BDC046FFFFFDFF73
:10571000FFFFFEFFFFFFFBFFFF7FFFFFFFEFFFFF2E
:10572000FFDFFFFFFFFFEFFFFFFF9FFFFFFFF7FF21
:10573000F7B504000D00170000932268D3692B40D1
:105740005B1B59424B41BB4201D0002020E0089B2B
:105750000133F3D0FDF78EF9009BC01A089B9842E5
:1057600027D8002B25D023681A685207E5D5DA69B7
:10577000082611003140019132420AD020001E62F9
:10578000FFF752FBA319DE67002301207834237052
:10579000FEBD8022D96912011142CED01A622000CA
:1057A000FFF742FB230020220833DA67019B78349D
:1057B00023700320ECE70000030073B5002504000C
:1057C0000833DD67FDF756F9236806001B681B07E1
:1057D0001DD58021264B2A00009389030300200059
:1057E000FFF7A6FFA84212D0EFF31081012383F345
:1057F00010888020226813688343136081F3108827
:105800002023E367032000237834237076BD25002E
:1058100008CD1B685B0723D58021154B0022009320
:1058200020003300C903FFF783FF002818D0EFF3EF
:105830001080012282F3108821680E4E0B683340DD
:105840000B6080F31088EFF3108082F310882168DA
:105850008B6893438B6080F310882023EB67D1E73C
:1058600020230020E367EB6720666066CBE7C04635
:10587000FFFFFF01DFFEFFFF10B5041E01D1012075
:1058800010BDC36F002B04D1020078321370FFF7F4
:1058900042FB242301212268E367136820008B4325
:1058A0001360FFF737FE0128E9D0636A002B02D0AE
:1058B0002000FFF7D5FE236807495A6820000A40F8
:1058C0002A215A609A688A439A60012219680A4319
:1058D0001A60FFF771FFD3E7FFB7FFFF10B5041E93
:1058E00001D1012010BDC36F002B04D1020078321A
:1058F0001370FFF710FB242301212268E36713686C
:1059000020008B431360FFF705FE0128E9D0636A8E
:10591000002B02D02000FFF7A3FE236809495A6834
:1059200020000A4022215A609A688A439A6008221D
:1059300099680A439A60012219680A431A60FFF7BE
:105940003BFFCFE7FFB7FFFF0300583310B54165BA
:105950001A805A80802100238268836649018A4226
:1059600038D103695A1E9341FF225B429343264A72
:105970009B1802005C321380030000220833DA67B0
:10598000031D2232DA67EFF31081012383F31088BD
:10599000026894682343936081F3108880218468AF
:1059A00002691A4B49018C4202D1002A00D1184BDE
:1059B00083660123002A1FD0EFF3108183F3108840
:1059C000026820331068FF330343136081F31088AB
:1059D000002010BD002A05D102697F23002AC8D10A
:1059E0008033C6E7802149058A42C2D102693F233C
:1059F000002ABED14033BCE7EFF3108183F3108857
:105A0000026820231068DFE7FF010000C55200088C
:105A1000995300080300043070B5C46F0220202C95
:105A200025D10138002922D0002A20D080209C686E
:105A30004001844205D11869002802D10130014299
:105A400015D1002018661868406800020CD5EFF3E5
:105A50001085012080F3108880201C68C00426680F
:105A60003043206085F310881800FFF76DFF70BD8C
:105A7000836810B50400002B05D00322010098476D
:105A80000023A360E36010BD836810B50400002B01
:105A900002D0032201009847200010BD4B1E032BAB
:105AA00002D888000438704701204042FBE700001C
:105AB0000139435C002B05D0054B022905D9012093
:105AC000404204E00329FAD8024B4900C85A704703
:105AD00010C8000808C800080139032902D8034B80
