:020000040800F2
:1000000000400020E99F000839A0000839A000083E
:1000100000000000000000000000000000000000E0
:1000200000000000000000000000000039A00008EF
:10003000000000000000000039A0000871880008DE
:1000400039A0000839A0000839A0000839A000082C
:1000500039A000082589000835890008458900086D
:1000600039A0000839A0000839A0000839A000080C
:1000700039A00008BD790008D5790008ED7900089D
:10008000057A00081D7A0008357A00084D7A0008C4
:10009000657A00087D7A0008957A000839A0000882
:1000A00039A0000839A0000839A00008A994000868
:1000B000C1940008DD94000839A0000895B100083B
:1000C0000023C25C0133002AFBD1581E7047000098
:1000D000002243088B4274D303098B425FD3030A87
:1000E0008B4244D3030B8B4228D3030C8B420DD39A
:1000F000FF22090212BA030C8B4202D31212090228
:1001000065D0030B8B4219D300E0090AC30B8B4265
:1001100001D3CB03C01A5241830B8B4201D38B0313
:10012000C01A5241430B8B4201D34B03C01A5241B8
:10013000030B8B4201D30B03C01A5241C30A8B42FB
:1001400001D3CB02C01A5241830A8B4201D38B02E6
:10015000C01A5241430A8B4201D34B02C01A52418A
:10016000030A8B4201D30B02C01A5241CDD2C309FC
:100170008B4201D3CB01C01A524183098B4201D378
:100180008B01C01A524143098B4201D34B01C01A63
:10019000524103098B4201D30B01C01A5241C308DB
:1001A0008B4201D3CB00C01A524183088B4201D34A
:1001B0008B00C01A524143088B4201D34B00C01A36
:1001C0005241411A00D20146524110467047FFE7A2
:1001D00001B5002000F0F0F802BDC0460029F7D0BC
:1001E00076E7704703460B437FD4002243088B42D7
:1001F00074D303098B425FD3030A8B4244D3030BAE
:100200008B4228D3030C8B420DD3FF22090212BA72
:10021000030C8B4202D31212090265D0030B8B42EE
:1002200019D300E0090AC30B8B4201D3CB03C01AD8
:100230005241830B8B4201D38B03C01A5241430BB3
:100240008B4201D34B03C01A5241030B8B4201D3A3
:100250000B03C01A5241C30A8B4201D3CB02C01A0E
:100260005241830A8B4201D38B02C01A5241430A86
:100270008B4201D34B02C01A5241030A8B4201D375
:100280000B02C01A5241CDD2C3098B4201D3CB011C
:10029000C01A524183098B4201D38B01C01A5241CB
:1002A00043098B4201D34B01C01A524103098B42CF
:1002B00001D30B01C01A5241C3088B4201D3CB00BA
:1002C000C01A524183088B4201D38B00C01A52419D
:1002D00043088B4201D34B00C01A5241411A00D24D
:1002E00001465241104670475DE0CA0F00D04942B6
:1002F000031000D34042534000229C4603098B4226
:100300002DD3030A8B4212D3FC22890112BA030AAD
:100310008B420CD3890192118B4208D3890192112F
:100320008B4204D389013AD0921100E08909C309B4
:100330008B4201D3CB01C01A524183098B4201D3B6
:100340008B01C01A524143098B4201D34B01C01AA1
:10035000524103098B4201D30B01C01A5241C30819
:100360008B4201D3CB00C01A524183088B4201D388
:100370008B00C01A5241D9D243088B4201D34B00A3
:10038000C01A5241411A00D20146634652415B10E5
:10039000104601D34042002B00D5494270476346C6
:1003A0005B1000D3404201B5002000F005F802BD0B
:1003B0000029F8D016E770477047C0468446080009
:1003C0006146FFE71FB50BF087FF002801D400212D
:1003D000C8421FBD10B50BF007FF4042013010BDF1
:1003E00010B50BF079FF002801DB002010BD0120C3
:1003F00010BDC04610B50BF06FFF002801DD0020D6
:1004000010BD012010BDC04610B50BF015FF00282F
:1004100001DC002010BD012010BDC04610B50BF05E
:100420000BFF002801DA002010BD012010BDC046DE
:100430001C2101231B04984201D3000C10391B0A14
:10044000984201D3000A08391B09984201D30009D8
:10045000043902A2105C40187047C046040302022F
:1004600001010101000000000000000010B5064C71
:100470002378002B07D1054B002B02D0044800E065
:1004800000BF0123237010BD3802002000000000CF
:10049000D8C90008044B10B5002B03D00349044809
:1004A00000E000BF10BDC046000000003C0200207C
:1004B000D8C90008F0B5DE46574645464E46E0B579
:1004C0002E4B07009B461B78884685B0FF2B03D038
:1004D000FF22D31A312B3BDD5B465B789F423ED334
:1004E00002D9FB1A312B33DD5B469B7898453DD210
:1004F00042469B1A312B2BDD214B9A461B785B071A
:1005000026D500241F4B0393534638005D78FF2106
:100510006843FFF767FEC6B24046A3B2FF216843B7
:100520009946FFF75FFEC0B2009033002A004946AB
:100530000398013402F0D2FE0B2CE5D1039802F0AF
:1005400075FD5A46FF23577013705B4642469A70FA
:1005500005B0F0BCBB46B246A946A046F0BDDB1BC9
:10056000312BF5DD5B469B789845C1D39845C3D9BF
:100570004246D31A312BBFDCEAE7C04654070020BD
:100580008805002058070020F0B557464E464546DE
:10059000DE46E0B5374B87B005931B788046894629
:1005A000924698425CD21B1A312B41DD059B5B7849
:1005B000994544D24A469B1A312B39DD059B9B78DD
:1005C0009A4546D252469B1A312B31DD2A4B039372
:1005D0001B785B072CD50025284B04934846039BCA
:1005E000FF215C786043FFF7FDFDC7B24046FF2165
:1005F0006043FFF7F7FDC6B25046ABB2FF21604340
:100600009B46FFF7EFFDC0B200903B003200594619
:100610000498013502F062FE0B2DDFD1049802F040
:1006200005FD4246059B1A704A465A7052469A701A
:1006300007B0F0BCBB46B246A946A046F0BD9945FE
:10064000BCD94A46D31A312BF2DD059B9B789A45DB
:10065000B8D39A45BAD95246D31A312BB6DCE7E75C
:100660009842A3D9C31A312BE2DD059B5B789945EB
:10067000E5D29FE754070020880500205807002096
:1006800010B5002003F06AFF164C2070012003F023
:1006900065FF6070022003F061FFA070082811D090
:1006A0000421002003F0A2FF0423802101202370F5
:1006B00003F09CFF802308210220637003F096FF63
:1006C0000823A370172003F049FF074B042801D823
:1006D000187010BD0022002117201A7003F086FF49
:1006E000F7E7C046880500205402002070B50400DA
:1006F0000D4D1022290001300BF0EAFB20001022E2
:10070000002111300BF0A3FB20001022002121302A
:100710000BF09DFB290020001022103131300BF02E
:10072000D7FB200070BDC046F0C90008F0B5C64632
:10073000394900B58846002184B00191FA210300AF
:1007400089000400421C009140460021083303F058
:100750004FFA00285BD0237A072B58D127000525B4
:10076000093703AE32002900404603F015FB00288C
:100770004DD0337801353B707378EDB27B70B37830
:10078000BB70F378FB700437092DEBD1637A303BF3
:10079000092B3CD8A37A303B092B38D8E37A303B7D
:1007A000092B34D8237B303B092B30D8637B303B7B
:1007B000092B2CD8A37B303B092B28D8E37B303B7B
:1007C000092B24D8237C303B092B20D8637C303B79
:1007D000092B1CD8A37C303B092B18D8E37C303B79
:1007E000092B14D8237D303B092B10D8637D303B77
:1007F000092B0CD8A37D303B092B08D8E37D303B77
:10080000092B04D8237E0120303B092B00D900207E
:1008100004B080BCB846F0BD8C05002030B5154B47
:1008200087B01B789B070ED50722134B1A70134A0B
:100830005178528859705A80802252009A806C3ABE
:100840009A7107B030BD69460A000D4B31CB31C2F9
:1008500031CB31C21D2308480370084B5A785B889E
:1008600042704380B8235B018380172206300BF06F
:100870002FFBE6E78805002080030020000400200D
:10088000DCCB000830B5194B87B01B7869469B0755
:1008900016D50A00164B11CB11C21B8815481380C0
:1008A0000F230370144B5A785B8842704380902367
:1008B0001B018380092206300BF00AFB07B030BD14
:1008C0000A000E4B31CB31C231CB31C21D23094856
:1008D0000370094B5A785B8842704380B8235B01F0
:1008E0008380172206300BF0F3FAE7E78805002033
:1008F000F4CB0008800300200004002000CC000896
:1009000030B5194B85B01B7869469B0716D50A0090
:10091000164B31CB31C21B7815481370122303706C
:10092000144B5A785B8842704380C0231B0183803C
:100930000C2206300BF0CCFA05B030BD0A000E4B8D
:1009400011CB11C21B880A4813800F230370094B77
:100950005A785B884270438090231B018380092270
:1009600006300BF0B5FAE7E78805002018CC000840
:10097000800300200004002010CA0008F0B5D6460D
:100980004F4646460023C0B5854A864C1370864FB5
:10099000864A200086B090463B7013702370FFF7A4
:1009A000C5FE051E19D0824D0123280004220930FE
:1009B000611C23700BF08CFA0D232B707D4B5A7841
:1009C0005B886A706B807C4B6B6004232B7206B073
:1009D000E0BCBA46B146A846F0BD784C784E631CE0
:1009E0009946FA239B00019000934A462300002178
:1009F000300003F0FDF800280ED008235B429A4631
:100A0000704B227849460193300001230095A2449F
:100A100003F03EF900283CD100230193FA23651C22
:100A20009B0000932A0023000021300003F0E0F82F
:100A300000280FD008235B4298462278A044012466
:100A4000614B2900019330000123009403F020F949
:100A500000284DD1C8235D4C0293B23B6B440193F7
:100A6000230008330093002223003000584903F08C
:100A7000C3F9012852D00723093C23704D4B5A7803
:100A80005B886270638080235B00A3800023A37176
:100A90009DE74346002130005A1C03F04DF9002821
:100AA000BAD0424601213000113203F045F9002846
:100AB000B2D0424602213000213203F03DF9002835
:100AC000AAD0424603213000313203F035F9002824
:100AD000A2D0012342461370524651460C33137084
:100AE000344B5A785B884A704B80334B4B606EE7CF
:100AF000384D02212A00300003F01EF90028A9D049
:100B00000D23424641461370213D2A4B2C705A78E2
:100B10005B884A704B80284B4B6058E72E4B1B7804
:100B20001B072FD522002D4B20781978093A8842CF
:100B300028D15878917A884224D1D07A99788842FD
:100B400020D1107BD97888421CD1507B19798842FA
:100B500018D1907B5979884214D1D07B99798842F9
:100B600010D1127CDB799A420CD101230D223B700B
:100B70000F4B1A700F4A5178528859705A800E4A9A
:100B80005A6024E719220A4B1A700A4A517852888F
:100B900059705A80124A5A6010221A7217E7C046DA
:100BA0003C05002090040020B4040020F80400203C
:100BB00080030020000400200007011088030020AB
:100BC0008C05002008000020100000208903002070
:100BD000FFFF00005D050020880500208005002043
:100BE00000130120162370B55D4C5E4D23706B78A9
:100BF0005D4963706B88638080235B01A3800B7801
:100C0000002B24D1594B1A78002A13D158490A785D
:100C1000002A1CD1574E3278002A2CD06A7A022A38
:100C20005FD043D8002A3BD010220021A01D0BF03A
:100C30000EF91FE06A7A022A4CD037D8002A2FD04A
:100C4000113319001022A01D0BF042F912E06B7A4B
:100C5000022B39D007D8A01D002B1CD01022113137
:100C60000BF036F906E0032B29D11022A01D3131FB
:100C70000BF02EF970BD697A3F48A21D03F05CF8B5
:100C80000028F7D1062323706B7863706B8863802C
:100C90000123A380EEE7102201310BF019F9E9E7F7
:100CA0001022A01D591C0BF013F9E3E7032A06D10B
:100CB000313319001022A01D0BF00AF9DAE70623E0
:100CC0002370053BA380D5E71022A01D21310BF036
:100CD000FFF8CFE7213319001022A01D0BF0F8F820
:100CE000C8E708220021A01D0BF0B1F8737AB27A90
:100CF000303B303A1B011343A373F37A327B303B12
:100D0000303A1B011343E373737BB27B303B303AC1
:100D10001B0113432374F37B327C303B303A1B01BD
:100D200013436374737CB27C303B303A1B01134332
:100D3000A374F37C327D303B303A1B011343E374E0
:100D4000737DB27D303B303A1B0113432375F37D35
:100D5000327E303B1B01303A134363758AE7C0464D
:100D60008003002000040020B40400203C05002083
:100D7000F8040020900400208C050020F0B54546C2
:100D8000DE4657464E46764BE0B59846C82387B0B8
:100D9000744C0293B23B6B440193230008330093DD
:100DA000012223004046704903F026F801286AD149
:100DB0006B46DA8A083C52BADA826C4B95B29A4694
:100DC0009B7B591CE171082B00D182E06CD8002B71
:100DD00000D19DE0062B00D08CE004AB9B460B239A
:100DE0005A46138053469B7E002B00D1B3E000236C
:100DF0002500994605AF4B4608335B005344DA7A29
:100E00004B465B0053441B7F120213433B804B460F
:100E10000A241E011336AE1901235A460121404609
:100E20000196009703F01CF9012808D0013CE4B2B8
:100E3000002CF1D11022002130000BF008F84B46B5
:100E40000133DBB2994653469B7E4B45D3D81901FB
:100E5000C9B20A0013310D32D2B2C9B20020AB744C
:100E6000534628825B7850461B020B4351468078DC
:100E7000C9780004090603430B432B6000236A7101
:100E80002B71AA7109E00623083C2370374B5A786E
:100E90005B88627063800123A38007B0F0BCBB460F
:100EA000B246A946A046F0BD0C2B41D0A42B21D1BF
:100EB0001123237053465B780B22637053465B8883
:100EC00025006380B0231B01A3800023AA71237433
:100ED000E3E71223237053465B780C22637053467A
:100EE0005B8825006380C0231B01A3800023AA71B7
:100EF0002382D2E706231E4D00222B7053465B78D7
:100F0000AA716B7053465B886B800323AB80C4E788
:100F10001A23237053465B782500637053465B8821
:100F200022836380A02314225B01A380AA71B4E70B
:100F30001323237053465B786574637053465B8854
:100F40002D0A6380D0230D22A57425001B01A380E8
:100F50002074AA71A1E713210D2225007EE7C04667
:100F60008C05002088030020FFFF00000004002003
:100F700080030020F0B54546DE4657464E46E0B5B4
:100F8000524D83B02B789B0700D491E0E121504B68
:100F9000490218009A4608F0F7FF2B781B0710D576
:100FA00004244C4E200003F0D9FA305501340C2CA7
:100FB000F8D1494E200003F0D1FA30550134162CF7
:100FC000F8D1464F380002F01FF8454B03229846EF
:100FD0001800FF210AF03BFF002200210020FFF74C
:100FE000D3FA0322002140460AF031FF3D4B18009E
:100FF000994602F017FD3C4B9B46484602F052FDD5
:10100000002835D1FA2040000AF040FB59465046EE
:1010100008F092FD43461B78FF2B03D0FF22D31A22
:10102000312BEADD43465B78013B302BE5D9434663
:101030009B78013B302BE0D904222B781A42DCD07C
:10104000002400266A78A1B20023380000960134FB
:1010500002F044F90B2CF5D1380001F0E7FF4246CD
:10106000FF2348461380967002F01CFD0028C9D06B
:101070001021484602F06AFD484602F03FFD8022FA
:1010800000211A480AF0E3FE8022002118480AF0E5
:10109000DEFE2B789B0713D5FF2200210020FFF7EF
:1010A00073FA03B0F0BCBB46B246A946A046F0BDF9
:1010B0009621074B090218009A4608F065FF6CE775
:1010C0000022FF210020FFF75FFAEAE788050020F1
:1010D000141100207C050020CF04002058070020B8
:1010E000540700208C05002028CC000800040020B4
:1010F00080030020E121F8B5224D4902280008F0C4
:1011000043FF214801F080FF204C0322FF212000F3
:101110000AF09DFE002200210020FFF735FA03228D
:10112000002120000AF093FE194C200002F07AFC06
:10113000184F194E0AE0FA2040000AF0A7FA3900C9
:10114000280008F0F9FC33785B0714D4200002F083
:10115000A9FC0028EFD01021200002F0F7FC2000AD
:1011600002F0CCFC40210020FFF7A4F9FA20800017
:101170000AF08CFAF8BD002200217078FFF704FA1B
:10118000E4E7C0461411002058070020540700204F
:101190008C05002028CC000888050020F0B5C64644
:1011A00000B5CE4E3478002C07D1CD4C2378002BDF
:1011B00000D1BAE080BCB846F0BD0B2C0CD1C84DB4
:1011C0002B78002BF6D1C74B00215A780020FFF76F
:1011D000DBF9012334782B70082C13D10AF04EFA76
:1011E000C14CBF4D2368C01A952800D900E12B7867
:1011F000002B00D1E4E0BB4B002100205A78FFF720
:10120000C3F934780A2C00D1B3E0042C0FD1B74CC9
:101210002578002D00D1CCE00AF030FAB24D2B68D1
:10122000C01AB34B1B68984200D396E03478012C67
:1012300022D1AE4F3B78002BBCD0A94D2B78002B90
:1012400000D1DDE00AF01AFAA74C2368C01AA84BB7
:1012500098461B68984200D2A0E0022342462B70B9
:10126000013313600AF00AFA2368C01A43461B6868
:10127000984200D3FCE03478072C32D0032C0AD1FA
:10128000974D2B78002B58D0012B00D116E1022B63
:1012900000D1D7E03478022C00D08BE70AF0EEF9C9
:1012A000914C2368C01AFA235B00984200D3FBE0FC
:1012B0008B4B1B78002B00D0AAE00AF0DFF92368E3
:1012C000C01A0BF047FB8B490AF06EFE8A490BF0FF
:1012D00051F80AF051FE0021C2B20020FFF754F984
:1012E00068E7824F3B78002B00D163E77C4D2B7879
:1012F000002B00D19DE00AF0C1F97B4C2368C01A95
:101300007B4B98461B6898424ED3022342462B7073
:10131000013313600AF0B2F92368C01A43461B6810
:10132000984200D3B2E03478A8E7002200210020E0
:10133000FFF72AF9012323703CE70AF09FF96A4C72
:101340002368C01AFA239B00984200D38AE0002148
:101350000020FFF7AFF82B7896E7002200212078D5
:10136000FFF712F92378053B23700AF087F928600C
:101370005CE70AF083F95C4C594D2368C01AFA23E4
:101380005B0098422CD22B78002B21D0554B0022A9
:1013900000215878FFF7F8F8347836E72B78022BDD
:1013A00000D15FE7347867E72B78022BB2D034782E
:1013B00064E7002200210020FFF7E6F83570F9E627
:1013C000484B002200205978FFF7DEF8347819E7FF
:1013D000444B002258780100FFF7D6F8347814E720
:1013E0002B785A4253412B700AF048F92060CAE723
:1013F0002B785A4253412B700AF040F92060F6E6F0
:10140000384B002200205978FFF7BEF82C7019E7FE
:101410000AF034F92368C01A0BF09CFA35490AF037
:10142000C3FD35490AF0A6FF011C33480BF0E0F874
:101430004FE72C4B002258780021FFF7A5F8012335
:101440002B7058E70AF01AF9274C2368C01AFA23C0
:101450009B00984258D2FF2200210020FFF794F809
:10146000347818E701232B700AF008F92060A1E610
:1014700039780020CA43D2B2FFF786F83B78193B8F
:101480003B700AF0FBF820603478F5E638780021EC
:10149000C243D2B2FFF778F83B78193B3B700AF0B1
:1014A000EDF820603478E9E60AF0E8F80C4A2060AC
:1014B000137859424B41DBB21370FBE60AF0DEF8B9
:1014C000094C2368C01AFA239B00984216D20022C6
:1014D000FF210020FFF758F82B78D8E660020020A3
:1014E00056020020880500205802002057020020E4
:1014F0005C0200200000FA4300007F4302232B70AF
:101500000AF0BCF8206055E600232B700AF0B6F80C
:1015100020604FE610B51B280DD81E4B80001B58CD
:101520009F4602221C4B1A700AF0A8F800221B4B9F
:1015300018601B4B1A7010BD1A4B002100205A78FE
:10154000FFF722F8F7E70022134B1A70144B1A70BA
:10155000F1E70A22104B1A70134BF5321A70134B35
:101560005A32FF321A60DFE703220B4B1A70DBE7B7
:101570000822094B1A700C4BF732EFE70122064B99
:101580001A70094BFE32E9E70722034B1A70064B2B
:10159000F832E3E740CC0008600200205802002047
:1015A0005602002088050020570200205C0200201F
:1015B00010B5024801F01AFD10BDC04658070020C2
:1015C000F8B5234C234E244D244F200008F020FC76
:1015D000002825D0200008F023FCC3B23370E02B94
:1015E0001FD02A78FF2A20D0D02B25D03A78002A85
:1015F00004D000220133DBB233703A7018490A7804
:101600000132D2B2AB540A702978914218D01549F0
:1016100020000A789B180B7008F0FAFB0028D9D13B
:10162000F8BDFF220C4B1A70CFE700210C4A2B703B
:1016300011700C4A1370C8E70122084B1A70C4E7F6
:10164000084A052012789A42EAD1E878E8E7C046CD
:10165000141100207C030020000400207A030020E5
:101660007D0300207B030020F0B5D6464F4646465A
:101670000024C0B50021FF2086B0FEF71BFFC04D3F
:10168000280008F0C5FB00280CD0280008F0C8FB93
:10169000C0B2AF2800D189E02800002408F0B8FBD0
:1016A0000028F2D1B74C2000FFF740F8002800D006
:1016B0008DE0FA239B0000931323B34C019000218B
:1016C00020006B4405AA02F093FA00280CD06B4668
:1016D000DA7CAE4B20000193012305A9009302F0B0
:1016E000D7FA002800D095E0FA239B00002600934B
:1016F00013230021200001966B4405AA02F078FA1A
:1017000000280CD06B46DA7CA14B20000193009698
:10171000012305A902F0BCFA002800D098E0FA23C2
:101720009B000026009313230021200001966B44A8
:1017300005AA02F05DFA00280CD06B46DA7C954BC6
:10174000200001930096012305A902F0A1FA0028C8
:1017500000D0BCE00023FA270193BF00133300211F
:10176000200000976B4405AA02F042FA002840D1FD
:10177000C8230293B83B9846874E0122B0444346A3
:10178000019308239946B1444B46200000938349B6
:10179000330002F031FB012800D19AE02800804993
:1017A00008F0CAF9380009F071FF0AE00134E4B228
:1017B0001E2C00D064E700227A4B1A707A4B01325B
:1017C0001A7006B0E0BCBA46B146A846F0BD280083
:1017D000764908F0B1F92800754908F077F9210039
:1017E0002800093108F072F9FA20800009F04EFF54
:1017F000E7E728006F4908F09FF928006E4908F0D4
:1018000065F96B4605A8D97C02F018F9380009F093
:101810003DFFD6E76949280008F08EF9664928009F
:1018200008F054F96B4605A8D97C02F007F9644921
:10183000280008F04BF9584E02213200200002F037
:101840007BFA00283ED1FA20800009F01FFFB8E79C
:101850005C49280008F070F95749280008F036F96B
:101860006B4605A8D97C02F0E9F85749280008F032
:101870002DF9494E00213200200002F05DFA0028C7
:1018800079D15249280008F021F9320001212000C5
:1018900002F052FA002869D14949280008F016F9E7
:1018A00032000221200002F047FA002859D14849AD
:1018B000280008F00BF932000321200002F03CFA66
:1018C0000028C0D01021300002F0B8F8BBE7414931
:1018D000A1E74149280008F02FF94049280008F005
:1018E000F5F83000082102F0A9F83D49280008F079
:1018F000EDF84846082102F0A1F83A49280008F01E
:10190000E5F8338A40465BBA0221338202F096F84A
:101910002800354908F010F908239946334B344E16
:101920009846344B344F9A46B14401234246012134
:1019300020000197009602F093FB012807D0514642
:10194000280008F0F9F802364E45EED17BE73188E1
:101950001022280008F0B2F91021380002F06EF8C9
:10196000F1E71021300002F069F8A0E71021300003
:1019700002F064F890E71021300002F05FF880E791
:1019800014110020900400208C050020100000207D
:10199000080000200000002068030020FFFF000076
:1019A000A8CD00085402002055020020B0CC000849
:1019B000C0CC000850CD0008DCCC0008D0CC00081A
:1019C000E8CC0008F8CC00080CCD00081CCD0008BD
:1019D0002CCD00083CCD000864CD000874CD000873
:1019E0007CCD000884CD000890CD0008F8CF000819
:1019F000FCCF0008A0CD00085803002010B5054C0E
:101A000002E0200008F00CFA200008F001FA00289B
:101A1000F7D110BD1411002030B5522383B0072236
:101A20000B211E4801F026FC01231D4D5B421622AE
:101A300000931721280007F09DFF1A4C2900200071
:101A400001F068FE802521000024174801F0E8FF1E
:101A50001648FEF74BFE1648FEF748FE1548FEF7FF
:101A600045FE154BAD001C70144B28001C7006F091
:101A7000EDFD134B186018005D60FFF7BFFF0120FC
:101A800000216C220F4B4042186059609C540E4B51
:101A9000186059609C5403B030BDC0465807002000
:101AA000FC050020F00500208C0500203C050020EE
:101AB000F8040020B4040020AC04002090040020AE
:101AC00050030020E002002070020020F8B5CE464E
:101AD000474680B5FFF774FD822803D8C44B8000C9
:101AE0001B589F461030C0B2092854D8C14B800003
:101AF0001B589F46FEF792FEBF4FFC78002C28D063
:101B0000BE4BE0211800984608F014FA1022002677
:101B1000002491463B783500A34202D03D5DAE19CA
:101B2000F6B22B004A4630339343DBB22900002B38
:101B300005D1D0214046013D08F0FCF9E9B240460C
:101B400008F0F8F901343B78E4B2A342E3D2002371
:101B5000FB70C0BCB946B046F8BD0623A64F3B702B
:101B6000A74BDC785A785B887A707B800023BB8037
:101B7000A44B1B78002BC1D1A34B1B78002BBDD1EC
:101B8000A24B1B78002BB9D1A14B1B78002BB5D1F0
:101B900001333B71B2E70623974F3B70984BDC78DB
:101BA0005A785B887A707B800323BB80A6E7062384
:101BB000914F18203B70924B5A785B887A707B80EB
:101BC0000023BB8002F0CAFCFC78B87196E78C4B0E
:101BD0005979904B1970032902D0172002F006FDA5
:101BE00001228D4B844F1A70FC7887E7844E8B4F0F
:101BF000747908223C70B379F11D89487B700AF032
:101C000067F931000A220F3186480AF061F9210094
:101C1000002002F0EBFC0120797802F0E7FC0424BC
:101C2000F51C2000295D013402F0E0FC0C2CF8D1F9
:101C30002000295D013402F0D9FC162CF8D1397846
:101C4000143C21404B425941774B49421940E12312
:101C50005B029C466948614408F096F93B781C4257
:101C600000D1B7E0FF2200210020FEF78DFC01200B
:101C700009F00CFD0623604F3B707378F4787B709D
:101C800073887B800023BB8038E75D4B5A4F5A78BE
:101C9000DC785B887A707B808023DB00BB800A2342
:101CA0003B705E4B9A781B883A72FB8007237B72ED
:101CB00024E7FEF725FE504FFC781FE706234E4F22
:101CC0003B704F4BDC785A785B887A707B800023BE
:101CD000BB8013E70623484F00213B70484B534815
:101CE0005A785B887A707B8000230122BB8001F0E8
:101CF00057FFFC7802E7FEF775FF3F4FFC78FDE6E3
:101D00003F4BDA7999795879FEF73EFC3A4FFC78E7
:101D1000F4E60623384F3A493B704B78CC787B7019
:101D20004B8806227B80002305314148BB800AF0A6
:101D3000CFF8E3E6324D06223E48691D0AF0C8F8A6
:101D400006232D4F3B706B78EC787B706B887B8023
:101D50000023BB80D2E60624274F294B3C705A78DB
:101D60005B8832487B8000237A70BB8001F09AFE4A
:101D7000002835D00323FC783B71BFE606231E4FB5
:101D80003B701F4BDC785A785B887A707B80052328
:101D9000BB80B3E6FEF776FD174FFC78AEE6FEF7A4
:101DA000EDFF154FFC78A9E6FEF7E8FD124FFC7831
:101DB000A4E60623104F00213B70114B1B485A78B4
:101DC0005B887A707B8000230022BB8001F0E8FEF4
:101DD000FC7893E60022FF210020FEF7D5FB46E7C2
:101DE000002100203C71FEF765FBFC7886E6C046CA
:101DF000BCCD0008C8CF00088003002014110020CB
:101E000000040020B40400203C050020F804002059
:101E10009004002054020020550200208805002074
:101E200080050020DB04002000D4FEFF8C0500208C
:101E30008004002088040020F0B5C64600B52C4D73
:101E400084B02B68002B16D16B68062B4BD0072B68
:101E500049D00122002352422A606B6028006C2383
:101E600000220021EA540830643209F0F0FF04B087
:101E700080BCB846F0BD5A1CEBD06A6807339A4262
:101E8000E7D16C23EB5C002B1AD01A4B0B201A0005
:101E90000A27D96A01AC01911B8E2C32A380937959
:101EA00000210322A371684409F0D1FF124E6F4450
:101EB00021783000013408F03DF8BC42F8D16A685E
:101EC000002AC6DD08235B42984600240B4F0A4EC9
:101ED000B844395D300008F02DF843465B680134A2
:101EE000A342F6DCB5E76C23EB5C002BCDD1E9E730
:101EF00070020020F0C900081411002078020020B0
:101F0000F0B5C646060000B5080088461700FEF783
:101F1000D7F8224C451C41462A00200007F04EFF0E
:101F20008046200007F0FCFF454503D91C4880BCD3
:101F3000B846F0BD09F0A2FB00258046200008F05D
:101F40002DF8002816D009F099FB4346C01AB84274
:101F500015D8200007F064FF0028EFDB32686B1C07
:101F6000505572689A4213D920001D0008F016F8E7
:101F70000028E8D13068DAE7200007F051FF2000A0
:101F800007F046FF0028F7D1D0E7200007F048FF10
:101F9000200007F03DFF0028F7D1C7E7141100200B
:101FA00070CD000830B5C94BA9B01A68C84D07926A
:101FB0006A469B880021138400235375069301937E
:101FC000FA239B000093152328006B4406AA01F016
:101FD0000FFE00280CD06B465A7D07AB01930123FE
:101FE0002800009306A901F053FE002800D07DE1EF
:101FF000FA239B000024009315230021280001945C
:102000006B4406AA01F0F4FD002816D100230993C1
:102010000A930B930C93C8330293B23B0BAA6B4405
:102020000193009228000122AA4909AB01F0E4FEC5
:10203000012800D17FE029B030BD6B465A7DA64B08
:10204000280001930094012306A901F021FE002835
:10205000DCD00022FF21002011ACFEF795FA4D22C2
:102060009E49200009F034FF91200D220021684490
:1020700009F0EDFE6B461A7E11090B0030339F2AE2
:1020800000D90733412163540F2313401A00303223
:10209000092B01D937331A004223E2546B465A7E8A
:1020A00011090B0030339F2A00D9073343216354B1
:1020B0000F2313401A003032092B01D937331A008D
:1020C0004423E2546B469A7E11090B0030339F2A59
:1020D00000D90733452163540F2313401A003032CF
:1020E000092B01D937331A004623E2546B46DA7EB6
:1020F00011090B0037339F2A00D8073B472163544F
:102100000F2313401A003732092B01D830331A003D
:102110004823E254724B1B785B0602D536233122EA
:10212000E254FA22210092006E48FFF7E9FE642093
:1021300009F0ACFA6AE7FF220021002011ACFEF79B
:1021400023FA4D226849200009F0C2FE91200D2299
:102150000021684409F07BFE24226B469B181A7804
:1021600011090B0030339F2A00D982E139216354D1
:102170000F2313401A003032092B00D98FE13A2384
:10218000E25425226B469B181A7811090B00303354
:102190009F2A00D978E13B2163540F2313401A0092
:1021A0003032092B00D996E13C23E25426226B46BB
:1021B0009B181A7811090B0030339F2A00D97FE150
:1021C0003D2163540F2313401A003032092B00D9EC
:1021D00073E13E23E25427226B469B181A781109BB
:1021E0000B0030339F2A00D95CE13F2163540F2359
:1021F00013401A003032092B00D999E14023E254F0
:1022000028226B469B181A7811090B0030339F2A3D
:1022100000D982E1412163540F2313401A00303268
:10222000092B00D976E14223E25429226B469B1800
:102230001A7811090B0030339F2A00D95FE143213E
:1022400063540F2313401A003032092B00D953E195
:102250004423E2542A226B469B181A7811090B007A
:1022600030339F2A00D93CE1452163540F231340AA
:102270001A003032092B00D930E14623E2542B22D8
:102280006B469B181A7811090B0037339F2A00D828
:10229000073B472163540F2313401A003732092BA1
:1022A00001D830331A004823E2540D4B1B785B06EB
:1022B00002D536233122E254FA2221009200094845
:1022C000FFF71EFE642009F0E1F9B4E6F0CF000844
:1022D0008C050020FFFF00000800002028CA00082D
:1022E000880500205003002084CA0008022128002D
:1022F0000DAA01F021FD002800D179E60022FF217E
:10230000002011ACFEF740F94D22B549200009F03C
:10231000DFFD91200D220021684409F098FDB14BAA
:102320001B789A0600D406E13C216A4652181178BF
:102330000809020030329F2900D90732392022547F
:102340000F220A4011003031092A01D93732110019
:102350003A22A1543D216A46521811780809020018
:1023600030329F2900D907323B2022540F220A40E5
:1023700011003031092A01D9373211003C22A15411
:102380003E216A46521811780809020030329F290E
:1023900000D907323D2022540F220A40110030316B
:1023A000092A01D9373211003E22A1543F216A4641
:1023B000521811780809020030329F2900D90732DB
:1023C0003F2022540F220A4011003031092A01D93E
:1023D000373211004022A15440216A465218117828
:1023E0000809020030329F2900D9073241202254C7
:1023F0000F220A4011003031092A01D93732110069
:102400004222A15441216A4652181178080902005B
:1024100030329F2900D90732432022540F220A402C
:1024200011003031092A01D9373211004422A15458
:1024300042216A46521811780809020030329F2959
:1024400000D90732452022540F220A4011003031B2
:10245000092A01D9373211004622A15443216A4684
:10246000521811780A09100037309F2900D9A7E0C7
:10247000A4E03921073363540F2313401A0030328C
:10248000092B00D87BE60AE03B21073363540F2376
:1024900013401A003032092B00D885E61BE0373391
:1024A0001A006CE63F21073363540F2313401A00D0
:1024B0003032092B00D8A1E63AE037331A0088E61B
:1024C0003D21073363540F2313401A003032092B88
:1024D00000D87EE6F1E737331A0065E637331A0095
:1024E000CBE64521073363540F2313401A003032E3
:1024F000092B00D8C1E6F1E737331A00A8E64321DB
:10250000073363540F2313401A003032092B00D8CD
:102510009EE6F1E737331A0085E64121073363541D
:102520000F2313401A003032092B00D87BE6F1E765
:1025300037331A0062E66A46117E0809020030321B
:102540009F2900D90732412022540F220A4011004E
:102550003031092A01D9373211004222A1546A468A
:10256000517E0809020030329F2900D907324320EA
:1025700022540F220A4011003031092A01D9373282
:1025800011004422A1546A46917E080902003032AB
:102590009F2900D90732452022540F220A401100FA
:1025A0003031092A01D9373211004622A1546A4636
:1025B000D17E0A09100037309F2901D8303210002F
:1025C0000F220A4011003731092A01D83032110098
:1025D0004722A0540132A1545B0600D4A1E59DE539
:1025E00028CA000888050020F0B5CE464746962147
:1025F000002280B54F4B8BB04F4809021A7007F08C
:10260000C3FCE1214D4D06224902280007F0DEF906
:102610004B4800F0F9FC4B4C03222000FF2109F04D
:1026200016FC002200210020FDF7AEFF0021200053
:10263000032209F00CFC01AB98464246424B13CBF7
:1026400013C213CB13C213CB13C202E0280007F04E
:1026500051F9280006F0B2FF0028F7D1444607AE32
:1026600021782800013406F0D5FFB442F8D109F0F2
:1026700005F8FA270F2304009946FF0004E028001C
:1026800006F09CFF002845D108F0F8FF001BB84277
:10269000F5D934004646243621782800013406F066
:1026A000B9FFA642F8D108F0E9FF10260400013E68
:1026B000002E05D109E0280006F080FF002834D163
:1026C00008F0DCFF001B3228F5D94B46002B03D065
:1026D000282008F0DBFFFBE7FA2008F0D7FF3C21B9
:1026E0003C20FDF7E7FEAF20800008F0CFFF01227D
:1026F000002316485242026043606C234A46002180
:10270000C2546422083009F0A2FB0BB0C0BCB94629
:10271000B046F0BD280007F0EDF801235B429C466F
:10272000E1444B46002BAFD1B3E7280007F0E2F8B5
:10273000BDE7C0466802002014110020FC050020FF
:102740005807002054070020E0CA0008700200204B
:10275000002110B5094807F01BFCFDF791FF084B5D
:102760001B78012B04D0022B05D0FEF703FC10BD13
:10277000FEF7C0FCFBE7FFF737FFF8E71411002076
:1027800054020020F0B54E46DE4657464546E0B5B9
:10279000894B9FB099461B68002B00D181E04B46C6
:1027A0009C7B01250E2C61D0182C36D0322C18D1F0
:1027B0004B46DB7B812B00D1A4E0002D40D04B4663
:1027C0005B68002B3CDD7D4E002537007C4C083FCC
:1027D000715D200006F01EFF7B680135AB42F7DC1F
:1027E0002EE0062C00D06FE04B461B68122B00D168
:1027F000A6E0182BE1D16C23012272480EA9C25425
:102800000D2214230CC00A006F4B70CB70C230CB6A
:1028100030C2142209F05CFB12E001234A46D37354
:102820006C2268480EA98354092302220CC0674B0E
:102830000A0030CB30C21B8813800A2209F048FB03
:1028400001224946002352420A604B60484600225A
:102850006C230830CA540021643209F0F8FA1FB022
:10286000F0BCBB46B246A946A046F0BDDB7B012BBF
:102870007CD0544B01229A466C2351465046CA5490
:10288000022209230CC00EAB98464246504B22CB85
:1028900022C21B88414613800A2209F019FB002539
:1028A00082E701214B4A012011704A460021404233
:1028B0001060516049466C2248468B540830002114
:1028C000083A09F0C4FACAE70C2C25D16C2301227E
:1028D0003C4C0EADE25405220C230CC42A003E4BA6
:1028E00043CB43C21B78002113703D20022202AB70
:1028F0009C46604409F0ABFA0F222900200009F041
:10290000E7FA9DE701222F48153BC2540923022212
:102910000EA90CC0314B8BE7122C2ED16C23012257
:10292000284C0EADE254022209230CC42A002C4B81
:1029300003CB03C21B88002113803A200522D6E76F
:102940006C2301221F480EA9C2540A2211230CC075
:102950000A00244B70CB70C21C6814609B88938063
:10296000002314224B8209F0B3FA69E74B46187C26
:10297000FEF7D0FD4B469C7B7BE7082C38D14B46BD
:10298000DB7BFF2B00D19FE1632B00D015E76C238D
:1029900001220C480EA9C25403220A230CC00A00CB
:1029A000114B50CB50C21B8813800A2209F090FAB9
:1029B0000F220E4B1A6000E7E0020020E802002020
:1029C000FC050020700200203CCB000810CB000862
:1029D00004CB00086202002050CB00081CCB00088A
:1029E00060CB000828CB000870CB000864020020F0
:1029F000522C00D0F7E04B465B68002B00DC6DE109
:102A0000BB4E00253700BB4C083F715D200006F02F
:102A100001FE7B680135AB42F7DC0EAB984602AB9A
:102A20002F279C46002610256744200006F0C6FD8F
:102A30000028FAD0200006F05DFF0136013DB855B0
:102A4000002DF2D1AC4B01229A466C235146CA5458
:102A50000B2304220A604B6043465B7B002B00D0B3
:102A60002CE1A64B06A90A0021CB21C218881080B0
:102A700050469B78083093700B2209F029FA4B4698
:102A80009B7B442B00D1B9E0A02B00D0D8E606AD4B
:102A90002A009B4B0193243343CB43C243CB43C215
:102AA0001B689849136008A8122209F011FAA86857
:102AB000954A01009446954A954B424095481940E5
:102AC000EE68024061445140934A37009446934A6D
:102AD0001F4072400240674457402A698B461100EC
:102AE00019408C465946194088465946C4444A40C4
:102AF00061466E690240514032001A403B40D21894
:102B000033007B4003405A40287E6B7E0DAE1B187D
:102B100008045B18000E1B180802000E090E1B1893
:102B20005B1811049B18090E5B181102090E5B1843
:102B3000120E9B18DB43AB7629782000013506F096
:102B400069FDAE42F8D108F099FD00239B4602AB27
:102B50002F269C46804600253D276644FEF71EFB37
:102B600008F08CFD4346C01AF92803D988E0013FDC
:102B7000002F17D0200006F021FD0028EED0200005
:102B800006F0B8FE013570550A2DF0D1392202AB9E
:102B90009B181B78032BEAD12D3F023B013F9B463C
:102BA000002FE7D15B46002B6AD13C2202AB9B1879
:102BB0001B7802A98A18603313700B0030213B2266
:102BC0005B189B5C02A84118603B8B5452465946E7
:102BD0006C235046D15436223D230EA90CC0073237
:102BE00009F076F92CE6442C7AD1434B2F279A46EC
:102BF0000EAB984602AB9C463E4C67444B465B6826
:102C0000002B0EDD08235B429B460025384EB34463
:102C1000715D200006F0FEFC5B465B680135AB424F
:102C2000F6DC10260025200006F0C8FC0028FAD0AB
:102C3000200006F05FFE0135013E7855002EF2D1EE
:102C40006C2301225146CA540B2304220A604B60B4
:102C500043465B7B002B2CD1314B06A90A0021CBCC
:102C600021C21888108050469B78083093700B2240
:102C700009F02EF94B469B7BA02B00D0E0E506E740
:102C80006C23012251465046CA5403220A230CC029
:102C900003AA1100019B583330CB30C11C880C8033
:102CA0009B788B7018CA18C00B8803808B78837050
:102CB000C6E5272BDED11B4B06A9CFE7272B00D07B
:102CC000DDE6194B06A9CEE66C2301220A480EA9BF
:102CD000C2540A2303220CC0094BA9E5054C9CE60B
:102CE000A02C00D069E5044B024C9A46CFE6C046C2
:102CF000E8020020FC050020700200207CCB0008C8
:102D000070CB0008F102002000007F150000FF15C5
:102D10007F7F7F7F808080806B544001EBD44001B7
:102D2000B0CB0008BCCB000888CB000810B52D4CF8
:102D3000200007F06DF82C4B002801D1187010BD51
:102D4000012220001A7007F06BF8C1B2AF2920D021
:102D50000022264B1A70264A5368002B06D1002900
:102D60001FD10120D31850601972E8E7022B37DD1C
:102D7000032B27D0581CD318197213685060002BEE
:102D80001DD05A1CDBD007339842D8D1FFF7FAFC8C
:102D9000D5E7164A137801331370154A5368002B90
:102DA000E4D1012000214042106051606C230021D9
:102DB000D15408321000642209F049F8BFE7062810
:102DC000E1D1E3E7D172FF2101335360FB330340CC
:102DD0001360936809041B021B0A8B42AFD0E0E723
:102DE000581CBFE714110020610200206802002077
:102DF000E002002070B5FFF799FF244B1B781E2BD3
:102E000038D0FFF719F8224D224C2B68002B1BD12C
:102E1000214D06E0200006F06DFDC1B2280007F04C
:102E200089F8200006F0CAFB0028F3D11B4B1B7861
:102E3000002B12D070BD2B68002BF7D0200006F0BD
:102E400059FD2B68013B2B60200006F0B7FB0028E2
:102E5000F1D1124B1B78002BECD10F4806F0D8FFB4
:102E60000028E7D1200006F0A9FB0028E2D1FEF7F8
:102E700095F9DFE700220A4B00211A70094B013255
:102E800017201A7001F0B2FBD4E7C0466802002098
:102E900064020020FC0500201411002061020020C3
:102EA000540200205502002070B5002680228021A7
:102EB0000020FDF769FB174D174C280006F0A8FF0E
:102EC000002825D0280006F0ABFFC1B2AF2913D1EE
:102ED0000136F6B21E2E11D0200006F09BFB20001A
:102EE00006F06CFB0028E8D0200006F003FDC1B21C
:102EF000280007F01FF8F2E70026EDE70022074B55
:102F000000211A70064B013217201A7001F06EFB77
:102F100070BDC04614110020FC05002054020020A2
:102F200055020020F8B52E4E2E4F33783C78002BFA
:102F300011D0012C1DD0022C08D0002C23D0032C42
:102F40001ED0042C12D1FFF7AFFF0EE0FFF74CFBB1
:102F500000233C783370032C12D0032CF1D8012CC1
:102F600016D0022C02D1FFF745FFF8BDFEF7AEFDEB
:102F7000FBE7FEF7BFF800233C783370032CECD15D
:102F8000FEF772FBF1E7FDF7F5FF34703C78E2E7FE
:102F90000024002200210020FDF7F6FA124D28003F
:102FA00006F036FF00280BD0280006F039FFC0B22B
:102FB000AF2808D02800002406F02AFF0028F3D10B
:102FC000FEF7F0FFD1E70134E4B21E2CE7D1002375
:102FD00000213B7098380133337001F007FBC4E7E0
:102FE00055020020540200201411002010B50400E6
:102FF000C06808F063FE0623E05E002802DB0021C3
:1030000008F07AFA200010BD10B504000623C05E57
:10301000002807DB012108F06FFA00210623E05E9B
:1030200008F0E8FA0123637010BDC046F0B55746BA
:10303000DE464E464546E0B5C368070085B0002B26
:103040005ED09624640008F01DFB7B6998424BD348
:10305000C01AA042F7D372B6BA88FB6890464A4CB1
:103060001E7898445D1C63680193A36802933B78C3
:103070009A46002B4BD0454B45491B6818009B4690
:10308000FDF726F8824643495846FDF721F8534696
:1030900041491B1A58469946FDF71AF853461B1A20
:1030A0009C465346013B63600023A360BB69F869FB
:1030B0009A463B00802137002E00050050469A4674
:1030C00063468561394200D14B46A2689A42FCD8DA
:1030D0008562490804D1464554D23778803101369B
:1030E000A2689A42FCD9EBE77861ACE74F46019AB7
:1030F000254B5A60029A9A6062B608F0C3FA78616A
:1031000005B0F0BCBB46B246A946A046F0BD1F4B79
:1031100022491B6818009B46FCF7DAFF5B46814694
:103120001F4958460393FCF7D3FF4A461D49121A1C
:1031300003989346FCF7CCFF4B461B1A9C464B4624
:10314000013B63605346A360BB69F86999463B0045
:10315000802137002E000500484699466346856168
:10316000394200D15B46A2689A42FCD88562490880
:1031700004D14645BAD2377880310136A2689A42E6
:10318000FCD9EBE75746B2E710E000E0580000201A
:1031900000350C00A0252600D0121300801A06006E
:1031A00080841E0035B70C0070B5437804000D0014
:1031B000002B18D1C180FF232B40242B24DCE022DC
:1031C00028499B005B58D2002A401A431B06002165
:1031D0001B0F052B27D90F251540234BAD00EB58AE
:1031E000A161E36170BD0623C05E002813DAE180AF
:1031F0000121280008F080F90021280008F0FAF9E0
:10320000FF232B40242BDADDC0222A40C02A0ED017
:1032100000210F25E1E7002108F06EF96378E580D1
:10322000002BC8D0E4E711499B005958D3E7C92BBC
:10323000EEDC3F230E492B409B005B58E021094AFE
:10324000C9009B000D409A582B0013431206002121
:10325000120F052A02D80549920051580F251D402A
:10326000BBE7C04650D4000858D000081C0000201E
:1032700028D40008F0B5C646904600220D00032170
:10328000040000B51F094270027242619E0898094D
:1032900008400F400E401940A174FF21E074C01B8C
:1032A00099425241431E98410330684380B22774CB
:1032B00066742270A080FE3908F0BEFCE060002831
:1032C00008D0414620006580FFF76EFF200080BCDB
:1032D000B846F0BD0025A080F3E7C04670B504AC49
:1032E000257844888C4217D9047A002C05D0624393
:1032F00063436543120A1B0A2D0AC67C047CA6425E
:103300000BD08C00C168091900248C55047C0A5527
:10331000427C8B54837CCD5470BD4E007618C168BE
:103320008919F4E710B504004068552103681B684B
:1033300098476068552103681B68984760680021BA
:1033400003681B6898476068002103681B689847FA
:103350006068002103681B689847606803681B6900
:10336000984703E0606803685B6998476068036892
:103370001B6998470028F5D110BDC046E12110B562
:1033800006224068490206F021FB10BDF0B5574601
:103390004546DE464E46E0B51D00002389B007AF26
:1033A00004009046BA46BB469946039108F066F978
:1033B0000600002D00D057E1606803685B699847FC
:1033C0000028F9DB5B46187001239C46E1444B461C
:1033D000E344032BEAD13B787A78134300D081E1B0
:1033E000BB78FF2B00D07DE106AB994600239B46BE
:1033F00008F044F90600002D14D1606803685B6989
:1034000098470028F9DB4B46187001239C465B4621
:10341000E144002B15D101239B4608F02FF906004B
:10342000002DEAD0606803685B6998470028EADAF3
:1034300008F024F9801BA842F4D35B46002B00D18E
:1034400022E106AB1B789B4606AB5E785E44F6B283
:10345000002E00D046E15B46023BDBB206AA029397
:103460001370434500D94EE1237A01970493013349
:10347000DBB205930023994608F000F9B046060038
:10348000002D14D1606803685B6998470028F9DB58
:10349000019B1870013301934B46002B00D01CE1B7
:1034A0000123994608F0EAF80600002DEAD060688A
:1034B00003685B6998470028EADA08F0DFF8801BA8
:1034C000A842F4D34B464646002B00D1DCE03B78C3
:1034D000D52B00D006E17B78059A934200D001E11C
:1034E00000239846029B002B00D107E14346B046DB
:1034F0001E0008F0C3F8002D00D0CEE0606803681D
:103500005B6998470028F9DB039B9855029B0136BD
:10351000B342EEDC330046465BB2029A9A4200D0D8
:10352000B2E00322049B03982A3BDBB29846434255
:10353000D9B213405A46033A272A54D9002B00D156
:10354000D3E002784244D2B29046890700D4CFE05B
:1035500042784244D2B29046032B00D0CBE082782E
:103560004244D2B2904603220592029A0021D01A18
:10357000C0B282089146039A644E9346644A9B44C3
:103580009446424601922A0000234D46A0469146A9
:10359000049058468A0082581C0010005A40634626
:1035A0003040344000191A40030001315340CAB280
:1035B0009542EED8019A444690461A04120E9A1883
:1035C00019024244090E52181B0ED3180498DBB29C
:1035D000059A98460600032394469E4366444D464A
:1035E000F6B203420CD04246039B02989B1919780D
:1035F00001365218F6B2D2B20133B042F7D8904633
:103600000023994608F03AF856468246002D11D11B
:10361000606803685B6998470028F9DB4B463070A7
:103620000136002B15D10123994608F027F8824670
:10363000002DEDD0606803685B6998470028EDDADB
:1036400008F01CF85346C01AA842F3D34B46002B8F
:103650001AD03B787A7843441343DBB2002B41D134
:103660006B460820185E11E0606803685B69984744
:10367000002800DBA6E608F001F8801BA842F3D37F
:103680004B46002B00D0A6E60220404209B0F0BC19
:10369000BB46B246A946A046F0BD2B00B146050088
:1036A0001E00606803685B69984700280BDA07F022
:1036B000E5FF401BB042F4D34B4635004646002B95
:1036C000E2D05BB229E735004E46039B9855029B3A
:1036D0000136B34200DD0CE71CE73B784646D52BAC
:1036E00000D1F8E603204042D0E7002205923CE7F3
:1036F0000122059239E70222059236E7049B2A3B14
:10370000DBB298467CE704204042BFE77F7F7F7FA3
:1037100080808080024B4160036000230372704709
:103720000CD00008F0B51A4B85B01A68050000925D
:103730006A4600269B8802AF938007F09FFF040033
:10374000686803685B69984700280EDA07F096FFFF
:10375000001B0928F4D9002E17D0029A009B9A4228
:103760000CD00120404205B0F0BD01363870013761
:10377000062EE2D1029A009B9A42F2D16B469A89B8
:103780009B8800209A42ECD1ECE70220EAE7C04691
:10379000D4CB0008F0B557464546DE464E46E0B568
:1037A00085B09A460EAB05001B784068009303680D
:1037B0000F001B699046984703E0686803685B69DF
:1037C0009847686803681B6998470028F5D13B78DB
:1037D00068682B72036800211B689847686800219D
:1037E00003681B6898476868FF2103681B6898474F
:1037F000009B68685C1C44440368E4B221001B68B9
:103800009847686861420368C9B21B68984768684E
:10381000D42103681B6898476868424603683900EA
:103820005B6898474346002B00D1EBE003237C42C2
:10383000E2B21C404346013B272B00D8E8E0002CB5
:1038400000D1D5E03B782C3BDEB2920700D4C6E035
:103850007B78F318DEB2032C00D0CDE0BB78F318F0
:10386000DEB20323039343461B1BDBB29C469B083B
:10387000994669493C198B4661460022AC460023B3
:103880004D46B94627006548019602919100795846
:103890001E000C0059405B46064004403619194092
:1038A000330001324B40D1B28D42EFD8029A6546C7
:1038B00094461A04019E120E9A18B4181A02120E97
:1038C000A4181B0EE418624603234F46E4B21342C9
:1038D0000DD09A431300039A414694466344DBB2E9
:1038E000FA5C0133A418DBB2E4B29942F8D86868F4
:1038F000009E0368320051465B689847002E59D0FD
:1039000053465F420323FAB21F40731E272B00D891
:103910007AE0002F69D053461B78E418E4B292078E
:1039200060D553465B78E418E4B2032F67D1534661
:103930009B78E41803239B46E4B2009B374AD81BCC
:10394000C0B29446344A83089946904622005744B0
:103950003C0000214F460023914601906646604698
:103960008A00A258184016405A40434630181A4060
:10397000030001315340CAB29742EFD84C461A04B3
:10398000120E9A181902A218090E52181B0ED318FB
:10399000DCB20323019803420CD098430300514644
:1039A0005B440098DBB2CA5C0133A418DBB2E4B21A
:1039B0009842F8D8686861420368C9B21B689847A2
:1039C0006868002103681B6898472800FFF7AAFE73
:1039D00005B0F0BCBB46B246A946A046F0BD0123E7
:1039E000039340E701239B46A7E700239B46A4E7F8
:1039F0000023D426039336E70223039333E70223FD
:103A00009B469AE7D42472E7002351460098CAE700
:103A10000023D424414663E7808080807F7F7F7FBE
:103A20000166704710B50400006E03681B68984774
:103A3000206E03685B68984710BDC046F8B54746DE
:103A4000CE460500884680B500291CD0124A0024C5
:103A500000239146114E0DE04946300006F036F83D
:103A60000134102230003978E4B206F04DF9230019
:103A7000444509D2EF18EB5C0F2BEDD92021300023
:103A800006F054F8ECE7054E3000054906F054F80E
:103A9000C0BCB946B046F8BD1CD0000814110020C7
:103AA00070CD000870B50400022300222500C37702
:103AB000006E82B003681F3500929E6829000023C3
:103AC0000132B047002815D1206E4022036829003A
:103AD000DE68FA239B00B04700280BDB6A78E37F9F
:103AE00012021A43AB78E8781B041343000618430C
:103AF00000BA00E0002002B070BDC046142370B5CB
:103B0000C377114B04000384012222232500C254F1
:103B10000022006E82B003681F3500929E68290063
:103B200000230432B04700280CD1206E40220368E5
:103B30002900DC68FA239B00A047C317181AC00F9E
:103B400002B070BD0020FBE701140000322370B505
:103B500001220400C3772E3BFF3B03841E33FF3357
:103B6000C254250000220133C154006E82B00368A4
:103B70001F3500929E68290000230532B0470028B7
:103B80000CD1206E402203682900DC68FA239B00D8
:103B9000A047C317181AC00F02B070BD0020FBE782
:103BA000322370B50400C3770120114325000022A1
:103BB000123BE0540133E154206E82B003681F359C
:103BC00000929E68290000230332B04700280CD1E0
:103BD000206E402203682900DC68FA239B00A0477E
:103BE000C317181AC00F02B070BD0020FBE7C04613
:103BF000F0B54F464646D646C0B582B01F000AAB68
:103C00001B88150099460BAB1E784A230122C37707
:103C10002A3BC25400220133C154023B040098469F
:103C2000006EA044036800929B6841469A460332A6
:103C30000023D047002823D1206E4022036841464C
:103C4000DB689A464B46D047002819DBE37F012BFF
:103C500016D12333E25C242000233A70002A08D0D6
:103C6000E11825310A78EA54225C0133DBB29A422A
:103C7000F6D8002E02D02023E35CA373012000E0DD
:103C8000002002B0E0BCBA46B146A846F0BDC0462E
:103C9000F0B5CE46474680B583B01F000AAB1E780C
:103CA00008239946040015008846814406220B9992
:103CB000484608F00DF92A004146200008F008F9AE
:103CC00040230122E377203BE571E254731E9E41BD
:103CD000212320006036E65401334946E75423305F
:103CE000053208F0F5F8002D05D020002A0021004B
:103CF000293008F099F800212600206E0A35036863
:103D00001F360091EAB231009D680023A8470028C1
:103D100010D1206E402203683100DD68FA239B0039
:103D2000A847E07F43425841C0B203B0C0BCB94687
:103D3000B046F0BD0020F8E74023F0B50400C3779B
:103D4000144B15000384222300222600C154006E68
:103D500083B003681F3600929F683100002304324D
:103D6000B84700280AD1206E402203683100DF687E
:103D7000FA239B00B847E37F002B02D0002003B05A
:103D8000F0BD210010222800203108F0A1F8012008
:103D9000F5E7C046013000004023F0B50400C377CA
:103DA000144B15000384222300222600C154006E08
:103DB00083B003681F3600929F68310000230432ED
:103DC000B84700280AD1206E402203683100DF681E
:103DD000FA239B00B847E37F002B02D0002003B0FA
:103DE000F0BD210004222800203108F071F80120E4
:103DF000F5E7C04601300000F0B54F464646D646CE
:103E0000C0B582B01D000CAB1B88040099464A2344
:103E1000C3770223FF330384002322200F0A235495
:103E20000130275401302154252162542622A35405
:103E3000073A9046206EA044026800939768414676
:103E400008220A9EB847071E00D0B7E0206E16224F
:103E500003684146DB689A464B46D047002800DAA3
:103E6000AFE0E37F002B11D0012B00D0A3E01F3384
:103E7000E35CFD22A3732123E35C190012399C4605
:103E80000B001340114208D004277F42380002B0D3
:103E9000E0BCBA46B146A846F0BD22002900180091
:103EA0000F32083127008A42584119003337BD428A
:103EB0005941084331008046180008318A42584170
:103EC000BE425B41414603430B400621681C301A49
:103ED00081428941494219422CD017212B20884622
:103EE00081462B00A0444146A14448463343134336
:103EF0000B430C310B4303435B071BD10868496834
:103F00004B46286069601060516041461A685B68E2
:103F1000326073600A604B606346142B01D0012746
:103F2000B4E77B783A781B0213430B9A5BBA0127FC
:103F30001380ABE72323E35C2B70E3732B23E35C59
:103F40003370E3752423E35C6B7023742C23E35CF0
:103F5000737023762523E35CAB7063742D23E35CDD
:103F6000B37063762623E35CEB70A3742E23E35CCB
:103F7000F370A3762723E35C2B71E3742F23E35CB8
:103F80003371E3762823E35C6B7123753023E35CA4
:103F9000737123772923E35CAB7163753123E35C91
:103FA000B37163772A23E35CEB71A3753223E35C7F
:103FB000F371A377B0E703277F4267E701277F42CA
:103FC00064E702277F4261E7F0B5C64600B504000A
:103FD0001D0082B0FF2A40D040232026C377837B78
:103FE000270083552123501CE054206E1F3703689F
:103FF00000929B68032298460B003900C0470028B6
:1040000022D1206E402203683900DB689846C8231D
:10401000C04700281EDBE37F9B0618D1A15D089BEB
:1040200001390238C9B202B219708A4209D121009D
:104030002800213107F04CFF012002B080BCB846B7
:10404000F0BD05204042F8E702204042F5E7042099
:104050004042F2E703204042EFE701204042ECE714
:10406000F0B55746DE464E464546E0B587B002AF4E
:1040700082460D0091469B46FC6B102900D96AE2EE
:104080000C2B00D964E26A460533CB185B00013380
:10409000DBB298460733DB08DB00D31A9D460920C4
:1040A0000623514602AE0822337068440F3107F0F0
:1040B0000FFF7572002D00D13FE24B461B88B37293
:1040C0001B0AF372012D70D04B465B8833731B0AB9
:1040D0007373022D69D04B469B88B3731B0AF3732D
:1040E000032D62D04B46DB8833741B0A7374042D96
:1040F0005BD04B461B89B3741B0AF374052D54D057
:104100004B465B8933751B0A7375062D4DD04B46A4
:104110009B89B3751B0AF375072D46D04B46DB8987
:1041200033761B0A7376082D3FD04B461B8AB37635
:104130001B0AF376092D38D04B465B8A33771B0A6E
:1041400073770A2D31D04B469B8AB3771B0AF377DE
:104150000B2D2AD04B462022DB8AB3541B0A013296
:10416000B3540C2D21D04B461B8B0132B3541B0A88
:104170000132B3540D2D18D04B465B8B0132B35432
:104180001B0A0132B3540E2D0FD04B469B8B0132CC
:10419000B3541B0A0132B354102D06D14B46DB8BAE
:1041A0000132B3541B0A0132B3546D000A35EBB22D
:1041B00059465A1CD2B2F154002900D19CE0B96B87
:1041C0000888010AB154991CC9B270545946DA1CC6
:1041D000D2B2012900D18FE0B96B4988080AB054E6
:1041E0001A1DD2B2B1545A46581DC0B2022A00D18B
:1041F00082E0BA6B91880A0A32549A1DD2B2B15445
:104200005A46D81DC0B2032A76D0BA6B1900D58899
:1042100009312A0A32541A000832D2B2B5545A4629
:10422000C9B2042A68D0BA6B1089020A72541A0003
:104230000A32D2B21900B0545A460B31C9B2052A1B
:104240005AD0BA6B5089020A72541A000C32D2B298
:104250001900B0545A460D31C9B2062A4CD0BA6B77
:104260009089020A72541A000E32D2B21900B05468
:104270005A460F31C9B2072A3ED0BA6BD089020A1A
:1042800072541A001032D2B21900B0545A46113189
:10429000C9B2082A30D0BA6B108A020A72541A00C6
:1042A0001232D2B21900B0545A461331C9B2092A97
:1042B00022D0BA6B508A020A72541A001432D2B257
:1042C0001900B0545A461531C9B20A2A14D0BA6B33
:1042D000908A020A72541A001632D2B21900B054EF
:1042E0005A461731C9B20C2A06D1BA6B1833D28A92
:1042F000DBB2100A7054F2540C225B4694466946B5
:104300001B019C441333DB08DB00CB1A9D460F23B3
:104310006246FB1802AD7A609946009342462B0034
:1043200031005046FFF750FE012800D00DE14B460A
:104330007A681B78934200D004E16B7A002B00D09E
:10434000FDE0AA7A002A00D0F9E05B46002B00D1FC
:10435000C3E005ABA10700D0C7E0AB692969E36002
:104360005B466A69EE6861602660A260012B00D13D
:10437000B3E0AB6A296AE3615B466A6AEE69616130
:104380002661A261022B00D1A7E0AB6B296BE3622F
:104390005B466A6BEE6A61622662A262032B00D101
:1043A0009BE0AB6C296CE3635B466A6CEE6B61630C
:1043B0002663A263042B00D18FE0AB6D296DE3640B
:1043C0005B466A6DEE6C61642664A264052B00D1C5
:1043D00083E0AB6E296EE3655B466A6EEE6D6165E8
:1043E0002665A265062B78D0AB6F296FE3665B4626
:1043F0006A6FEE6E61662666A266072B6DD0802618
:104400008421AB59EA6F98466B5822679C468823F3
:104410004246EB586267E36762465B46A267082B39
:104420005BD09023EA5804339146EA58043390460F
:10443000EA580C3B9446EA58A2514A46625042461A
:10444000043162506246E2505A46092A45D0A02201
:104450001033EB58AE589C4692460432A958914608
:1044600004329046AA5890237A606246E2500433A0
:10447000E6507A680433E1500433E2505B460A2B7D
:104480002BD0B0216B58B8227B60B423EE583E602D
:10449000AE585246B446AC26AB59A3504A467B6848
:1044A000A35042463B68A3506346A3515B460C2B86
:1044B00013D11436AB5904369946AB590436984695
:1044C000AB590C3E9C464B46AD59103265500431F9
:1044D00063504346A3506346A351BD4605B0F0BCAC
:1044E000BB46B246A946A046F0BD5D4619780132EA
:1044F00021705978D2B261709978A170D978E17041
:1045000019792171597961719979A171D979E1711B
:10451000197A2172597A6172997AA172D97AE17203
:10452000197B2173597B6173997BA173D97B1033FC
:10453000E17310349542D9D1CFE70A2338E605203C
:104540004042CAE704204042C7E703204042C4E794
:1045500002204042C1E701204042BEE7802270B500
:104560000500044C04492000120107F0B1FC605D15
:1045700070BDC0467807002000F801080023002223
:1045800070B586B00193144B0292039301230493F8
:1045900000F0A2FA002801D006B070BD14220F4B23
:1045A00001A9DA6002A800F007FB002811D10A4C2B
:1045B0000B4D0C4E02E00834B4420AD00A4B2100E5
:1045C000E318EB1803201A685B6800F0A5F90028CF
:1045D000F1D000F095FADFE700F801080020024072
:1045E00078070020000002080008FEF710B5024B13
:1045F0001954FFF7C3FF10BD780700207047C0466D
:1046000070B50400FA200E4B80001978FBF760FDAE
:104610000C4D01002868FBF75BFD00F087F80028CF
:104620000CD10130032C00D970BD023800222100CA
:1046300000F02EF8044B00201C60F5E70120F3E7A2
:104640001600002058000020180000201021064A03
:1046500010B5136800200B431360FFF7D1FFFFF77D
:10466000CDFF002010BDC04600200240034A044B8D
:1046700011681B785B1813607047C046780F0020E4
:1046800016000020014B18687047C046780F0020C4
:1046900070B5002814DB154B03229C46FF238408C9
:1046A00002401800C026D200890190400B40934080
:1046B000A4006444B600A55985432B43A35170BDA3
:1046C0000B4A0F239446032203401040FC3215008E
:1046D000C000890185400A408240083B9B089B003E
:1046E0006344DC69AC432243DA61E8E700E100E0BF
:1046F00000ED00E0002805DB1F220123024093406B
:10470000014A13607047C04600E100E000280ADB60
:104710001F22012302409340802203498B50BFF3A4
:104720004F8FBFF36F8F704700E100E08022431E80
:104730005204012093420ED2C021074A0748536019
:10474000036A09061B021B0A0B43036200230020B5
:10475000936007331360704710E000E000ED00E065
:10476000002807DB1F22012302409340C022024998
:1047700052008B507047C04600E100E07047C046D1
:1047800010B5FFF7FBFF10BD7047C04610B5041E03
:104790002ED0437FDAB2002B2CD00223637723790B
:1047A000002B1ED118212368154A5A619A688A4342
:1047B0009A606279002A11D022691A6160219A6890
:1047C00000208A4361690A4380219A609A688A437B
:1047D000A1690A439A600123637710BD013A1A6107
:1047E000ECE72000E268A16800F00CF8002805D092
:1047F0000120F2E70277FFF7C7FFCEE72368D8E78B
:10480000B71DC10470B506000120CB0718D51F23C2
:104810000125013B15D30C00DC402542F9D0102ABC
:104820001BD015D8002A03D0082A0FD10F2B0DD882
:1048300030684161182183688B43134383600020F3
:1048400070BD102A02D001D8002AF1D00120F7E76C
:10485000182AFBD1062BEBD9F8E7072BE8D9F5E7A7
:1048600010B5041E09D00223037103F059FF002381
:10487000002023616371237110BD0120FCE7C04655
:10488000012230B515008D4004682368AB432360D6
:104890000271002030BDC046212230B5815C03008A
:1048A000022906D01D3A826301202022002199545A
:1048B00030BD0E2401680868A0430860012005008F
:1048C0000C6884430C601C6CD96BA5404D609854F7
:1048D0000020EAE7212370B5C25C022A03D01D3B09
:1048E0008363012070BD0E2402681168A14311602A
:1048F00001210D0014688C431460046CC26BA54048
:104900005560C15400222023C254436B002B00D0B9
:1049100098470020E6E7C046F0B5DE4657464E46CB
:104920004546E0B585B00193684B03929A461B7EDD
:1049300083468946012B00D1A4E001235246137619
:10494000FFF7A0FE01260400614D624F04E0FFF76F
:1049500099FE001BB84267D8EB681E42F7D12023AE
:10496000EA68134200D0EB60594AD368DB0600D5F1
:104970008AE0D36804221100194088461A4200D008
:1049800082E05B46012B00D19DE0023B5A1E934121
:104990005B0002330293202301259B464C4C434687
:1049A0001B011A00203A32D4019BD3400022514609
:1049B000CA6122699BB22A4322614A461380FFF7EB
:1049C00061FE444F060004E0FFF75CFE801BB84226
:1049D00027D8E3681D42F7D15A46E3681A4200D04F
:1049E000E260E368DB062AD4E3685B0727D4236927
:1049F000029AAB43236101239C460133E0449C4669
:104A00004346DBB2E1449A42C9D800200DE05A4641
:104A10000199D21A91400A000399D9400B0013431F
:104A2000C4E72369AB432361032000235246137676
:104A300005B0F0BCBB46B246A946A046F0BD102169
:104A40000A00234B0420DB681A40194207D0534662
:104A50000222DB69103013435246D36110221C4BF3
:104A6000DB685B0706D553460122DB6913435246D8
:104A7000D36102000121164B0120DA601A698A43D2
:104A80001A61D2E70220D3E710221100104B042054
:104A9000DB6819401A4207D05346DB690E3A1343CC
:104AA00052461021D3611030094BDB685B0706D5F5
:104AB00053460122DB69010013435246D361044B84
:104AC0000120D960B1E70123029364E7800F002041
:104AD0000020024050C30000064B00201A69120655
:104AE00006D5054A5A60054A5A6018690006C00F83
:104AF0007047C0460020024023016745AB89EFCDD7
:104B00008021034A002013690B4313617047C0469C
:104B100000200240F8B50400FFF7B4FD0600631C56
:104B200012D101222249CB681A42FCD12022204B0B
:104B3000D9680A4218D11E4AD368DB0619D4D36853
:104B400000205B0715D4F8BD194DEB68DB07EDD5E8
:104B50000127002C2AD0FFF795FD801BA04225D805
:104B6000EB681F42F7D1E1E7DA60114AD368DB0650
:104B7000E5D510210E4B0420DA680B0013401142DA
:104B800006D00C4A0E39D36910300B43D361102381
:104B9000074AD268520705D50121064AD3690B435B
:104BA000D3610300024A0120D360CCE70320CAE7A7
:104BB00000200240800F0020F0B546464F46D64602
:104BC000C0B52F4F06003B7E8846012B56D00123EF
:104BD0003B7603682B48012B33D0FFF79BFF00285F
:104BE00033D1012342465B421360B3687568DB0230
:104BF0005B199D4229D20023234C994609E080236A
:104C00001B019C46B3687268DB0265449B18AB428B
:104C10001CD902224B469246FB6123691948134373
:104C20002361656123693E3213432361FFF772FFFD
:104C300052462369934323610028E0D043461D6018
:104C400004E0FFF767FF002807D0012000233B7630
:104C5000E0BCBA46B146A846F0BD042540220A4C45
:104C6000F861236907482B432361236913432361B8
:104C7000FFF750FF2369AB432361E7E70220E7E733
:104C8000800F002050C3000000200240044B10B5EC
:104C90005A69104200D110BD586103F025FEFAE7B1
:104CA00000040140F0B5C64600B5040086B00028F7
:104CB00061D0324BC35CDAB2002B52D003222F4BAF
:104CC000E254206802F0FCFE616800292ED02923FE
:104CD0009C4602330022012728269846002065467C
:104CE00093009B18DB00E3185F5545469A55013247
:104CF000D2B258559863D86318648A42EFD3002221
:104D0000002093009B18DB00E3181D006A35FF3577
:104D10002870013D2A7081330132E870FF33D2B22E
:104D200010352860686018608A42EAD323006A461A
:104D30001033206862CB62C222CB22C2A268E36831
:104D4000616802F0C7FE24230022E2540B4B0132BB
:104D5000E254E369012B0AD0002006B080BCB846BB
:104D6000F0BDAA239B00C25406F07CF9A6E7200000
:104D700000F022FFF0E70120EFE7C046A9020000A3
:104D800070B5AA25AD00435D0400012B0BD00123B3
:104D90004355006802F08AFE206803F009FC0023F6
:104DA0000020635570BD0220FCE7C046F0B5DE462A
:104DB0004E4657464546E0B5040087B0006803F00C
:104DC00007FC802306001B021E4018422FD143051A
:104DD00000D587E143041DD4802305009B011D40BD
:104DE000184200D005E2C30400D58EE0030500D5CB
:104DF00039E38023034200D013E3830501D500F09B
:104E000026FCC0050CD544222168C3488B5A0340B8
:104E10008B5205E044222168C0488B5A03408B52D4
:104E200007B0F0BCBB46B246A946A046F0BD44233D
:104E30002068C35A1BB2002BF2DA44239946353B53
:104E40009A4671339B4610E00388D20600D4C7E02F
:104E50009AB21B0500D5F4E012B2002A00DA71E123
:104E60004B46C35A1BB2002BDADA4B465646514624
:104E7000C35A9AB21E401942E6D0B700C21913882D
:104E800099B21BB28846002B59DB5B46424613425F
:104E9000E6D0C1190A88A24BBD191A40A14BED00FA
:104EA0001A4392B20A802B226519AA5C012A00D10A
:104EB000A6E180214246434649000A4001920B4246
:104EC00000D0CAE15023C35A974A9C462823E95C84
:104ED0002F6CCB00C3186344944663441B889B0526
:104EE0009B0D9F4200D8A5E0EA6B0136D218EA6319
:104EF000B1006A6C8919FF1AC900D3182F646B645A
:104F0000611802F0EFFF2068AAE74023042022681E
:104F1000D15A8143D152D15A04308143D152B8235E
:104F20009B00E25C012A00D19CE3200006F01CF902
:104F3000442221687D488B5A03408B5270E71388C6
:104F40007B490B4080210B431380BA19D200A11872
:104F50000B007533FF331B78002B00D095E05033E6
:104F6000C25A0B006933FF331B78DB00C3189B1850
:104F7000704A944663441B889B059D0D002B01D10C
:104F8000002509E00B006F337D31FF33FF311A88B4
:104F900009682B0003F038FBB919C9006318180021
:104FA0008530FF3002680838521982600268521951
:104FB00002601A008132FF321268002A05D079336C
:104FC000FF331B68AB4200D8C3E1BB19DB00E31819
:104FD0006933FF332000197806F086F8206854E71B
:104FE0004F4A0021134080221202134303805023B2
:104FF000C25A283BE35CDB00C3189B184A4A2000D6
:10500000944663441B88E26B9B059B0D6364D31835
:10501000E36306F077F82423E25C002A0FD0226CC9
:10502000002A0CD18025E15C20682943343D41539E
:10503000E25415E7019B20002B6406F063F820681A
:105040000EE75023C25A1933FF33E35CAC21DB0077
:10505000C3189B18374A89009446220063441B8872
:1050600069329B059B0DFF32D3616118D28803F032
:10507000CBFA22682E49138820000B4080210B4375
:10508000138006F027F82068EAE60B006C33FF3344
:105090001B78022B00D111E20D006935FF352B780A
:1050A0009B00C3181A880193234B1A40234B1A43C1
:1050B000019B1A802B789A0082181288520400D41F
:1050C0004FE15022DB00825AC3189B18164A9446BF
:1050D00063441B889B059D0D002B00D150E70B00FE
:1050E000713351E74422AA25216815488B5AAD0037
:1050F00003408B52200006F019F8635D012B00D1AC
:105100008EE6012363552333E6540021206803F023
:1051100047FA665584E6C046FFFEFFFFFFBFFFFF6C
:105120000F8FFFFF0080FFFF02040000FFEFFFFF73
:105130008F0F0000060400008F8FFFFFC08000006B
:10514000FFFBFFFF0388D14A250013408022134351
:1051500003805023C25A1933FF33E35C6935DB0007
:10516000C3189B18CA4AFF35944663441B889B05A5
:105170009B0DEB610ED0696900290BD0EA8803F022
:1051800043FA6B69EA6920009B1800216B6105F006
:10519000ABFF206803889AB21B0500D560E6C023E8
:1051A0009B011A409A4200D15AE65023C25AB84B8A
:1051B000C3189B181A889205920D1A802A693E2AF4
:1051C00000D8CBE11F2551092A4055426A41891A6E
:1051D0001A8889021143AF4A0A4392B21A800288A0
:1051E000AD4B1A40C0239B015340AC4A134303808C
:1051F00036E644222168AA488B5A03408B520FE6B8
:10520000002229002A643431097800291ED0402167
:10521000464643460E40194200D0F6E02922AA5CD9
:10522000002A00D033E25032815A283AAA5C984BC7
:10523000D2009C466244121852181188954B890579
:10524000890D118011880B439BB213802823200005
:10525000E95C05F057FF206802E6402142460A401B
:105260000192194200D18DE0502318390593C25A9A
:105270006B5C8C4901938C46DB00844461469C4600
:105280006244525A03939205930D2A6C049102933F
:105290009A4200D870E1D21A43462A645B0408D5CA
:1052A000019B990041180A887F4B13407F4A1343A2
:1052B0000B80BB19DB00E3181A004C32117801296E
:1052C00000D094E0D96B8C4602998846E044414670
:1052D000D963596C019102998C46019961445964D2
:1052E000996C8C46996B8C4500D2BBE26246521A8F
:1052F0009A648BB202932923EB5C002B00D0A3E2CB
:10530000049A50339446C35A039A634494466344C0
:105310001A889205920D1A803E2900D8CDE24A09DA
:1053200001921F2211400A0051425141019A521A22
:10533000198892021143574A0A4392B21A80BB1944
:10534000DB00E3181A8E4146029B03F045F9206802
:105350004DE06931FF312068611802F0C3FD20681B
:1053600093E55022DB00825AC3189B18484A9446A2
:1053700063441B889B059D0D002B00D100E60B00AC
:10538000733301E6282150236A5CC35A0392D2008A
:1053900002923F4A94468444624611000592029A62
:1053A000944663445B5A2A6C9B059B0D04939A4276
:1053B00000D21CE1D21A2A6400D11AE142465204FA
:1053C0000AD4039B990041180A8894466346364ADA
:1053D0001A40364B1A430A804C218C46BA19D20027
:1053E000A218944461460978012900D1DAE1282302
:1053F000EB5C2F4A9B00C3181988114030225140A2
:105400002C4A0A4392B21A802AE51739695C0029AE
:1054100000D02DE15032815A283AAA5C214BD200AB
:1054200007E744202268115A9943B82311529B0080
:10543000E15C002900D09AE004254031505A28430D
:105440005052505A0435284350523F39E1545423A6
:10545000D25A183B92081340B92292002000A35060
:1054600000F0BEFBDCE4402208202368124D995A6C
:10547000014399523C30195A29401952995A4038DF
:1054800001439952200005F05DFEC9E48F0F000032
:10549000060400000080FFFF8FBFFFFF8080000038
:1054A000FFDFFFFF020400008F8FFFFF80C00000BE
:1054B000BF8FFFFF8080FFFFFFF7FFFF8023424683
:1054C000DB011A40019242461A4200D1EEE050231D
:1054D000C55A0B006933FF331A78D300C3185B1920
:1054E000D04DAC46C0256D006344AC468C4461464B
:1054F0001B8809689B059B0D1D000193994200D2F2
:1055000049E1C91A634619600CD1910041180B8812
:105510000291C549194080239B015940C34B19434F
:10552000029B19804346590607D5920082181188BC
:10553000BF4B1940BF4B19431180019B002B00D179
:105540002AE5B919C90061180A0071327D31FF32AC
:10555000FF311288096803F057F81DE5002A00D0D2
:10556000E5E080211A8809020A431A8037E6200004
:1055700005F0E8FDFFF754FC002629222E64AA5C02
:10558000002A00D0DDE0049B059F9C46C25B039B84
:1055900062449C4662441688A749B605B60D16803B
:1055A00016880E43B6B21680A44AC65B944663447E
:1055B0001A180B00921910888005800D1080108831
:1055C00003439BB213802000019905F09BFD4346E5
:1055D00020685B0400D40AE72823EB5C94499B0015
:1055E000C3181A880A4096490A431A80FFE6019BAD
:1055F0002B642923EB5C002B00D0B6E00299894E86
:105600005027B4460B00C25B6344C3189B181A882A
:105610009205920D1A801E88874A1643B6B21E80E4
:10562000059EC35BB44663448C466344188880057A
:10563000800D18801888024392B21A8020000399C6
:1056400005F060FD434620685B04C5D5CFE64422E3
:1056500021687C488B5A03408B52200005F05EFD88
:10566000FFF7DEFB00212000E55400F0B9FA5CE40E
:10567000012900D0EAE550236A4EC15AB446283BBE
:10568000EB5CDB006344C3185B181A80DEE5012A7B
:1056900000D0DBE550236949C25A8C46283BEB5CBD
:1056A000DB0063441B189B181E80CFE55023C25AB1
:1056B0000B006933FF331B780293DB00C3189B1880
:1056C0005E4A94460A0063441B888132FF329B0580
:1056D00011689B0D1D00994261D3C91A11600ED14A
:1056E000029A920094468444624611884E4A0A40C7
:1056F000802189014A404D490A4361460A80424659
:1057000052060AD4029A9200821811880192484ADD
:105710001140484A1143019A1180002B01D1FFF733
:105720003BFCB919C90061180A0073320EE7012564
:1057300051082A4089181A8889020A4392B21A80AD
:105740004DE5012A00D03EE78C46059F0399C35BD7
:1057500063448C4663441E800B003849C25B8C4610
:1057600063441B189B181E802DE7012B00D065E7B2
:10577000029F2C4950268C463B00825B6344C31831
:105780009B18002205991A808C46835B6344BC46B3
:1057900063441A8052E7002163461960B5E6019917
:1057A00011609DE7D16B049BCB180193D363049BDD
:1057B000516C98464144936C5164916B98468B426E
:1057C00063D35B1A93648BB204932922AA5C002AE8
:1057D0004ED1059B50329C46825A029B62449C46A5
:1057E000624413889B059B0D13803E296DD94B099C
:1057F0009C461F2319400B005942594163465B1ACE
:1058000011889B020B430C49194389B21180BA19C4
:10581000D200A218528E049B019902F0DDFE20688E
:10582000E5E5C046020400008FBFFFFF8080000056
:105830008F8FFFFFC08000000080FFFF0604000084
:1058400080C00000FFFDFFFF012B00D077E5049A28
:105850004F339446C35A039A63449446029A63446E
:105860001A806CE56146002916D11170029942E553
:10587000012ACCD1059B4F329C46825A029B62443E
:105880009C46049B62441380C1E7002B0CD1634605
:10589000424604991A7098E7002111709964634692
:1058A0009BB26146029326E500239364624613701F
:1058B00043469BB24146049387E700290DD18021DE
:1058C0001A8809020A431A8039E5002913D1802376
:1058D00011881B021943118099E74A08019201229D
:1058E0001140019A94468C446246198892020A43F8
:1058F00092B21A8023E54B089C46012319408C4440
:10590000634611889B02194389B211807FE7C04624
:1059100070B5AA25AD00435D0400012B0AD0012318
:1059200043552333C154006802F03AFE002300209F
:10593000635570BD0220FCE770B50726050048B22C
:105940000E40002820DBB400A419E4002100002050
:105950002C1969316A34FF31FF34691820700E70D8
:105960000A61CB70022B01D100230B71AA24A40081
:105970002B5D012B10D001232B55286802F0BAF8BB
:10598000002300202B5570BD711C88004018C000FA
:10599000291801204870E2E70220F4E74AB270B506
:1059A0000B000400002A1CDB072213409A00D218C7
:1059B000D20011006931FF3141188218AA25002058
:1059C0006A32FF321070AD000B70635D012B17D08F
:1059D00001236355206802F0F1F90023002063558C
:1059E00070BD072213405A1C91008918AA25012274
:1059F000C90041184A700B70AD00635D012BE7D1FF
:105A00000220EDE770B5072421408C006418E40003
:105A100005192E007D36FF3632602A008132FF32B2
:105A200013600023693569345360FF35173AFF343A
:105A3000137029700119006802F054FA002070BD3B
:105A400007230B409900C918C90040188530FF3062
:105A50000068704770B5072421408C006418E4008A
:105A600004192500E26301224C3523642A70A364E3
:105A7000002363642933E254013BE15401318B007C
:105A80005918C9004118006802F02CFA002070BDB6
:105A90000723426870B50B40040093422FD84AB2E6
:105AA000002A1BDB8A005218D20011006931FF3135
:105AB0004118821800206A32FF321070AA25012294
:105AC0000B708A70AD00635D012B16D062552068A3
:105AD00002F0FCFC00230020635570BD5A1C9100AD
